:100000000100000000000000000400000094511AEC
:100010001CF09FE51CF09FE51CF09FE51CF09FE5A0
:100020001CF09FE51CF09FE51CF09FE51CF09FE590
:100030000C440F0148280400E4270400F4270400BE
:10004000F8270400082804001828040028280400C1
:1000500034280400000000EAD7EA00EA28008FE212
:10006000000C90E800A08AE000B08BE001704AE24A
:100070000B005AE1D0EA000A0F00BAE814E04FE2A0
:10008000010013E303F0471013FF2FE1643604006F
:10009000B43604000030A0E30040A0E30050A0E329
:1000A0000060A0E3102052E27800A128FCFFFF8A44
:1000B000822EB0E13000A128003081451EFF2FE1E3
:1000C00004309FE503308FE013FF2FE119AF0300E9
:1000D000002070470200144810B50068682109F339
:1000E0006AF910BD10B5104C206800280CD101F041
:1000F0005BFB20600D4A2021A06009F35CF90C4AEB
:100100006068202109F357F910BD10B5064C20682E
:10011000002808D00022132109F34DF9206809F3C3
:100120002EF90020206010BD00000004E9B003009B
:1001300025B1030010B542F0CEEB05F33FF90020E6
:1001400010BD10B5EF480C00FFF7C4FFEE49486B37
:1001500002229043486321000A2042F02EEC012045
:1001600010BD70B50D0003F0BBFD0400E548401C58
:10017000FFF7B0FFE549E0074C6002D029000520F9
:1001800015E0A00702D52900062010E0600702D57F
:10019000290007200BE0200702D52900082006E0EF
:1001A000E00602D52900092001E02900002042F0E4
:1001B00004EC012070BDF1B50020D5490E68D54F83
:1001C000340005000AE0E10706D0A9007A58002AA9
:1001D00002D000993000904764086D1C002CF2D1C9
:1001E000012807D0C7481938FFF774FF009900208D
:1001F00042F0E2EBF8BDC54910B5886005F00BFA96
:1002000010BD202800D3FEE7C24A80001358002BFF
:1002100000D0FEE7115000207047BE4A0021800048
:1002200011500800704702688368C16810001847C1
:1002300070B5052804D2B84D84002B59002B01D08D
:10024000012070BD2C23B44E4343DC3E9B192B513F
:1002500035000401F03528516019C2608160002129
:100260004160AE4919615861002070BDFEB50E00B5
:100270001700052815D2A8490201143155186968DC
:10028000A54B840000290DD101220197009602920E
:1002900018594369026906F373FC002801D1012053
:1002A0006860FEBD18591D0006F3A6FC28593A00E7
:1002B000310006F353FC285906F340FCFEBD934978
:1002C00070B50878401C0006000E08700121490432
:1002D0004018FFF7FFFE8C4D6C6AE00705D003F372
:1002E0006CE909F3BBF8A81768628D4EA00709D521
:1002F0002020F0600221C9436962B1680143B16006
:1003000009F3A4F8600705D5A86A04218843A86208
:1003100009F3C5FB20070AD5A86A08218843A8620B
:100320008020F060C9436962B1680143B160012077
:1003300070BD70B501247A4D8440EC6000203CF023
:100340007EFAA8682043A860012070BD0121744A8C
:10035000814010B5D1600D3800D5FEE7022800DBE2
:10036000FEE7704C00238000041923606D4C40347C
:1003700000190362906808439060012010BD70B5B9
:100380000125674E8540F56003F082FC04004005BE
:1003900032D509F0DEF8402802D103201BF04AFFD5
:1003A00002F08DFC002815D002F041FB002809D096
:1003B00029201BF03FFF012120008902084003F0A3
:1003C00072FC19E002F0B8FB002815D032201BF0B7
:1003D00031FF11E00AF0BEF900280DD010F018FF2F
:1003E000002809D019F0C7FF002805D019F059FDE1
:1003F000002801D110F050FF600708D504F0F8FB89
:1004000020000421084003F04EFC04F0DCE8D12178
:1004100001000000FC030000000400005AEF5E131E
:1004200036FC200003F04EFCB0682843B060012089
:1004300070BDF8B5414DEC68E00702D0A817E86040
:100440000440200606D58020C043E8608020844315
:1004500003F047FC200407D50126F603300003F023
:1004600040FCF043E860B4436003400F06D007202F
:10047000000421000140C943E96084430B262000A9
:1004800036053040070005D0380002F019FAF8436D
:10049000E860B443E000400F09D00727BF062600FC
:1004A0003E40300002F09EF9F043E860BC43E006B5
:1004B0000FD51020C043E8601020844303F040FDB6
:1004C000002806D010F012F8002802D0102002F008
:1004D00087F8002C06DA0120C00702F09EF91848C0
:1004E000E860044081200003044205D0200002F0AF
:1004F00035F8200005F01CFD0E4988680122120520
:1005000010438860F8BD0B4B0122120510B5DA606C
:10051000FFF78FFF012010BD5A000100003400805A
:1005200014000004003100803CC400045C2C000472
:10053000170200000030008040E800808022008028
:10054000FFFFFF7F30B5040020202081656920185F
:10055000AD7905706469E47944700171090A4171EB
:10056000110A8271C171190A8370C17030BDFFB563
:1005700081B0002206000D000398417800780F0238
:1005800007432037380034300104FD48090C1BF3C1
:1005900031F8040037D038001430A0802020666184
:1005A00020812018142100901AF362EB3B04049A76
:1005B0001B0C14212000FFF7C5FF002D12D0288945
:1005C0002E0028811C360B20072130567156401A08
:1005D0003DF071FE00990873072030563DF05EFE35
:1005E0000099487334202081039920183A001AF3A7
:1005F0007AEA002120003AF050FE207B202805D125
:1006000020003AF027FE002005B0F0BD2020208118
:100610003EF001FE002802D005201BF015FE3AF046
:10062000DDFDD94B0500D74821001C680022006879
:100630000523A04728003AF0D5FD0120E4E7FFB5E7
:100640000120904004060E0083B003991120240E6F
:1006500040010F18F879150020422FD1FF22913266
:10066000462301A902A811F030FB002826D0F87912
:1006700017212043F871019C103420001AF3F8EA86
:100680000698002801D1052000E00D206072257237
:100690002000627A0C990A301AF324EA310006220B
:1006A0000C31A01C1AF31EEA607A01990A30887294
:1006B000000AC8720299039811F0D2FA07B0F0BD8F
:1006C000F3B5FF30401C0500006A81B0002803D05C
:1006D00009F38DFA00202862686A401C01D10120CC
:1006E000FEBDA84F00241FE0A8481AF3ECFF060047
:1006F00002D03868002801D10020FEBD02980028F1
:100700000ED13EF088FD002802D005201BF09CFD94
:100710009D4B31001E68002238680523B04702E077
:1007200030003AF097FD641C686AA042DCD80020D3
:100730006862D4E795490020086048608860C86016
:1007400008612C3948627047F8B504000E00904DDE
:100750003AF044FD070021002800FFF7B1FF8B4C61
:100760000C3C012E06D1FF21213128001AF356EA54
:100770000020A0720020C043208138003AF032FDF2
:10078000FFF7D8FFF8BD81482C38406A002801D017
:10079000401C01D10020704701207047F3B583B0A1
:1007A00000210500049EFF30B61D2130009101910B
:1007B000029049E06A7801202C1D0021012A0FD007
:1007C000022A12D0032A13D13388724A93420FD1DE
:1007D000738893420CD1B388934209D1012107E079
:1007E0003178C907C917491C02E03178C907C90F18
:1007F000002900D10020002717E060880499627862
:100800000818211D3AF015F901002078802803D13D
:100810000120002907D005E0812803D17B73C06D3A
:1008200001000000F80700000004000009358D7F7A
:10083000002901D0012000E0002008347F1C01289D
:1008400004D12878B842E2DC0120009001982435D8
:10085000401C01900098002804D102980199807AE8
:100860008842B1DC0098D9E60800FF310022491C1B
:100870000A6211002EE770B501253BF06CFD0028DF
:100880000CD0474C2C3C606A401C07D045480121E5
:10089000FFF720FF05000020C0436062280070BD04
:1008A00010B53BF058FD002805D13D482C38416A71
:1008B000491C00D1416210BDF8B505000C000027AD
:1008C0003AF096FC0090E168A06800232E005940A1
:1008D000584008433BD0A088A779344BC119403910
:1008E0002A1A8C460100D21840315B009A4205D981
:1008F0009A1CA84201D2AE1A00E0AE18664524DD6B
:100900008E4222DAB0420FDD801B0604360CE1680D
:10091000A068320019F3BAEEE160B919A1710121A2
:100920000843A580A06018E0301A0204120C974218
:1009300000D2A2710021012019F3A8EEA268E36899
:1009400010431943E160A06007E011F0BCFA0020F9
:10095000A5800121A071A160E06000983AF04CFCF4
:10096000F8BDFFB59FB00600080037680021179159
:1009700021997C6900291ED060301E901AF3FEE98F
:10098000229905004118C0782031400610D4B8885B
:1009900023B0F0BD881900040400000434030004EF
:1009A000E8C50004BCC40004FFFF0000FF0700000E
:1009B0002888882801D80020EAE719AA189100920F
:1009C000219918981AAA17AB0DF3F4F828000DF323
:1009D00018F9002853D0FD48002104AA01AB07C331
:1009E00018ABFB4A00921D7910AB1A7F38002B0020
:1009F0001AA90CF332F905002DD11120400120185D
:100A0000C179090624D5002C0CD00D21890161186B
:100A1000896B002906D018AB1A79920068328B587E
:100A20005B1C8B50C1794906490EC1711E981AF39F
:100A3000A6E918AB1D7921992A01521B52180E32D2
:100A40000092010010AB1B7F2A002000FFF701FE7F
:100A500000203060AFE7356028891E9940191AF3ED
:100A60009EE90088A88011204001201818AB1B794E
:100A700001263200C1799A409143C1711DE010AB4B
:100A8000197F009101952A8818991898843A091DB0
:100A90001AAB10F368F806001CD0112018AB1A79B5
:100AA000400120180123C17993409943C1712888DE
:100AB00008382880B8880838B880002C08D00D2065
:100AC00080012018806B002802D0416E491C4166CD
:100AD00030005DE7002C14D00D2080012018816BC0
:100AE00000290ED018AB1A79920068328B585B1C23
:100AF0008B50816B0A69521C0A61806BC168491C6A
:100B0000C1601E981AF33AE9010018AB1879219ACE
:100B100003011B1A9A180E320092020010AB1B7FC1
:100B20002000FFF796FDD3E700280CD00D218901A6
:100B30004118886B002806D00269521C0261886B3C
:100B4000C16C491CC1647047F0B5012A069D059C23
:100B500013D0022A15D0042A2DD14A780E78120219
:100B600092194E790F793602F619CF7812043602AF
:100B7000120CF6198978360212E00A788E78120281
:100B800002E04A780E7812029219CE798F793602F5
:100B9000F6194F79120436020979120CF619360249
:100BA000711826688E4202D11F88974203D2771CA3
:100BB00003D08E4201D90120EBE6002801D01A8033
:100BC00021602A80079801600020E2E6FFB583B02B
:100BD00004001E000C9F0E9D3FF0ECF9002820D071
:100BE000607902281DD0082E1BD3082F01D30120C5
:100BF0006EE538001BF3BCF9030080001D250019C9
:100C00006D01119A109940196D4607C558003B2196
:100C10000019090143180D9A05990498FFF794FFEC
:100C200056E50FA807C86C462B0007C42A425B5B39
:100C300001000000F40B000000040000FD5AF8CB96
:100C4000F3E7F7B592B014000F00129800680D900A
:100C500000200A900D9845690800603011901AF341
:100C600098E8060020300990280020F005FD2100BA
:100C70002C311091091D403700280F9122D0109877
:100C800007AA08A903AB07C36B46E0790F9A0107CF
:100C9000387E090F4007400F07C30021B078099A3A
:100CA00003092800FFF79CFF00280BD0002D08D077
:100CB0000D2080012818806B0028F8D0016D491C98
:100CC00001658AE030888828FBD922004C328838B8
:100CD0000304111F081F0692021F0591049003923E
:100CE0000C3938381C3A029101900092387E1B0C66
:100CF00047077F0F1A00099930003B000FF355FE9C
:100D0000070030000CF387FF00283ED00AA90091AD
:100D100000200BAA01920A900D9B099A310038001D
:100D20000CF359FE002858D02F4A00922F4A2C4B22
:100D30000D9831001AF374FD002802D11299086051
:100D40004BE01299060008600189081811991AF3FE
:100D500030E80E900A98002852D00BAA0092099908
:100D60000E98230032000CF365FE070048D1002DD9
:100D700008D00D2080012818806B002802D001685F
:100D8000491C01600E98807922E0002F30D038078E
:100D9000800F0FD0002D20D00D2080012918886BE6
:100DA00000281AD0C26C521CC264886B0169491CAD
:100DB000016112E0B80710D5002D08D00D20800188
:100DC0002818806B002802D00168491C0160B079A6
:100DD000C107C90F280041F05AEE002015B0E2E526
:100DE00060FC02C0ECB701C0E0B701C0E8B701C0C9
:100DF0003088143830800D980D9980881438888098
:100E0000079C6B461A8C10990F9823000CF32DFE4B
:100E1000002F0AD1002D08D00D2080012818806BEA
:100E2000002802D0416E491C41660120D6E7F7B583
:100E300082B014000025029807680398019760307B
:100E400019F3A6EF0600C0787F69400605D4203765
:100E5000B87D400731D401252FE0002C01D10020BE
:100E60000BE5A07AC00721D0E0790007000F012828
:100E700005D10399220001A8FFF7E3FE05E00399DD
:100E80002200002301A8FFF776FD029905000198D2
:100E90000860B079C00710D1002D0ED0A07980076E
:100EA0000BD5210038003BF094FA06E00D208001BC
:100EB0003818806B8168491C81602800DDE40000DF
:100EC00070B50500008944193EF0B9F900280AD030
:100ED000607B217B000208430B2804D00A2802D043
:100EE00005201BF0C5F9FD4BFB481C6800222900BA
:100EF00000680223A04770BDF94801000839486026
:100F0000F84801214170002101707047F449002028
:100F100008394860F34948700870704710B5F14CC3
:100F20006078002807D001202070A06D002802D032
:100F30000EF308F9606510BD70B53AF063F905006D
:100F4000E9481AF3D4FB040028003AF05FF90225BF
:100F50000DE020002573FFF7B3FF3AF053F90600C8
:100F6000E1481AF3C4FB040030003AF04FF9002CBA
:100F7000EFD170BD70B53AF045F9DA4C05006078F4
:100F8000002809D0D64904200856411C04D0811CF1
:100F900002D0012107F314FCD4480078012802D1C3
:100FA00014201BF049F90020207204200AF008FBED
:100FB000CF48002200680C2108F31BFAFFF7BCFFA2
:100FC00028003AF023F970BD10B5FFF7D3FFC549EB
:100FD0000020087048704865C649086010BDC148C7
:100FE000017A032901D0032101727047FF2800D044
:100FF00008407047C04910B5096839F0F4ED7D220A
:10100000D20019F39CEF8905800A084301D041F012
:101010007AEC10BDF8B50024160005000F00220080
:10102000002901D03889C2193BF094F9002879D001
:10103000AC49087A032876D00228FCD0011DB644BA
:1010400001000000F00F000000040000AE802BA79C
:10105000680726D5002F24D0507B117B04020C4357
:101060000B2C08D010DC032C0BD0082C09D0092C39
:1010700007D00A2C13D1A648A6490088097808434E
:101080000BD0FF25052615E0102CFAD0122CF8D035
:101090004F2C04D1FF2507260CE0042085430426AD
:1010A00008E0062E06D193480838406819F37AEE16
:1010B000C0056CD48F480838406819F374EE0100FD
:1010C0002800FFF79DFF002861D08B484030818BBE
:1010D000002900D18683904D002C1CD02888002840
:1010E0000FD0844904200856401C0AD10800083853
:1010F00040684079FFF788FFFFF770FF00202880E5
:101100005CE03AF089F804007C4839001AF351FB9E
:1011100020003AF085F8774F0426083F7868865714
:101120003BF022F9002813D0734C606D00280FD0DB
:10113000A06D00280CD004E03AE02AE0774803F0E4
:101140007DFE0EF309F8616D401AA16D8842F5D35A
:10115000694802210172701C05D0B01C03D0002127
:10116000300007F337FB78684079FF2829D0FFF774
:101170004BFF2888002824D03BF0F6F8002804D044
:10118000FFF72CFF002028801BE0288819E00020B2
:10119000F8BD680715D5002F13D03AF03DF80400CC
:1011A000564839001AF305FB20003AF039F808E0F8
:1011B000680706D5002F04D0FFF7C8FE3800FFF7F8
:1011C00089FE0120F8BD4C48602110B519F344EDAB
:1011D00010BDF8B500200C00474F1500B882B86567
:1011E0001DE06078217800020843FF38163819D0D6
:1011F000A1280AD12000062D07DB417902790802D7
:101200007D231043DB005843B865E178A2780802DB
:101210001043291A091F0D042D14241D0419042D2F
:10122000DFDCF8BDE178A27809021143CE08200086
:10123000F2009142E9D1121D11040914A942E4DC23
:101240000821082E00D23100CA00011D2A4814309E
:1012500019F366EC06E0F000C019002114300A0012
:1012600006C0761C082EF6DBCFE7FFB58BB00A2050
:1012700000261D000A9605900B98370040690790DC
:101280003EF096FD06900B980B990089441820318A
:101290004118E078C00701D1A01D01E02000123004
:1012A000A27894461207930F012B04D160460009DF
:1012B00008286CD03AE0920F02D14026092034E091
:1012C0000388174A934209D14388934206D1838801
:1012D000934203D101263700300026E00078C00792
:1012E00020D00826032702201FE00000040000048D
:1012F00034030004A0000004D42C000400380004CF
:10130000680500040000000414070004A0B701C031
:101310005C3C00048C060004900600048813000066
:10132000FFFF00000226370003202880A078000776
:10133000800F022873D10D9A002010700B98891D20
:101340000A9140690290002823D0614808900A98C9
:10135000022208A939F08BFB00281AD102983BF031
:1013600037F8002803D002988068400704D4029818
:1013700007F000F8002803D00D98012101708EE0DD
:101380005448406819F30EEDC005F8D406202880B3
:1013900088E007984079022841D10C98002827D08E
:1013A0000C9840300500007D8006400F012809D9C7
:1013B000032805D80C98183019F3F4EC000701D570
:1013C000012200E00022A17800200B079B0F022BD6
:1013D00003D10909090700D50120024308D0287E5E
:1013E0003D4A41072000490F0C301AF301FB0590DC
:1013F00004A903AA009101920698112149014018FD
:101400000378059A079821003AF0AFF8039800286E
:1014100002D00D9901200870049800283FD02D4873
:10142000406819F3C0EC304239D0A0780007800F33
:10143000022837D1294EB08A002833D0C120C000FD
:101440000025099026E0B84202D0254981B57F7277
:1014500001000000EC1300000004000011450E1410
:1014600088421ED1E08A2349884207D021000A9889
:101470001631022239F005FB002812D1A069401C68
:101480001AD00A98022209A939F0FBFA002808D1DB
:101490000A9821001A301831042239F0F2FA002893
:1014A0000AD06D1C082D04DAE8008419A08A0028EF
:1014B000D3D100200FB0F0BD0120FBE70A4800782F
:1014C000C00700D00120704700B53AF062FF002845
:1014D00005D0FFF7F3FF002801D0012000BD002058
:1014E00000BD0000888E00009800000474CB00044A
:1014F000D42C0004FFFF0000F3B591B00C0011984C
:10150000002837D0207D0E2834D214264643BB4D08
:101510004021A859401CA85101A819F3A8EB2000AC
:1015200001A91CF0C1FB677D607E0090206801214D
:101530008068800000281FDB0098401C020620699C
:10154000120E002800D0002111981DF038FD2069EE
:1015500001A9002824D10E2F05D214207843401968
:101560004268521C4260009800280BD170198168B3
:10157000491C816013B0F0BD2069002800D0002113
:101580000022E1E700200206120E142353438A5C76
:101590005B199C68401CA2180E289A60F3D3E9E7F7
:1015A000E07D002804D070190269521C026103E03A
:1015B0007019C268521CC26000200206120E142369
:1015C00053438A5C5B199C68401CA2180E289A60E1
:1015D000F3D3CFE710B5FF2419348849220019F35B
:1015E00014EB8648210019F342EB10BD70B50D00D5
:1015F000002805D00D2189014018846B002C06D1EC
:10160000002D03D04C21280019F35AEB70BD7C4A01
:10161000D1687C4843685918794B4160403B21624E
:10162000596B8668711881606162196BC3685918BB
:10163000C160A1621168026951180161002DA163A6
:10164000E4D0A06C290019F3C8EB6069291D19F3D7
:10165000C4EB2900A069083119F3BEEB2900E06949
:101660000C3119F3BAEB2900206A103119F3B4EBED
:101670002900606A143119F3B0EB2900A06A18310F
:1016800019F3AAEB2900E06A1C3119F3A6EB290033
:10169000206B203119F3A0EB2900606B243119F382
:1016A0009CEB2900A06B283119F396EB2900E06B25
:1016B0002C3119F392EB2900A06E343119F38CEB25
:1016C0002900E06E383119F388EB2900206F3C3196
:1016D00019F382EB2900606F403119F37EEB1DF0A6
:1016E00096F92900443119F378EB1DF08DF92900A2
:1016F000483119F372EB70BDF0B400283BD00D22D5
:1017000092018218926B002A35D03E4C23685B1CF4
:1017100023609B062FD14C7ED36A1B19D3620B69C1
:10172000002B23D10D682B6FDE78F60707D09E784B
:101730003607B60F022E02D19E7CF60702D19B79A6
:10174000DB0702D0936C5B1C9364D36B5B1CD3638D
:10175000AB689B000DD4002C0BD093695B1C012C53
:10176000936106D9D3695B1CD36102E053695B1CAA
:101770005361F0BCC0E6F0BC7047002808D00D22D1
:1017800092018018806B002802D082695118816113
:101790007047002810B51AD00D239B01C318986B11
:1017A000002806D04469641C4461986BC36B5B1CC1
:1017B000C3630E290BD214204843104B1958491CFF
:1017C000002A195003D0C0180169491C016110BDDD
:1017D000002809D00D2189014018806B002803D012
:1017E00080300188491C01807047FF21034819316E
:1017F00010B519F33CEA002010BD0000FCC5000440
:1018000040A80080A8000004C0207047010002A08A
:1018100010B507F3B6FD10BD7364696F00000000DA
:10182000F7B5150006000024002A1FD1002E14D0A1
:101830007079022811D002E0012003F07BFF200024
:10184000641C022807D20022F848110019F3FAFE9E
:101850000500F1D00AE0002D08D10022650D9DA3FE
:1018600001000000E817000000040000429FDD783E
:10187000F448110003233DF0B4FD050000D1FEBD86
:101880006E61FFF7CBFF0004000C28810827441984
:10189000122120002F7319F31EEA300022F04FFFAF
:1018A000207314202071002060717079022803D108
:1018B000DF20A071002001E0380AA771E071B07943
:1018C0002070F07960700198143404602800FEBD27
:1018D00010B504000321363019F3FCE920001C2167
:1018E000393019F3F8E92034A07E01210843A076AD
:1018F00010BD70B50400FFF7EBFF2000FF30FF22A2
:101900000421993039F0F2E82000FF2158304131AC
:10191000050019F3B6E9FF34413401210020A1612B
:10192000E0612075280016F353FE70BD0F21890178
:1019300070B54418E168002926D10079002803D049
:10194000032801D004281FD139F07AFC0500BE48D5
:101950000021FF229D324A438258002A0AD1FF23E8
:101960009D33594301220E1842503000FFF7C1FF4A
:10197000E66002E0491C0229EBDB280039F064FC38
:10198000E068002800D1FEE770BD0F2189014018F2
:10199000C168002902D000220A60C260704710B5F9
:1019A0000289123112189170090AD1700F213AF090
:1019B00009FD10BD0A000F218901411810B5C96841
:1019C0002A311DF017FD10BDF0B58FB00600149D33
:1019D000159C1700092916D1382101A819F350E9DF
:1019E00004206B4698809948D88002A806223900C6
:1019F000801C1D8119F3A8E804A82A002100801C7E
:101A000019F3A2E805E023000022290001A816F33B
:101A100009FA300001A904F0FBFD0FB0F0BDFEB5DE
:101A20000C3A0D0014060600240E1021102C00D8CC
:101A3000210030000A00FF3029001930083107006A
:101A400019F382E8FF3601970094761C2B787069B1
:101A5000AA1C0921FFF7B8FFFEBD10B5040008005D
:101A60004979C90610D5010060318A784B78110296
:101A700019430922633016F3C3FA002804D04278D0
:101A8000811D2000FFF7CBFF012010BD0F21890130
:101A9000401810B5C068583016F33CFE10BD7CB538
:101AA0000C001500069900910F21079A8901401832
:101AB0000192C0682A003930210015F3D0FF7CBDA7
:101AC000FFB585B000220E001D0001894469081889
:101AD0000390200004A9FFF7ADFE070002D101200A
:101AE00009B0F0BD0F20800100962618F268039916
:101AF0001300049830332A3216F346FB0498817C95
:101B0000012910D0002200920192F2680100130016
:101B100030332A3271312000FFF7C1FF0499603160
:101B2000C873000A0874079904982B00012216F361
:101B300013FA01003800FFF732FF0020D0E70F2230
:101B40009201801810B5C068393016F3E3F810BD63
:101B500030B504000D2080012018002A8FB009D074
:101B6000002C10D0806B00280DD08030C5886D1CF3
:101B7000C58008E0002C06D0806B002803D08030A0
:101B800045896D1C458101A816F34CF9200001A977
:101B900004F03EFD0FB030BD70B505000F20800190
:101BA0002C18E06828220100FF312D31DC3019F3B8
:101BB00036E801212800FFF7C2FFE3680100DC33AB
:101BC00001222800FFF7C4FF70BD10B54469200052
:101BD000FFF7E2FF0F2080012018C1680122C03109
:101BE0004A61C068C0308069002803D0817AFD2234
:101BF00011408172002010BD70B500214569280098
:101C0000FFF79DFF0F2189016C18E3680100FF3386
:101C10005B1D00222800FFF79BFFE0680121C03018
:101C2000C160E068C0300269002A03D10161280068
:101C300020F0B9F80021280021F0CBFF002070BD72
:101C4000481A000474190004B03E040004040000A3
:101C5000F7B584B005000E004769008900224019DD
:101C60000290380003A9FFF7E5FD04006BC6582475
:101C700001000000E41B000000040000B6F0A8CC46
:101C800002D1012007B0F0BD0F20002280013818DA
:101C90000092C26802991300039830332A3216F377
:101CA0007DFA3100039801224031002316F35EF9DA
:101CB0000700706F00280BD0607B01210843607320
:101CC0000698002801D0FF4800E0FF48A06109E025
:101CD0000698002803D0280000F0FAFA02E0280055
:101CE000FFF77DFF39002000FFF763FE0020C9E702
:101CF000FEB500220E00018945690F18280001A9D0
:101D0000FFF7A2FD040001D10120FEBD0F2000223B
:101D1000800128180092C2680198130030332A32DB
:101D2000390016F33BFA31000198012240310023BB
:101D300016F31CF9617B012211436173E349A16130
:101D400001002000FFF735FE0020FEBDF7B58AB088
:101D50000F2189010A980526406906904518EC680C
:101D600000200890012058340027079002E001204D
:101D700003F0F4FC761E03D3E86840680128F6D12E
:101D80000A98210016F390FB0028099019D00898B2
:101D9000002830D1E8683E3015F322FE00282AD012
:101DA000E8683E3015F331FE0028E86804D0417A37
:101DB0000A301DF04FFB02E02A3015F3C8FA060086
:101DC00002D100200DB0F0BDE8683E3016F382FA73
:101DD000020021002000D431503002AB07C32200A2
:101DE0004032B439019200910B9A0C9923003000D3
:101DF00016F3F2FA0127079800280BD022002100E1
:101E00000A98403220310023FFF764FE002801D0F9
:101E1000002716E0012F14D1069800280AD0069852
:101E20000D2189014018806B002803D06030418B60
:101E3000491C418309992000093115F3D0FF002086
:101E4000A0673800BEE7F8B5060045690F2080019D
:101E50002818C76830005837390016F33EFB0400D5
:101E600001D10020F8BD20790122022800D00022F3
:101E700039003000FFF7F6FE002801D02000F8BD41
:101E8000002D09D00D2080012818806B002803D078
:101E90006030418B491C418321000931380015F322
:101EA0009EFFDEE7F8B5070044690F208001201887
:101EB000C66838005836310016F353FB050005D0CC
:101EC00031003800FFF714FF002801D00020F8BDD2
:101ED000002C09D00D2080012018806B002803D031
:101EE0006030418B491C418329000931300015F3D2
:101EF00076FF2800F8BDF8B505000E000089170030
:101F0000401981790024090716D54079C00709D006
:101F10002800FFF798FFF8BD642002F0ADFF641CB5
:101F20002406240E3A0031002800FFF70FFF002896
:101F3000F1D1072CF0D3F8BD2800FFF7B3FFF8BDAF
:101F4000FEB50C000600086F1700401C06D1E06EBD
:101F5000401C03D1200016F345FBFEBD39F07AF991
:101F6000050002E0002139F063F9594819F3E7FB55
:101F70000028F7D1280039F071F90022300001A9BA
:101F8000FFF762FC0500E8D00F20800136180094AE
:101F9000F2680198130030332A32390016F350F9F1
:101FA000F0683E3016F396F90200F0682030417F69
:101FB000807E0907CB0F8006C10F019816F360FAE7
:101FC000E06E401C0128E06602D1206F401C2067B3
:101FD0002100019801224031002315F3C7FF0100C1
:101FE0002800FFF7E6FCFEBDF3B581B006000F2028
:101FF00080013518E8680400FF3059300700006898
:102000005834002820D0FC20005D00901DF0B2FB69
:10201000029A21003000FFF793FF0098002814D0A7
:10202000012811D1E8682B4A2030017E0823491C81
:1020300001760098210016F349FB274A2749200022
:1020400008237E6116F32EFBFEBD224A0098210074
:10205000082316F33BFBE8682030C17D491CC1759D
:10206000FEBD70B50E0011000F2292018418E568C4
:10207000FF22583515325051E0680622C05177F3DF
:1020800001000000E01F000000040000E52A7BA022
:10209000303018F36EEDE06806222A30310018F374
:1020A00068ED144A14492800082316F3E9FADAE522
:1020B000FFB581B0050016000A9F3AF0B1F900287B
:1020C00028D02800FFF7F6FC0F2080012C18E068CC
:1020D00002990A30320011E035220000431B000053
:1020E000711B000000D0000455853100409C0000A9
:1020F0008185310080969800A985310018F338ED6C
:10210000E0683A00467204992800FFF7B4FFE168DE
:102110000120486005B0F0BD0F2189014018C0685A
:10212000FF304130C0690006000E70470F21890161
:10213000401808B5C068408F009008BD020010B577
:102140003AF06EF900280BD00F2080011018C168FA
:1021500020314A7E520852004A76C068FFF7CCFB15
:1021600010BD0F2189014018C06801222030417E36
:10217000114341767047F0B585B00E000B991500FC
:102180000A9F0C9A0400002902D1002004A904909F
:102190000F20800120180197009303920291C068DC
:1021A0002B000100FF3199313930320015F328FB43
:1021B000B0E7F0B506000F2080013418E0680F008A
:1021C000417A15000A308FB01DF04EF9002810D06A
:1021D00001002B003A0001A815F364FD300001A9AD
:1021E00004F02AFA3000FFF765FCE0680121C030F6
:1021F000016126E470B505000F2080012C18E0680D
:102200002030417EC90712D0817EC9060FD5007FDC
:1022100000220007C10F2800FFF7CBFFE068012272
:102220002030007F0007C10F2800FFF7C2FF1AE52A
:102230000FB50F2189014018C1686B46FF319A889C
:1022400081310A83C1681A7AFF3181318A76C06888
:10225000197BFF308130C1760FBD30B50F24A4014A
:102260000019C468FF348134257E0D70647E4C7083
:10227000C168FF318131897E1170C068FF308130C3
:10228000C07E187030BD30B50F24A4010019C46899
:102290002034A57E0D70E47E4C70C1682031097F2A
:1022A0001170C0682030407F187030BD0F21890147
:1022B00010B54418E06800280BD0FF304130006AA8
:1022C000002806D007F3D9FCE0680021FF30413038
:1022D000016210BDEAE70F2189014018C068FF3094
:1022E0007130704710B50400FFF783FC2000FFF742
:1022F00097FC002010BD70B5002503891C18667876
:102300004369002E17D0032E20D1002B09D00D24B5
:10231000A4011C19A46B002C03D0803465886D1CAB
:1023200065805B79022B02D106F0EEF801E0FFF741
:10233000ECFD01250AE05879032801D0012805D1D8
:102340002079012802D1080012F04AFF280070BD50
:1023500010B51DF0ABF8002010BD000010B502F064
:10236000A0FF002805D0A748807DC00701D040F01D
:10237000C4EB10BD10B5FFF7F1FF23F063FD40F093
:10238000CAEA23F060FD10BD10B501F087FD0028FA
:1023900012D001F082FD9C490120000588604011A7
:1023A00001F0DCFC22F00DFBFFF7D8FF40F0B2EAB1
:1023B00022F023FB01F070FD10BDFEB5002438F0C3
:1023C00053FF060000F096F990480168080602D510
:1023D000480600D5012403F0D6FD050002D10120F6
:1023E00003F0E5FD0120C007807802210840800746
:1023F00017D4002C1BD100228548009200680822C7
:10240000012101AB3AF03DF80122009200221100B7
:10241000100013000DF0A2FE012819D100F06AF996
:1024200005E07C480068002812D1002C10D0002D57
:102430000ED0754CA568E017E060E70C380001F09D
:1024400096FCFFF7A1FF380001F088FCA56001E0D1
:10245000FFF790FF300038F00BFFFEBDADE710B581
:1024600038F002FF040040F04CEB22F09BFA200011
:1024700038F0FEFE10BD70B5040038F0F5FE050022
:102480006248016821430160600601D45012C2A471
:1024900001000000DC23000000040000CDBBFE1D95
:1024A000200618D5480616D5080612D501F078FD85
:1024B0005A48FF21491CC16040685C490868612294
:1024C0005205904308605A49486928229043486160
:1024D00001E001F065FD280038F0D4FE70BD10B5B4
:1024E0000DF0F0FB002801D1524810BD524810BD3C
:1024F00010B502F093FE51494000085A504B4C4928
:102500005843096A0B071B0F18F358ED0805070617
:102510000609090B0B06400810BD800810BDC00855
:1025200010BD000910BD10B5FFF7E2FF4549884214
:1025300001D1454810BD4549884201D1444810BDEC
:10254000444A4549904219D0444A904201D14448F6
:1025500010BD444A904202D14148D23810BD424A8F
:10256000904201D1414810BD414A904201D14148B9
:1025700010BD414A904201D1404810BD080010BD35
:1025800070B5040038F07AFE050025480168A143C3
:102590000160600601D420061BD5480601D5080657
:1025A00017D4224801686122520511430160016875
:1025B0004205114301601949C00D886001F008FD12
:1025C0001B48416928221143416102F00DFF0CF0C4
:1025D00087FC280038F056FE70BD114A01001268D1
:1025E0000020914300D101207047C00005D50C4860
:1025F00020304068002800D000477047030040208A
:1026000010B5FFF7EAFF002804D0180302D5102008
:1026100000F036F810BD0000A001008000300080FE
:10262000C8000004C0BE01C0CC0600040021008028
:10263000002800803F3D00007F841E000C30040015
:10264000A0860100001BB70054150000405DC600C5
:10265000B013000000F82401540D000000366E0194
:10266000AA0A000080BA8C0100F04902AA06000004
:1026700000751903EB040000007C9200AA1A000008
:1026800010B52A4904000020086029490860C020CC
:10269000FFF776FF01F0ABFCE00602D51DF0F8F87D
:1026A00010BD1DF096F810BD0020E9E702210320BF
:1026B00010B51EF012FB00280FD1032108001EF0F8
:1026C0000CFB002803D040F02AEA002805D1FEF7D1
:1026D000AAF8002801D1012010BD002010BD10B5BE
:1026E00001F07EFC01280CD1FFF7E0FF002808D0A4
:1026F0000DF053FC0F480088012802D001F088FC3F
:1027000010BD01F07CFC10BD084910B5096800201F
:10271000002900D0402006490968002901D0802105
:102720000843FFF7B2FEFFF7DAFF10BD60070004B1
:1027300064070004DA070004052804D26649830010
:102740001818085C7047FF2070470A00032010B576
:10275000FFF7F2FF904201D1FFF7A6FF10BDFF285F
:102760000CD05D4A00218B005B18D35C834202D100
:102770000806000E7047491C0529F4D3FF20704756
:10278000FF280ED0544A00218B005B189B185B7801
:10279000834203D188004018105C7047491C05290A
:1027A000F2D3FF207047052805D24B498300181843
:1027B000401840787047FF207047FF280ED0464AE7
:1027C00000218B005B18D35C834204D18800401841
:1027D000801840787047491C0529F2D3FF207047C4
:1027E000FF280ED03C4A00218B005B18D35C83424B
:1027F00004D188004018801880787047491C05294A
:10280000F2D3FF207047344A00218B005B18D35C61
:10281000834207D1880040188018C0784007C0174D
:10282000401C7047491C0529EFD30020704710B5A4
:102830000024FFF794FFFF2806D0274983001818CB
:10284000401800798007C40F200010BD70B5050046
:102850000C00100001F074FB200001F092FA280037
:10286000FFF78EFF022805D0032803D0042801D0EB
:10287000052803D1200000F073F870BD2000FFF799
:10288000B4FE70BD10B50400C00005D501221203CE
:1028900011040C20FFF7DAFF200105D5068ACC4E83
:1028A00001000000D8270000000400009E612D7187
:1028B0000122D20211040B20FFF7D2FF600105D5DF
:1028C0000122920211040A20FFF7CAFF10BD012065
:1028D000C00310B501F03EFB0120C00701F05BFA18
:1028E0000349086A80229043086210BDCC000004AE
:1028F00000280080F3B581B00F000198FFF739FF81
:1029000005000198FFF763FF06000198FFF772FFCB
:102910000400032D07D1042E05D1102001F01AFB6D
:10292000B00401F046FA002F1ED10198FFF775FFA1
:10293000002819D0231F18F34CEB06171717170A96
:1029400004170198FFF77DFF01000D200AE00198B0
:10295000FFF777FF264AA90049198918C978CA08DC
:102960000100100005F372FFFF2201991000FFF72C
:10297000F6FEFEBD10B50400C00203D50121022001
:10298000FFF7B8FFA00207D501210320FFF7B2FF30
:1029900001210420FFF7AEFF200203D5012105200D
:1029A000FFF7A8FF01200007844205D040108442B1
:1029B00002D0401084421AD1FF208206A11808D00C
:1029C000891804D0C206891804D10C2002E00B201B
:1029D00000E00A20FFF7DEFE022805D0032803D01E
:1029E000042801D0052802D10121FFF783FF10BD83
:1029F000CC0000043EB5040002E0012002F05AFAC7
:102A000003F00CF90028F8D002206B461870002063
:102A10005C709870D8700121684603F064F93EBD7F
:102A200001B5B848012240686946083003F034F91E
:102A30002020FFF7DFFF08BDB24808B5016801227A
:102A40002031684603F028F96B46187808BD10B5A8
:102A50000400AC4898B0016824220FA803F01CF9C8
:102A600060070ED524220FA905A818F300E9A6498E
:102A70001422684618F3FAE8A34810380FC808F083
:102A800014F8200704D510AB9979587907F095FD13
:102A9000E00609D5FFF7D0FF002805D09B48406A23
:102AA000C030C07FFFF7BCFF9748242210380FA921
:102AB00018F3DCE818B010BD10B54078FFF7C7FF79
:102AC00003F086F9002010BD8E4800B5016889B07A
:102AD0002422684603F0E0F86B46197801200029AB
:102AE00002D01979002904D06B465978002900D109
:102AF000002009B000BD834808B501680122491CC7
:102B0000684603F0C9F86B46187808BD7D4808B5DB
:102B100001680122C91C684603F0BEF86B461878AC
:102B200008BD784808B5016801220F31684603F0F6
:102B3000B3F86B46187808BD724808B501680122E1
:102B40001F31684603F0A8F86B46187808BD6D4839
:102B500008B5016801220B31684603F09DF86B4609
:102B6000187808BD674808B5016801220C3168462D
:102B700003F092F86B46187808BD1CB50122614C31
:102B800001A821680E3103F087F82168012219316C
:102B9000684603F081F86B4619780020002903D0BD
:102BA0001A798A4200D101201CBD564808B5016837
:102BB00001220A31684603F06FF86B46197801204C
:102BC000002900D0002008BD002008B500904D4825
:102BD000012201686846083103F05EF86B461978F7
:102BE0000120072900D3002008BD464808B5016828
:102BF00001220D31684603F04FF86B46187808BD86
:102C0000404808B5016801221831684603F044F8CD
:102C10006B46187808BD3B4808B5016801221A3197
:102C2000684603F039F86B46187808BDF8B505001A
:102C30000E00344C012221686846891D03F02CF8EF
:102C40006B461878324B0122584328602168684649
:102C5000C91D03F021F86B4618782D4B584330609E
:102C6000F8BD284808B5016804221031684603F011
:102C700013F8009808BD234808B5016804221431F0
:102C8000684603F009F8009808BD1E4808B50168B9
:102C900001221D31684602F0FFFF6B46187808BD1F
:102CA000184808B5016801221E316846B147DE5751
:102CB00001000000D42B0000000400006A0E58C57B
:102CC00002F0F4FF6B46187808BD01B512480122E6
:102CD0004068694602F0EAFF08BD01B50E480122CE
:102CE00040686946801C02F0E1FF08BD01B50A4852
:102CF000042240686946001D02F0D8FF0220FFF759
:102D000083FE08BD10B5040022F0D0FC002802D1DB
:102D10002000FFF7EBFF10BD30370400F84104003E
:102D200014C70004710200007CB504000D001600F9
:102D300002203DF0D3F800280FD0FF21CB316B46A5
:102D40001980042159801C715D7100219E71D97117
:102D5000082376216A460FF0A3F87CBD70B50025E4
:102D6000FFF793FF012801D2012400E00024FFF7C0
:102D700082FF012801D2012000E00020002C0AD0AF
:102D8000002808D0FFF7EDFE002804D1FFF7C8FEA9
:102D9000002800D10125280070BDF948406870471F
:102DA000603010B518F344E880780107890F0229D4
:102DB00008D10009042805D00C2803D0F149086A7D
:102DC000401C086210BDEF49886AC96A704710B597
:102DD00007F07EFD002809D038F064FAE84A117C3B
:102DE000002901D0491E117438F060FA10BDE44882
:102DF00070B5683803F36EFFE1483C3803F36AFFAF
:102E0000DF481838007C062813D002203DF066F811
:102E100007E020001AF0F0FFE279A17920001DF010
:102E20002AF80400F5D13DF059F8002801D01AF035
:102E3000E3FF012002F017F800200CF053FCD24809
:102E4000C168012292051143C160C168520011435B
:102E5000C160CE4908690226B0430861C84C00250C
:102E6000A561CB482574606107F04BFD6561667410
:102E700070BDF8B504000E000CF327F90090300681
:102E80000D00000E0DF059FC6168012789780023C0
:102E90000A07920FFF03022A0ED10E09042E0BD14E
:102EA0008602B748009AC038006A0021C08880189E
:102EB0006941801B99410EE0012A11D109090E29AF
:102EC0000ED1009A80021E00101A2B00B34164221A
:102ED0001900801871416161206160883843608009
:102EE000F8BDFEB50C00C969C90408D52100203120
:102EF0004A7A097A55066D0E8E07B60F1BE000223E
:102F0000130069460CC11100E56A0BE0CB005B19A8
:102F10001E685B6801931B031B0F9A18491C0E293E
:102F2000009602D263789342F0D2009949044D0E84
:102F300000998E07B60F89068F0FE1690A04120CFB
:102F400029000DF093FB012E029003D10E352D06C2
:102F50002D0E0EE0022E0CD168060A23400F5843B6
:102F600029075F43090F4018390040181F30050634
:102F70002D0E606801230288E0690104090C280015
:102F80000BF38CFE029940188249096B0818608780
:102F9000FEBDF8B502203CF0A1FF0500FF217E48F0
:102FA00000222D3118F38AFB06007ED00221C020BA
:102FB000317334183081A078F322800880001040EB
:102FC00008300007000F4030A070E0784008400053
:102FD00008431040CF210840BF210840E070F12095
:102FE0008000291806220D00A01D17F3E0ED200037
:102FF000062229000C3017F344EE20000622290097
:10300000123017F3D4ED002020801C2035183081B9
:103010008421280017F366EE2F00162060372C67F6
:103020007877574818380090007C00284AD05448D8
:103030007838C088A080FFF794FD002808D1FFF7FA
:103040006FFD002804D1A0887D2149014018A0808F
:103050004B4878388089A87002203CF03FFF7061AF
:103060004E480079800607D4A878002804D0A868C4
:10307000012189070843A860082015252D0238770B
:10308000FFF74EFD0124002804D0012000F018FEB7
:103090003C484460290030000DF090FF0098007C0F
:1030A000002806D13949086900E011E002221043E6
:1030B0000861334801001C318461486876D275B9D3
:1030C00001000000D02F00000004000039D48BA9BB
:1030D000401C48600120F8BD2E48C038016A0988AC
:1030E000A180C1E72B491C318868401C8860002002
:1030F000F8BD294970B500248A69824221D1254D45
:10310000183D287C06281CD0002088612148806951
:10311000002803D1FFF747FF04000AE025480169B2
:103120004069814205D0244807220068012139F016
:10313000DCF9287C002804D0002C03D12C2019F0C5
:10314000F1F870BD0128FCD102202874FFF76CFD56
:1031500000281A4806D03C30040003F3C5FD0022C5
:103160000C2105E01030040003F3BEFD0022052110
:10317000200003F36BFD200003F358FD70BD10B574
:10318000054CE169814204D12F2019F0CBF80020D1
:10319000E06110BDD0420400383704000090009078
:1031A000C0A20080FFFFFF7F40A60080B819000486
:1031B000C4E8000400A000800C0800045842040089
:1031C000F8B500240600F9480221846141740BF32C
:1031D00086FFF74DE962A862FFF7ACFC6968084317
:1031E00003D0002000F076FD6C60002E04D0EF4983
:1031F0001C310868401C0860EC4C183C207C0228FC
:1032000008D1012001F039FEFFF70EFD032600284A
:1032100001D02674F8BDE86906F357FDE34DE44B91
:103220000822783D0092EA88E24800211C3302F02F
:10323000B5FC2674FFF79CFD002807D00BF34FFF69
:103240002A00383251631063E888A880D74868386C
:1032500003F34AFDF8BDD5491C314869401C48615B
:103260000120ADE7D14910B51C314869401C4861C7
:10327000322019F057F88CE7F8B5CC4C183C207C7C
:1032800006282ED0C9488069002818D10BF327FFE3
:1032900005000E002000210060382839C78880888A
:1032A0000A6B4B6B0021801859410023C01959410A
:1032B000401BB14100280DDD00F017FD0AE0BE48BB
:1032C00001694069814205D0BC480722006801219C
:1032D00039F00BF9207C002803D0032801D1052008
:1032E0002074F8BDF8B50BF3FAFE07000C0037F0B8
:1032F000E3FFAE4DAE490090287C496A08432BD1CC
:1033000028001838007C002600280AD0062808D09B
:103310002800783831002A00403A536B8088126BBD
:103320000CE007F08FFA002801D168690BE09F4A92
:10333000C03A106AD3698088926931008018594177
:10334000C01BA1416861002806DD0EF01DF80028B1
:1033500002D0287C401C2874009837F0B1FFF8BDDB
:10336000F8B50BF3BCFE914A403A516310639048A4
:10337000806906F3AAFC8D4C0226183C207C2500AF
:10338000603D00281FD0FFF7F6FB002819D0FFF79B
:103390009BFC8B4F002801D0667407E0FFF789FC87
:1033A000002801D0032000E001206074EF80FFF7C7
:1033B00046FC7D21C90041437D200001081AA880F8
:1033C00001E0002060747A4B08220092AA887D48B0
:1033D0000021183302F0E2FB01202074744C7A4F74
:1033E000E06801280DD137F067FF0021E1607969BD
:1033F000302291437961754A516AB143516237F085
:103400005FFF6A49A88848613869B0433861FFF7AF
:1034100069FFF8BDF8B50BF362FE644A403A5163A8
:1034200010636348806906F350FC604C0026183C2A
:10343000207C2500603D002833D0FFF79CFB644FC3
:1034400000287DD0FFF740FC00282BD002206074BC
:10345000FFF7DFFB002816D0FFF7BBFB002812D1D7
:10346000E8887D21090140180004000CB842E8807A
:1034700001D9EF8004E07D21C901884200D2E980B2
:10348000E88854492DE0E8887D21C8380004000C04
:10349000C9018842E88000D2E980E9884D482DE0E2
:1034A000A880C5E0FFF705FC002829D00320607440
:1034B000FFF7AFFB002816D0FFF78BFB002812D1D7
:1034C000E8887D21490140180004000CA4387929BE
:1034D00001000000CC330000000400008611AE1A89
:1034E000B842E88001D9EF8003E04049884200D229
:1034F000E980E8883E49081ADCE7E8883B49C83893
:103500000004000C8842E88000D2E980E98838484D
:10351000401ACFE701206074FFF785FB00281AD01E
:10352000FFF761FB002816D1E8883249FF30F530FB
:103530000004000C8842E88000D9E980A8887D2139
:10354000FF38F5380004000C49018842A88079D280
:10355000A98077E012E0E8887D2164380004000C3F
:1035600049018842E88000D2E980A8882249643075
:103570000004000C8842A880EAD863E0FFF7E4FA70
:10358000002804D01D486674E880AF805AE00D48DA
:10359000016A002901D0066205E019490020820075
:1035A0008A58002A01D0012703E0401C0828F6D3DE
:1035B0003700FFF7E7FB002F009023D00E4823E0F1
:1035C000D0420400383704007F30000000A00080A3
:1035D0000C080004FF7F0000F32F0000C0A2008051
:1035E000C0A80080204E000030750000E02E0000D2
:1035F000606D0000D8590000504600004E70000079
:10360000F4FF02C07D204001A880FFF70CFB0028DA
:1036100003D0FFF7E8FA00280AD0FFF7F3FA0028F2
:1036200001D0002F04D00098002F03D0002803D130
:10363000F94805E0002801D1F84801E07D2040016B
:10364000E880667408220092AA88F548F54B0021AC
:1036500002F0AEFA01202074F24CF34F183CE068FF
:1036600001280DD137F032FEE660796930229143AE
:103670007961EE4A516A02239943516237F02AFE7A
:10368000EB49A88848613969022081433961FFF715
:1036900033FEF8BD10B5FFF7D1FA002802D0FFF7CE
:1036A00069FE80E5012001F080FBE1491C31002822
:1036B00005D0C868401CC860FFF7B6FE73E508690E
:1036C000401C0861DA480421183801746BE5FEB526
:1036D000050002203CF016FC0090D5484068002808
:1036E0004AD037F0F3FDD24C0126183C0190207CE3
:1036F000B602002D37D000283BD12000603800688A
:10370000002836D007F0A8F8002832D1FFF7FAF9E0
:10371000002803D1FFF718FA00282AD0FFF74BFA48
:10372000002803D0FFF710FA002822D03FF022EA49
:10373000207C06280AD0BF480178002906D1012143
:10374000502201700098130006F03AF8FFF776FA5D
:10375000002805D0300000F02DFB300000F01DFBEC
:10376000FFF798FF05E0002803D00025062804D1C4
:103770002574019837F0AEFDFEBDAA4F183FF869D9
:1037800006F3ADFAB86906F3AAFAFFF744FB300076
:1037900000F010FB300000F008FB207C0628E7D08A
:1037A000A44801780029E3D0282205700098290058
:1037B000130006F005F8DBE71CB50020019000902F
:1037C000694601A8FFF750FA99480199C038026884
:1037D0008A4203D18288009B9A4226D00160009AD7
:1037E00082809349C3889C399A180A80019B9A1A4F
:1037F0004389D21A4A80C388D218643A8A80C28820
:103800004389D21ACA800289009B0831D2180A80E3
:10381000019B9A1A4389D21A4A800389D218643AC2
:103820008A8002894089101AC8801CBD804870B502
:10383000406800282ED037F049FD040007F00CF84E
:10384000002824D00020FFF742FF3FF094E9FFF763
:10385000B3FF7948C168012252051143C160734921
:103860008039886AFF229204104388624D0D280037
:1038700000F0A0FA280000F090FA6D481838007C9B
:10388000062804D0082200210120FFF761FA200059
:1038900037F020FD70BD664870B5406800283AD00A
:1038A00037F014FD5F4C0600183CA06906F317FAC8
:1038B0000025A561A06806F312FA5B48A56041697E
:1038C0003022914341615949486A0222904348623B
:1038D00056488038816AFF2292049143BAC2466FEB
:1038E00001000000C837000000040000D5CB7D7641
:1038F0008162440D200000F067FA200000F05FFABA
:103900005048C0384561FFF790FA4E481838007C9F
:10391000062804D0002211001000FFF723FA30001F
:1039200037F0E2FC0120FFF7DCFE70BD4249183998
:103930008A6882420DD1002088600120C8603F481B
:1039400041693022114341613D49486A02221043D6
:1039500048627047F8B507003A484068002858D0D8
:10396000384878380068002853D037F0B9FC354C17
:103970000126183C0090354D207C7605002F1CD088
:10398000002808D106202074FFF7DDF800283DD07C
:10399000FFF78BFF3AE0062838D0274F183FF86929
:1039A00006F3A7F9B86906F3A4F906202074E868BD
:1039B000B043E860FFF739FA28E0062826D1FFF780
:1039C000C2F800280FD1FFF7A7F8002803D1FFF7AE
:1039D000C5F8002807D0FFF7F8F800280FD0FFF748
:1039E000BDF800280BD1207C06280FD100202074C0
:1039F00006F03CFF002809D0FFF722FF06E0E86848
:103A00003043E8603FF0C0E8FFF74EFE009837F023
:103A10006BFCF8BD084910B518394A69824203D1D8
:103A20000020486100F06AF939E40000D85900002C
:103A300010270000F32F000050370400C0A20080C0
:103A4000C0A80080D0420400883704000090009095
:103A500038B5C94C2169814216D100202061C74880
:103A6000007C032801D004280ED1012000F046F983
:103A7000606906F33EF9C04B082200926288C04894
:103A80000021143302F09EF838BDF8B5BD48446BF0
:103A900000250BF338FBB84E0019694171633063A0
:103AA00006F0E4FE002811D0B448A8384069002888
:103AB0000CD0B06806F31DF90822009219223300D9
:103AC000B14852010021083302F07CF8AB48007C79
:103AD000002825D0062823D0012822D10BF313FB80
:103AE0000C00A64928390A6B4B6B2100821A9941B8
:103AF0000B00A249A54C603988882900801A994199
:103B000000040014A0420BDAB06906F3F2F89A4BF5
:103B1000082200929E4822000021183302F052F839
:103B2000F8BD306906F3E5F8082200923088924B20
:103B3000221A002197481033F0E7F8B526380125FE
:103B40008E4A8D4E117CAD020224030017F368EA01
:103B500014A30D0D390B0E7E1113361729300D0DE0
:103B6000A8A8AAAAAA0DFFF76BFEF8BDFFF79DFE55
:103B7000F8BD012000E00020FFF7B3FDF8BD864846
:103B8000062904D0C168012252051143C160C168F1
:103B90002143C160280000F017F9280000F007F960
:103BA000F8BD280000F010F9280000F008F9F8BD71
:103BB0007248243803F3ACF8FFF772FBFFF774FD8B
:103BC000F8BD6E4FA83F388A002807D138002C3046
:103BD0003862F8893882FFF7F9FD04E067498439D3
:103BE000401E3962388201207861280000F0DFF839
:103BF0000BF389FAF961B861B06906F37AF8082223
:103C00000092386A5C4B428861480021183301F009
:103C1000D9FFF068614D01280DD137F061FB00211B
:103C2000F16069693022914369615D4A516AA1433B
:103C3000516237F059FB386A818850481830416129
:103C40002869A0432861FFF761FBF8BD4B4B18338F
:103C5000587C002813D0401EFF24F53458745C6152
:103C6000FFF754FBB06906F344F8434B0822009277
:103C7000474822000021183301F0A4FFF8BD0129B4
:103C8000FCD13E49147434318869401C886101209C
:103C9000FFF7AAFAF8BD0429FCD1FFF7CFFBF8BD66
:103CA000012000E00020FFF755FEF8BD10B505F03B
:103CB00033FF324C1834A068002812D0E068002886
:103CC0000FD006F029FE01280BD129F045FA022871
:103CD00007D0012060602D2018F038FB2A2018F052
:103CE00035FBE8E42B2010B5FFF727FF1C9A1ED800
:103CF00001000000C43B00000004000021A408C231
:103D00002E20FFF724FF2249002018314860DCE410
:103D10000322264912050028086901D0104300E05B
:103D2000904308617047F8B502203CF0FFF80700A7
:103D30000E216A460FF009FC050024D000981E4EA3
:103D4000046F00202071607120706070FF220621D6
:103D5000A01D36F026EFF120800039182000062241
:103D60000C3016F34CEF02203CF0E0F8686100984C
:103D7000082160300177310028000DF047F9002854
:103D800001D00120F8BD0020F8BD00003837040044
:103D9000B8420400ED38000000A60080053800009D
:103DA00034080000F32F0000293900000090009033
:103DB000C0A20080C0A80080021100000948006A6B
:103DC000704708494A6902434A61CA690243CA61A5
:103DD0007047044A51698143516170470149C043AA
:103DE00008627047802200804B490A6802430A60DB
:103DF0008A6802438A600120704747490A68824303
:103E00000A608A6882438A600120704742494031D3
:103E10000868086070474049C043C8600120704787
:103E20003D4B80339969DA690901120909091201C8
:103E3000002804D00520400701430A2003E00520A4
:103E40000007014305200243D961DA617047334816
:103E5000016B022291430163016B40229143016394
:103E6000016B04229143016370472C48016B0622C9
:103E700091430163016BC0221143016370472748DE
:103E8000016B802291430163016B46221143016360
:103E9000016B3822914318221143016370471F4878
:103EA000006B810701D500207047400601D5022034
:103EB00070470120704710B501F039FA002804D08E
:103EC0001749886901221043886110BD10B501F0BF
:103ED0002EFA002804D012488169490849008161FE
:103EE00010BD10B501F023FA002804D00C488069F9
:103EF00001210904084010BD10B501F018FA00288E
:103F000003D007488069C007C00F10BD0348C168CF
:103F1000C2051143C16070478022008000210080EB
:103F2000C02A008070477047FF484068816B090CC9
:103F300001D000207047816B090504D5816B09040D
:103F4000090FFBD100E0806B01207047F6494968FA
:103F50008A69120C120402438A617047F248406871
:103F6000816BC907FCD041680122D20391434160B3
:103F70007047ED4949680A6B086348680122D2031B
:103F8000104348607047E8484068406A7047E64917
:103F9000496880314A6A0001120F12070009024382
:103FA0004A627047E0484068C06A7047DE49496825
:103FB000CA698243CA617047DB494968CA690243DA
:103FC000CA617047D84949680A6D02430A6570475B
:103FD000D54949680A6A02430A627047D24949686A
:103FE0000A6A82430A627047CF484068C03001685D
:103FF0004908490001607047CB484068803081889B
:104000004908490081807047C748406880308188EE
:10401000012211438180704770B5C34D68688030BC
:1040200001680122114301600168C04C490205D5B5
:104030000168A14301600A203EF0DCEC6868803032
:1040400001682143016070BDB74840688030016855
:104050004908490001607047B348406880300068F3
:10406000C007C00F7047B048406880300168AF4A51
:10407000914301607047AC4840688030016801227C
:104080001206114301607047A748406880300168FC
:1040900001221206914301607047A34840688030B6
:1040A000C068704770B5050016003EF07CED9E4C70
:1040B000606801008030026905614269436182697C
:1040C000F0228261C269C6618A68102002438A6058
:1040D0008A6820239A438A606068416B426B8A42F7
:1040E000FCD0FFF7DAFF0028F6D160688168194339
:1040F0008160416801225203114341605BFF028AE3
:1041000001000000C03F000000040000727EDBAE32
:1041100070BD8A48406880300069704787484068B1
:10412000816820221143816070478448406881681B
:104130002022914381607047804949688031CA8854
:1041400001238340C8881A43CA8070477B4840686F
:1041500081680122D204114381607047704777481B
:10416000406880300168FF22521C11430160704793
:1041700072484168092080010818C1690122920330
:104180001143C161C16952001143C161C16952004B
:104190001143C161704769484168092080010818CE
:1041A000C169012292031143C161C16952001143E7
:1041B000C161C16952009143C16170475F48406865
:1041C000816810221143816070475C484168092072
:1041D00080010818C169012252041143C161C169FB
:1041E000D2001143C1617047544905224968D20188
:1041F0008918CA69382340079A43800E0243CA616E
:10420000C86901221043C86170474C4A0023D35645
:104210001F21C0181F2800DA01000806000E704791
:104220000D2804D8454900228A56002A00DBECE715
:104230007047F0B593B0434C2068030960681B01D8
:104240000109A06809010209E068120100090001E2
:10425000C01C12902069491C050960692D010009E4
:104260000001401D1190A069921C00090001801DF1
:104270001090E0692D1D0609206A36010009000131
:1042800008300F90606AF61D0009000109300E9099
:10429000A06A000900010A300D90E06A00090001DF
:1042A0000B300C90206B000900010C300B90606B00
:1042B0000709A06B3F01000900010D300A90E06B77
:1042C0000D37000900010D308646F0208143103182
:1042D00009911299854340350895119D8243854384
:1042E00050350795109D20328543503506950F9D1A
:1042F00094468543503505950E9D0C9A854350355F
:1043000004950D9D82438543503503950B9D503296
:104310008543503501950A9D029281438643874328
:10432000854372468243303150365037503583438F
:1043300050321F2000028343964605E0000100042E
:1043400000004000342D0004009513252D025B1958
:104350002360099B814383435B1963606346834306
:104360005B194919A360E160089D0B21854349024F
:104370006A182261079D864385436A186261069D1B
:10438000874385436918A1610321C9027218E2615C
:10439000059D85436A182262049D85436A186262FE
:1043A000039D85436A18A262029A82435218E26210
:1043B000019D85436A1822637A186263009D8543D4
:1043C0006A18A26372468243511800250700E16310
:1043D000AE00A059C004C00EFFF717FFA159C006D8
:1043E000C00CB9436D1C01432D062D0E102DA1519B
:1043F000EED313B0F0BDF0B588B0FF490A6A1206DB
:10440000130F4A6A1206120F120113438A6A120628
:10441000120F12021343CA6A1206120F1203134339
:104420000A6B1206120F120413434A6B1206120F84
:10443000120513438A6BC96B1206120F0906120686
:10444000090F134309070B43EC494A68D11DFF319B
:10445000FA310C690B610C6B0B630924A40112196E
:10446000D468D360E44BDC682406260F04969C686D
:1044700035012406240F03942C431D692D062E0FAD
:10448000350237032C43059700962600A6465C6943
:104490003E432406240F0194240426430694019CE1
:1044A00027059C693E432406240F2506DC692E431C
:1044B0002406240F24072643029607965B68BC4611
:1044C0001B061F0F039B1E013B003343049E059FE9
:1044D00036023343009E3B4336041E4367463E4349
:1044E0002E432643072803D0062801D00A2809D1E5
:1044F000906802989060C8680798C860C86ACE62E1
:1045000008B0F0BD0528FBD19068019E8D7DC34D9C
:1045100001000000BC43000000040000708703B8E5
:10452000704636033043069E304366463043284388
:1045300020439060CA68C860C86A06980343604612
:1045400003432B432343CB62E4E7F0B5AF48016854
:10455000426809071207090F120E11438268036BA4
:104560001207120D1143C2681207120C114302699F
:104570001207120B114342691207120A1143826992
:10458000120712091143C269944612071143964655
:10459000026A1407426A240F1207120E1443826A39
:1045A0001207120D1443C26A1207120C14431A07A1
:1045B000120F15042C43456B26002D072D0A2E43A0
:1045C000856BC06B2D072D092E43000706439048CD
:1045D0004568E81DFF30FA304768416087688660AB
:1045E00016053443120614431A0714430922920194
:1045F000AA18136811605368546062461207120FBC
:1046000013011343140223431403234314042343C9
:10461000140523431206134372461343426A416250
:10462000816A8362F0BDF0B5784908684A69C004C0
:10463000C50E4868D204C004C00E40010543886816
:10464000D20EC004C00E80020543C8685206C004E2
:10465000C00EC00305430869CB69C004C00E040541
:10466000254315438A69DB04D204DB0ED20E5B01BD
:104670001A430B6AAC46DB04DB0E9B021A434B6AFF
:104680004D6BDB04DB0EDB031A438B6AED04DB04AA
:10469000DB0E1B051A43CB6AED0EDB04DB0E5B065B
:1046A0001A430B6B6D01DB04DB0E2B438D6BC96B67
:1046B000ED04ED0EAD022B43C904C90E47010600FF
:1046C0003E4387023E43C7033E432643400606431C
:1046D00048010C000443880204434D48CD03406860
:1046E0002B430100FF302C43FF30801C4569654699
:1046F000456187698261C769C361436B3300466363
:10470000866B8363C66BC363080009218901401867
:10471000016905614169426181698461F0BD10B53B
:104720000400FFF712FF2000FFF76FFEFFF77BFF8B
:1047300010BD37494968FF31FF31891C0A680007FD
:1047400012091201000F02430A60704730B50400DD
:104750002F4D04280CD21120FFF76CFD6968092247
:1047600092018918C9698904C90E884200D20424BB
:104770006868FF30FF30801C01680F2212029143ED
:104780002207120D1143016030BD214A10B5536854
:104790000522D2019A1813691F246406C006A34398
:1047A00080080343136110696311C9069843C9095E
:1047B0000843106110BD164A10B553680522D20196
:1047C0009A1813691F24E403C006A343000B034394
:1047D000136110696311C9069843490C08431061BD
:1047E00010BD0B4A10B552680523DB01D2181369BE
:1047F0001F246401C006A343800D034313611069A5
:10480000C90640094001C90E084303E0342D0004E5
:1048100000010004106110BDF84A10B5526805236C
:10482000DB01D21853691F246401C006A343800D25
:10483000034353615069C90640094001C90E08434A
:10484000506110BD0C2010B5FFF7E9FC04001120E9
:10485000FFF7E5FC2100FFF7DFFF1220FFF7DFFC89
:1048600004001320FFF7DBFC2100FFF78EFF14206C
:10487000FFF7D5FC04001620FFF7D1FC2100FFF75D
:104880009AFF1720FFF7CBFC04001920FFF7C7FCA5
:104890002100FFF7A6FF10BDD84905224968D201C3
:1048A00089180A699205D20E824206D30A69D20695
:1048B000D20E824201D8082070470A691203D20E34
:1048C000824206D30A695204D20E824201D80420E1
:1048D00070470A699200D20E824206D30A69D20159
:1048E000D20E824201D8022070474A699205D20E48
:1048F000824206D34969C906C90E814201D8012006
:10490000704700207047BD4949688031CA6AFF235B
:10491000E13300079A43C00D0243CA6215B9EE4164
:1049200001000000B847000000040000235DD0D45F
:104930007047B74900B549688031CA6AC306520951
:104940005201DB0E1A43CA62FFF7B0FF0006000EE9
:10495000FFF7E3FF00BDAE494968C0314A69FF2354
:10496000E13300079A43C00D02434A617047A849EA
:1049700000B54968C0314A69C30652095201DB0ECD
:104980001A434A61FFF792FF0006000EFFF7E3FFAC
:1049900000BD9F494968FF3141314A6BFF23E13334
:1049A00000079A43C00D02434A637047984900B517
:1049B0004968FF3141314A6BC30652095201DB0E8F
:1049C0001A434A63FFF772FF0006000EFFF7E1FF8C
:1049D00000BD8F494968FF31491C4A69FF23E13313
:1049E00000079A43C00D02434A617047884900B5E9
:1049F0004968FF31491C4A69C30652095201DB0E5E
:104A00001A434A61FFF752FF0006000EFFF7E1FF6D
:104A100000BD7F494968FF31FF31891C0A6A0F23B5
:104A20005B0600079A43C00802430A627047784950
:104A300000B54968FF31FF31891C0A6A1F231B0535
:104A40009A43C306DB091A430A62FFF72FFF0006E9
:104A5000000EFFF7DEFF00BD70B505000D20FFF76B
:104A6000F3FB6B494E68092189017118CA699204E8
:104A7000D20E904201D2012200E0002264480024BC
:104A8000401C035DAB4204D0641C2406240E022C9F
:104A9000F7D3086A182555435D4A000C0004083214
:104AA000535B18430862486A000C0004AA18538834
:104AB00018434862886A9388000C0004184388628F
:104AC000C86AD388000C00041843C862086B1389B5
:104AD000000C000418430863486B5389000C000461
:104AE00018434863886B9389000C0004184388635B
:104AF000C86BD389000C00041843C8630520C001AB
:104B000030180368168A1B0C1B0433430360436888
:104B1000568A1B0C1B04334343608368968A1B0C24
:104B20001B0433438360C368D28A1B0C1B041343EA
:104B3000C3603023364A634338329A18535B0C6A99
:104B40001B042404240C23430B62521953884C6A1F
:104B50001B042404240C23434B6293888C6A1B049B
:104B60002404240C23438B62D388CC6A1B042404C2
:104B7000240C2343CB6213890C6B1B042404240CE8
:104B800023430B6353894C6B1B042404240C2343E1
:104B90004B6393898C6B1B042404240C23438B6389
:104BA000D389CC6B1B042404240C2343CB63118ACC
:104BB000036809041B041B0C19430160518A4368F4
:104BC00009041B041B0C19434160918A8368090482
:104BD0001B041B0C19438160D18AC26809041204AA
:104BE000120C1143C16070BD09494A68092189014D
:104BF0005118CA691F235B02C0069A43800C024306
:104C0000CA61C869012292049043C86170470000DC
:104C1000000100044E494968C0314A690F239B03D3
:104C200000079A43800B02434A61EFE7484900B509
:104C30004968C0314A691F235B029A43C3069B0C33
:104C40001A434A61FFF732FE0006000EFFF7E2FF4B
:104C500000BD3F494A68092189015118CA69FF23EB
:104C6000E13300079A43C00D0243CA61CEE73849D9
:104C700000B54A68092189015118CA69C306520959
:104C80005201DB0E1A43CA61FFF710FE0006000E48
:104C9000FFF7DFFF00BD10B504000D20FFF7D4FAC9
:104CA000FFF7A2FF1620FFF7C4FAFFF7C0FEE006E9
:104CB00014D50120C007C07CC1070FD00007400FEA
:104CC00002282AD0032809D11620FFF7BDFAFFF7E2
:104CD0008BFF1620FFF7ADFAFFF7A9FE1620FFF7AE
:104CE000A8FAFFF7C4FF1620FFF7A3FAFFF79EFF0D
:104CF0001820FFF79EFAFFF71CFE1620FFF799FA1F
:104D0000FFF735FE1620FFF794FAFFF74FFE162047
:104D1000FFF78FFAFFF76AFE10BD1120FFF794FA34
:104D2000FFF762FFDAE70B48806900073493D196FA
:104D300001000000B44B000000040000D732A56061
:104D4000000F6DE7084881680122120791438160D6
:104D50008168C205914381608168521091438160EE
:104D60005EE7000000010004802A008070B504F0B6
:104D7000BDF8764D0226002818D000F0E0F8002893
:104D800014D004F307FC724C226A636A801A9941BA
:104D9000E162A062E868B043E860A068002802D041
:104DA0000020A062E06205F0E8FF70BD05F021FD83
:104DB000002803D105F0EDFC0028F6D000F0BFF884
:104DC0000028F2D0E868B043E86070BD10B5604CD0
:104DD000A16981420ED1FFF7C9FF60694004400C10
:104DE000FFF71FF860694004400CFFF71FF8002030
:104DF000A061606110BD042010B5FFF712F8042017
:104E0000FFF714F8524CA069002804D004F3A3FF64
:104E10000020A061606110BD4C48C06802210840BC
:104E2000704738B5052840D2494D484C296980342F
:104E300000290BD004F3AEFB6962286202E0052072
:104E400000F092F8E06A4000F9D530E0012181409D
:104E5000E8680143E960FFF7DFFF002801D1012086
:104E600038BDE06A400022D400F069F800281CD167
:104E70000420FEF7DBFF0420FEF7CBFF2C68FDF7D4
:104E8000DCFF002800D06C68686904210843686171
:104E90002F4B082200922F4822000021183300F0E7
:104EA000C3FE04F377FB69622862002038BD2748FF
:104EB000C16802229143C160D1E7052810B501D332
:104EC000002010BD012181402148C2681143C1600A
:104ED000FFF7A2FF002814D000F031F800280BD013
:104EE000FFF789FFFDF7A9FF002805D01A48007CCD
:104EF000042801D105F041FF1449C86802229043FB
:104F0000C860012010BD052810B516D2104C012331
:104F1000E16883400A009943E1600ED1002A0CD079
:104F200000F00DF8002801D0FFF765FF0749C868B9
:104F300002221043C860012010BD002010BD0448AB
:104F40008069002800D00120704700000090009088
:104F5000C8010004414C0000B8420400F849086B45
:104F60008022904308637047F64910B5096835F010
:104F7000DAEE8905800A084301D03DF064ED10BDEA
:104F8000F148016A0F22114301620220ECE7EE486A
:104F9000016A0909090101620120E5E7EB4970B5E1
:104FA0000868082290430860E94A506840084000B9
:104FB000506010690B2108431061E64908009369AD
:104FC000DB0601D4401EFAD29069800601D4491E46
:104FD000FAD236F0B7F9E0490A680124A406A243E0
:104FE0000A60DD4A80321368DC4D2B401360136881
:104FF000ED432B4313600A6822430A6036F0A6F99A
:105000000120FFF7B1FFFFF7BBFF20F0B1FB70BD40
:10501000D349FF22C432888B1042FCD17047F8B5C7
:10502000D04C6069002806D036F08CF9CE48FBF7EA
:105030000FF900F0AFFC36F085F960610021012026
:1050400020F0FCFA002810D0C54EB4880120800260
:105050000440B088C24D3527A0433F012035B842F7
:1050600004D1287D012108432875F8BD022000F0F5
:1050700042FB0028F9D03C43B480297D0120014344
:105080002975F8BDB74810B5446900214161FF2179
:105090000170B3482030017D4908490001750120A5
:1050A00020F0EEFA200036F051F910BD70B5FEF296
:1050B00034EBAC4D04002878022813D1A869401CB9
:1050C000A861200605D4A8482030FBF7C1F800F0FD
:1050D00061FC802C02D1FEF220EB70BD2000FEF2BC
:1050E00026EB70BD6869002805D09F481630FBF795
:1050F000AFF800F04FFC0021012020F09FFA0028BB
:10510000EFD002206C6128700120A86197480068E8
:105110000028E6D1924DAC88012080020440A88886
:105120006B26A043F600B042DBD0022000F0E3FA89
:105130000028D6D03443AC8070BD8A4965F5B6509E
:1051400001000000B04F00000004000084E8760C6D
:1051500010B58869401E88610FD14C694861FF20F5
:105160000870012020F096FA802C02D1FEF2DEEACF
:1051700010BD2000FEF2E4EA10BD0028FCDAFEF2C9
:10518000D6EA7E481730FBF76DF800F00DFC10BD35
:1051900070B5794E7069002807D036F0DDF8774891
:1051A000001FFBF75FF800F0FFFB36F0D5F87061E9
:1051B0000021012020F04CFA002814D06D4DAC885D
:1051C000012080020440A888A04382280BD02888B0
:1051D000F080002000F099FA002804D0A8883081DF
:1051E00082200443AC8070BD634810B561490289D8
:1051F00044698A80C2880A8000214161FF210170D0
:10520000012020F047FA200036F0AAF810BD70B552
:10521000594D6869002807D036F09EF85748C01EDF
:10522000FBF720F800F0C0FB36F096F8686100212B
:10523000012020F00DFA00281BD04E4EB48801202A
:1052400080020440B088A043022812D0FEF759FE25
:10525000002803D0012803D13F2002E01A2000E0FB
:105260007F203188E9803080B08828810220044383
:10527000B48070BD404810B53E49028944698A80B7
:10528000C2880A8000214161FF210170012020F0C5
:1052900001FA200036F064F810BD30B505000C00AE
:1052A000FFF7C0FE334B20331D81FFF7BBFE9C8010
:1052B000FFF7B8FE30BD10B50400FFF7B3FE2D4B6D
:1052C00020331C81FFF7AEFE187910BD30B5040005
:1052D0000D00FFF7F0FF284301002000FFF7DDFF7E
:1052E00030BD30B504000D00FFF7E5FFA843010015
:1052F0002000FFF7D2FF30BD1F484178002909D1B7
:1053000020490968012209024270090F0200243273
:10531000515C817080787047174910B5C8780028B3
:1053200015D10861174840680A008007800F1032C5
:1053300010230124002807D0012803D0022803D01D
:10534000032803D1136001E030201060CC7008699D
:1053500010BD0000400C0090A0B701C080A10080EB
:1053600000A3008040A60080881300000021008078
:10537000FF7FFFEF00080090F801000437000100F4
:10538000E407000400200080E54800880006000EC5
:10539000704700B5FFF7F8FF022806D1E0488038D3
:1053A00040688007800F012800D0002000BDDD4B41
:1053B0005968382291431040084358607047D94BD0
:1053C00059680F229201914310400843586070477A
:1053D00010B50C00FFF7F3FF2000FFF7E8FFB7E779
:1053E000D14810B5446900214161FF2101700120BD
:1053F00020F050F9200035F0B3FFA9E770B5CA4C92
:105400006069002806D035F0A7FFC848FAF72AFFE0
:1054100000F0CAFA35F0A0FF60610021012020F001
:1054200017F9002811D0C24DAC8801208002044039
:10543000A888B526A0433601B04206D0022000F06D
:1054400064F9002801D03443AC8070BDB4480068D2
:10545000B8498874010CB74820380186B6494969B3
:105460008163704710B504000BF000F9002802D1E9
:10547000200020F0FBFC6BE770B50500AD480C0088
:1054800020384169A14212D044610021200020F05F
:105490003BF90021200020F043F9002D07D1002125
:1054A000200020F037F90021200020F03FF970BDE6
:1054B000A0482038016A0020DEE79E482038C169F4
:1054C0000020D9E79B48203881690020D4E799481B
:1054D0002038416881610020CEE7964820388168F5
:1054E00081610020C8E793482038C16881610020AD
:1054F000C2E790482038016981610020BCE78848F4
:105500008E4A8030016811430160704784498B4A9C
:10551000803108689043086070478948C1688900F5
:105520008908C160C168032292071143C160810CE0
:105530007C48803041618349016183494161052193
:1055400001617047814800B50068002800B827B4A1
:1055500001000000AC530000000400003B2D53BFCD
:1055600001D0FFF7E4FF7F480D21C1632D21416386
:1055700000BD714980398868CA0C9043886047E74C
:105580006D4880388168C20C1143816032E76948F8
:1055900080380068000701D501207047002070475F
:1055A0006648C068704700207047F7B586B00400B1
:1055B0000D0035F0DBFE00900021012020F052F8B4
:1055C00000286FD0032160000A008240059020006F
:1055D000083840000E0086400390200010380492E6
:1055E000020047000800B84002902000183843002D
:1055F00008009840012186460800A0409C460B0008
:10560000019059489340584A4030002D37D0082C1B
:1056100004D21568049EB543156012E0102C03D225
:105620005568B54355600CE0182C04D2C569029E3C
:10563000B543C56105E0202C03D2056A7646B54323
:105640000562089D002D14D0102C04D29368019C93
:105650002343936002E0426A1A43426282680A432B
:105660008260404BC03358680122120610435860D4
:1056700044E03C48C03001680422914346E0082CD5
:1056800007D21568059E049FB140BD430D431560C8
:105690001BE0102C07D25568039FB543B9400D435A
:1056A000556012E033E0182C06D2C569029EB9405D
:1056B000B5430D43C56108E0202C06D2056A664655
:1056C000B1407746BD430D4305620899002918D0C3
:1056D000102C04D29168019B9943916002E0416AC9
:1056E0009943416281684908490081601D48C03082
:1056F0004168012212069143416000211B4841602C
:1057000005E01848C03001680422114301600120FF
:105710001FF0CAFF009835F02DFE09B0F0BD102132
:105720000A2803D2054940003431095A054801804E
:10573000012070478020008000290080F8010004CB
:10574000370001000008009034C7000400A8008062
:1057500000044010002A0080170000FF1020000005
:10576000E49101C08022008000020090A0B701C037
:1057700070B50024FFF717FE002808D0FEF7F8FBED
:10578000002803D1FEF7E9FB002800D0012435F002
:10579000EDFD0500002C07D102203DF033FC002870
:1057A00002D01B4901200860002101201FF05AFF90
:1057B000280035F0DFFD002070BDF8B50020154948
:1057C0001FF0D6F9124E0024361D0F273F0308E0C4
:1057D0002104090C394300201FF0CAF97059804791
:1057E000641CA50070590028F2D10B480C490268CE
:1057F00000920A4A0B480C4B02F35CFB19F0F6FED0
:105800000A480168002901D000208847F8BD00003F
:10581000E49101C05F5F00006807000460DA0004E3
:105820008019000474190004803C04C0380200048C
:10583000FEB50D001600089F0A9A0999002800D1AC
:10584000FEE70468002C00D1FEE7029201913200CD
:1058500029002000009720F08FFBFEBD10B501F35A
:105860001DF90006000E10BD10B501F3A9F80006E1
:10587000000E10BD002810B501D001F3DDF810BDF9
:1058800038B514006A4601F337F8009820700020FC
:1058900038BD10B5040000F389FF2060002010BD62
:1058A00010B501F359F810BD7CB50D001600079A2C
:1058B0000699002800D1FEE70468002C00D1FEE71D
:1058C0000192009132002900200020F04EFC0028B7
:1058D00000D165637CBD10B5416B20F05DFC10BD4F
:1058E0007CB50C001500069A002800D1FEE7006880
:1058F000002800D1FEE70021019200912A0021003A
:1059000020F068FB7CBD10B520F084FB10BD0028A2
:1059100010B500D1FEE70068002800D1FEE720F0B6
:10592000F0FB10BD002810B500D1FEE7006800288C
:1059300000D1FEE720F0FFFB10BD10B520F005FC04
:1059400010BD10B520F009FC10BD10B504003DF0ED
:10595000B4E8002801D0002010BDFDF2EC752BD575
:1059600001000000A85700000004000068F780D381
:10597000F2EE606000F324FF2200002100F382FFBA
:105980000028F3D06068802802D1FDF2E4EE01E047
:10599000FDF2EAEE012010BD38B504003DF096E8B6
:1059A000002801D0002038BD00F30AFF21686A46B4
:1059B00000F368FF002808D16068802802D1FDF25A
:1059C000CAEEEFE7FDF2D0EEECE7012038BD0000B3
:1059D000F8B59749486B022290434863954801788F
:1059E00001297ED00121017035F0CAFC0090924857
:1059F000422115F3E6E901218F4AC90700200B78FF
:105A00001354491C401C0A28F9DB8C4900200B78F0
:105A10001418491C401C0B28A372F8DB87489038E7
:105A200001785175017991754179D175017A1176B5
:105A3000417A5176017B9176407B8049D0768039DE
:105A400000200B781418491C401C0A282377F8DB27
:105A50007A4950390A7E7848203082710A7FC271B3
:105A6000497F0172754930390A7842724A788272E8
:105A70008A78C2720A7902734A7942738A79827388
:105A80000A7AC2734A7A02748A7A42740A7B8274EE
:105A90004A7BC2748A7B0275CA7B42750A7C827516
:105AA0004A7CC2758A7C0276C97C41766349303172
:105AB0000A7882764A78C2760A7902774A794277FA
:105AC0005F4A137C8377927CC2770A7F2030027012
:105AD000497F4170594E082010368446B078EE2830
