:100000000100000000000000000400000094511AEC
:100010001CF09FE51CF09FE51CF09FE51CF09FE5A0
:100020001CF09FE51CF09FE51CF09FE51CF09FE590
:1000300007440F0AF87C0000947C0000A47C0000B8
:10004000A87C0000B87C0000C87C0000D87C0000C0
:10005000E47C0000000000EA960000EA28008FE23D
:10006000000C90E800A08AE000B08BE001704AE24A
:100070000B005AE18F00000A0F00BAE814E04FE2CB
:10008000010013E303F0471013FF2FE18042040047
:10009000D04204000030A0E30040A0E30050A0E301
:1000A0000060A0E3102052E27800A128FCFFFF8A44
:1000B000822EB0E13000A128003081451EFF2FE1E3
:1000C00004309FE503308FE013FF2FE11506000099
:1000D000203052E20400005A203062E23002A0E1F7
:1000E000110380E13112A0E11EFF2FE13103A0E1F5
:1000F0000010A0E31EFF2FE110B5040000F012E98C
:100100000068005D000706D5DF2C04D020002038F1
:1001100010BC08BC18472000FAE710B4042A0ED31C
:1001200003000B439B070AD108C810C9A34202D1A0
:10013000121F042AF8D2A34201D0001F091F002A6F
:1001400002D1002010BC7047D30701D0521C05E03B
:1001500003780C78401C491CA34207D103780C7823
:10016000401C491CA34201D1921EF1D1181BE9E7A2
:10017000FF3002E2032483E1022882E1B76A0CEA3D
:10018000013050E003005221506A0C9A030052E300
:10019000020080E0021081E02500009A030010E3D5
:1001A000013071150120421201306015030010E387
:1001B000FAFFFF1A033011E26A00000A042052E23B
:1001C0001B00003A03C031E7020053E30800003A85
:1001D0000F00008A0C38A0E104C031E5042052E28F
:1001E0002C3883E1043020E5F9FFFF2A021081E278
:1001F0000F0000EA0C3CA0E104C031E5042052E20B
:100200002C3483E1043020E5F9FFFF2A011081E25C
:10021000070000EA0C34A0E104C031E5042052E2FA
:100220002C3C83E1043020E5F9FFFF2A031081E232
:100230000000A0E1822FB0E10130712501C07125DD
:10024000012051450130602501C060250120404555
:100250001EFF2FE103000B43020070B49B0710D177
:100260000F4CE50100E008C208C91E1B9E432E4248
:10027000F9D01906090E1170521C00290DD01B0A65
:10028000F7E70C78491C531C002C147005D00C782F
:10029000491C5A1C002C1C70F3D170BC7047000024
:1002A000010101010120A0E1920081E01EFF2FE188
:1002B0009203A1E01EFF2FE10000A0E15A0000EB35
:1002C00003002DE9BA0000EB0300BDE8820000FA4C
:1002D0000F002DE9B90000EB0F00BDE81CC09FE541
:1002E0000FC08CE001001CE30DE08F120FE0A001B5
:1002F0001CFF2FE101C08FE21CFF2FE100F08AF804
:1003000021D9020001402DE90000A0E1A10000FA7E
:100310000140BDE8000000EA0000E0E3260000EA3A
:100320001EFF2FE110402DE9290000EB1040BDE831
:10033000040080E21EFF2FE1AD000000013050E01C
:1003400003005221166A0C9A020080E0030010E3B9
:10035000021081E001204212013071150130601558
:10036000030010E3FAFFFF1A102052E20500003AE2
:1003700010402DE9185031E9102052E2185020E9C0
:10038000FBFFFF2A1040BDE8823EB0E10810312992
:10039000081020290430314504302045030012E3C1
:1003A0001EFF2F01822FB0E1B23071210120514593
:1003B000B2306021012040451EFF2FE10C109FE567
:1003C0001800A0E3563412EF1EFF2FE154FFFFFF89
:1003D0002600020004009FE51EFF2FE11EFF2FE113
:1003E000846F000410B5C046C046080007D00178ED
:1003F000002904D005A100F024E9002804D1044814
:10040000784410BC08BC18470020FAE78AB2EBBD5C
:1004100001000000FC030000000400005AEF5E131E
:1004200043000000F83D040010B5C046C04604007B
:10043000C046C0462000FFF770EF10BC08BC18474C
:100440000E40A0E1660000EB04E0A0E101402DE9D0
:100450007B0000EB0040A0E10140BDE813402DE926
:100460000100A0E3121DA0E3081084E5000084E56C
:100470001340BDE80010A0E1040084E50EF0A0E107
:1004800010402DE903002DE96D0000EB0040A0E1D4
:100490000300BDE8042094E50D30A0E100E082E017
:1004A00003005EE1002081E50B00008A0E3093E03E
:1004B000011A8EE26330A0E1071081E20730C3E346
:1004C0000710C1E3030051E10310A081041084E58B
:1004D0001040BDE8020041E01EFF2FE10020A0E136
:1004E0000000A0E30000A0E11040BDE81EFF2FE1E6
:1004F000F0B585B0C046C04605000C0043F056EB91
:10050000002001950294C046C046039001A8FFF761
:10051000E2ED040001A80D00009303C81600C046D8
:10052000C046C046C0461AF38AFA00210800C046F9
:10053000C0460700FFF758EF04900021076008004D
:10054000FFF75AFF411C0498416000210800C04693
:10055000C04601000498816000210800C046C046E2
:1005600001000498C16000210800C046C046010097
:1005700004980161C046C046C046C046C046C04659
:10058000C046C046C046C046C046C046C046C0463B
:10059000C046C046C046C046009B05B02000049C33
:1005A00029003200A646F0BC01B0704710B5C04625
:1005B000C0460020C046C046C046C046C046C046F1
:1005C00010BC08BC184700000000E0E30210E0E3A4
:1005D0001EFF2FE110402DE90000A0E11040BDE812
:1005E0001EFF2FE10E50A0E1430000EB05E0A0E16B
:1005F0000050A0E10700C0E30D10A0E10A30A0E127
:1006000000D0A0E160D08DE220402DE9B03800FAA2
:100610002040BDE80060A0E30070A0E30080A0E3FC
:1006200000B0A0E30710C1E305C0A0E1C009ACE839
:10063000C009ACE8C009ACE8C009ACE801D0A0E151
:100640001EFF2FE104009FE51EFF2FE11EFF2FE19B
:10065000746F0004030010E3030011031700001A75
:1006600000402DE984E09FE5042090E4043091E40B
:100670000EC042E002C0CCE18EC31CE00300520178
:10068000F8FFFF0A0040BDE8030CA0E1020C50E0B7
:10069000FF0E1C030700001A0308A0E1020850E047
:1006A000FF0C1C030300001A0304A0E1020450E045
:1006B000FF081C03020053006000A0111EFF2FE181
:1006C0000120D0E40130D1E4010052E303005221C3
:1006D0000400001A0120D0E40130D1E4010052E30B
:1006E00003005221F5FFFF0A030042E01EFF2FE145
:1006F0000101010110B410BC7047000000009FE52B
:100700001EFF2FE1646F000404009FE51EFF2FE130
:100710001EFF2FE1686F000470B505000C0029F082
:1007200077FE002814D0686901F048F900280FD03E
:100730006079217900060014084320340019C1793A
:100740008279080226491043884201D1012070BDF8
:10075000002070BDF8B504000189081842790379BA
:10076000120612141A4315180E3150180606360ECA
:10077000200001F017F9002807D1697D2A7D0802C1
:10078000083610433606360E03E0687B297B0002EC
:10079000084301F0C8F80027FF4300281DD0606916
:1007A0002EF026F9200001F002F9002808D129F0E6
:1007B0002FFE002804D1606901F000F900280CD058
:1007C0002A00A91D200026810BF08AFA002804D0F7
:1007D000200000F0ABF80020F8BD3800F8BD0000A4
:1007E000888E000070B50C00304E15003168042B67
:1007F00008D130004068002C00D061612A0021003F
:10080000042309E0012B09D12948616131F0D0FEB0
:1008100070682A00210001231AF33AFFB4FF2EDE8C
:1008200001000000F80700000004000009358D7F7A
:10083000002070BDF8B50D001700214E1C00052BDF
:1008400001D0162C14D128894019C1788278080269
:10085000104304D1280000F073F80220F8BD2800EE
:10086000FFF782FF002801D10120F8BD052C01D03F
:10087000172C04D13A002900306805230EE0032C20
:1008800006D1280001F095F83A002900032305E07D
:10089000022C05D1B0683A00290002231AF302FFA6
:1008A0000020F8BD70B5040000F00EF8050001202E
:1008B000207320001AF37EFE280000F009F870BDB6
:1008C000000000040100070010B502F37CEE10BD2B
:1008D000802810B502D102F376EE10BD02F37CEE53
:1008E00010BD10B5040006F32FF9206010BD1248AA
:1008F00070B50468114EA10706D500210161326D63
:1009000001209047022084432006000F03D0E020FE
:1009100084431020044300250AE0E00706D0A80025
:100920003258002A02D021002800904764086D1C2C
:10093000002CF2D1002070BD003000802CC20004D9
:10094000002810B507D00169002905D14189C08868
:1009500003221BF357FA10BD1AF32CFE10BD10B57D
:100960000189C1220818C18C0024D200914208D10B
:100970000100062212310C30FFF7E3FB002800D102
:100980000124200010BDF3B50400002085B006004E
:100990000490039002900190208901270519A878FE
:1009A0000007800F022800D00027606940790228E4
:1009B0000BD12000FFF7D3FF012806D12020A6800D
:1009C0002073FF490868401C0860A08800287ED07A
:1009D00003F097FC00282BD02AF024F9002827D117
:1009E0002AF0E0FA002823D1002F41D020890519F0
:1009F000E978C80701D1A81D01E028001230F14AAA
:100A0000537E002B0DD0128A092A0AD10078C00724
:100A100007D0880602D534F0D7FD0BE00120049002
:100A200008E002F014FE012804D034F0DDFD01E0FE
:100A3000002F1DD0A878010902D00009082817D17D
:100A400022892000263010180288DF4B61699A4203
:100A50000ED1C07803280BD1002909D00D208001C8
:100A60000818406B002803D080300188491C0180A1
:100A700000F085FF002868D028001BF3D9F8002873
:100A80005BD1002F13D001222000694607F04EEA07
:100A900000280CD0684607F04EEA00284DD0072009
:100AA000019000214F2029F095F9039007E0069965
:100AB000200002AA01AB29F0A9FB00283DD000F0DC
:100AC00053FF002848D0C14D01242C6100E032E0E2
:100AD00034F0F8FD03F012FC00280BD137F0D6FA01
:100AE000002807D1BA480660BA4806800320AC70D7
:100AF00037F078FA6B469A880399FF2029F016FDA3
:100B0000B54C2088002804D0B44904200856401C65
:100B100009D0022401200AF0F0FC641E07D0287AD4
:100B20000028F7D103E029F007FB26802E721D2054
:100B300037F058FAEE6007B0F0BD20206B46207306
:100B4000187A002808D1A68006E0002F04D00222DF
:100B50002000694607F0EAE904980028EBD01B2042
:100B600037F040FAE7E77CB50C00150049792379A6
:100B70000906091419430B19818842692033802919
:100B800014D9803920328180517DC906CA0F009264
:100B90002A0001A90CF3A3FFA071000AE0710198DB
:100BA000001B2071000A607101207CBD00207CBD0B
:100BB0001A00D8E78288802A10D9803A8280487942
:100BC0000A7900060014104320300871000A4871A9
:100BD000E62088710020C87101207047002070470E
:100BE0001FB501AA0400009202AA03AB2CF030FE4C
:100BF00001980204029812140104091420002CF038
:100C000029FC20000399E0304181019981810299FA
:100C1000C181200002F05CFF1FBDFFB581B0002044
:100C20001C0001260A9D0B9F286038600135E32DCA
:100C300001000000F40B000000040000FD5AF8CB96
:100C40008A7CD207002A07D0E1072E6002D0A107D4
:100C50001EE03E6005B0F0BD0800123004F084F9DB
:100C600000281DD0417902291AD18168C90417D5FD
:100C70000199C279C97991420DD103990A290FD3FB
:100C8000610702D4E107E4D10AE0E107E2D061079D
:100C90000029DEDADEE7210702D503990A29D9D235
:100CA0002E60D7E7F3B59BB005000A200E90002018
:100CB0000D900C904F480A90012009900020089058
:100CC000069005901C98002802D100201DB0F0BDB0
:100CD0002889202241190B916E6910A819F316EF8B
:100CE00010A810AB0F90D878C0070F9801D1801DC5
:100CF00000E012301C9F07904037387D8006400F7F
:100D0000012809D9032805D81C9818301AF340E89F
:100D1000000701D5012400E0002410AB99780020E1
:100D20000A07920F022A03D10909090700D50120F9
:100D300020432ED00F981AF385FF002829D1FFF702
:100D4000CDFD0290387E2C4A41070F98490F0C3098
:100D50001AF344FE0A280E9018D2002C06D00E98E2
:100D6000254900014018C168491CC160287B202822
:100D70000CD107980078C00708D10E981F490001D0
:100D8000411810AB188B000934F036FA0298FFF7BF
:100D9000A9FD288920216C18203829812071000A9A
:100DA00010AB6071188B00092072000A6072B07974
:100DB0002070F07960703079062825D1D8788007C6
:100DC00022D4A07C01210843A0740F208001301898
:100DD000806A15E090000004C83A0004888E000084
:100DE000703000046C05000400050004F0040004E9
:100DF0009C000004ACC2000484C9000470CD00044F
:100E0000816C491C816403E0A07C40084000A07410
:100E1000A888002802D1287B20283DD110ABD878A3
:100E2000800601D50120059010AB98780107890F45
:100E3000022931D1397EC90620D5000900071DD508
:100E4000F8480078002819D02AF094F9002815D025
:100E5000F5480068002811D0F448006800280DD03B
:100E600034F03EFB002809D032F0D2FC012805D036
:100E7000EF480068002801D10120069003F053FAE2
:100E8000002809D00F981AF3DDFE002804D10220B3
:100E900004F03CF834F080FC1C993000FFF7AAFE07
:100EA0003100E0310E201A91085E02F048FD2073F7
:100EB0001A990A20085E02F035FD10AB607398782D
:100EC0000009000703D5387E4007400F00E0FF20EF
:100ED000A072A07A0490A888002804D00F981AF372
:100EE000B1FE002858D00020A070E070A88800282B
:100EF00002D1287B20284BD104982AF047F80028FB
:100F00000BD00598002805D00022110030000CF00D
:100F10008BFC02E0C7490020087007980078C007E2
:100F200019D11CF083FE00280CD010AB188B0209DD
:100F30000092387E069AC006C30F059930001CF057
:100F4000A7FF07E0387E069AC006C30F0599300058
:100F50001BF048FB069010AB987805990209300009
:100F600033F082FF0698012812D1B3480088002888
:100F70000BD0B24800220068462108F33AFA002854
:100F800003D0AF490120087002E0162037F034F892
:100F90002800FFF7DFFC98E60A98FF30401C199004
:100FA000416AA8480529189008D21898807A002824
:100FB00004D00B990A9839F0A5F90C90387EC00935
:100FC00005D01C9A21002800FFF7FEFD05E00F9BCD
:100FD0001C9A21002800FFF7F5FD00287ED0A88884
:100FE000A070000A22000B32E0701C98D11C1AF38A
:100FF00037FE7079022810D1300003F037FF09A9BD
:101000000091112149010DAA08904018019203781E
:101010000E9A300010A9FFF70AFE0D9800284CD058
:101020008948002201888948032303F030FA002808
:10103000019042D00198A98881800199E844C83084
:1010400001000000F00F000000040000AE802BA79C
:10105000C020088101990820087301981221C0302E
:10106000029019F324EE02981421017100214171BC
:10107000E079A2790102029811438171090AC171D4
:101080000898406A012805D1B068000502D5029988
:10109000A07A0873607921790006001408430119C9
:1010A0000298AA88143019F33CED0199F068486160
:1010B0000299F07948700299B07908700299A8886D
:1010C0008870000AC8700198042100F07BFC287B1E
:1010D00020283FD0FFF70CFC03900C98012831D159
:1010E0005D4829000C301AF364FB1998406A00E04F
:1010F00061E0002828D10022189B009218897D22E7
:10110000D20042431C0057480A9923002DF09CFC52
:10111000002819D11998406A002803D00A980021A4
:1011200008F052FD03F009F9002802D0052036F03E
:101130006DFF4E4B4C481C680022290000680523B7
:10114000A04727E00C98E3E719981999406A401CDA
:1011500048621FE0A88800282DD0FFF7C9FB039044
:10116000424B41481C680022290000681623A04712
:1011700001280FD10E980A280CD207980078C007D2
:1011800008D10E983A490001411810AB188B00099C
:1011900034F03CF80398FFF7AFFB049829F000FF08
:1011A000002811D00598012809D100221100300033
:1011B0000CF044FB08E00020A070E070F2E6059817
:1011C000002801D12049087007980078C00719D17C
:1011D0001CF036FD00280CD010AB188B02090092D1
:1011E000387E069AC006C30F059930001CF05AFEDF
:1011F00007E0387E069AC006C30F059930001BF041
:10120000FBF9069010AB987805990209300033F08D
:1012100035FE0698012830D10C480088002829D0D6
:101220000B4800220068462108F3EDF8002821D081
:1012300008480121017020E016040004280400047D
:10124000240400047804000415040004643F00042E
:101250000000000411040004CCC300040E050004C7
:10126000981C0004F195000004000004F40200043E
:1012700070CD0004162036F0C9FE012030E57FB5A0
:1012800004000E001D00142119F3E6EC25606B46E6
:10129000A672188920817FBDF0B5C3680269190064
:1012A000114301D10020F0BD0125002B0DD0002AF3
:1012B00021D11F212A008A40134203D1491E090669
:1012C000090EF7D1CB40C3600CE0002A13D01F21D8
:1012D0002B008B401A4203D1491E0906090EF7D193
:1012E000CA4002610289130712091B0F5118090134
:1012F0000B430381D6E700210C000F008C468E467D
:1013000001E0002C0ED101258D402A4222D0002977
:1013100020D04D1E0126AE401D0035421AD00124BA
:101320000F0017E001258D4016002E4212D11F2913
:1013300010D21E002E420DD00124BC406D1E641E32
:10134000A543644625434C1E2406240E0027A646CA
:101350003C00AC46491C0906090E2029D1D3714630
:1013600000290CD0CB40CA40C360026101890A0742
:101370000B097146120F591809010A430281604690
:10138000F0BD70B50400008988B006092000FFF7A1
:1013900083FF0028019023D0182102A819F35CECE8
:1013A000FF4920680622411802AD03A819F3B8EBE3
:1013B000A07A6B46987428000422103001A99E82FE
:1013C00019F3AEEB04206B46D882FF209A301881C7
:1013D0001020588120681423592102AA28F011FEF8
:1013E00008B070BD080000214160CAE7F7B582B0BF
:1013F0000C00FF2704980026603019F3D4EC050098
:101400002168029881425ED1A8780007800F0228E7
:1014100059D102980F239B010622A91DC018FEF77F
:10142000A4FE00284FD1A87800090DD004280AD0C6
:10143000082802D00C2808D1012604984030007EEC
:1014400047077F0F01E001260027A07A47848E8E90
:1014500001000000EC1300000004000011450E1410
:10146000B8423AD1288B218900090909401A01D4D0
:1014700020281BD360680027002802D008F3DFFB78
:1014800067602000FFF787FF288B218900090A0980
:10149000801A01D4202809D3E76008072761298B27
:1014A000000F090909010843208100200121002EB5
:1014B00004D0226981400A43226103E0E26881404E
:1014C0000A43E2606068002807D100220092BA4A0D
:1014D000BA48231D21002DF0C1FA05B0F0BDF0B5CA
:1014E00000260C8B178825090C7E2407240FAF4299
:1014F0000FD1C9780907C90F214303D01988491CA6
:10150000A14202D105998C4201D38680F0BD1C8096
:10151000F0BD002CF9D11580F9E7F0B50020A1B09D
:10152000040006900390029002F01EFF002806D0EF
:1015300000F038FA0028FAD0A1490120C860F4E18F
:1015400002998A06491C002A029104D19D494A6BDE
:10155000CB0D1A434A63002118AB05911A7D920600
:10156000520F012A05D90121032A02D80E99090731
:10157000C90F04910189081808A902F032F92098CE
:10158000002805D1079800218180FFF7F7F9CCE109
:1015900020980C3003F0FCFC040005D120990120B8
:1015A000123103F017FD04002099200002F046FCE0
:1015B000002801D00024E5E7002CE3D007994C6116
:1015C000607902280CD1200003F08BFC0C300390D2
:1015D000A068209AC0040799C00F1AF3CAFA17E04E
:1015E0002079012801D006280CD12300209AAC33A1
:1015F00001201AF3C8FA2079012809D1200003F04C
:10160000A5FC05E02300209AAC3301201AF3DEFA92
:10161000079801890D18E978C90701D1AE1D01E0CD
:101620002E0012360D2189016718796B002902D02E
:101630000A6B521C0A633178C90705D0796B0029FF
:1016400002D04A6B521C4A630499002971D18088E8
:1016500000287ED0A8780007800F02283DD11AF01C
:10166000F1FB002804D05849200008AAFFF7C8FE63
:10167000A87800090C281ED004281CD0082804D102
:1016800018AB187E4007400F00E0002011214901EF
:1016900061188A79824203D00022D2434A8088713D
:1016A0008920800010222318801E00922218209981
:1016B0000798FFF714FF0798808800280DD12000B5
:1016C00008A9FFF7ABFA0798FFF758F9786B0028DD
:1016D00002D0016A491C016227E1A068C0031ED53F
:1016E000E878C10712D1800710D50F20800121189A
:1016F000280006221230FEF742FD002806D1079985
:1017000088803078C207D20F012104E03078C0070A
:101710000FD100221100200006F02EEC09E03078F5
:10172000C0070AD00F2080012218079829000CF367
:10173000E3F90798808800288BD0607902284CD183
:10174000200008A902F0AFFD03982099007EC97817
:1017500000E0C9E0C906C90F884218D020000EF089
:101760006FFC2079032812D1200017F077FE0028A3
:101770000DD0617902290AD1807FC00707D02000EF
:1017800006F0FEEB002802D0200006F0FEEB200061
:1017900002F005FC200002F051FC012803D1209941
:1017A00020003DF08AF803984030007E032810D0D6
:1017B00000200BE029020000400D0300851300000B
:1017C00070300004003400805C3000040799888089
:1017D0008AE0079880880028FAD008A81AF0F8F85C
:1017E00020001EF0CBFF3078C00711D119F032FF76
:1017F00000280DD11CF02EFA0028079808ABDA7EDD
:10180000818808A802D01CF0D1FC01E01AF048FF42
:1018100020981AF309FA00281ED0079881886039A9
:1018200081802099097E090707D12099C978490745
:1018300003D420990988818056E0524A0092018998
:10184000514A524B091819F3FFFF00286DD0079039
:1018500001890818209047E02098807944E70663C2
:1018600001000000E817000000040000429FDD783E
:10187000C00701D0F86900E0386A002801D1069855
:1018800001E00830069000284ED00698C17908077C
:10189000000F022801D0032810D111225201A218F2
:1018A000928820990120002A00D000201AF3D5F94F
:1018B000069A079808A900F0BFFA17E0012801D09E
:1018C00008072BD1002000F0F7F80028FAD1069A7B
:1018D00008A907A807F01EFF002804D107980028D0
:1018E0002DD0002181800598002807D00698C07966
:1018F0000007000F022809D0032807D0079808A97D
:10190000FFF769F8079808A9FFF7EAF921F0DAFB71
:10191000002814D001200CF01BFD1CE0214830F001
:1019200079FE21F0EDFDE9E7786B8168491C816063
:101930002098BF21C07808402099C87042E71A4813
:101940000068002807D1012108AA01F076FF0028CD
:10195000079000D0FEE515498020C04308611AF3C6
:10196000C8FA002802D004200CF0F2FC1049002034
:10197000C860002C086106D00F2080012018C068C4
:1019800003212BF09DF921B0F0BD0A4A010001208E
:10199000914200D0002070475C9101C0649101C069
:1019A00000D202C002000100E003000400A5008094
:1019B00070300004888E00000A4900204968002920
:1019C00004D009490978002900D001207047054951
:1019D00000204968002904D003494978002900D033
:1019E00001207047940000047030000402220B00B4
:1019F00010B50100027309481C22006819F37AFE31
:101A000010BD4069C068704710B5406903F0A3FA83
:101A100010BD10B5406908F05FFE10BD0400000461
:101A20000F21890140188068002803D02030407EB3
:101A3000C007C00F704703000A0000B5FFF7F0FFB2
:101A4000FD21002814D00F20800118188368C033AE
:101A50009A6180680300C033002A08D02030407E9D
:101A6000C00701D0586909E0907A0840907200BD23
:101A7000002AFCD098684307F6D5C0070028F3D1A8
:101A800000BD38B51400049A0092220009F0A7FDA9
:101A900038BD10B509F066FE10BD10B509F08CFD1B
:101AA00010BD10B509F072FE112800D1122010BD32
:101AB00010B509F083FE10BD10B522F0EBFDF9481A
:101AC0004068002800D0012010BDFFB587B00C0091
:101AD00005001700109E1C21684619F3D2E80098F3
:101AE000012109048843F17B6B468907C90F09046A
:101AF00008430121C9040843490200908843F17B4F
:101B00004907C90F090708430090B07BD873B06834
:101B10000490E07903210007000F0906022802D192
:101B20000098884308E00328009804D188430121E5
:101B30000906401800E008430090DC4A8001810F4C
:101B4000D948A21A002901D10C3202E0012902D1A0
:101B50000D321004000C03998004890B800C89035A
:101B6000014303910098012149078843F17B0195C6
:101B70008907C90FC943C907890808430090800134
:101B8000810F1ED10098C00015D5208F2884280011
:101B900020308170B9012031C170606B6862208F84
:101BA000401C0004000C208702D1606B401C606365
:101BB0002888103028800A9A2900684604F0ECFA38
:101BC00018E0800F012807D123000A9A0C3329005E
:101BD000684604F08DFB0DE000987F21C009C0012C
:101BE0000830009003980904884300994906490A7F
:101BF000084303900098C00007D4A8780007800F1E
:101C0000022802D128888038288070681C22694602
:101C100018F39AEF0BB0F0BD10B5CC79030000209B
:101C20002409022C02D14031087C10BD002AFCD0CE
:101C300059790229F9D1180003F036F90721C901B1
:101C40004018C08A0006000E10BDF0B58C469646BE
:101C50001A000721090203004B43954C07011E1986
:101C6000751894497C18002A39D0E17B14C56F3F60
:101C700001000000E41B000000040000B6F0A8CC46
:101C800001237246002A00D000235A00FD231A4384
:101C90001140E1736146A173617B8B4A491E0906BD
:101CA000090E617311D1810088480818006A030C7D
:101CB0005B1E637320738548C0300818006AD051DA
:101CC000834808180068606003E06068A84200D19B
:101CD0006660A068001DA060E17B490702D5C005D1
:101CE000C00D04E0C11FFF39FA3901D10020A06006
:101CF000F0BD207B4022401C0006000E40282073CF
:101D000000D22273607B401C0006000E40286073E6
:101D100000D26273C8591C30A842C851E8D1CE51D4
:101D2000F0BDF8B504000D0016001F0000F022FB06
:101D3000002811D03A00210020000123FFF78FFF77
:101D400032002900200000F01BFB604AA100403255
:101D5000604889180862F8BD5848473030F064FC84
:101D600021F0D8FBF8BD70B50500FEF7DFFD0400DB
:101D700028894019016F8A781209092A01D10120A6
:101D800006E06030007F544A800010580006000EC4
:101D9000CA785207D30F2A00FFF7C3FF2000FEF7CF
:101DA000C9FD70BDFFB583B000240600170006987A
:101DB0000294C0790007000F022805D1069A049802
:101DC000390004F042FA06E0032807D1069A049885
:101DD000390004F0E0FA0400012834D03A49300117
:101DE0004518E87BC0070DD13800603018F3F8EFD4
:101DF0003B00029A069958330095FFF770FE686819
:101E00001C306860142030497043583140180499E0
:101E1000283819F3ECFC192000022F4970432F4D8C
:101E20003031401829686423594364224018D9018D
:101E3000401A390018F392EE2868401C40282860A8
:101E400001D100202860200007B0F0BDFEB50C00D5
:101E500007001500FEF76AFD02260090300000F032
:101E600089FA00283CD020006030019018F3B8EFC8
:101E7000C07802214007C20F30000123FFF7EFFEB8
:101E80002B00220039003000FFF78CFF01280ED113
:101E9000019818F3A6EFC07802214007C20F300066
:101EA0000023FFF7DCFE380000F09CFA1DE0074934
:101EB00008484831086218E000A00090FFFF0000C9
:101EC000ACAD01C014BB01C0B87F040000A10090FC
:101ED00000A2009001000080886604009C6B01C095
:101EE000FC4830F0A1FB21F015FB0098FEF722FD25
:101EF000FEBDF0B5002591B0F74806950595039510
:101F0000046A2E00016AA1430162200E05D0F14847
:101F1000401C30F089FB21F0FDFA2002000E78D041
:101F20002002000E08902006000E0024079008985A
:101F3000C0076FD0022C6ED2E849A0004018006A9A
:101F4000E200E749121B12025118E64A8A1882423F
:101F500001D1029101E01C30029020010E9082E03C
:101F6000012001900020142161430490DE480818EC
:101F700010901CE03889DC49C01906900E98303961
:101F80000E5806987568006FA84202D0C0784007C6
:101F900004D578690490688809900CE0D3490868F2
:101FA000401C086000213800FEF7AEFC109819F3C1
:101FB000C6FB0700DED10498002802D1002F2ED0E6
:101FC00022E008AB5879400734D404993800002344
:101FD0006A4602F071F8002821D108AB1879000791
:101FE000800F022818D130688001800F012804D1A9
:101FF0000698006F0188891E0180069A04983900AE
:1020000000F019FA00280AD100213800FEF77CFC04
:1020100005E07EE176E12FE0380020F0BFFE019878
:10202000002820D000222006000E11001300FFF728
:1020300016FE18E02988280020300818C01C8008E7
:102040008000009001880022103901802006000ED7
:10205000110013000F90FFF702FE00990F983A004D
:102060000123FFF75EFEA0490E9830390858029907
:10207000884200D074E745E1A01E012887793634F4
:1020800001000000E01F000000040000E52A7BA022
:10209000FBD29749A0004018006AE2009549121B44
:1020A00012025118944A8A18824201D1029101E029
:1020B0001C30029020010A900FE100210491079941
:1020C000E140C90739D045680600A8780007800FAD
:1020D000022802D12F00603F01E02F00A03F142012
:1020E00086496043283140182838390004F038F810
:1020F00083480169491C01618168491C81607869D4
:1021000000280ED00D2189014018406B002808D00E
:102110004268521C426078694018406B0169491C52
:102120000161380000F068F976494868401C402891
:10213000486001D100204860C7E07148C168491C6F
:10214000C16014216D4861432830081828380D906B
:1021500019F3FFFA07004BE01920000260436A49B7
:10216000642340186749496859434018D901401A07
:10217000624905900A9830390E5830688001810F05
:1021800006D15A484169F0688004800C0C3808E098
:10219000800F012807D155484169F0688004800C00
:1021A0000D380818039005987568603018F322EE12
:1021B000A8420AD17869534904904868401C4028D5
:1021C000486017D10020486014E0380000F014F98E
:1021D0000D9819F3BEFA4A4907004868401C486048
:1021E00048494868401C4028486001D100204860A8
:1021F000002FB1D10498002805D1002F65D03800F8
:1022000000F0FAF861E0059860300C900B9018F33C
:10221000F2ED0188803101800B9818F3ECED8079A4
:10222000C0070BD103988079800707D504984079BF
:10223000022803D003990498FFF711FC0398C07992
:102240000007000F022805D10C9818F3D4ED01887F
:10225000103906E0032805D10C9818F3CCED01885D
:1022600022390180B8886038B8800C9818F3C2ED24
:1022700080780007810F02291ED1244A00923889F4
:10228000234AC119234B380019F3FCFA00281CD04B
:10229000070004980D2189014018406B002802D0E6
:1022A000416E491C416605993800FEF7A8FB059967
:1022B0003800FEF729FD08E0800F03D138002BF02D
:1022C00067FC02E03800FEF777FB00222006000ED4
:1022D00011001300FFF7CDFC0A980849303908585F
:1022E0000299884218D0E8E64700010000A000905B
:1022F00000A2009014BB01C0E4060000E87F0400C7
:10230000A04304009C6B01C0B86604005C9101C04E
:10231000649101C000D202C00898641C4008032CDC
:10232000089000D20DE611B0F0BDF1B582B00027E3
:102330003D003E001421714336480818019019F3FE
:1023400031FA04000BE002986D1C844206D1210092
:10235000246801982F0003F003FF00E02468002C9C
:10236000F1D1002F0CD035062D0E06E00022110011
:1023700028001300FFF77DFC641CBC42F6D3FEBDB1
:10238000761C022ED6D3FEBD2249000130394018FA
:10239000407B7047F7B582B00700118916008C1892
:1023A000802109590191C979536909070020090F52
:1023B000022907D1206F01998079C207D20F180036
:1023C000FFF73EFC134A3901303A8D18E97BC90703
:1023D00009D102000199039823000095FFF789FBBA
:1023E00068681C306860142078430A49401831003E
:1023F00019F307FA05B0F0BD10B50169002902D143
:10240000FEF7DAFA10BD044A9142F9D12BF0B4FB81
:1024100010BD0000E87F0400441D000410B50C004E
:102420008968CA0010D5012212079143A160217862
:1024300001224907490F16F0EEFF0101206F028BC0
:102440001207120F0A43028310BD70B50C0006007C
:1024500015001100FFF7E2FF3079012804D10121B6
:10246000200038F06DFC70BD19F090FC00282AD0D7
:102470006035687F162826D0212824D0222822D033
:10248000208905191435200005F0CDF89C3F2EBF9A
:1024900001000000DC23000000040000CDBBFE1D95
:1024A000E969200030F0E2FD002811D019F0FAF8B7
:1024B000002802D018F0E4FE08E028F097FE00287B
:1024C00002D000201AF0CCF91AF0C0FE012070BD35
:1024D000200005F0D9F8002070BD200005F0C0FAFA
:1024E00070BDF8B50400008966690519802040595F
:1024F000002815D0C1790907090F022907D1827A6E
:10250000D20704D0286F01881039018004E0032924
:1025100006D1807AC00703D02000FFF738FCF8BD51
:102520003100200000236A4601F0DAFD0128F6D0D0
:102530002A0021003000FFF792FF0028EFD1200091
:1025400040F0BCFC00212000FEF7F2F9F8BDFFB519
:1025500087B001241600171F119D04E0FF4830F0DA
:1025600077F820F0EBFF042FF8D22800361F6030F8
:1025700031060690090EB0204843F94B8646C7182D
:10258000FF20401C88408446109E10203B00089A83
:102590008840AC331C3E012A059374D10391F14964
:1025A0006346C96962460B4234D1084204905FD148
:1025B000EB4B7046185C002820D128780022410798
:1025C0000798490F16F031FF6B46998800010907FB
:1025D000090F01430191187900090001187101994F
:1025E0000A980EF32BFC0698017F0A980EF389FED9
:1025F000DC490498CA691043C86139E00A43049968
:10260000D8481143C1615EE00A9878700598FEF7DA
:10261000AEF90EE0D34B07000F420CD0109A03998D
:10262000079820F033FC012803D130000021FEF789
:102630007FF9002479E091430843D8610398B026DC
:102640004643C74F0EE00299A8780A0088700798A1
:10265000143205F0CEF9B85D401CB85502981C380C
:10266000FFF73FFF039802A920F0D8FC0028EAD02A
:10267000002C5AD00398B0235843B94A115C491C26
:10268000115452E0FFE7089A022A4ED10391B5494E
:102690006346C96962460B421DD1050008423BD022
:1026A000AF4B7046185C002809D10698017F0A9844
:1026B0000EF33DFEAB49C869A843C8612CE0A948A8
:1026C0000A43AA43C261109A0399079820F0DEFBDF
:1026D0000028AAD198E7A34B07000F429ED0914350
:1026E0008143D9610398B02646439D4F0EE002997D
:1026F000A8780A0088700798143205F07AF9B85D56
:10270000401CB85502981C38FFF7EBFE039802A94D
:1027100020F084FC0028EAD0002C06D00398B023D7
:1027200058438F490A5C521C0A5420000BB0F0BD7C
:10273000FFB581B00C0006002030007D0D000027A1
:102740002034FE2807D0617A4006C909C901400E2D
:10275000014361720DE0307901280CD1300016F090
:102760006DFD407D002806D1607AC009C001401C83
:10277000607201270FE009208001301814F35CFB20
:10278000617A4006C909400EC9010143617204988B
:102790000078C00704D0E869012109030843E86113
:1027A000A86C02210843A86404980078C0071FD0D1
:1027B000E869C901084320218843E861707902284B
:1027C0000AD10398002803D003980CF3BFFE08E059
:1027D000300005F0B6F804E0002F09D1300030F0E9
:1027E000CCF8617A4006400EC909C9010143617203
:1027F000607A4106490E032907D85B4909788906A2
:1028000003D5C009C001401D607205B0F0BD42682B
:102810009279D20701D03F2103E011225201891899
:10282000098A81877047F3B50024050081B04F4EB7
:1028300030783100497800283ED102F08AFB04004C
:102840000079012806D1029802F0CAFB00285BD06B
:10285000040059E0002801D0062855D128894719DD
:10286000380020303EF0A8FB0500029802F0B8FBCB
:10287000002819D08168CA0416D5727BD2060BD401
:10288000042D11D0002D0FD0012D0DD0022D0BD015
:102890000A2D09D0FF2D07D00400032D916A52D8CC
:1028A00001000000D8270000000400009E612D7187
:1028B00034D1012000038143A1602FE0207900285A
:1028C0002CD07978002016F0DBFBCBE7012801D073
:1028D000022823D102F047FB04001FD060790228B0
:1028E0001CD102980078C0070BD0200002F004FB36
:1028F000002813D0092189014018806B00280DD1D0
:102900000BE0029802F076FB040002F01CFB002CA6
:1029100004D060300079032800D000242000FEBDE0
:10292000F8B505002F0000895419401900901C20AB
:102930002E187C37002928813ED06078217800024B
:1029400008431E2801D91E3800E000202070000A2C
:1029500060708421300018F3BCE90098407CF8775F
:102960006869007903280ED02CF01AFA012809E0D2
:102970005000010050C6000458020004DCE60004C8
:1029800010C9000401D1052000E00020B070A0783B
:102990000007800F022820D102F013FB00281CD171
:1029A00065217977FD49C868CA0D1043C860FC48A5
:1029B0000178491C017010E0607E217E000208430E
:1029C0000007000F2076000A6076E078FB210840BF
:1029D000E070207E0009000120763078072108434E
:1029E000307009203467387728001EF01FF800285F
:1029F00002D1280020F0F0F9F8BD70B5E94818F3CD
:102A0000BCFE04001FD0208905196978287802F0DF
:102A1000AAFA002810D0606168792A792189000219
:102A2000104308180204120C01212000FFF778FF60
:102A300001200BF0B5FC02E0200018F30BFEDA4990
:102A40000868401C086070BDFEB5D548C16909051D
:102A5000090F6CD0D54F0024FF20D14A401CA04064
:102A6000D16903000B425FD0B02565437B5D002B2D
:102A70005AD181431020A0400842D16136D0CC49C0
:102A8000CC4805F0B8EACC4A0020EE1918214143A1
:102A9000535C002B20D089188978737899421BD118
:102AA000182358438118081D029102F0A3FA0299D5
:102AB0000022497816F0C3FC6B461988000109070B
:102AC000090F01430091187800090001187070780F
:102AD00000990EF3BDF902E0401C0428D6D3201D56
:102AE00001067078090E0EF316FC0AE0B349B148EE
:102AF00005F080EA201D0106E8194078090E0EF362
:102B000020FCAC4E0AE0AE49300005F074EA0198B2
:102B10001C38FFF7F0FC785D401C7855200001A9B7
:102B200020F086FA0028EED0641C042C94D3FEBD5D
:102B300030B5A3B068462290FDF716FF04000AA83E
:102B40002FF0D6FF002804D12000FDF711FF23B09D
:102B500030BD06200EF3D0FD0004000C06210CF35E
:102B60004DFD2000FDF704FF229C20000C3002F0F8
:102B700041FA0500210001F093F90128DCD0002D75
:102B8000DAD0A0780007800F0128D5D12A6B0AA9D6
:102B9000002A02D028009047CEE7280020F018FE37
:102BA000CAE7F0B5CBB000277D4C864811970D974A
:102BB000A06120000C220121183008F07FFC20F0D9
:102BC00061FA81484A90C12080022FF04BFD00221B
:102BD000D243734D00927D492869082244ABFEF729
:102BE00078FF7B48416BC20D1143416379482FF058
:102BF00039FD44980028E6D0400607D500200AF0A9
:102C000037FB754948684A06104348604498C00637
:102C10000AD53EF045FC7148072200681021FEF7F6
:102C200064FF382035F02EFA4498000601D51CF0D8
:102C300027FF4498C00501D51CF09EFF44988106EB
:102C400002D5674A00211170400501D500F070FDE2
:102C50004498C00401D5FFF76BFF624C2068002840
:102C6000B1D14498400701D5FEF789FC449880070C
:102C700010D5686A0028A6D104E01398C02200216C
:102C8000FFF74EFE68690422002313A9FEF729FF0F
:102C90000F28F2D14498092108427DD0524801689A
:102CA00041480068814201D0FFF7A7FE6AB4217253
:102CB00001000000D42B0000000400006A0E58C57B
:102CC00002F013FA002888D03A48006A002884D11C
:102CD0001FF044FF002880D1FFF7C0FE0026D7E395
:102CE00000200990089006900D988106401C00294C
:102CF0000D9004D13B49486BCA0D104348633F48CF
:102D00002E4900680968884201D0FFF780FE3889A3
:102D10001222C11931484591083817F348EF2F485E
:102D200045990838828851180C9141887D2292017A
:102D3000914200D3FEE729480838007B082803D3D6
:102D4000264900200839087324480C99083810AA2D
:102D500000F014FD0128079013D110AB187800F093
:102D600008FD08908030466A300002F0CFF80898DD
:102D70000899050014358431159081610120129065
:102D800023E10C993800FFF762FD06007ED0300089
:102D900002F0BCF8040070790C990125032802D1D7
:102DA0003100AC31002506220AA829E095E3000095
:102DB00000A80080580200044CCE0004F802000471
:102DC00050C6000411111111BBBBBBBB24C90004C8
:102DD00022222222333333335834000418C900042A
:102DE000FF1F0000003400800404030040A50080A1
:102DF000E8030004ED040004E0030004EC02000416
:102E000017F3D4EEFF4810AA007B0AA9FE4B18F373
:102E100065FE002805901CD0FC480068002818D0EA
:102E2000FB4800680079002813D110AB1878F549E9
:102E300032002B0000F0D4FC84210890159017F389
:102E400052EF1598089905001435843181610120ED
:102E500048E00120099016A88421159017F342EF4D
:102E60003CA81C90E748159D407B1435C00729D02D
:102E70001FF0EEFE27F030FF00281CD0E548007858
:102E8000002818D118F0CEFF002800E019E010D07B
:102E900030003FF085FB012100220091D9490192C9
:102EA000497B02000907CB0F012130000AF0DAFA52
:102EB00001E01BF079FA28F0CFF8002801D035F0B6
:102EC0004DFAE0E13079012804D07179022901D06E
:102ED000062804D10C99300002F020F902E03000FD
:102EE00002F02AF91290E37F31002800FFF7A3FCDB
:102EF0001A00290030000AABFFF72EFCC64901205A
:102F00000979C90609D47179022905D10521C901B8
:102F100061180978090700D400200E903079002844
:102F200017D1300020304990807D000711D429202E
:102F3000405D4006400E18F34BFF0400122018F3CA
:102F400047FF844205D84998807D8007C20F012140
:102F500004E03620805D0E998007C20F280018F328
:102F600029FEAE488068002807D00C980078C0077A
:102F700003D1E86920210843E861E869810615D595
:102F8000A7490968002911D02921495D4906490E40
:102F900029290BD3012109040843A249E8610968E2
:102FA000002903D0012149040843E861059800285D
:102FB00018D02920405D4006400E04F065FE002830
:102FC00006D09949C84305F020E801200F9010E091
:102FD00095489649C04305F018E802200F9001205B
:102FE000099006E090489249C04305F00EE80020A1
:102FF000F4E790490120087000F0D3FE079A009290
:10300000129A45982B00310000F0B9FA1C21398141
:103010007918159C46910021A18069807E61159CDC
:10302000784937944A880006000E121A30AB9A8409
:10303000459A8988101808183890002038ABD87144
:103040007079032801D001280CD1300002F074F807
:10305000002807D06B48017B300002F079F86949FD
:10306000087315E03079012804D1300002F064F8CB
:10307000002805D17079022802D03079062809D1BC
:103080000C99300002F04AF8002803D05D48007B1C
:1030900038ABD8710F98002807D037980121806885
:1030A00009070843379988600FE0129800280CD070
:1030B00038ABD9790122300016F0CBF98CBACC7E2E
:1030C00001000000D02F00000004000039D48BA9BB
:1030D00030AB998D00010907090F014399850798C5
:1030E000089A00280DD04C4806A9C0886B460006F7
:1030F000000E07C33900119B14AA37A803F0E9FC9E
:1031000011E006A802901299434804920391C088E6
:103110000F9A0106090E01920091119B390014AA21
:1031200037A803F0F9F9698C0028E18003D04749FA
:103130000968002909D000213800FDF717FC434930
:1031400000274868401C4860ACE11499002917D05A
:10315000A1680122D2061143002EA16009D00D21E1
:1031600089017118496B002903D060310A8B521C08
:103170000A8329494A7B920602D54A7C7F210A5557
:1031800020674A9817F35EEE00094A99000117F389
:103190006AEE290020314891497A10224906490EE9
:1031A000114308434A9917F35EEEE0601A48407BEA
:1031B000000706D51FF056FDA0680121C907084386
:1031C00002E0A06840004008A0603079062803D1E2
:1031D000206F20303DF00EFF7079032801D00128C8
:1031E00008D10D48817B027B4B002100300001F0AB
:1031F000E8FF50E01298002803D00748007B18F33E
:103200001BFF18F32AFF0490079800282AD10F9873
:10321000002824D0014A1BE010C9000424C900047E
:10322000A41B0004BC00000414040004DCE6000439
:1032300058020004A09401C0A49401C04444444432
:103240005555555566666666941B00046C9101C021
:10325000210010AB18787C3118F379FC02E0049956
:103260007C200155E248416A04984000A430085A85
:10327000E049884203D0E048807B002802D1A08842
:1032800000280FD0DC480499807B43007C20025D3D
:10329000200001F077FF002804D100213800FDF75D
:1032A00065FBFEE03079002802D0707903281DD13B
:1032B00001F000F9002819D0CF48C088DF2802D1DA
:1032C00037217D200155CD48A0800898002805D0E1
:1032D00010AB187800F026FA00F03EFA0F9801289B
:1032E00004D0E0680E2118F366FCE060A088002896
:1032F00003D02900200004F088FCC148816800291F
:103300000AD069880122D203114369800021296112
:103310006961C168491CC16045982865469868651F
:10332000E88960820798012820D1B348C088E62840
:10333000207802D18021084301E04006400E10AB06
:103340002070B049187818F3CCFB7C20005DB023C6
:10335000001F5843AC490A5C521C0A542088288438
:1033600046988422210017F396EC97E014980028E1
:103370001FD00F9801281CD030002FF01CFB4106F5
:103380004898490E407AC009C001084348994872DC
:103390003179032904D1C0094899C001401D487200
:1033A000E869A0218843012109030843E86101205D
:1033B0000990A88920820698002801D08021085110
:1033C0004898407A4006400EA070206F807800092F
:1033D000082810D14A9817F336ED87490122C98889
:1033E000E62900D000220092020038ABDB792100F0
:1033F000280018F3C1FB0F98012810D18349844895
:1034000004F00CEE10AB7F49187818F36AFBA06843
:10341000012149070843A0600A20287009E07B4980
:103420007B48C94304F0FAED2A002100300007F080
:1034300037FD2A002100300004F0F9FA754974487C
:1034400004F0ECED7248A16804F0E8ED2000603073
:103450004790017F6E4804F0E2ED2088288446986A
:103460008422210017F316EC0F9800280CD04699FF
:1034700001940091479810AB027F1B780F993000A0
:10348000FFF783F800280CD00998002806D1089887
:10349000844203D108980121A03001733800FFF75E
:1034A0003EF800275C480068002817D1002F00D0A4
:1034B00020E444980821084202D004F0B4ED0BE067
:1034C000564818F36EF9002804D15548E9778DE77E
:1034D00001000000CC330000000400008611AE1A89
:1034E00018F369F9002801D0042101730700E9D11C
:1034F000002E06D00F2080013018C068032129F06B
:1035000025FC4D4900200870FFF77BFBF8B504004F
:103510000D001600001F032840D8484A201F012133
:10352000D2698140114239D0B02343433B4FF95C0B
:10353000002904D0491E0906090EF95407D1FF21BC
:10354000491C8140114202D001200AF047FF002DA2
:1035500024D02869002821D02F4A00201821414377
:10356000535C002B1BD08918C978A14217D11821B0
:10357000414389180C0029680A34096FE31C098B40
:103580005A1E0909491C218000211970117800294F
:1035900004D10106090E30001DF0AAF8F8BD401C48
:1035A0000428DBDBF8BDF8B504000800174D0699C8
:1035B000AF8800263C195F68012916D1EB8802000C
:1035C0002100AC32E62B09D00379012B06D04079DB
:1035D000022801D1891D02E0062B00D1110038001C
:1035E0001230062217F3F6EA05E00092074923009D
:1035F0003A0000F025F8E888E62800D00C263000D4
:10360000F8BD000004C50004FFFF000010C900045D
:10361000FF7F00006C9101C024C9000450C6000463
:1036200077777777BBBBBBBB99999999E003000487
:1036300024CE000410CE0004941B000458020004A1
:10364000FFB583B00C00911C06000C9817000022F7
:103650000291130069460CC10122E179A3790902A4
:103660001943E92900D00022617BC907C90F0AF379
:1036700003FA0500E079A17900020843EA2803D1A2
:10368000617B0822114361730F2332799B01310062
:10369000AC31F418012A18D0062A1DD10B00069966
:1036A000220038000AF3B9F9A06A808F002801D0FF
:1036B00001200003054302980622058038001A30D5
:1036C000694617F388EA07B0F0BD0B00069922009F
:1036D00038000AF3A2F924E07279022A15D1069B78
:1036E0000A0006999B1D38000AF397F90120400251
:1036F0000543B879C007DED1022130003BF071F9F3
:103700000128D8D140030543D5E7E62801D10B00B5
:1037100000E0069B220038000AF37FF9FF20401CDE
:103720000543044800680079C0E702480068007952
:1037300070470000BC00000410B50400FDF732F92A
:103740003A4A01211368A14019431160FDF72EF98F
:10375000012080020AF042FE10BD34490F2010B54E
:103760000860012080020AF039FE10BD70B5FDF737
:1037700019F92F4D2D4E00210C003268D30704D0CB
:10378000B8234B435B19A0331C735208491C04290E
:103790003260F2D3FDF70AF970BDB82358432449CB
:1037A00040187047F7B505000026214F3400B820B7
:1037B0006043C1190800A030027B012A1FD16A783A
:1037C000037A9A421BD12A78837A9A4217D12A7BAC
:1037D000437A9A4213D1C07A002802D1687BC0068E
:1037E00009D58031486A1349062241180198FCF72F
:1037F00016FD002803D102980126047002E0641C23
:10380000042CD4D33000FEBD30B51C00B82358437F
:10381000074B4D78C0180300A0331D720D789D72C0
:10382000A4252A50097B5972DC7230BD981B000414
:103830008CCA000429020000FFB581B005000020F9
:103840001E4C2860206A0E001700002817D0FDF7D4
:10385000A9F8216A002910D00A79032A0DD1096A32
:1038600000290AD02960216A09683160216A496A01
:103870003960216A0A6B04990A60FDF797F805B070
:10388000F0BDF0B587B006000F00002504AA05A919
:1038900006A803ABFFF7D0FF069C002C0AD0049AC1
:1038A000019233000022009705981100A0470028DC
:1038B00000D00125280007B0F0BD0000283A000420
:1038C000602101817047F8B500241600250000280A
:1038D000009423D13000694600F01CF90EB8720D37
:1038E00001000000C837000000040000D5CB7D7641
:1038F00004000CD06B461A88802A04D3E188032088
:1039000018F367FB02E003200DF35DFF60816B4657
:103910001888002804D0602020811888A08007E043
:10392000002C05D031002000A580FDF729FA0024E5
:103930002000F8BD10B50400E52100F04FF8002884
:1039400008D02C48210017F398FF2B490868401C29
:10395000086010BD274821003C3817F38EFF10BDCA
:1039600070B50C000026012B2DD0244D042B05D062
:103970000F2B31D11F48210028381CE000F041FDF9
:10398000002804D0022001F02FFB31F073FF002C3F
:1039900013D0E521200000F021F8002808D01548B8
:1039A000210017F36AFF14490868401C086004E00E
:1039B000104821003C3817F360FF286807220121D6
:1039C000FEF7BBF808E00B482100143817F355FF49
:1039D0006069022104F03EEB300070BD10B5028931
:1039E0001218D37994791A02012022438A4200D016
:1039F000002010BD4CCE0004EC020004680200045C
:103A0000002801DD002004E06521C943884200DA76
:103A100008004042000600167047662801DD662057
:103A200002E0002800DA00200006001670470000BF
:103A3000F8B5040048D0200040300600007D800624
:103A4000470FE07E00902000143017F310EA0502C3
:103A500020002D0A183017F30AEA8103890B3B0076
:103A600017F3DEEA051B1F1414042300E8040A23DD
:103A7000AA07400F920F584309065A43090F4018EE
:103A8000110040181F300006000E0FE028066906DE
:103A9000C00F490E0DF3CAFF08E000980DF3A7FF11
:103AA00004E000980DF38CFF00E0FF20E076307D0D
:103AB0008006410F0B2020560BF066FAE0720720BB
:103AC00020560BF045FAE071F8BD384810B5C169D1
:103AD00044690A05120DD308006ADB00E3180405E7
:103AE000240DA24205D1012212031140104081424F
:103AF0000ED158682E490068000C884208D02D4924
:103B00000868401C0860002009F0DAFB002010BDA6
:103B1000012010BD284B002002004102C918401CA2
:103B200080280A60F9DB7047F3B581B00D000027EB
:103B300022480F80006B1D4C000C1434E060FFF72E
:103B4000C4FF00282FD0A06869460604360C032065
:103B5000009618F378F9040025D06B4619888E4238
:103B600007D0144A5068401C50600322300018F3FC
:103B7000C1F901986022210017F336E82760019807
:103B8000FFF756FF6B461988E180022127612173F8
:103B90000199200060306031060017F378E9308821
:103BA00028802000FEBD0020FEBD0000FCCE0004E9
:103BB000EFBE0000949101C0006003C0C0A300806C
:103BC000F1B56120C04384B00027039002900499AE
:103BD000B80040180D2189014018846B002C7ED05C
:103BE0006078217806020F200E4380010640F6D04F
:103BF0000520C001064208D00398623005D1049820
:103C000029F0B4FD000400140390FF204130064267
:103C100008D00298623005D1049829F09DFD000477
:103C2000001402900025300614D53021095D039A56
:103C30000120914200DD002080210091230022001C
:103C4000010004985E333032019712F057FA0028D1
:103C500000D08025B00517D53C210A5D03990120CD
:103C60008A4200DA0020012149020091230022004B
:103C7000010004985F333C32019712F03FFA0028AC
:103C800002D0012040020543700616D52A21095DA5
:103C9000029A01204942914200DD0020402100911A
:103CA00023002200010004985C332A32019712F0AD
:103CB00025FA002801D040200543F00518D536210B
:103CC000095D029A01204942914200DA0020FF2654
:103CD0002300761C5D3322003632010000E017E03D
:103CE00004980197009612F009FA0028E65B054D4A
:103CF00001000000C43B00000004000021A408C231
:103D000000D03543002D0DD0002F0BD104981B217E
:103D100049014018818B2943818301210498C906F8
:103D200004F0A2E97F1C3F063F0E012F00D258E7A6
:103D300005B0F0BDF3B500240500260081B0A00059
:103D40000D21401989014018806B00284BD0417823
:103D5000027809021143490745D5029909690029EA
:103D60000CD101006031330A4E708B70C07C0A00A8
:103D70000121002800D00100117034E00100603101
:103D80008A784B7812021A43521C1204120C130A3E
:103D90004A708B700B78002B25D0877CBA4222D3D7
:103DA0005B1E1A06120E0A701DD1320A4E708A70FE
:103DB000C27C002A01D00A7008E04178027809022A
:103DC0001143042291430170090A4170002C0AD169
:103DD0001B2040012818818B042211438183510646
:103DE000280004F042E9641C2406240E012CA6D30A
:103DF000FEBD4349C868401CC8607047F0B51D004F
:103E00001FB40020C04384B00090019004980D219D
:103E100089014018846B002C42D060782178000220
:103E200008434005002700283ADA0BF376F9069A92
:103E30000E002B00121A8B41029005D2069A0298AE
:103E40003100801AA94107E0069A00980199801A6A
:103E5000029AA94180187141060020000D004A30E5
:103E600017F30EE82B00321ABB411BD3244EF08807
:103E7000401C05042D0C20004E30F58017F300E89F
:103E8000A8420DD8F78004981B2149014018818B66
:103E900001229202114381830498510404F0E4E862
:103EA00009B0F0BD1648C780FAE70D2292018018CC
:103EB00010B5846B002C1FD060782278000210436C
:103EC000400519D5487D0AF3FEFE4034E179A27918
:103ED0000B0213430A49002298420ED88888401CDE
:103EE0000004000C8880637A247A1B0223438342F7
:103EF00002D8012008818A8010BD0A81FBE70000FA
:103F0000A81B0004FEB50500002007000190012059
:103F100000900C00280001F021F8A079C0077DD1A5
:103F2000002D09D0A868C00478D4280027F03EF8F6
:103F300000285FD002205EE0A0780107890F2CD115
:103F40000009042829D1022001F018F806000F20EA
:103F500080010DE00F20800131180622A01DFCF722
:103F600072F900285AD00221300015F055F90600E8
:103F7000002EEFD1032001F001F80CE00F208001AA
:103F800031180622A01DFCF75EF9002846D0032157
:103F9000300015F041F90600F0D120001FF004FFB9
:103FA0000028019015D0019815F05CF9050003D1A7
:103FB000032000F0E3FF05002879002801D006283F
:103FC00007D1A0780007800F022802D1E07880078F
:103FD00015D5002D13D02879022804D128000BF024
:103FE00031FF00280BD02879032805D168790028F3
:103FF00005D001E001200090207BC00702D00127FE
:104000002FE00BE0A0780107890F09D100090D28E6
:1040100006D1E078C10703D1800701D40020FEBD9E
:10402000287921002AF0DEFF0099884219D901275A
:104030000726032800D0062668790C34022805D10B
:1040400032002100280010F0A5FA0AE001982CF0B7
:1040500071F8002805D1320021002800002338F033
:10406000E3FE3800FEBDFEB5070000F077FF0190CB
:10407000380000F09AFF040038793D000C34A03578
:1040800003281CD17D20C00000906068002806D065
:104090006989009817F302EB21680E1A00E0266880
:1040A0005820005D012810D900206060217E0F207B
:1040B00080010129019905D10818406A0AE01048D9
:1040C0000090ECE70818006A04E0012803D1687A40
:1040D0004000401C20606989009817F3E0EAB04274
:1040E0000CD338000CF090FA002807D011204001C2
:1040F0003818418A002238000DF05AFB774F31768C
:1041000001000000C03F000000040000727EDBAE32
:10411000FEBD00008813000070B5050000F04FFFE1
:104120000400280000F024FF112201005201891828
:1041300049880C340020012903D1E16F012900D105
:10414000012070BD10B589780A07930F022B04D1A6
:104150000B09042B08D00C2B06D0920F02D10909B1
:10416000052901D03AF0E8FB10BD0000FFB583B08F
:104170000D00FCF735FC0190039801890E18059895
:10418000346F0021016002916879370014370228EA
:104190002DD128001FF0A2FEA179C9070BD028005D
:1041A00000F0E6FE6921C9004018006800281ED012
:1041B000E078C00917E0A1780A07930F02D10B0934
:1041C000052B14D0920F022A04D1090904290ED01C
:1041D0000C290CD0007E012809D18C480622A11D93
:1041E0002818FCF73AF8002801D10120029000209D
:1041F00000900298002810D12879032872D168799C
:10420000022801D0032871D10021280003F03AEFE1
:10421000002868D1012002900090A079C0070CD13D
:104220006879022809D1A0780107890F0DD100090A
:104230000C2806D128000CF064F9A0780007800F44
:1042400003D1A078000905281FD0039870490069A0
:1042500088420DD0039928000CF0A6F8070014D06E
:1042600003980021FCF7AAFB03973889C619346F1D
:10427000009903980CF010FA002806D1069A0399C9
:1042800028000CF097FA00283AD00598012707601B
:104290006879022809D1A0780007800F05D1320083
:1042A000210028000DF0E4F907006036307F2A0075
:1042B0000021FFF749F9F27F002A04D07421280079
:1042C000012325F069FF002F03D003980021FCF79C
:1042D00075FB00F0AAF8002812D0022000F098FE2A
:1042E00031F0DCFA0CE02879032809D17C20805DCC
:1042F000001F042804D33A003100280003F0C6EE62
:104300000198FCF771FB029807B0F0BD10B51FF0E3
:10431000E5FD0021603001744174817410BDF8B571
:104320000D0006001700FCF75BFB0400002E24D0F4
:1043300030001FF0D3FD7D21495D312916D032298F
:104340001BD16030017C012917D1417C002904D0A8
:10435000491E0906090E41740FD1012F0AD1287890
:104360004107490F30000CF03BFF06E03000FFF73B
:10437000CDFF02E00021017481742000FCF734FBC2
:10438000F8BDF3B581B00E0001981FF0A7FD040041
:104390005820805D45076D0F280017F375FE01005A
:1043A0000198002831D001980722D2018018C06BF3
:1043B00000282AD0200060300700007C012824D08B
:1043C000606F0CF0CAFE00281FD0207E01281CD18F
:1043D0003000603016F35EEDC178C90615D58078DF
:1043E0000107890F022910D1000900070DD501200E
:1043F00020343874A178C80703D00198002205F052
:10440000B1FC019829000CF0EBFEFEBD2902000072
:10441000981C00041E48006870471D48006800286A
:1044200001D1012070470020704710B534F0E7FB40
:10443000002805D0FFF7F1FF002801D0012010BDB2
:10444000002010BD10B534F0D5FB002805D0FFF7D3
:10445000E4FF002801D0012010BD002010BD10B5E0
:104460000400FDF70DFB002805D1052C05D100F057
:1044700009F9002801D0002010BD06F0F7F9002846
:1044800003D10448806B0028F6D0012010BD000045
:10449000B804000468D30004154810B5006800286B
:1044A00016D1144800220068462105F324F800289C
:1044B0000ED111490A78002A02D00870162005E0B2
:1044C0000E490A78002A03D008701B2033F016FE2C
:1044D00010BD10B50A4CA088002807D0FDF7D0FA0F
:1044E000002803D025F0B4FE0020A08010BD0000FD
:1044F0007804000400000004110400041204000405
:10450000EC0400040748807C002808D1378152FB66
:1045100001000000BC43000000040000708703B8E5
:10452000054800234038C16E806E5940584008430A
:1045300000D0012070470000B84000044F49504AA5
:10454000800009581258914201D2012070474C4A0C
:10455000121F1268002A06D0494A103210588842A9
:1045600001D9022070470020704770B5454A0169A3
:10457000914201D0002070BD4049C07B10310C5CDD
:10458000FCF738FAA1003D4B3D4C5A586458A24202
:1045900004D93B4D2D1F2C68641C2C60521E5A50B0
:1045A000FCF72CFAE6E7FFB581B0002406001F00F7
:1045B0003448864206D0039A0299300017F3BAF8BD
:1045C00005B0F0BDFCF716FA00903800FFF7B6FF13
:1045D00005001CD0039A0299300017F3ABF80400D1
:1045E00015D02649E07B10310F54B80010390A5815
:1045F000521C0A50607B0121084360732248022D3F
:10460000A06104D11E49091F0868401E0860009877
:10461000FCF7F4F92000D3E70422072110B515F0C8
:1046200080FB002800D0012010BDF8B500241848F8
:10463000164D8679878809E01649600140182022C6
:10464000290016F3F0EAED192D1D641CB442F3D3D2
:10465000F8BDF8B500240E480C4D8679878809E02E
:104660000C49600141182022280016F3DCEAED19FC
:104670002D1D641CB442F3D3F8BD000050DA0004D1
:10468000081E0004981C000407440000006E04C0CB
:10469000A41C00046CEF02C0014880897047000030
:1046A0000C050004F0B5002591B00C9520F0C8FF72
:1046B000FE4E3469FD4840300768380706D503F0E0
:1046C000F4ECFA490820C04340310860381EF84F26
:1046D00017DA142021F0F4F9F648C06B00280CD04A
:1046E000B868401CB860402009F0A0FEEF48403098
:1046F000416849004908416003E0EC49EE48403117
:104700000860EE4920000840ED4909780843796ABD
:1047100008437862FFF78BFE002817D0786A0028DC
:1047200014D1E848002200681B2104F3EEFE796AE8
:1047300008437862786A002808D1E24800220068BD
:10474000082104F3E2FE796A084378620AF3BCFEAA
:10475000E00101D5DC48306120060CD5DB49086852
:10476000401C086006F08CF8002802D0042009F0F4
:104770005DFE30F087FCA00301D5D5483061A00470
:104780000ED5CA48403840680C90000602D501207A
:10479000C00704430C98C00602D5012080060443DC
:1047A000002C12DA0C98000609D5FEF707FABF486C
:1047B0008021C94340384160C648306103E0012090
:1047C000000309F033FEBC483061200502D5C24821
:1047D00001253061C148610110907ED50020029012
:1047E000019006AA07A90BA805AB2EF099F900289D
:1047F000039011D00220054300068443C04330617A
:1048000007980C3000F03CFC0028019004D1039084
:10481000069907983CF0C0F934F0F6F9002806D064
:10482000AF480021C161AE492020403108600398A3
:1048300000287ED0FFF710FE00280AD0A948806C1F
:10484000002804D101210198890303F022EC0AF029
:104850004DFB01983CF076F800286BD00198007968
:10486000012829D1079900294ED00198123115F05D
:10487000D0FA002848D01099002016F326EB8D4876
:10488000C038806B974900200865B86A00283BD182
:1048900095480068401C37D001210198890203F037
:1048A000F8EB0120B86201980F2189014018C06817
:1048B000042128F073FA27E0002010F07FF902901D
:1048C00034F0A7F900281DD0019833F02FFE009096
:1048D0000AF337FC009AFF3200E02BE1521C0F92E2
:1048E000D161906106990F9A4B68086853626B46D4
:1048F00010629A8A0C310C3A052014F36EF90F9A63
:104900008078906238F05CFC33F0ECFB0006000E1F
:1049100004900B98C17E0A91C17A09913207F13156
:1049200001000000B847000000040000235DD0D45F
:10493000C1790891FFF7A4F80B99019834F0CDFDE7
:104940000A990B9801E0F4E0B8E0C1760999C172C8
:104950000899C17101980079032815D1019814F0C4
:10496000FFFD002810D00199497903290CD1807FDF
:10497000C00709D06249002002900880052033F06A
:1049800043FD032033F0CEFB34F052F9002872D0FF
:10499000FFF757FD00286ED0029800286BD00498CE
:1049A000002868D134F03FF9002864D1FDF77CF885
:1049B000002803D11EF008FE00285CD0F869012809
:1049C00007D050480088002851D04D480088002862
:1049D0004DD06B469A8A06990C3A0C31052014F397
:1049E00006F9010001982FF0F3FA0090464800689C
:1049F000002806D016F362EA022108430099084213
:104A000033D13548002200681B2104F388FD0028BB
:104A10002BD1019809F0F0F8002826D13B4816F375
:104A20004EEA0099084220D13548008800281CD061
:104A300037490098084218D16B469A8A069901981E
:104A40003AF09AF9002810D00220854310F0BAF805
:104A500005200CF3A1FE0004000C05210AF31EFE44
:104A60000198012103F01EEB01E0012038620020D3
:104A700078620DE0FFE7F869012807D02148008837
:104A8000002805D01E480088002801D00120386287
:104A9000019803F018EB00283FD0049800283CD080
:104AA000FFF7CFFC002835D026F05CF9002831D183
:104AB00026F018FB00282DD1012038622DE00000DF
:104AC00000A5008050050004C0A80080FFFFFF7F04
:104AD00080880000941B000400000004FFFFFFFE1C
:104AE00024040004FFFFFDFFFFDFFFFFFFF7FFFFD0
:104AF00038E7000400A60080E0EE02C04C05000488
:104B000000050004643F000498000004BC03000496
:104B10000B800000082009F093FC386A012808D1B6
:104B20000020F861FA49088002208543032033F011
:104B3000F9FAF84830610C98C00605D5F6491020FE
:104B4000C0434860F548306120017ED500200A90BE
:104B50003068800705D50021012014F0E1FA0B90A0
:104B60000BE03068C00771D0387814F0F5FA0B907C
:104B70000BF086F90028F6D00B980028F3D00B989C
:104B8000C0304068002846D0406820300A900B981A
:104B900029F096F80AF3DFFA0B9A0F239B01D2183B
:104BA000D268516210620A98002834D00A98807A3C
:104BB000C00730D00B98407902282CD10B980BF00D
:104BC0005FF9012827D10B9800F0E6F94B21C900C5
:104BD0000990401808902030007900281BD0089ACE
:104BE000089925320B982D310E9211F325FC099866
:104BF000406C00280FD008990E9A0B982E312FF098
:104C0000A9FB09980521C9014018807A800702D5BF
:104C10000B9808F0F9FF0A98807A80074BD533F09B
:104C2000FDFF002806D0BE490020C861BC492020F5
:104C3000403108600AF09EF9BA48806B0D900AF086
:104C4000ADF80B983BF0BEFD01E070E033E00B984F
:104C50003BF05AFE00282ED0B3480068401C2AD0F2
:104C6000109816F32CE90D994018109916F336E9AF
:104C70000B99A03149894843AC49884205D3B96AA8
:104C8000002902D0AA4A01211165AA49884212D3FB
:104C9000B86A00280FD01099002016F320E90121EE
:104CA0000B98490203F0FEE90020B8623AF04DF893
:104CB0009F4900200865FFF7CCFB002835D0022073
:104CC00000F0BAF9099033F03BFC0890099800F025
:104CD00063F90790099833F025FC0690072033F01C
:104CE00021FA8F480169026A0698008802281CD1BF
:104CF000002901D0012A18D10898C030007E002870
:104D000013D106984068C00707D007980921890188
:104D10004018806B002808D104E0FF2009F010FC47
:104D2000002802D0132033F0FDF983482298F83789
:104D300001000000B44B000000040000D732A56061
:104D40003061A00101D582483061002D05D0814835
:104D5000072200682900FCF722FFE0007ED533F02F
:104D600067FF002807D001214904002003F0A4E9CF
:104D700074490020886416F0F9FC002801D016F070
:104D8000F3F93068C0076FD07348806A0006000EE0
:104D9000387014F0EBF905004FD0FFF764FB0028E2
:104DA00010D0280033F0C8FB6B49496B3A780123D7
:104DB0009340194201D0002100E0012181700620BA
:104DC00033F0BAF92800A030417E491C0906090ECB
:104DD0004176027E91427ED1002141760F208001F2
:104DE0002818C068C07B0028F5D15B48416B2800BB
:104DF000C030027801239340FF22521C1343564ACD
:104E0000194351636979022917D14A490078403121
:104E1000886048490869096A012801D001290CD134
:104E20002879022805D00121280003F04AE900284A
:104E300003D0012128000BF09EFD2879032813D10F
:104E4000280014F097FB0B908068C0050CD5280053
:104E500003F046E90B98FF21806801E006E003E0DB
:104E6000491C88430B9988603C483061E0020DD5AD
:104E7000012014F0EDFF002806D03249012088649B
:104E80008103002003F018E935483061E00702D0C3
:104E90000120C0433061A0070DD57868401C7860C0
:104EA000102009F0D7FA0220C04330610120C0036E
:104EB0008443C0433061200405D52A480722006896
:104EC0000121FCF76CFE600707D5F868401CF8600C
:104ED0000420C04300E049E03061200705D538696F
:104EE000401C38610820C0433061E00605D5786970
:104EF000401C78611020C0433061A00605D5B86918
:104F0000401CB8612020C0433061F869002801D1FD
:104F100020F076FB14488168820D1143816011B046
:104F2000F0BD000000050004FFFFFFFBC0A40080EF
:104F3000FFDFFFFF00A6008000A800804C050004F2
:104F400050140000E0EE02C0581B0000FFFFFFF706
:104F5000FFFFFFFDE8030004C0A20080FFFFFFEF9A
:104F6000FFFFEFFF64060004003000800D4A506B25
:104F7000397801238B409843D10D084350635CE797
:104F800070B504000D0040200DF082FA002807D112
:104F9000054901204002C86029002000FFF796FB68
:104FA000012070BDC0A20080003000800100002000
:104FB000002906D00F230A799B01C918022A01D1C2
:104FC000886A7047032AFCD1086B704770B50500EA
:104FD000FBF724FD7E494C6809E0072D02D02179BA
:104FE000A94203D1FBF71EFD200070BD2468002CF0
:104FF000F3D1FBF717FD002070BD002100280AD077
:105000000279022A02D17D21C90003E0032A02D1DC
:105010003F21090141180800704770B505000E00D6
:10502000FBF7FCFC6A494C680AE0A179A94206D169
:10503000E179B14203D1FBF7F5FC200070BD246893
:10504000002CF2D1FBF7EEFC002070BD6049022875
:1050500001D108697047C86870472030407DC0069C
:10506000C00F704710B504000AF30CF90F21890135
:105070006118886310BD70B5FBF7D0FC050054487B
:1050800044680AE0200014F0ABFE002804D0280099
:10509000FBF7C8FC200070BD2468002CF2D128006A
:1050A000FBF7C0FC002070BDF8B507003CF030FBFA
:1050B000002801D00020F8BDFBF7B0FC06004448F2
:1050C000444D44680CE0062239006019FBF7E3F810
:1050D000002804D13000FBF7A5FC2000F8BD2468AF
:1050E000002CF0D13000FBF79DFCE3E7F8B505009C
:1050F0000F0008003CF00CFB002801D00020F8BD98
:10510000FBF78CFC06003248446810E02079A84286
:105110000CD1200006223900AC30FBF7BCF8002887
:1051200004D13000FBF77EFC2000F8BD2468002C81
:10513000ECD13000FBF776FCE0E770B5AB0D43BA7D
:1051400001000000B04F00000004000084E8760C6D
:1051500005004078002801D1002070BDFBF768FCF5
:1051600006002048446814E02079012810D1A820C6
:105170006A78005D82420BD12000A91C8830FBF7C1
:1051800094F8002804D13000FBF756FC200070BDD5
:105190002468002CE8D13000FBF74EFCDCE770B54A
:1051A000FBF746FC05000F48446800E02468002C2B
:1051B00009D020003BF0CAFB0128F7D12800FBF7FB
:1051C0003BFC012070BD2800FBF736FC002070BDC1
:1051D0000978C90701D00020704780680005C00F1A
:1051E00070470000281E000429020000002805D096
:1051F0000F21890140180069002801D10020704763
:105200000078704703000A0000B5FFF7EFFF0028A1
:1052100007D00F2080011818016960205043AC307E
:10522000085C00BDF8B504000F00954910004E6AF7
:105230001D0022F027FD0421615E002908D17900BC
:105240008919A03189888D4204D2491BA18003E0CD
:10525000002901DA0020F8BDA188081AA0800120E9
:10526000F8BDFFB5012081B00C001F00009001982F
:105270000026FFF7BBFF25006035002803D001980A
:105280000079012802D1002028772CE0FF2A27D0BE
:1052900001990F20602380015A430818110000690A
:1052A000A931AB32415C865C75484A00406AA43241
:1052B000805A744A904201D0002F02D1A088002861
:1052C00011D03B0032002000FFF7ACFF00280AD1CC
:1052D000A178019801221EF095FF002005B0F0BDD5
:1052E00000200090FAE72E770098F7E7F3B591B029
:1052F0000C0000260D684021286F10901435684678
:1053000015F34AED2000694634F06AF800246F4630
:1053100017E01198FFF76AFF109903000A88E969FE
:1053200020000904090C09F313FD8619E86921001E
:1053300002041198120C04F0C5FF8619385D401E56
:105340003855385D0028E4D1641C2406240E3D2C19
:10535000F7D3300013B0F0BDF8B504000F22086891
:105360006023056F0600007892014007400F584304
:10537000A1180969B230085C143683009A1889189C
:105380000AF0C6F90700092080012018416BCC30D3
:105390000B5CF0692A8801041800090C012309F349
:1053A000D7FC010038004843F8BDF8B506000A688C
:1053B0000F00146FFFF71AFF00283DD00F20800167
:1053C000301801693868602300784007400F58435F
:1053D000238B4018A030457A1B090382A07800096E
:1053E0002AD0082801D00C2826D11420684344185C
:1053F0002079000720D59068800004D5390030005E
:10540000FFF7AAFF03E039003000FFF76FFF218AA2
:10541000C002000C00290FD0227D002A0CD1628A24
:1054200010180004000C8842608205D90120207504
:10543000290030003DF04CFFF8BD03000A0000B524
:10544000FFF7D4FE002807D00F208001181801694B
:1054500060205043AE30085A00BD03000A0000B57A
:10546000FFF7C4FE002809D00F2080011818602320
:105470005A430169AE32885A431C8B5200BD00006A
:1054800004C50004FFFF0000002810B502D101226E
:10549000FF4BDA61FE4A80000C32105840308183A5
:1054A00035F058FB10BD10B50C000221002807D1C3
:1054B000F74A9378002B00D0032100235370937098
:1054C000F34B82000C339A581461FFF7DDFF002084
:1054D00010BDF8B50D0000260700002800967ED10B
:1054E000BC00032D01D0832D20D1EA4816F3A9F981
:1054F000E749343108608069E749884212D1E44BBA
:105500000C331868006880070AD5E44900201A594E
:1055100051661A591268920702D5401C0A28F6DB18
:1055200001200090DE482DF001F919E0052D0CD185
:10553000D748C06C0606D748360E143816F381F9E2
:10554000D449BC31B20088500AE0022DF3867BBCFE
:1055500001000000AC530000000400003B2D53BFCD
:1055600001D0822D06D1D048143016F374F9CD49FC
:1055700034310860E943880701D0A80703D5C9483A
:105580003430005905E0C84AF801BC328018B20036
:10559000805802898018890741D0A9073FD44278F2
:1055A000017812020A43BF490C310D5973001833B8
:1055B000EA520A5960321675457802782D02154371
:1055C0000A59D5520A590D00D066303501222859A2
:1055D000B24010432851B348C05D002811D1881F44
:1055E000C05D012809D9AF4BDA6C521C9042DA64D5
:1055F00000E013E001D10020D864085900690028B8
:105600000CD1002F04D10520FEF75BFF002805D048
:1056100029593800FFF751FF00202851F8BD427882
:10562000017813020B439F490C310A59C0321360B1
:1056300009598031C863380035F084FB0098002890
:10564000ECD032F017FE974801214170F8BDF8B553
:1056500004000D007DD0E06800287AD1914E3436E8
:10566000022B78D020271C22E819A918032B0CD074
:10567000052BF2D12F81C37886781B0233432DD1BD
:105680002800FBF71BFA0120F8BD2A81C278837835
:1056900010021843001D0870000A4870012088702D
:1056A0000020C870FBF7CEF90700E06814235843C8
:1056B0007D494018290016F326F97F482DF040F85F
:1056C000E06881007158002903D03800FBF7BEF96B
:1056D000D9E70321FFF707FF380084E02A81C27869
:1056E0008378120246791A4303793006001418436E
:1056F0001018001D0870000A487000208870C870DB
:10570000FBF7A0F90600E0681423674958431439F1
:105710004018290016F3F7F8E0686349C001BC316E
:1057200040186049C96C8900405800280FD10520F5
:10573000FEF7C7FE00280AD0E26810009100594A1F
:1057400038325158002902D10521FFF7CCFE300034
:1057500049E04AE0FFE72889471908300004000CB7
:105760002881F97ABA7A090211434019032282701A
:105770000022C270083101700422090A002241701F
:10578000FBF760F90090787B397B000208434649BB
:1057900014310A28E06806D1142358434018290020
:1057A00016F3D3F805E0142358434018290016F3E4
:1057B000AAF8E06880003058002813D1787B397B44
:1057C0000002084305F058F800280BD025F0ACFD86
:1057D000002807D1E068002135F074F9E068022163
:1057E000FFF781FE0098FBF731F90020F8BD10B5F6
:1057F000040011F095FD002802D0200010F0B6FF43
:105800002000FEF7DAFE2D4810BD10B5040011F09F
:1058100087FD002802D0200010F0A8FF22482100B8
:10582000283016F370F80820207300F0A2FC10BD99
:10583000F8B5002426001B4D20003C3529680029BE
:1058400017D02A00303A12681269002A11D1FFF7E6
:1058500034FEB10003E0421E1040641C68506858DA
:105860000028F8D134E005213000FFF73CFE641C2D
:105870000AE00D4A1420143A70431300F101D033AA
:10588000CD188018B7000090009816F30DF8002886
:105890001ED00448C06C80002858002818D105206C
:1058A0000EE00000A4590400D89004003533020033
:1058B000EFFEFFFF2020040010100400BF5F000077
:1058C000FEF7FFFD002803D0F848C0590028CAD0D1
:1058D0002000F8BDF1B582B0029800285FD1F348EE
:1058E00000212C380068F14A406920321060121DF6
:1058F000401C116053D010005C38006D0299070401
:10590000EB48C9010C1802983F0C850043E0E74AB8
:1059100001202032B840515901900143E4485151CF
:10592000143815F398FF002801D0A05109E0E14890
:1059300000220188E0481300FEF75DFE0028A05118
:105940002DD0A05900224261A159C0200881D74919
:105950002C39485960304775A3590820A0A10691F9
:1059600001000000A85700000004000068F780D381
:105970001873A0590389C0184B5918670800503094
:105980004359019E33434351495901984861CC49D9
:105990003839086D4B1D401C0865029E9B5D834293
:1059A00000D10A65086D07043F0CBE00A05900280D
:1059B000B7D0FEBDF8B504001700C14D0026383D34
:1059C0001D2970D012DCBE4808392C3002880B002B
:1059D00015F376EB15EFEE575757EDED5757575731
:1059E000ECA3EB57EAE9E857E7E6570049297ED0F0
:1059F00010DC42297CD008DC1E297AD0202979D0FD
:105A000041293ED1AF4F0025D5E1462973D0482921
:105A1000F7D1F3E166296FD00EDC4A296DD04C290D
:105A20006CD06229EDD1E0680028EAD1FBF714F8C8
:105A3000A44F0090503F27E068290FD06929E0D19A
:105A4000E0680028DDD1FBF707F80400FFF7FAFE55
:105A500005002000FBF704F82800F8BDE0680028E6
:105A6000CFD13803000F08280BD239040A0E6B6916
:105A70003906090E1B5C002A01D0934319436A6959
:105A80001154FCE1FBF724F8E06814235843C019D3
:105A900015F3EBFE0028F5D134E0E96C491EE9640A
:105AA00002D0E96C05E0C9E085493239095C491E3C
:105AB000E96401273B008B401A4211D0814AC001A2
:105AC0008032801889004058002809D0FBF700F880
:105AD000E0687C49C00180314018E96C890046507B
