:1000000001000000000000A0000200000AB6BD1BB5
:100010001CF09FE51CF09FE51CF09FE51CF09FE5A0
:100020001CF09FE51CF09FE51CF09FE51CF09FE590
:10003000071D0F0A24FA01006CF901007CF9010088
:10004000D4F90100E4F90100F4F9010004FA010017
:1000500010FA0100000000EA3A7D00EA28008FE271
:10006000000C90E800A08AE000B08BE001704AE24A
:100070000B005AE1337D000A0F00BAE814E04FE2AA
:10008000010013E303F0471013FF2FE150FE0100BE
:1000900090FE01000030A0E30040A0E30050A0E388
:1000A0000060A0E3102052E27800A128FCFFFF8A44
:1000B000822EB0E13000A128003081451EFF2FE1E3
:1000C00004309FE503308FE013FF2FE13DF701007F
:1000D0001D48802110B549F3DAEB1C48582149F33B
:1000E000D6EB1B4800210A0006C0202117485830D3
:1000F00049F3CCEB002010BDF0B50024144F0837B5
:10010000012609E0C519686801F0A2FB69683000A2
:10011000884010498860641CE00039580029F1D1FA
:100120000B4F0024283709E0C519686801F090FBDF
:1001300069683000884008498860641CE0003958CC
:100140000029F1D10020F0BD0CFF0100F00F0004E8
:10015000400E0004009000A8009100A85A48042214
:100160000621027041700271417102724172704742
:100170005548F8B500241838046000F022FB05F05B
:100180004FF952490D5C01F003FD290049F3C6EC1B
:100190004F4E2300320049F340E9401C6141050401
:1001A0002D0C05F03DF94B4940000F5A05F0FEF9C2
:1001B000390049F3B4EC2300320049F32EE9401C26
:1001C00061410004000C290000F00AFB05F028F949
:1001D00041490D5C01F0DCFC290049F3A0EC23004F
:1001E000320049F31AE9401C614105042D0C05F069
:1001F00017F93A490F5C01F0CBFC390049F38EEC5A
:100200002300320049F308E9401C614119808C3F0A
:1002100001000000FC0100A000020000CE6362307B
:100220000004000C290000F0FCFA082000F0E8FAB5
:1002300001F0B8FC310049F396EC401C0004000CBE
:1002400000F0E7FA01F0AEFC052149F372EC294A0F
:10025000230049F3ECE81922801861410006000EE2
:1002600000F0E5FA601E03F06BFFFF24641C200021
:1002700003F060FF200003F069FF03F079FF03F053
:100280008BFF402002F06AFB00F0E2FA00F0D7FAA0
:1002900019490120086003F0ABFF03F0C3FF03F02E
:1002A000CAFF03F0FDFF0C2001F071FCC02001F03B
:1002B0006EFC04F00DF804F01DF804F024F804F0CE
:1002C00034F8302001F063FC0320000201F05FFCF1
:1002D000FFF74EFF00F086F9F8BD0000B05100B006
:1002E0002C00000440420F001600000442000004ED
:1002F00037000004C0C62D00E85100B010402DE9C1
:10030000517E00EB78409FE5000094E5000050E34B
:100310000300000A650100FA000094E5000050E3C4
:100320004B7E001B030200FA0000A0E3241500FB33
:10033000900100FA0000A0E3560100FB560100FA0C
:10034000000094E5000050E34701001BAA0100FBF8
:10035000DA0100FB000094E5000050E30100000A10
:10036000A60100FB831500FAA40100FA00000FE1CA
:10037000BF0000E200F021E17C1400FB0000A0E3DC
:100380001080BDE8385E00B010B500F099FC05F3B0
:10039000A7F905F0FBF900F06DFC002801D0012061
:1003A00010BD05F0F0FD002010BD10B5FFF7EAFE0E
:1003B0001FF056FA0400012003F050FE20001FF049
:1003C00053FA002010BD10B502F070FC10BD930868
:1003D000002210B502E09400521C01519A42FAD357
:1003E00010BD064A0648002110B5FFF7F0FF00F0E7
:1003F00015FB00F09BF9002010BD000060530000C9
:10040000B0910004F8B505F025F8050087480168AB
:10041000022211430160016808231943EEA0E3B1F1
:1004200001000000F80300A0000200003A8BDC8D00
:10043000016083494031CB681343CB604368134369
:100440004360CA6840263243CA60CB6880221343A7
:10045000CB6001683143016001681143016041686C
:1004600031434160416811434160764C20681E2150
:1004700088432060744FF96A20208143F96204F0B8
:100480003EFE022004F08DFF000604D54021272007
:1004900004F0C4FF03E00321092004F0CAFFA80709
:1004A00003D4B86801210843B8606848C16B0122D1
:1004B000D2059143C163C16B0322D2041143C163CE
:1004C0000721082004F0B5FF0321072004F0B1FF45
:1004D00004F044FE2068E021884320606069152113
:1004E000884360616069B043606160690121890689
:1004F0008843606160690521090788436061E0699C
:1005000053490840E061E06940084000E061E0696B
:100510001027B843E06103F0DDFE4E4A1068202149
:10052000084310604C4A10680421884310604B480F
:100530000D210068890140180168520611430160CD
:10054000A069B043A0616068454908406060616887
:10055000444801406160A168434A1140A160A1681C
:100560000140A160E168414A1140E160E1687A031D
:100570009143E160E1680140E160374A1820C043DF
:10058000C03A1168014039431160394AA90611681F
:1005900003D501400820014301E0014039431160C7
:1005A000344801690904090C016141690904090C15
:1005B000416181690904090C8161E06901218903B4
:1005C0008843E061E06989008843E061E0690911DE
:1005D0008843E061E069052109060843E06103F012
:1005E000EFFEF8BD10B500F008F8234800680028B9
:1005F00001D0FFF711FF10BD7047124801680322B8
:100600001202914301604169420191434161416994
:100610004200914341618169C200914381610F4869
:100620000068016F012211430167016FEE90918F05
:1006300001000000F40500A000020000237302FD89
:10064000022291430167C0300168D2061143016064
:1006500070470000002300800028008000290080EF
:1006600000910090FBFBFFFF00270080403D0080D1
:10067000045200B0DFFFD5FD7FFF7FFFD5FDD5FD24
:10068000D5FDD7FDC03C008000220080385E00B060
:10069000084810B50168084B0A000C3108001960C1
:1006A000111D5960202149F310E90449022002F08C
:1006B0006FFB10BD1CC000B0F85100B04136000007
:1006C000F8B5002425001C48A70014266643C55130
:1006D0001A481421301849F3F8E818481421143046
:1006E000301849F3F2E8154814212830301849F33E
:1006F000ECE8114830222838C159104862433C3098
:100700001018C4608160456185610D49C561016152
:100710000C4901620C498562416206F3FDF8641CD4
:10072000012CD0DB0949082001F0B0F80849FF206E
:10073000401C8860F8BD0000B05E00B038F500B025
:1007400089380000A53A0000CF3C00006F3E000051
:10075000009000A80F490E4810B508600F490E48D8
:10076000086010490E48086010490F480860114998
:100770000F4808601048802149F3A6E80E48802100
:10078000803049F3A2E80D48802149F39EE810BD6E
:10079000E9FD01003CE50004F53F000040E50004F0
:1007A0003940000044E500044054890034E5000469
:1007B000A086010038E50004C4C600B0C4C700B07C
:1007C00010B5084C00206062DF200002E06206489D
:1007D000A06201210548490249F376E801206062E0
:1007E000002010BDC09B00A800ADDEEF44C800B0E3
:1007F00026484068C168264A1143C160704700B569
:10080000FFF7F6FF21484068416801225202114378
:1008100041604168D2001143416000BD09040143B9
:100820001A4840688161704718494968CA681204CB
:10083000120C00040243CA6070471449B26F857EEF
:1008400001000000F00700A000020000D79BBC40A0
:1008500049684A69120C120402434A61704709044C
:1008600001430F484068C16370470D4949684A68B1
:10087000120A120202434A60704709484068FF307A
:10088000413041681D2291434160704704484068EF
:10089000FF304130416802229143416070470000BF
:1008A000005200B08F0300008FC08FE21CFF2FE1C9
:1008B000012109200007016000214160704768485C
:1008C000012101600021416070476648016B802270
:1008D0001143016370477047634800B50068002802
:1008E00001D0FFF7F2FFFFF7EAFF00BD10B55F4C44
:1008F0001FF0D2E9A04221D05D490840040004F075
:1009000012FC262004F061FD010920070901000FF7
:1009100008430106090E262004F049FD04F032FCCC
:10092000200A4107534A490F0429117001DD0421AF
:100930001170000702D510784042107010BDFF20E2
:10094000C130202100B504F0D1FD00BD10B54A4CE6
:10095000207900280BD10120207104F0EBFD062046
:1009600004F033FDC006C00F607104F0D5FD60795E
:1009700010BD70B50600FFF7E9FF404D2C0D0028B3
:1009800011D004F0D7FD8021262004F05BFD04F097
:10099000C3FDA8682043A86039488168220211433A
:1009A0008160002003E0A868A043A860300004F044
:1009B00019FF70BD10B507F0F3F804F08AFB02F0E0
:1009C000A9FD7D24E4010021200004F08AFB002120
:1009D000200004F089FB0021200004F088FB0021A6
:1009E000200004F087FB274C0221200004F07CFB50
:1009F0000221200004F07EFB234C6068234908405C
:100A00006060E068172149020843E06004F040FD9F
:100A10002168C2061E4801D5014300E08143626897
:100A2000626021602168014321600F48006800284E
:100A300002D0B520FFF79DFF10BD7047704710B57D
:100A400004F0D4FD0C4C002802D004F028D3422D31
:100A500001000000EC0900A0000200001082BE1D91
:100A60001EFF01E004F02AFFE06010BD0F490E48B0
:100A700008607047003000A8400C0090385E00B05D
:100A8000FFFF00003F0F0000005200B0C85200B04E
:100A90008028008040230080409C000000210080CE
:100AA000FF7FFF7F0000002071550000485400B018
:100AB000F8B5324800680002000F082828D1304CF1
:100AC0006069E50428436061606940004008606136
:100AD00020680826304320602068EF12B843206069
:100AE0004821452004F06DFC0421482004F069FCF5
:100AF000206830432060206838432060322004F0B2
:100B000071FD606928436061606921050843606187
:100B1000F8BD1C4810B5006800282DD004F014FD65
:100B2000FFF7C6FF2021192004F096FC02211620B1
:100B300004F092FC2F21332004F043FC03215720C2
:100B400004F03FFC9221242004F03BFC622125208C
:100B500004F037FC262004F042FC800880000221CB
:100B600008430106090E262004F02BFC66214120D3
:100B700004F027FC04F0DAFC10BD00000020008027
:100B800000280080385E00B070B5444C444D2068A9
:100B9000444E002808D0E8173060706004F058FE1A
:100BA000286A4000400828623D48C038816A090C24
:100BB00009048162816A8B229200114381623A4961
:100BC00000208860900639490122120403688018C9
:100BD0008842FBD30020016880189042FBD301209B
:100BE000800600682068002855D004F0ADFC0F2175
:100BF000622004F0E6FB1021332004F038FC04F0FE
:100C000095FC706B0121C902084370633068632151
:100C100088433060F06826490840F06004F08DFA9F
:100C200007210D2004F023FC07211B2004F01FFCEA
:100C300004211B2004F010FC4021252004F00CFCB2
:100C40004021172004F008FC022004F0C8FB4006F5
:100C500003D540210B2004F0FFFB04F01A60D8F408
:100C600001000000E80B00A000020000E46A00A000
:100C70009DFA04F021FC800604D4F0680121890368
:100C80008843F0601048C168104A1140C160C168D3
:100C90000F4A1143C1602068002806D0012040049B
:100CA0006862801CA8620B48E862002070BD0000EA
:100CB000385E00B0C09000900021008000230080CA
:100CC000000001B0C0FFFF7F80280080F0F0FFFF30
:100CD0000A0A00000202020000B50D49002087B098
:100CE0000860020001001E2003AB07C30200094890
:100CF000FF21491C6B4607C3A838074A002307A1F8
:100D000003F300FC0006000E00D0012007B000BD78
:100D10009C0E0004EC160004335F000049646C650F
:100D20000000000010B5FFF7E9FC06F023FC07F017
:100D3000ABF807F0DFF810BD11483C2110B548F3BF
:100D4000E2ED0F4800210160416081608161016234
:100D500001630C4A4163C2620B4C81630B48EE2273
:100D6000210048F32CED0948094B042221003EF3F1
:100D700010F910BD10B500F00DFB002010BD0000F3
:100D80005CD600044B850000DC0500006810000400
:100D9000E3EE3300F8B5C54C20680C25A84320606D
:100DA000C348C168820C1143C160C1680722520266
:100DB0001143C160C168012212061143C160C168BC
:100DC00089098901C160C168C20D9143C160C168D0
:100DD000C20C9143C160C1685603B143C160C16890
:100DE0000722D2069143C160C168F2101143C1606D
:100DF0000168B04A114301607D200021400204F0E7
:100E000084F97D27FF010021380004F084F90021D6
:100E1000380004F07DF90021380004F07FF9A6497C
:100E2000086A1022104308622068A84320606068A6
:100E300051068843606004F099FDA068B100084342
:100E4000A0602069A90588432061206930432061A2
:100E50009A4D68680020686068681921090608438F
:100E600068609648803001684026B143A235AF499A
:100E700001000000E40D00A000020000FD92DED0A1
:100E8000016001680F221202914301600168032290
:100E900052021143016001680F2212039143016065
:100EA0000168032252031143016001680909090125
:100EB00001600168062739430160206830432060E3
:100EC000206830218843206004F0F0FA052820686B
:100ED00002D910210843FFE7206028680121084358
:100EE00028602868B84328607648C168020D11431D
:100EF000C160816A31438162012004F0D2FD01208A
:100F000005F022F9F8BD10B505F062F971490880C5
:100F100071487249000C000408607249704808600A
:100F20007249714808607349714808607349724892
:100F300008607449724808607449734808607549CC
:100F400073480860754974480860764974480860B9
:100F5000764975480860774975480860774976484A
:100F60000860784976480860784977480860794988
:100F7000774808607949784808607A497848086075
:100F80007A49794808607B49794808607B497A4802
:100F900008607C497A4808607C497B4808607C4846
:100FA0007C4908607D497C4808607E497C4808602F
:100FB0007E497D4808607F497D4808607F497E48BA
:100FC000086080497E48086080497F480860814900
:100FD0007F48086010BD0121080010B502F03CFCFC
:100FE00004F064FA7C494000085A7C49086000F02B
:100FF000FBF90221012002F02FFCFFF7D5FE0321AF
:10100000012002F029FC1EF06AEE0421012002F00A
:1010100023FCFF22724919321C2005F39BFD052198
:10102000012002F019FC0621012002F015FCFFF757
:101030006AFF0721012002F00FFC6A49E12040020B
:1010400008601EF050EE0821012002F005FC654901
:10105000042207201EF04AEE0921012002F0FCFBC9
:10106000614800210A0006C05F4A60496048614B40
:1010700005F3DFFE0A21012002F0EEFBDC67022E01
:1010800001000000E00F00A000020000097A606D7E
:1010900000F0C2F90B21012002F0E8FB00F072F928
:1010A0000C21012002F0E2FB00F0B0F80D2101203C
:1010B00002F0DCFB0E21012002F0D8FB002010BD65
:1010C00010B500F0B9F900F0F3F900F05FF9002075
:1010D00010BD0000002F00800021008000081C20AF
:1010E0000028008080260080C8E80004246800B042
:1010F000BCEA0004E55F00006CE50004A98B000079
:101100005CE50004DF8B000060E50004F98B000063
:1011100068E50004F18B000064E500042D1100B0C7
:1011200098E60004FD0D00B09CE60004551000B0E8
:10113000A0E600049B1000B0A4E60004B71000B0C5
:10114000A8E6000441CE000080EC000453CE00006D
:1011500084EC000465CE000088EC00042B1100B084
:10116000ACE60004491300B0B0E600049D1300B0E3
:10117000BCE60004B11300B0C0E60004B51300B033
:10118000C4E6000441CA00008CE6000413CB000052
:1011900090E600049F600000F4F600040571000072
:1011A000BCE5000489550000B4E600048B5500003E
:1011B000B8E600048F710000B4E500044971000036
:1011C000B8E500047F6B0000B0E50004356B00005B
:1011D000ACE500048360000084E600049160000038
:1011E00088E60004D360000094E6000400000004D8
:1011F0007CE50004A833000494E500044C5300B0DF
:10120000B81B0000F0170004345100B00449034833
:1012100010B54860080004F015FF10BD836200009F
:10122000705300B011491048086012491048086016
:1012300012491148086013491148086013491248BF
:101240000860144912480860144913480860154999
:101250001348086015491448086016491448086086
:101260001649154808607047D7670000A0F50004CC
:10127000D967000090F500040F68000094F50004A1
:101280001568000098F500043D680000FE3BE0DCB6
:1012900001000000DC1100A0000200007761C7DD42
:1012A0009CF5000447680000B0F500046168000088
:1012B000B4F5000493680000A4F50004AB680000D6
:1012C000A8F5000475680000B8F500048568000002
:1012D000ACF5000410B50124A4022048EE22210040
:1012E00086B048F38AEA10F0D3FB0BF061FF0122CD
:1012F00000210C2003AB07C30200184802920090A3
:10130000174A0019002317A1019403F319F90028C3
:101310001DD1194815A101F3A5FE18481A4A4168C4
:101320001748816017490161002141618261174AB4
:10133000C161026241621649816205F329FB0028FE
:1013400005D11449112000F0DDFA002802D0012057
:1013500006B010BD00F036FA0020F9E7683C000442
:10136000857700004E66635461736B004E6663467A
:101370006C6167730000000010410004F05300B07E
:10138000B0E200B0817700007D770000697700004F
:101390005F7700004577000006490020088070470D
:1013A0000649054808600749054808600749064896
:1013B0000860704760E500B0E97C000004FD0004AF
:1013C000BF7C000000FD0004BD7C0000FCFC0004AC
:1013D000084804A1016008A141600C490A4808605E
:1013E000704700006D6465765F6169757265636F53
:1013F0007264000018ED00046D6465765F616975C4
:10140000706C617900000000B18600009CF8000457
:1014100070B500240B4D04E04019406800F072FAEA
:10142000641CE00029580029F6D170BD0648816887
:10143000FF22521C11438160816810221143816098
:1014400070470000785400B0009000A810490F4881
:1014500010B5086010490F48086011490F4808602E
:10146000114910480860FFF7E7FE1EF058EC00F045
:10147000BBF90F490D4808600F490E48086006F394
:1014800005FE0F490D48086010BD000069610000AD
:1014900024F60004716100001CF600042C2185CCA8
:1014A00001000000D81300A00002000083897960C9
:1014B0007961000020F600047F1F00B024F50004CD
:1014C0004F1200B054F90004371300B058F900046B
:1014D000151B0100C0FC00045449534810B50860B6
:1014E0005449534808605549534808605549544881
:1014F000086056495448086056495548086057499D
:101500005548086057495648086058495648086089
:10151000584957480860594857494162594A4164F7
:1015200057491160594A584911605A4A584911603F
:101530005A4A594911605B4A59491160C11D5A4ABA
:10154000F9314A615A4A594911605B49594A0A605E
:101550005A4A4A605B4A5A4911605C4A5A491160CA
:101560005C4A5B4911605D4A5B4911605C495D4AB8
:10157000116001005C4A80310A6102655B4A4A6180
:1015800042655B4ACA61C265C2665A4A02675A4AE4
:101590000A625A4A4A625B4A594911605B4A5A498F
:1015A00011605C4A5A4911605C4A5B4911605D4AAE
:1015B0005B4911605D4A5C4911605E4A5C4911609B
:1015C0005E4A5D4911605F4A5D4911605E4901668E
:1015D0005E49604A41665E4911605F49016201648B
:1015E0005F495E48086060495E48086060495F483E
:1015F000086061495F480860614960480860624965
:10160000604808606149624802F0A2FD6249614891
:10161000086063496148086063496248086064493A
:101620006248086010BD00004B8D000034FD0004CE
:10163000B78C000050F400048D8C0000C0FB000447
:10164000378D000018F90004438D000014F90004E0
:10165000D79F0000C8F300045192000040FC000432
:10166000C5990000BCFC0004DB9800003CFD0004B0
:10167000A39B000054F70004459C000040EB0004CD
:10168000C99D000018F60004C19E0000C4FB0004C0
:10169000F39E0000E4F60004339F0000D8FC000431
:1016A0007393000048FC0004519F00006664BEF87C
:1016B00001000000D41500A0000200009A71A710DC
:1016C0006B9F000034F7000471A00000D8E800040C
:1016D00097A00000BDA0000030F50004D7A00000D6
:1016E00004F800040DA1000058F8000493A10000C4
:1016F0002CFD0004F9A10000DCFC00048DA2000018
:1017000061A80000CDA3000041B500008DB5000028
:10171000D5B50000F1A800008CF7000409A900006D
:1017200080F70004FBA300002CF70004B7A800001A
:101730004CF8000407B500003CF800043FA9000085
:10174000ECF4000407AA00000CF8000415AA00003D
:1017500040F8000421AA000014F800043BAA00008D
:101760007FAA00002DAD000060F8000413AC00005B
:10177000F3AE0000A4F70004CFAE000094F700041D
:101780001FAF000098F700044BAF0000C0F7000443
:101790006FAF00005CFC00049DB4000038F700044B
:1017A0000798017AC051320061B600002CF800049D
:1017B000F9B6000098FB000453B70000C0F600041F
:1017C0006FB7000030F40004054810B50078102809
:1017D00004D1044904484C2207F0ACFA10BD0000C3
:1017E000A50E0004B20E0004E20F000405480649ED
:1017F00010B50078097800F029F80448006880479F
:1018000010BD0000004000AA004000AA74F00004CF
:10181000074906480860084906480860084907481B
:10182000086009490748086070470000938B000072
:10183000CCF300046D1B0100D4F700047B1B0100F6
:10184000D8F70004891B0100D0F70004064808B54A
:1018500002680092054A0649130008000C386C33F0
:1018600004F322F808BD0000980E0004701701B0C0
:10187000E85D00B00449054A497812780120914298
:1018800000D0002070470000000002A9000002A95B
:1018900010B51EF07CE901F3FFFD002010BD10B56E
:1018A0000C0001F0D1F884490860C10702D0210082
:1018B000052015E0810702D521000620EF6CAC2B36
:1018C00001000000D01700A0000200006E9919ADC1
:1018D00010E0410702D5210007200BE0010702D5E7
:1018E0002100082006E0C00602D52100092001E001
:1018F000210000201EF0CCE9012010BDF1B5002030
:1019000073490E68734F340005000AE0E10706D002
:10191000A9007A58002A02D0009930009047640844
:101920006D1C002CF2D1012803D0009900201EF07C
:10193000B0E9F8BD654910B5486001F0E4F810BDA4
:10194000202800D3FEE7634A80001358002B00D004
:10195000FEE71150002070475F480068002800D063
:101960000120704702688368C1681000184770B58D
:101970005A4D6C6AE00703D0FFF296EEA817686232
:101980005748A10706D52021C16042176A628268C4
:101990000A438260610703D5A96A04229143A962C0
:1019A00021070AD5A96A08229143A9628021C16052
:1019B000D2436A6282680A438260012070BDF8B532
:1019C000484D2C6BE00702D0A8172863044020067E
:1019D00006D58020C04328638020844301F035F879
:1019E000200709D50820C04328630820844301F05C
:1019F000B7FD082000F0A5FC600604D54020C043D8
:101A0000286340208443A00606D52020C0432863D5
:101A10002020844300F05EFE600707D5042000F01C
:101A200049FF0420C043286304208443200407D5D1
:101A30000126F603300001F008F8F0432863B443B0
:101A40006003400F06D00720000421000140C94375
:101A5000296384430B26200036053040070005D05B
:101A6000380000F08FFBF8432863B443E000400FD8
:101A700009D00727BF0626003E40300000F0EBFAF1
:101A8000F0432863BC43002C06DA0120C00700F0B5
:101A90000CFB1548286304401448044205D020007C
:101AA00000F06AF9200001F015FA0D488168012262
:101AB000D20411438160F8BD094B0122D20410B554
:101AC000DA60FFF77CFF012010BD0000A8967802C5
:101AD00001000000CC1900A000020000A9801BF04A
:101AE000380E0004009100A80CFF0100A8FD0004BE
:101AF000009400A8009000A880220080FFFFFF7FD4
:101B000000100001F8B50027A74D3C00E968A8685F
:101B10003E0079407840084303D005F329F80600D9
:101B20000C0004F0BFF91EF016E804F0BCF9E968F7
:101B3000A8687940084309D005F31AF8AA68801B01
:101B4000EB68A14180185941E960A860F8BD10B563
:101B500002F052FB002824D002F04DFB93490120F3
:101B6000C0048860001100F071FF914800880028CF
:101B700001D102F091FB02F0FAFB02F0D4FB02F07B
:101B80009BFB01F0A5FD1DF0E6EF01F0ACFD02F0BE
:101B90008BFB02F0F5FB02F0CFFB02F08EFB02F0B4
:101BA00029FB10BDFEB50024250026001DF0D0FE47
:101BB000019000F0D2FE002802D1FFF7A3FF44E01D
:101BC00000F08FFC00F006FE00F0F5FE764800689D
:101BD000810702D5C10700D00124010702D54107C2
:101BE00000D50125810602D5C00600D5012604F0E6
:101BF000C9FB009001F05CF9070002D1012001F05F
:101C00006BF90120C007807804210840400702D406
:101C100000F04BFC05E0002CCFD0002DCDD0002EE5
:101C2000CBD000980028C8D0002FC6D05F4CA56844
:101C3000E017E06001263603300000F010FFFFF7E8
:101C400086FF300000F002FFA56001981DF084FEC1
:101C5000FEBD10B500F07FFC00F00BFE00F0DCFED6
:101C6000FFF7A0FF10BD10B51DF072FE0400FEF7D7
:101C700027FD01F0B9FC20001DF06EFE10BD10B56F
:101C800004001DF065FE484A1168214311601DF0F3
:101C900063FE10BD10B503F045FC46494000085AEC
:101CA000454B46495843096A0B071B0F47F3C2EFE0
:101CB000080507060609090B0B06400810BD800839
:101CC00010BDC00810BD000910BD10B504001DF006
:101CD0003FFE354A1168A14311601DF080C548C41C
:101CE00001000000C81B00A0000200005D68A54DB7
:101CF0003DFE10BD314A010012680020914300D121
:101D000001207047F8B52D4C04F33CFF226963694C
:101D1000851A99410E00E1680091A06864220700CD
:101D200047F384EF33002A0047F302EC00990600E2
:101D30000025380069406840084309D10120E5606A
:101D4000A06004F31FFF6A1E801851416161206189
:101D50003000F8BD194800218160C1600161416116
:101D6000704710B502F064FA10BD70B5040002F0BF
:101D70005FFA041B03F0A6FC0500164900262000AC
:101D800047F358EF33002A0047F3D2EB70BDC00091
:101D900005D50A482C304068002800D0004770471D
:101DA0000300012010B5FFF7A5FF002804D0D801DB
:101DB00002D5002000F0D9FA10BD0000985100B003
:101DC000009000A84A5300B000000004A086010063
:101DD0000028008040420F00022910B505D00329D9
:101DE00003D0042901D0052903D1C14BFF21491C8F
:101DF0009960042A05D0052A03D0062A01D0072AB3
:101E000007D1002805D100210A2208000B0004F0A8
:101E100012FB10BD7047052803D2B6498000085C4C
:101E20007047FF20704710B50C000020FFF7F3FF4C
:101E3000A04201D100F080FA0120FFF7ECFFA042A0
:101E400001D100F051FC0220FFF7E5FFA04201D1D3
:101E500000F03AFD10BD10B50C000020FFF7DBFFCD
:101E6000A04201D100F07CFA0120FFF7D4FFA0428C
:101E700001D100F03EFC0220FFF7CDFFA04201D1CE
:101E800000F027FD10BD042910B507D004DC02299D
:101E900004D0032906D101E0052903D100F01BFA83
:101EA000002800D0012010BD022910B505D003295B
:101EB00003D0042901D0052901D100F0B5F910BDE6
:101EC000022910B505D0032903D0042901D0052922
:101ED00001D100F068F910BDFF280BD0854A002120
:101EE0008B00D35C834202D10806000E3CCD662BEA
:101EF00001000000C41D00A00002000044907B3DD2
:101F00007047491C0529F5D3FF207047FF280CD0E6
:101F10007D4A00218B009B185B78834202D18800A8
:101F2000105C7047491C0529F4D3FF207047052831
:101F300004D275498000401840787047FF207047F0
:101F4000FF280CD0704A00218B00D35C834203D160
:101F50008800801840787047491C0529F4D3FF2079
:101F60007047FF280CD0684A00218B00D35C834265
:101F700003D18800801880787047491C0529F4D364
:101F8000FF207047F7B582B007000E000C2901D280
:101F9000092F02D3002005B0F0BD00255A49A80042
:101FA0000A5CBA421ED14418A278B2421AD028065E
:101FB000000E3900019001F09BFB002812D0A670A2
:101FC000E07804994007400FC9000843E070019889
:101FD0003200390001F08EFB002808D0E0780221A1
:101FE0000843E0706D1C052DD8D30120D3E7464887
:101FF000AA00FF2110188170E0784007400FE070C0
:10200000C8E7F0B5060008003F4F00220421930006
:10201000FC5CB44209D1DD19EC7823000B430028A5
:1020200002D02300FB242340EB70521C052AEED380
:10203000F0BD354A00218B00D35C834206D1880075
:102040008018C0784007C017401C7047491C0529FC
:10205000F1D3002070470020704770B505000C00D8
:10206000100002F0F9F8200000F00DFD2800FFF745
:102070004DFF022805D0032803D0042801D00528ED
:1020800003D1200000F09CF870BD2000FFF789FE0E
:1020900070BD10B50400C00005D501221203110463
:1020A0000C20FFF7DAFF200105D50122D20211042E
:1020B0000B20FFF7D2FF600105D501229202110427
:1020C0000A20FFF7CAFF10BD0120C00310B502F0BF
:1020D000BDF80120C00700F0CDFC0C48016A802249
:1020E0001143016210BD0120C00310B502F0B4F825
:1020F0000120C00700F0C7FC0449086ABCF1CB1CF2
:1021000001000000C01F00A000020000B078C580E0
:1021100080229043086210BD009000A8B05100B02A
:1021200000280080F3B581B00F000198FFF7E8FEAA
:1021300004000198FFF70EFF06000198FFF71BFF50
:102140000500002C03D0012C01D0022C19D1331F23
:102150000126760547F38CED040309090E151020BE
:1021600002F084F80120000509E0202002F07EF84A
:10217000300004E0802002F079F80120C00500F072
:102180009AFC002F1DD10198FFF75DFF002818D0A1
:102190002B1F47F36EED06161616160A0416019845
:1021A000FFF763FF0100112009E00198FFF75DFFD1
:1021B000694AA1008918C978CA080100100000F016
:1021C00060FFFF2201991000FFF741FEFEBD0800ED
:1021D0000021A7E710B50400C00203D501210220A9
:1021E000FFF7A0FFA00207D501210320FFF79AFF08
:1021F00001210420FFF796FF200203D501210520CD
:10220000FFF790FF01200007844205D04010844270
:1022100002D0401084421AD1FF208206A11808D0B3
:10222000891804D0C206891804D10C2002E00B20C2
:1022300000E00A20FFF774FE022805D0032803D02F
:10224000042801D0052802D10121FFF76BFF10BD42
:10225000F8B504000D0017000800FFF78CFE06001B
:10226000002C03D0012C01D0022C22D13B1F0127CE
:102270007F0547F3FEEC04030C0C141E102001F044
:10228000EFFF102001F0FEFF012000050FE02020ED
:1022900001F0E6FF202001F0F5FF380007E0802084
:1022A00001F0DEFF802001F0EDFF0120C00500F00D
:1022B000EBFB331F47F3DCEC061D1D1D1D0E041D3B
:1022C0002800FFF7D2FE002801D1012100E0002103
:1022D00011200CE02800FFF7C8FE002801D10121E1
:1022E00000E000211C4AA0008018C078C00800F05F
:1022F000C8FEFF2229001000FFF7C1FDF8BD70B530
:1023000004000020002C03D0012C01D0DA84CBE1A2
:1023100001000000BC2100A000020000B8A7345D4D
:10232000022C20D1124D00222868462104F317FC0C
:10233000002817D128680022082104F310FC002887
:1023400010D1022C06D0012C04D01DF03CED002849
:102350000AD007E005F0A0FA002803D105F0D8FB69
:10236000002801D1002070BD012070BDB05100B027
:10237000800E0004022010B5FFF7CFFC01F060FFD3
:10238000002804D0012000F0B0F900F0C0F90021CD
:10239000082208000B0004F06CF810BD022010B5F4
:1023A000FFF795FC10BD70B50020FFF752FD04004B
:1023B0000020FFF7D0FD05000120FFF7AEFC8549A6
:1023C000086A10221043086283499003886001F074
:1023D00083FF082000F06BFB2A0021000020FFF79C
:1023E00019FD70BD70B51DF0DBFA05007B48006873
:1023F000C00710D00020FFF7D6FF7D20C00003F0FB
:1024000069F9002037F3AFF8040002E0002037F349
:10241000AAF8A042FAD028001DF0C6FA70BD00202C
:1024200010B5FFF716FD04000020FFF794FD020031
:1024300021000020FFF762FD10BD10B51DF0B0FABD
:10244000040066480068800701D5FFF7E8FF200018
:102450001DF0AAFA10BD002010B5FFF7FAFC040029
:102460000020FFF778FD020021000020FFF729FD82
:10247000002800D0012010BD38B501F0E1FE002891
:1024800026D1401E00905548554C0068C00711D019
:102490006068401C18D0A068FFF785FC514947F3DD
:1024A00002EC00906168884201D3002000E0081A25
:1024B000009009E0684603F012FF00280CD0009855
:1024C0006060FFF76CFCA06021780098884203D31D
:1024D000FFF7C1FF002801D1002038BD012038BD21
:1024E0003E4810B50068C00705D0FFF7C5FF0028BB
:1024F00001D0012010BD002010BD002010B5FFF755
:10250000A8FC04000020FFF726FD020021000020A7
:10251000FFF7E8FC10BD10B5FFF79DFF430A4E8E94
:1025200001000000B82300A0000200004C4F8AE028
:10253000002804D0002004F04BF8002801D100202E
:1025400010BD012010BD2A4810B5006880070DD4C9
:102550002A480078022809D1FFF7CCFF002805D0CF
:10256000FFF7E3FF002801D0FFF7D1FF10BD70B5E2
:102570000020FFF778FC04000020FFF7F6FC20495C
:102580000500096817204883082000F091FA01F03F
:10259000A5FE01F097FE154901208004C8602A00BD
:1025A00021000020FFF75EFC0F48016A10229143D2
:1025B00001620120FFF795FB70BD0D4810B5006862
:1025C000C0070FD1FFF762FF00280BD01DF0F2F912
:1025D0000400FFF75BFF002801D0FFF7C8FF2000D1
:1025E0001DF0ECF910BD000000280080009000A84C
:1025F000985100B0DC5100B0E20400006C5300B010
:1026000084EA0004F8B51DF0D5F9BE4D070028682E
:1026100000282ED103F01AF84021182002F09EFF66
:1026200003F006F8B84E3069022108434008400024
:10263000306101F025FE040001F022FEA042FBD033
:102640003069032108433061B04A9068012149068E
:1026500088439060AD4A803AD0688843D06002F0E9
:10266000F5FF0821332002F084FF02F0E1FF012092
:10267000286038001DF0A2F9F8BDF8B51DF09AF9F0
:10268000A04D00902868012835D102F0DFFF082115
:10269000332002F063FF02F0CBFF9C498039C86809
:1026A000012676063043C860984FB868B043B860DA
:1026B000954908690222104340084000086101F072
:1026C000DFFD040001F0DCFDA042FBD00A2003F096
:1026D0000BF8B8683043B8608B49086980088000FF
:1026E000086102F0B3FF4021182002F042FF02F01F
:1026F0009FFF0020286000981DF060F9F8BD10B51C
:1027000004000120FFF7AFFB002C05D180490968C8
:10271000CA0705D0490603D5062801D0FFF7F2FC09
:1027200010BD012010B5FFF79EFB06282F392AC4E3
:1027300001000000B42500A00002000055B754902D
:1027400003D001F091FD0028FBD110BD082010B589
:10275000FFF7F7FA10BD082010B5FFF7CCFA10BD4F
:1027600038B5002000900120FFF787FB040001200E
:10277000FFF705FC05000420FFF7E3FAFFF787FFEA
:1027800001F004FE202000F0A6F901F0D3FD684618
:1027900005F086F80121644A4906002800D0009817
:1027A00091602A0021000120FFF748FB38BD10B5D9
:1027B0001DF00AF904005B480068400702D50020BC
:1027C000FFF7CEFF20001DF003F910BD012010B56A
:1027D000FFF753FB04000120FFF7D1FB02002100AB
:1027E0000120FFF782FB002800D0012010BD08B5B2
:1027F000684605F051F8002803D0FFF7E7FF0028EE
:1028000001D1002008BD012008BD464810B5006870
:10281000400705D5FFF7EBFF002801D0012010BDD0
:10282000002010BD70B50120FFF727FB0400012038
:10283000FFF7A5FB05000020FFF71FFBA04204D017
:102840002A0021000120FFF761FB70BD354810B55B
:102850000068000709D4FFF7D8FF002805D0FFF76C
:10286000B5FF002801D0FFF7DDFF10BD10B501F066
:1028700061FD02F051FF10BD10B501F05BFD02F0EB
:102880004BFF10BD38B5002000900120FFF7F5FA8E
:1028900004000120FFF773FB0500202000F012F96F
:1028A00001F06BFD204901204006C860684604F035
:1028B000F7FF002808D101F04FFD04F0F8FF0028D1
:1028C0000AD0FFF7A9FE07E00098002802D1FFF721
:1028D000CDFF01E0FFF7D0FF2A0021000120FFF724
:1028E000CBFA0420FFF707FA38BD0E4810B5006890
:1028F00040070FD4FFF77BFF00280BD01DF064F8D2
:102900000400FFF774FF002801D0FFF7BBFF200091
:102910001DF05EF810BD0000E85100B000280080F6
:1029200080210080985100B0009000A8202010B5B0
:10293000FFF707FA10BD202010B5FFF7549FCA0B10
:1029400001000000B02700A000020000A15FEA2DF6
:10295000DCF910BD70B501F09DFD01F0B7FD012857
:10296000FBD10220FFF793FA04000220FFF711FBCE
:1029700005001020FFF7EFF9554901204004886059
:1029800001F076FD042000F0B0F801F05FFD2A00B0
:1029900021000220FFF75CFA4E480068800601D44F
:1029A00001F08BFD70BD10B51DF018F8040049480A
:1029B0000068C00602D50020FFF7CCFF20001DF004
:1029C00011F810BD022010B5FFF761FA04000220D3
:1029D000FFF7DFFA020021000220FFF790FA00283B
:1029E00000D0012010BD10B505F0B0F8002803D0CC
:1029F000FFF7E8FF002801D1002010BD012010BD25
:102A0000344810B50068C00605D5FFF7ECFF002874
:102A100001D0012010BD002010BD70B50220FFF7CD
:102A200036FA04000220FFF7B4FA05000020FFF791
:102A30002EFAA04204D02A0021000220FFF770FAEB
:102A400070BD244810B50068800609D4FFF7D8FF90
:102A5000002805D0FFF7B6FF002801D0FFF7DDFF03
:102A600010BD70B50220FFF712FA04000220FFF734
:102A700090FA0500042000F02FF801F0F0FC01F0BE
:102A8000E5FC134901204004C8602A00210002200F
:102A9000FFF7FCF91020FFF738F901F0F2FC01F024
:102AA00002FD70BD0B4810B50068C0060FD4FFF7DB
:102AB0009AFF00280BD01CF091FF0400FFF793FF52
:102AC000002801D0FFF7CDFF20001CF08BFF10BDC8
:102AD000009000A8985100B026494A6A02434A6211
:102AE000CA6A0243CA620120704722494A6A824385
:102AF0004A62CA6A8243CA62012070471D49403156
:102B00000868086070471B49C0430863012070478C
:102B1000184B80339969DA69090112090909120110
:102B2000002804D00520400701430A2003E00520C7
:102B30000007014305200243D961DA6170470E485E
:102B4000016B022291430163016B4022EFDFC4DF7E
:102B500001000000AC2900A0000200006646E870F9
:102B600091430163016B042291430163704707485D
:102B7000006B810701D500207047400601D5022077
:102B800070470120704700008022008000210080F3
:102B900010B51CF02DFF040002201DF0FFF90028E5
:102BA00002D01449012008600021012001F0FCFA44
:102BB00020001CF021FF002010BDF8B501200E49B7
:102BC00000F0D6FE0B4E0024361D0127FF0308E05F
:102BD0002104090C3943012000F0CAFE70598047D6
:102BE000641CA50070590028F2D103F0A3FE04F084
:102BF000EEFDF8BD385E00B07F8B0000F8484168FC
:102C00000068814201D10120704700207047F448DC
:102C100010B541680068012292070B00040093433D
:102C20009443A34205D111401040814201D00120BC
:102C300010BD002010BDEB4900204861EA4A5060F9
:102C4000C8607047F8B504000D0016001CF0D0FEF7
:102C500007000021032001F0A7FA002C0ED0002D60
:102C60000CD032002900200046F346EE032001F08C
:102C7000BDFA38001CF0C0FE0020F8BD38001CF082
:102C8000BBFEFEE7D74810B580682C2146F3D0EE96
:102C900010BDF8B505000E000024002803D0D14F68
:102CA0003878012801D00120F8BD012E02D11CF096
:102CB0009FFE04000021032001F076FA1CF098FE2C
:102CC0008446FFF7A4FF002804D060461CF094FE61
:102CD000002013E0F868401CF860C14800680C212F
:102CE0000004000C4143C1480818002107000A00F5
:102CF0000B000EC060461CF07FFE3800002800D19B
:102D0000FEE7EA78082A01D8121D00E00C2229000B
:102D100046F3F2EDB24800F053F9B548816B012259
:102D200011438163032001F061FA012E02D12000DA
:102D30001CF062FE0020F8BDFEB5AE4CAA4E00228B
:102D4000AC48D243009201220321283801AB00F3A2
:102D500073FA01980028F2D00128F0D1BB6B146EF1
:102D600001000000A82B00A00002000092AE56CD8A
:102D70001CF048FEA54D070011E070680C2300040C
:102D8000000C584340190AD00278052A05D2910058
:102D90006158002901D0002A00D121688847706855
:102DA00031688842E9D138001CF030FED1E710B517
:102DB0001CF028FE04000021032001F0FFF98F48D9
:102DC000001D00F007F98F49C86BCA0D1043C86396
:102DD000032001F015FA20001CF018FE10BD002899
:102DE00010B508D00078012805D1FFF72EFFFFF7B6
:102DF000DEFF002010BD012010BD10B501780429B0
:102E000001D0012010BD7C494A68521C4A60096902
:102E1000002901D0884701E0FFF7C9FF002010BD5D
:102E20000EB504216B461970012159700221D97029
:102E300001781971407858716F484168491C4160A8
:102E4000FFF7B5FF01216846FFF72DFF00200EBDFB
:102E5000F0B587B01CF0D6FD06006D48FFF750FEB8
:102E60006C490120C0048860C412200001F034FACB
:102E7000200001F03DFA5F48002404605E4D6C6163
:102E80005E48446060486449016064490161644986
:102E900041602C6101220A200592020003906148E2
:102EA000012189026B46049407C3002356485E4AF9
:102EB000D0385EA101F3C6FB002802D0012007B084
:102EC000F0BD51485BA1283800F34EF900210320E2
:102ED00001F074F9A8685A4F0068B8420AD101207D
:102EE0006B461874DC742870002104A8FFF7DBFE21
:102EF0002C7003E0FFF7D0FEA8680760032001F004
:102F00007FF930001CF082FD0020D8E700290BD0AB
:102F1000052809D2042802D13748016102E03A4A63
:102F200080001150002070470120704770B51CF0E0
:102F300069FD314C2F4D060008E0E168002910D0F2
:102F40002D48491E1430E16000F044F8606969685A
:102F50008842F2D130001CF059FD3B4939480863E2
:102F600070BDFEE7234801684068814278D6B7A06B
:102F700001000000A42D00A0000200008B5688BDB7
:102F800001D0012000E0002021494A6809688A42F6
:102F900001D0012100E00021084301214840704791
:102FA00001001E480022283810B500F3E9F910BDD1
:102FB00070B5040015480178012901D00121017084
:102FC000E0010CD5254926480863CD0D280001F005
:102FD00093F9280001F08AF90120FFF7E1FFE004EE
:102FE00001D5FFF7ADFF70BD026801231104090C84
:102FF0009B07491C1A4011430A009A43082A01D32F
:103000005940194001607047001300C014C000B05F
:10301000801300C0081300C0802A008074FA00B03A
:10302000881300C000100001009000A8592C000077
:10303000332C0000172C0000A4F500B0852B0000F5
:103040004963635461736B0049636351466C616704
:1030500073000000CDAB0000FFEFFFFF8022008077
:10306000FFFFFFFEF8B504000D007648764A0168C0
:10307000126801209047002848D001202700734E95
:103080000100103F0200A140BA40704B4036002DB5
:103090002ED00325082C07D21E6862009540904070
:1030A000AE4306431E6009E0102C0AD25E68083C5D
:1030B000620095409040AE4306435E609868884346
:1030C0001AE0182C07D2F36979008D408840AB4391
:1030D0000343F36109E0202C07D2336A183C6100F6
:1030E0008D408840AB4303433362706A904307E0EE
:1030F000102C03D298680843986002E0706A10436D
:10310000706253490120096888470120F8BD70B5F5
:1031100004004C484C4A0D00016812680120904799
:1031200000281AD00122102C08DA4849C868A240A9
:103130009043002D00D01043C8600AE0434B403359
:10314000986A103CA24090430100002D00D011432A
:1031500099623F4901200968884770BD10B5040095
:103160003848394A016812680120904700281AD06F
:103170000122102C06D235488168A2400F2E8D679F
:1031800001000000A02F00A0000200007FBE36005A
:1031900011438160006907E031484030416A103CCA
:1031A000A24011434162C06AE0402E49C407096849
:1031B000E40F01208847200010BDFF2010BDF8B5A6
:1031C0002548264A0168126801209047002840D00F
:1031D000254801210903C1602148016A2048403087
:1031E000C06B0F043F0C0006000A074300241F4871
:1031F00001261EE04068E2008158002918D010180E
:103200004068320082403A4212D005008847102DB3
:1032100006D21349086A3200AA409043086207E0C8
:103220000F494031C86B103D3200AA409043C8633B
:10323000641C0E4801788C42DCD30B488168012263
:103240001203114381600749012009688847002063
:10325000F8BD0120F8BD000038E5000440E5000499
:103260000002009044E50004009000A8EC5100B07A
:10327000F8B50025FF4F387D012802D97D200002D6
:103280003860787DC00709D002F036FE3968884280
:1032900004D2787D4008400001257875787D40078C
:1032A00031D502F045FE79680400FB26814220D822
:1032B000F868A0421DD8052001F0E7FFA04218D809
:1032C000052001F0E5FFA04213D8012001F0DDFF49
:1032D000A0420ED8012001F0DBFFA04209D8022055
:1032E00001F0D3FFA04204D8022001F0D1FFA04298
:1032F00001D9787D04E0787DC10701D0810702D42F
:103300003040012578752800F8BD70B51CF08EFBA3
:103310000500FFF7ADFF0028FBD1D64C607DC0074C
:1033200006D002F0BDFD002802D1012002F01BFCF6
:10333000607D800706D502F0B6FD002802D101208D
:1033400002F093FC607D400709D502F08AFD002859
:1033500002D1012002F038FD607D400706D402F062
:1033600080FD002802D0002002F02EFD607D800745
:1033700006D402F098FD002802D0002002F075FC6F
:10338000607DC00706D102F08BFD0028E39A74DC53
:10339000010000009C3100A00002000001A591B0D6
:1033A00002D0002002F0E9FB6068002101F06BFF11
:1033B000A068002101F06DFF607DC00709D1206881
:1033C0007D210902884201D1012000E0002002F0A5
:1033D000BDFDE068002101F059FF2069002101F0E6
:1033E0005BFFAA490020087028001CF02DFB00207C
:1033F00070BDF0B506000D0087B0A3490027182264
:1034000001A846F30CEBA04C607D000702D401201C
:1034100007B0F0BD002E02DA7600760801273300EF
:10342000042646F380EC085205142044512C3852EF
:1034300002F06CFDA84204D2607D40084000607537
:1034400003E0617D01200143617525603DE002F0EC
:1034500079FDA842607D02D2FB21084000E03043A4
:103460006075656031E002F06DFDA842607D02D2BA
:10347000FB21084000E030436075A56025E002F0C4
:1034800061FDA842607D02D2FB21084000E030438C
:103490006075E56019E002F055FDA842607D02D23A
:1034A000FB21084000E03043607525610DE02800F5
:1034B00002F044FD0028607D02D1FD21084001E0BA
:1034C00002210843607500E025756F49182201A8A4
:1034D0001CF008F9002802D06C4901200870002F68
:1034E00001D0FFF71CFF002092E7FEB500207D24ED
:1034F000E401270001250194009011F356FE882174
:10350000694306000291405C02282FD12804000C78
:103510001CF3B3FD0099491C0906090E00910279BC
:10352000012A02D18179012904D0029989194B7DA0
:10353000092B08D102997D208919C97880010029B9
:1035400010D140100EE0052A05D18079052802D15E
:103550007D20000201E07D20C001C978002901D151
:103560007D208001844209D8040007E0012805D1AC
:103570007D20C0018442F7D92000F5E76D1C082D9D
:10358000BBD30098012805D97D200002844200D9D0
:10359000200004003E48C06900280BD0A1D913FBCD
:1035A00001000000983300A000020000F54D2F0D2F
:1035B0007D200002844200D9200004007D20C0014B
:1035C000874200D9380007003748807902280AD19D
:1035D0007D21C90108008C4200D9200004008F42DF
:1035E00000D939000F0001990120FFF70CFF3900C5
:1035F0000320FFF708FF21000220FFF704FF00204F
:10360000FEBD10B5254C607D000734D502F065FC89
:10361000002802D1012002F0BCFB02F05BFC002874
:1036200002D1012002F076FB02F05AFC002802D100
:10363000012002F02DFC1D4801680420FFF7E3FE85
:10364000FFF75DFF7D21490160680C008A00904210
:1036500001D9140011000720FFF7D5FE2100062034
:10366000FFF7D1FE0E480078002804D00120002189
:10367000C007FFF7C8FE10BD084870B5407D0007C1
:1036800023D57D24E401062001F013FE050002F09D
:10369000FCFB002810D002F05FFC09E0ACC600B0D3
:1036A000F45100B008D70004D0D1000494E5000420
:1036B000A04200D320000400A54206D20021200031
:1036C00001F0EBFD07490120087070BD0648082293
:1036D000417D1143417570470348F722417D1140F8
:1036E00041757047F45100B0ACC600B0002010B571
:1036F000FEF709FC04000020FEF787FC0200002012
:103700002100030000F082F80120FEF7FCFB04001A
:103710000120FEF77AFC020021000120002300F0C6
:1037200075F80220FEF7EFFB04000220FEF76DFCA7
:10373000020021000220002300F068F810BD70B5DF
:1037400001252F4E082A13D0092A3DD1002B3BD149
:1037500001211120FFF7A4FC00211120FFF7F5FC47
:103760007169680481437161B1698143B1612BE082
:10377000002B29D1810023480C18E078C008411E95
:10378000182901D300251FE00121FFF789FCE0780B
:103790000121C008FFF7D9FCE2780121D0081028E8
:1037A00007D2726981408A437261B0692B227B59CA
:1037B00001000000943500A000020000ECB5F17D8E
:1037C0008843B0610AE013484030036B5206120F81
:1037D00091408B430363426B8A434263280070BD70
:1037E0000123B6E70023B4E70C4810B500680028B1
:1037F00004D000221100032001F0E9FF10BD0748AA
:1038000010B50068002804D000220121032001F037
:10381000DEFF10BD00020090B05100B030C000B01B
:103820000A2A10B511D00B2A0FD00C2A0DD1002B6B
:103830000BD100210F20FFF73DFC044842698101B4
:103840008A43426182698A43826110BD000200900E
:103850001CB504006348082241686846FFF72EFA49
:10386000A00702D5019805F0EFF91CBD10B540780E
:10387000FFF7EEFFFFF7CDFA002010BD3EB50400C4
:1038800002E0012001F08AFFFFF7F4F90028F8D0E8
:1038900002206B46187000205C709870D87001216F
:1038A0006846FFF732FA3EBD4E4808B5416801222E
:1038B000891C6846FFF702FA6B46187808BD10B5F8
:1038C0000400FFF7F1FF002802D12000FFF7D6FF28
:1038D00010BD10B50C000100424820220068FFF71F
:1038E000EDF9002C02D02000FFF7E9FF10BD3D49A3
:1038F00010B509682022FFF7E1F910BD01B539487C
:103900000122006869460830FFF7D8F908BD01B503
:1039100034480122006869460930FFF7CFF90820D2
:10392000FFF7CDFF08BD11B581B02E4C01222168F3
:1039300068460A31FFF7C2F96B4618781979884250
:1039400008D0206801220A3001A9FFF7B7F9082042
:10395000FFF7B5FF1CBD01B522480122006869468A
:103960000B30FFF7ABF908BD01B51E480122006816
:1039700069460C30FFF7A2F908BD01B519480122CC
:10398000006869460D30FFF799F908BD13B50422A8
:10399000144C694620681030FFF790F92068042223
:1039A000143001A9FFF78AF91CBD01B50D480122A9
:1039B000006869461D30FFF781F908BD3C8551104C
:1039C00001000000903700A000020000185D4FC009
:1039D00001B509480122006869461E30FFF778F9F1
:1039E00008BD054808B5416801226846FFF770F92F
:1039F0006B46187808BD0000F85100B0FB4A10B5BE
:103A00001068437804781802F94B2043984203D099
:103A100010680170090A417010BDF4498000091F47
:103A200008580221593002780A430270F14A507C4A
:103A3000084350747047ED48F8B524300188EE4AC9
:103A400091421DD002001288012441889440EB4F1E
:103A5000012904D1FD68A5432C43260003E0FE683C
:103A6000A64334432500E6498088096846F36EE999
:103A70008905800A0843FD6001D01CF02CE9FE6036
:103A8000F8BDDA4A8000121F105840308183D2E717
:103A900070B50500DB4C09D10022DB48110046F36C
:103AA000A7F90028206001D020210181A800215819
:103AB000002908D00A898918CC4A121F12581167A8
:103AC00020580821017370BD70B50400C068C74D4F
:103AD000012180002D1F285800264166E0688000E3
:103AE00028584666E068800028580B23D8300268C2
:103AF0009B021A430260E068800028580823D830EF
:103B000002681A430260E068800028584B05D830EC
:103B100002689A430260E06880002858D830026842
:103B20000A430260E068FFF7B3FFE16807208900FD
:103B300069580866E068FFF770FFE068002802D166
:103B4000296817200866E06880002858AA49866618
:103B5000E068002804D1AB4A08321180518091807E
:103B6000A84A0B0A0E32117053709170090AD17075
:103B700081000E3A5158002901D00D2100E00C219E
:103B8000FFF77FFFE0689F498000091F0E50E06843
:103B90000521820095488258D170E168890041581A
:103BA0008E70E168890041580E71E16889004058C3
:103BB0004671002070BDF8B504001422914F624395
:103BC0009248A5003F1F0026032911D14D31B7149B
:103BD000010000008C3900A000020000DF444D9D70
:103BE000002C0AD146F370F92021386001810100D0
:103BF0002431002002F027FE14E0101846F364F987
:103C000078510FE0052904D1002C08D084481438DD
:103C1000F3E7022901D0082904D1002C2ED146F364
:103C200053F938607859002827D0002C25D13868FE
:103C3000734C0189411848780B7802021A43241FFB
:103C40002068C030828248780A7803021343201D1E
:103C50000268D5780122AA40521E9A1803680068AB
:103C6000DB781A418270CA7820688030C28122686D
:103C70003000D1660221FFF70EFFF8BD684814300E
:103C8000BBE7012270B5D2079378634C80000C3CEF
:103C900022588A422FD0002921500DD00020012225
:103CA000850065598D4204D0461C1500B5401D4263
:103CB00021D1401C0128F3D351480C3802788A42A4
:103CC00019D00170514A3630002909D0C178837863
:103CD0000802184390420ED001F074FD012008E064
:103CE0004178037808021843904204D001F06AFD3D
:103CF0000020FEF767FF70BDFFB581B00400029899
:103D000000287BD0E068002878D1029D0498E880E4
:103D100020202881121D2035100A2A70687000208A
:103D20000126A8701BF0B4FE0090E0680021FFF7A8
:103D3000A8FFE068384F8000083F385800280ED0B0
:103D40000498032805D1291D002002F096FD0028C3
:103D500005D100210B2208000B0002F002FC0498A0
:103D6000022874D0032821D005285BD0082817D159
:103D70000320E870E068142141432948081802999B
:103D800046F3CBF8E068244A8100121F5258002AFB
:103D900006D17958002903D10221FFF716FF00262A
:103DA00000981BF079FE300005B0F0BDFE20E870F1
:103DB000291D002002F061FD0028E0680BD01423CB
:103DC000584317494018029946F3C9F8E1680020A2
:103DD0008900785006E0142141431148755D04A420
:103DE00001000000883B00A0000200002BACF32083
:103DF0000818029946F39BF8E0680C4A8100121FEC
:103E00005258002AD6D179580029D3D10321CEE7C0
:103E10002FE026E0905E00B0DCFE00008000008015
:103E2000FFFF0000000200902CC000B0AC5E00B0AC
:103E3000B45300B04CF500B00220E870E0681421E3
:103E40004143FF480818029946F371F8E068FD4ABB
:103E500081005258002AADD179580029AAD10521F4
:103E6000A5E70420E870E06814235843F44940189B
:103E70008FE70020A2E710B504001BF013FEF14A03
:103E8000A1001C3AF04B545863665258172313662E
:103E9000EC4B00220C3B5A501BF008FE10BDFEB547
:103EA00084000600E74800251C3801590D660259B8
:103EB000012151660059E34F45663F1D38590028DE
:103EC00002D045F37FFF3D51DD4914227243DD4F9F
:103ED0000B0014333859D31801930B00143BD3183B
:103EE00056180028009307D045F36CFF04E030001B
:103EF00045F3F4FF3851F7E7300046F358F800284F
:103F0000F5D105E0009845F3E9FF385145F35AFF34
:103F1000009846F34CF80028F4D105E0019845F3E9
:103F2000DDFF385145F34EFF019846F340F8002875
:103F3000F4D13D51FEBDF8B504001500C1481C3850
:103F40000600083E152958D010DCBE4F091F00227C
:103F50003F1D0B0045F318EF11BCBDBDBDA470BDE6
:103F60007BBD8787BDBDBDBD8235BD00B548123064
:103F70001D2949D016DC19295AD01A2972D01B29BB
:103F80000FD01C290DD169782A78090211430170DC
:103F9000090A4170E978AA78090211438170090A77
:103FA000C17096E01E293ED0202978D04629F8D14C
:103FB000E0680028F5D1A3480068002800D001205F
:103FC000F8BD1BF06FFD0500E068810079580029FD
:103FD0000FD1FFF771FDE06881007958002903D106
:103FE00028001BF063FDEAE7002802D1B9E1F37F66
:103FF00001000000843D00A00002000032542D505A
:104000000121FFF75CFD28001BF05AFD6BE0E16821
:1040100089004058022180680840F8BD4178027844
:10402000090211432970090A6970C178827808026F
:104030001043A870000AE87055E0E0680121FFF71E
:1040400034FE50E0E06800284DD107E0E068002829
:1040500049D181490C390968002944D0FFF715FF7F
:1040600041E0E16800293ED10068172101663AE08D
:10407000E068FFF71EFF36E030E0E16800290FD16D
:10408000717800290CD076490068734BC03081826A
:10409000E0688000183B18580170090A417072707E
:1040A000E0688100795800291DD00121FFF707FD44
:1040B00019E00DE0E068002815D1664814388168E1
:1040C0001430806809186348143080680818F8BDF7
:1040D000E0686149800008310D5004E01BF0ECFC01
:1040E000756191E735610020F8BDF8B50025A8009D
:1040F00059491C390A581023566EF2431A430B587B
:104100005A6608584030007E002D7ED10024F10709
:104110003FD040073DD450490022091D086803895B
:10412000C418637827781B023B434E4FBB4204D927
:1041300001212800FFF7C3FC2AE00223037346484D
:104140000021001D0768072208000B0002F01DFA7D
:104150000020FFF7BBFC4048001D0068002803D08A
:1041600001212800FFF7ABFC3889001D3881E07879
:10417000FE2801D10120E070E078F880354836490A
:1041800028307861E37808310C6800223900A047B4
:104190000124B00746D5304F00213868002816D0DA
:1041A00001894118091D002002F071FB002802D08E
:1041B0000120391F0860284824380169386800291F
:1041C00001D0884701E045F307FE00203860230452
:1041D00000211B0C0622080002F0D7F91D4C20001C
:1041E00045F3EFFE002809D1200045F3EAFE002840
:1041F00004D1200045F3E5FE002813D02B48B2CFB0
:1042000001000000803F00A000020000C6BC93ED4A
:104210001649091F0968002908D00B2200E020E098
:10422000002108000B0002F0BAF905E0C088010681
:10423000090E2800FFF7E7FC0C491C390868006EDE
:10424000C0060ED5F0060CD50A0001201032106011
:104250000968072008660021092208000B0002F007
:104260009EF96D1C012D09E04CF500B0A85E00B070
:10427000EFFEFFFFDCFE00000504000000DA40E76F
:104280000120F8BD70B505000C0009D102E0012045
:1042900001F0B6FA28001BF0EFFE0028F7D011E07D
:1042A000641E28001BF0E8FE00280BD1012001F05D
:1042B000A7FA002CF4D11249A8000A58521C0A503F
:1042C000002070BD012070BD0E4B30B501215A6831
:1042D00081400A408000002A05D1094980310A58EE
:1042E000521C0A50FEE7064C803C2258012A02D19B
:1042F0005D688D435D60521E2250012030BD00007C
:1043000044C700B0C02A008030B500240D4B220005
:10431000D5005D59002D0ED1D40018510A4B9200E2
:10432000D318D96000030321000B890740180749FF
:104330005118086030BD521C042AE9DB012CF9D069
:10434000FEE7000044C800B0C09B00A8009800A889
:10435000FF484068016F1022114301677047FC4815
:104360004068016F10229143016770470020704739
:1043700070477047F6484068816B090C01D00020F7
:104380007047816B490504D5816B0904090FFBD186
:1043900000E0806B01207047ED484068406B70473B
:1043A000EB4949684A6E82434A667047E849496862
:1043B0004A6E02434A667047E5494968CA6E02433D
:1043C000CA667047E24949688A6E02438A66704746
:1043D000DF484068806B8007C00F7047DC4840684A
:1043E000C030416837229143416041680122114346
:1043F00041607047D6484068C03041680822914308
:1044000041607047D2484068C0304168ADBF802CE1
:10441000010000007C4100A00002000023EBCEEA76
:104420000822114341607047CE484068C03001689F
:104430000122114301607047CA484068C0300168DA
:10444000490849000160704770477047C548406897
:104450004168012292041143416081681211914325
:104460008160FF30401C4168490849004160704745
:10447000BC484068C11DF9314A6801231A434A60AB
:1044800041689A049143416081681211114381602F
:104490007047B4484068FF30401C41680222914395
:1044A00041607047AF484068FF30401C41680222BD
:1044B000114341607047AB484068FF30401C0168C1
:1044C0000122114301607047A6484068FF30401C3C
:1044D00001684908490001607047A2484068FF3000
:1044E000401C016808221143016070479D484068E4
:1044F000FF30401C016808229143016070479948D1
:104500004068C03001680122D20711430160704742
:1045100094484068C030016849004908016070470C
:1045200090484068FF30401C01680122D2071143C7
:10453000016070478B48406880680003C00F704777
:104540008848406881680122D20411438160704725
:1045500084484068FF304130416A890889004162DF
:10456000704780484068FF304130416A04229143DF
:10457000416270477B484068FF304130416A042205
:1045800011434162704777484068FF304130016A0B
:10459000012211430162704772484068FF30413088
:1045A000016A49084900016270476E484068FF305F
:1045B0004130016A0122D207114301627047694804
:1045C0004068FF304130016A490049080162704784
:1045D00064484068FF304130806A0005C00F704772
:1045E00060484168092080010818C16901229203CE
:1045F0001143C161C16952001143C161C1695200D7
:104600001143C1617047574841680920800108186B
:10461000C169012292031143C161C169C1F6EB3145
:1046200001000000784300A000020000D70370578B
:1046300052001143C161C16952009143C161704789
:104640004D484068816810221143816070474A4894
:104650004168092080010818C169012252041143F0
:10466000C161C169D2001143C1617047424905224D
:104670004968D2018918CA69382340079A43800ED5
:104680000243CA61C86901221043C86170473A4AAF
:104690000023D3561F21C0181F2800DA0100080686
:1046A000000E70470D2804D8334900228A56002A8C
:1046B00000DBECE77047F0B593B0304C206803099D
:1046C00060681B010109A06809010209E068120184
:1046D00000090001C01C12902069491C050960698D
:1046E0002D0100090001401D1190A069921C0009D4
:1046F0000001801D1090E0692D1D0609206A360119
:104700000009000108300F90606AF61D00090001E1
:1047100009300E90A06A000900010A300D90E06A8D
:10472000000900010B300C90206B000900010C30D7
:104730000B90606B0709A06B3F01000900010D3071
:104740000A90E06B0D37000900010D308646F0201D
:104750008143103109911299854340350895119D87
:104760008243814320323031854350350795109D77
:1047700083438543944603E0005200B044CA00B02E
:10478000503506950F9D0C9A8543503505950E9D25
:1047900082438543503504950D9D503285435035F5
:1047A00003950B9D02928543503501950A9D7246F3
:1047B000854382438643874350351F20000200957E
:1047C000132583432D025B192360099B8143834397
:1047D0005B196360634683435B194919A360E16019
:1047E000089D50320B218543490296466A18226182
:1047F000079D503685436A186261069D864385434E
:104800006918A1610321C9027218E261059D503740
:1048100085436A182262049D874385436A18626251
:10482000039D85436A18A262029A82436633CE7C56
:1048300001000000744500A000020000CEFBAE277E
:104840005218E262019D85436A1822637A186263F6
:10485000009D85436A18A263724682435118002561
:104860000700E163AE00A059C004C00EFFF719FFB6
:10487000A159C006C00CB9436D1C01432D062D0E75
:10488000102DA151EED313B0F0BDF0B588B0FF49A3
:104890000A6A1206130F4A6A1206120F1201134314
:1048A0008A6A1206120F12021343CA6A1206120F04
:1048B000120313430A6B1206120F120413434A6BBE
:1048C0001206120F120513438A6BC96B1206120FE0
:1048D00009061206090F134309070B43EC494A68FE
:1048E000D11DFF31FA310C690B610C6B0B6309248C
:1048F000A4011219D468D360E44BDC682406260FA7
:1049000004969C6835012406240F03942C431D69EA
:104910002D062E0F350237032C43059700962600EF
:10492000A6465C693E432406240F019424042643D2
:104930000694019C27059C693E432406240F250606
:10494000DC692E432406240F24072643029607968B
:104950005B68BC461B061F0F039B1E013B003343D5
:10496000049E059F36023343009E3B4336041E439C
:1049700067463E432E432643072803D0062801D02E
:104980000A2809D1906802989060C8680798C860A2
:10499000C86ACE6208B0F0BD0528FBD19068019EC0
:1049A000704636033043069E304366463043284304
:1049B00020439060CA68C860C86A0698034360468E
:1049C00003432B432343CB62E4E7F0B5AF480168D0
:1049D000426809071207090F120E11438268036B20
:1049E0001207120D1143C2681207120C114302691B
:1049F0001207120B114342691207120A114382690E
:104A0000120712091143C2699446120711439646D0
:104A1000026A1407426A240F1207120E1443826AB4
:104A20001207120D1443C26A1207120C14431A071C
:104A3000120F15042C43456B26002D077201386FA9
:104A400001000000704700A0000200003A13109A15
:104A50002D0A2E43856BC06B2D072D092E430007B1
:104A6000064390484568E81DFF30FA3047684160CA
:104A70008768866016053443120614431A071443E8
:104A800009229201AA1813681160536854606246A3
:104A90001207120F13011343140223431403234379
:104AA000140423431405234312061343724613438D
:104AB000426A4162816A8362F0BDF0B57849086854
:104AC0004A69C004C50E4868D204C004C00E400143
:104AD00005438868D20EC004C00E80020543C86832
:104AE0005206C004C00EC00305430869CB69C00468
:104AF000C00E0405254315438A69DB04D204DB0E8E
:104B0000D20E5B011A430B6AAC46DB04DB0E9B0240
:104B10001A434B6A4D6BDB04DB0EDB031A438B6AD3
:104B2000ED04DB04DB0E1B051A43CB6AED0EDB0440
:104B3000DB0E5B061A430B6B6D01DB04DB0E2B43B4
:104B40008D6BC96BED04ED0EAD022B43C904C90E8C
:104B5000470106003E4387023E43C7033E432643C8
:104B60004006064348010C000443880204434D48B4
:104B7000CD0340682B430100FF302C43FF30801CE5
:104B800045696546456187698261C769C361436B51
:104B900033004663866B8363C66BC36308000921D9
:104BA0008901401801690561416942618169846137
:104BB000F0BD10B50400FFF712FF2000FFF76FFEF5
:104BC000FFF77BFF10BD37494968FF31FF31891C72
:104BD0000A6A000712091201000F02430A62086AFA
:104BE0000F2212039043086270472E494968FF3133
:104BF000FF31891C0A6AF02300079A43000E024322
:104C00000A62086A1A0390430862704730B50400CC
:104C1000244D04280CD21120FFF758FD69680922A1
:104C200092018918C9698904C90E884200D20424F6
:104C30006868FF30FF30801C016A0F221202914326
:104C40002207120D1143016230BD164A740F1F5F17
:104C5000010000006C4900A000020000FD0A12C71C
:104C600010B553680522D2019A1813691F246406EF
:104C7000C006A34380080343136110696311C9068A
:104C80009843C9090843106110BD0B4A10B5536819
:104C90000522D2019A1813691F24E403C006A34316
:104CA000000B0343136110696311C9069843490C53
:104CB000084303E044CA00B0005200B0106110BDC8
:104CC000F94A10B552680523DB01D21813691F2475
:104CD0006401C006A343800D034313611069C90634
:104CE00040094001C90E0843106110BDEE4A10B5DD
:104CF00052680523DB01D21853691F246401C006E2
:104D0000A343800D034353615069C9064009400124
:104D1000C90E0843506110BD0C2010B5FFF7D5FC3B
:104D200004001120FFF7D1FC2100FFF7DFFF122064
:104D3000FFF7CBFC04001320FFF7C7FC2100FFF7AF
:104D40008EFF1420FFF7C1FC04001620FFF7BDFC06
:104D50002100FFF79AFF1720FFF7B7FC0400192086
:104D6000FFF7B3FC2100FFF7ABFF10BDCE490522D2
:104D70004968D20189180A699205D20E824206D387
:104D80000A69D206D20E824201D8082070470A6909
:104D90001203D20E824206D30A695204D20E824214
:104DA00001D8042070470A699200D20E824206D3CD
:104DB0000A69D201D20E824201D8022070474A69A4
:104DC0009205D20E824206D34969C906C90E8142B4
:104DD00001D80120704700207047B34949688031ED
:104DE000CA6AFF23E13300079A43C00D0243CA6237
:104DF0007047AD4900B549688031CA6AC306520997
:104E00005201DB0E1A43CA62FFF7B0FF0006000E24
:104E1000FFF7E3FF00BDA4494968C0314A69FF2399
:104E2000E13300079A43C00D02434A6170479E492F
:104E300000B54968C0314A69C30652095201DB0E08
:104E40001A434A61FFF792FF0006000EFFF7E3FFE7
:104E500000BD95494968FF3141314A6BC7138B56F4
:104E600001000000684B00A00002000009E2AC7ADB
:104E7000FF23E13300079A43C00D02434A637047A2
:104E80008E4900B54968FF3141314A6BC30652096A
:104E90005201DB0E1A434A63FFF772FF0006000E51
:104EA000FFF7E1FF00BD85494968FF31491C4A69A8
:104EB000FF23E13300079A43C00D02434A61704764
:104EC0007E4900B54968FF31491C4A69C306520949
:104ED0005201DB0E1A434A61FFF752FF0006000E33
:104EE000FFF7E1FF00BD75494968FF31FF31891CBB
:104EF0000A6A0F235B0600079A43C00802430A624E
:104F000070476E4900B54968FF31FF31891C0A6A54
:104F10001F231B059A43C306DB091A430A62FFF7E6
:104F20002FFF0006000EFFF7DEFF00BD70B5050085
:104F30000D20FFF7DFFB61494E68092189017118D7
:104F4000CA699204D20E904201D2012200E00022EE
:104F50005A480024401C035DAB4204D0641C240664
:104F6000240E022CF7D3086A18255543534A000C27
:104F700000040832535B18430862486A000C0004BE
:104F8000AA18538818434862886A9388000C000462
:104F900018438862C86AD388000C00041843C862AA
:104FA000086B1389000C000418430863486B53898D
:104FB000000C000418434863886B9389000C0004BC
:104FC00018438863C86BD389000C00041843C86376
:104FD0000520C00130180368168A1B0C1B043343DC
:104FE00003604368568A1B0C1B0433434360836889
:104FF000968A1B0C1B0433438360C368D28A1B0C44
:105000001B041343C36030232C4A634338329A187D
:10501000535B0C6A1B042404240C23430B625219B7
:1050200053884C6A1B042404240C23434B6293884A
:105030008C6A1B042404240C23438B62D388CC6A1F
:105040001B042404240C2343CB6213890C6B1B0424
:105050002404240C23430B6353894C6B1B0424044A
:10506000240C23434B6393898C6B1B0436A363B7D7
:1050700001000000644D00A000020000101A720A36
:105080002404240C23438B63D389CC6B1B0424049A
:10509000240C2343CB63118A036809041B041B0CF3
:1050A00019430160518A436809041B041B0C19430E
:1050B0004160918A836809041B041B0C19438160B9
:1050C000D18AC26809041204120C1143C16070BD78
:1050D000005200B055494A68092189015118CA692E
:1050E0001F235B02C0069A43800C0243CA61C86951
:1050F000012292049043C86170474C494968C0310D
:105100004A690F239B0300079A43800B02434A61BD
:105110007047464900B54968C0314A691F235B02A0
:105120009A43C3069B0C1A434A61FFF733FE0006FD
:10513000000EFFF7E2FF00BD3C494A6809218901E2
:105140005118CA69FF23E13300079A43C00D024397
:10515000CA617047354900B54A680921890151186B
:10516000CA69C30652095201DB0E1A43CA61FFF72E
:1051700011FE0006000EFFF7DFFF00BD10B50400B2
:105180000D20FFF7C1FAFFF7A5FF1620FFF7B1FAD0
:10519000FFF7C1FEE00614D50120C007C07CC1079F
:1051A0000FD00007400F02282AD0032809D116206B
:1051B000FFF7AAFAFFF78EFF1620FFF79AFAFFF71C
:1051C000AAFE1620FFF795FAFFF7C4FF1620FFF797
:1051D00090FAFFF79EFF1820FFF78BFAFFF71DFEEE
:1051E0001620FFF786FAFFF736FE1620FFF781FA42
:1051F000FFF750FE1620FFF77CFAFFF76BFE10BD9D
:105200001120FFF781FAFFF765FFDAE708488168A8
:1052100001221207914381608168C2059143816038
:10522000816852109143816070470000005200B0C5
:10523000802A008070B506000C0015001AF08CFC66
:10524000604A31018918002D03D0002C06D1091DB8
:1052500004E0002C01D0083100E00C310C681AF099
:105260007FFC200070BDFFB585B014000D001E004E
:105270001AF072FC019053482901081803AD16C0BA
:1052800001000000604F00A000020000E4F2CCB773
:10529000010008310F1D002E049105D0002C01D013
:1052A000010006E0011D04E0002C01D0049900E09B
:1052B0003900494B09681A0060329646121D039264
:1052C000121D9446121D002E029204D0002C72462C
:1052D00005D1039A03E0002C624600D1029A059B97
:1052E00012681500002E03D0002C06D1001D04E02A
:1052F000002C01D0049800E038000360059890422B
:1053000002D9059D012727E0914244D105988142A9
:1053100041D9314B012700252800002E08D0002C50
:1053200002D00101C9180CE00101C918091D08E0EB
:10533000002C03D00101C918083102E00101C9188D
:105340000C310968A94200D90D00401C0628E4DB95
:10535000954220D0002F1ED0002E04D0002C704685
:1053600005D1039803E0002C604600D10298002F7D
:10537000056010D0002C09D0002E03D0280000F0CA
:1053800065FA08E0280002F0D6FD04E0002E02D005
:10539000280002F0B7FD01981AF0ECFB280009B0D4
:1053A000F0BD0E4810B50068002801D0FFF738FFA7
:1053B00010BD0122130060E7012200235DE70022F7
:1053C00001235AE70022130057E7012211003BE7AF
:1053D0000022012138E7000084CA00B0385E00B026
:1053E00010B502F09BFE10BDF849FF22C832888B31
:1053F0001042FCD17047F8B5F54C6069002802D026
:105400001AF0B4FBFEE71AF0B1FB60610021012045
:10541000FEF788FF002810D0EE4EB48801208002ED
:105420000440B088EB4D3527A0433F012035B842FA
:1054300004D1287D012108432875F8BD022000F021
:1054400009FB0028F9D03C43B480297D01200143A9
:105450002975F8BDDE4810B5446900214161FF217E
:105460000170DC482030017D4908490001750120A8
:10547000FEF77AFF20001AF07DFB10BD70B5D44C0A
:105480006069002802D01AF071FBFEE7438994C9D5
:10549000010000005C5100A0000200009AE96B07C7
:1054A0001AF06EFB606100210120FEF745FF002825
:1054B0000DD0CD4DAC88012080020440A888A043C7
:1054C00005D0012000F0D0FA002800D0AC8070BDDB
:1054D000C44810B5446900214161FF2101700120D9
:1054E000FEF74CFF20001AF04FFB10BD70B5BD4E0B
:1054F0007069002802D01AF043FBFEE71AF040FB67
:10550000706100210120FEF717FF002814D0B64D6E
:10551000AC88012080020440A888A04382280BD0D8
:105520002888F080002000F09FFA002804D0A88886
:10553000308182200443AC8070BDAA4810B5AA49CE
:10554000028944698A80C2880A8000214161FF2162
:1055500001700120FEF712FF20001AF015FB10BDAC
:1055600070B5A04D6869002802D01AF009FBFEE76B
:105570001AF006FB686100210120FEF7DDFE00281D
:105580001BD0994EB488012080020440B088A0430B
:10559000022812D0FDF7B3FB002803D0012803D165
:1055A0003F2002E01A2000E07F203188E98030802F
:1055B000B088288102200443B48070BD894810B5AA
:1055C0008949028944698A80C2880A800021416130
:1055D000FF2101700120FEF7D1FE20001AF0D4FA5D
:1055E00010BD70B57F4C6069002802D01AF0C8FA6F
:1055F000FEE71AF0C5FA7A4D6061AC88012080029E
:105600000440A888794EA043B04206D0042000F0A0
:105610002BFA002801D03443AC8070BD714910B51D
:10562000486900224A61FF220A701AF0ADFA10BDE3
:1056300070B56C4C6069002802D01AF0A1FAFEE740
:105640001AF09EFA606100210120FEF775FE002825
:1056500010D0634DAC88012080020440A888644EBD
:10566000A043B04206D0042000F0FEF9002801D08B
:105670003443AC8070BD5B4810B544690021416182
:10568000FF2101700120FEF779FE20001AF07CFA5C
:1056900010BD70B505000E0002F04AFD4F41CCE28E
:1056A00001000000585300A0000200006E01D5BAAE
:1056B000524C2034258102F045FDA68002F042FDC7
:1056C00070BD70B5050002F03DFD4C4C20342581C5
:1056D00002F038FD207970BD30B505000C00FFF7F1
:1056E00097FE444B20331D81FFF792FE9C80FFF70D
:1056F0008FFE30BD30B505000C00FFF789FE3D4B35
:1057000020331D81FFF784FE9C80FFF781FE30BDB2
:1057100010B50400FFF77CFE364B20331C81FFF7E9
:1057200077FE988810BD10B50400FFF771FE314B6D
:1057300020331C81FFF76CFE187910BD70B5040092
:105740000D00FFF7BEFF284301002000FFF7ABFF6D
:1057500070BD70B504000D00FFF7B3FFA843010052
:105760002000FFF7A0FF70BD23484178002909D130
:1057700025490968012209024270090F02002032FE
:10578000515C8170807870471B4910B5C87800283B
:1057900015D108611C4840680A008007800F10324C
:1057A00010230124002807D0012803D0022803D0A9
:1057B000032803D1136001E030201060CC70086929
:1057C00010BD124B5968382291431040084358606D
:1057D00070470E4B59680F229201914310400843C5
:1057E0005860704710B50C00FFF7F3FF2000FFF77B
:1057F000E8FF10BD003800A8C85200B000080090B3
:105800005053000050130000002000800029008049
:10581000A04810B5446900214161FF2101700120B9
:10582000FEF7B6FD20001AF0B9F9E2E770B5994C21
:105830006069002802D01AF0ADF9FEE71AF0AAF963
:10584000606100210120FEF781FD002811D0924DFA
:10585000AC88012080020440A888B526A043360108
:10586000B04206D0022000F009F9002801D03443EC
:10587000AC8070BD10B502F034FBBAE78748C16850
:1058800089008908C160C168032292071143C16081
:10589000810C8248803841618149016181494161BF
:1058A000052101617047804800B50068B8C33756CC
:1058B00001000000545500A00002000077F90BCA57
:1058C000002801D0FFF7E4FF7D491620C86048603A
:1058D0007C488168C2051143816000BD7A4910B5DA
:1058E000096844F3CAEA8905800A08438BD01AF094
:1058F00088EA88E77047704774480068000701D558
:1059000001207047002070476748C0687047F7B5AE
:1059100086B004000D001AF047F900900021012024
:10592000FEF71EFD002854D00321620008009040BD
:1059300004902000083840000E00864003902000AC
:105940001038059242000B00934002922200183A50
:10595000520091408E4601210F00874001935C4820
:105960000B00A34094465A4A4030002D39D0082CF1
:1059700004D21568049EB543156012E0102C03D2C2
:105980005568B54355600CE0182C04D2C569019EDA
:10599000B543C56105E0202C03D2056A7646B543C0
:1059A0000562089D002D15D0102C03D294681C436D
:1059B000946002E0426A3A434262826802231A43D8
:1059C00082603F4A80325068DB05184350603E4891
:1059D000416055E03A4A80321068082188431060DF
:1059E0004EE0082C09D21668059DAC46049DAE43D6
:1059F0006546A9400E43166021E0102C0AD2556876
:105A0000AC46039DAE466546B5437646B1400D4370
:105A1000556014E0182C09D2C669029DAC46019D60
:105A2000AE436546A9400E43C66108E0202C06D26D
:105A3000056A7646B5436646B1400D43056208994E
:105A4000002917D0102C03D291689943916002E08D
:105A5000416AB94341628168022291438160184AD8
:105A600080325068012109068843506016490020A1
:105A7000486005E012498031086808221043086038
:105A80000120FEF78FFC00981AF092F809B0F0BDE3
:105A900010210A2803D2044940003031095A034832
:105AA0000180012070470000C85200B0000800903B
:105AB000002A0080170000FF102000001DB50FA174
:105AC00001000000505700A0000200008311B577CC
:105AD000385E00B0C0220080009100A82CC000B049
