:100000000100000000000000000400000094511AEC
:100010001CF09FE51CF09FE51CF09FE51CF09FE5A0
:100020001CF09FE51CF09FE51CF09FE51CF09FE590
:1000300007440F05187C0000B47B0000C47B00005F
:10004000C87B0000D87B0000E87B0000F87B000044
:10005000047C0000000000EA960000EA28008FE21D
:10006000000C90E800A08AE000B08BE001704AE24A
:100070000B005AE18F00000A0F00BAE814E04FE2CB
:10008000010013E303F0471013FF2FE1D032040007
:10009000203304000030A0E30040A0E30050A0E3C0
:1000A0000060A0E3102052E27800A128FCFFFF8A44
:1000B000822EB0E13000A128003081451EFF2FE1E3
:1000C00004309FE503308FE013FF2FE11506000099
:1000D000203052E20400005A203062E23002A0E1F7
:1000E000110380E13112A0E11EFF2FE13103A0E1F5
:1000F0000010A0E31EFF2FE110B5040000F012E98C
:100100000068005D000706D5DF2C04D020002038F1
:1001100010BC08BC18472000FAE710B4042A0ED31C
:1001200003000B439B070AD108C810C9A34202D1A0
:10013000121F042AF8D2A34201D0001F091F002A6F
:1001400002D1002010BC7047D30701D0521C05E03B
:1001500003780C78401C491CA34207D103780C7823
:10016000401C491CA34201D1921EF1D1181BE9E7A2
:10017000FF3002E2032483E1022882E1B76A0CEA3D
:10018000013050E003005221506A0C9A030052E300
:10019000020080E0021081E02500009A030010E3D5
:1001A000013071150120421201306015030010E387
:1001B000FAFFFF1A033011E26A00000A042052E23B
:1001C0001B00003A03C031E7020053E30800003A85
:1001D0000F00008A0C38A0E104C031E5042052E28F
:1001E0002C3883E1043020E5F9FFFF2A021081E278
:1001F0000F0000EA0C3CA0E104C031E5042052E20B
:100200002C3483E1043020E5F9FFFF2A011081E25C
:10021000070000EA0C34A0E104C031E5042052E2FA
:100220002C3C83E1043020E5F9FFFF2A031081E232
:100230000000A0E1822FB0E10130712501C07125DD
:10024000012051450130602501C060250120404555
:100250001EFF2FE103000B43020070B49B0710D177
:100260000F4CE50100E008C208C91E1B9E432E4248
:10027000F9D01906090E1170521C00290DD01B0A65
:10028000F7E70C78491C531C002C147005D00C782F
:10029000491C5A1C002C1C70F3D170BC7047000024
:1002A000010101010120A0E1920081E01EFF2FE188
:1002B0009203A1E01EFF2FE10000A0E15A0000EB35
:1002C00003002DE9BA0000EB0300BDE8820000FA4C
:1002D0000F002DE9B90000EB0F00BDE81CC09FE541
:1002E0000FC08CE001001CE30DE08F120FE0A001B5
:1002F0001CFF2FE101C08FE21CFF2FE100F08AF804
:10030000C1CC020001402DE90000A0E1A10000FAEB
:100310000140BDE8000000EA0000E0E3260000EA3A
:100320001EFF2FE110402DE9290000EB1040BDE831
:10033000040080E21EFF2FE1AD000000013050E01C
:1003400003005221166A0C9A020080E0030010E3B9
:10035000021081E001204212013071150130601558
:10036000030010E3FAFFFF1A102052E20500003AE2
:1003700010402DE9185031E9102052E2185020E9C0
:10038000FBFFFF2A1040BDE8823EB0E10810312992
:10039000081020290430314504302045030012E3C1
:1003A0001EFF2F01822FB0E1B23071210120514593
:1003B000B2306021012040451EFF2FE10C109FE567
:1003C0001800A0E3563412EF1EFF2FE154FFFFFF89
:1003D0002600020004009FE51EFF2FE11EFF2FE113
:1003E000346B000410B5C046C046080007D0017841
:1003F000002904D005A100F024E9002804D1044814
:10040000784410BC08BC18470020FAE747B84738C2
:1004100001000000FC030000000400005AEF5E131E
:1004200043000000482E040010B5C046C04604003A
:10043000C046C0462000FFF770EF10BC08BC18474C
:100440000E40A0E1660000EB04E0A0E101402DE9D0
:100450007B0000EB0040A0E10140BDE813402DE926
:100460000100A0E3121DA0E3081084E5000084E56C
:100470001340BDE80010A0E1040084E50EF0A0E107
:1004800010402DE903002DE96D0000EB0040A0E1D4
:100490000300BDE8042094E50D30A0E100E082E017
:1004A00003005EE1002081E50B00008A0E3093E03E
:1004B000011A8EE26330A0E1071081E20730C3E346
:1004C0000710C1E3030051E10310A081041084E58B
:1004D0001040BDE8020041E01EFF2FE10020A0E136
:1004E0000000A0E30000A0E11040BDE81EFF2FE1E6
:1004F000F0B585B0C046C04605000C0042F082EB66
:10050000002001950294C046C046039001A8FFF761
:10051000E2ED040001A80D00009303C81600C046D8
:10052000C046C046C0461AF38AFA00210800C046F9
:10053000C0460700FFF758EF04900021076008004D
:10054000FFF75AFF411C0498416000210800C04693
:10055000C04601000498816000210800C046C046E2
:1005600001000498C16000210800C046C046010097
:1005700004980161C046C046C046C046C046C04659
:10058000C046C046C046C046C046C046C046C0463B
:10059000C046C046C046C046009B05B02000049C33
:1005A00029003200A646F0BC01B0704710B5C04625
:1005B000C0460020C046C046C046C046C046C046F1
:1005C00010BC08BC184700000000E0E30210E0E3A4
:1005D0001EFF2FE110402DE90000A0E11040BDE812
:1005E0001EFF2FE10E50A0E1430000EB05E0A0E16B
:1005F0000050A0E10700C0E30D10A0E10A30A0E127
:1006000000D0A0E160D08DE220402DE99E3700FAB5
:100610002040BDE80060A0E30070A0E30080A0E3FC
:1006200000B0A0E30710C1E305C0A0E1C009ACE839
:10063000C009ACE8C009ACE8C009ACE801D0A0E151
:100640001EFF2FE104009FE51EFF2FE11EFF2FE19B
:10065000246B0004030010E3030011031700001AC9
:1006600000402DE984E09FE5042090E4043091E40B
:100670000EC042E002C0CCE18EC31CE00300520178
:10068000F8FFFF0A0040BDE8030CA0E1020C50E0B7
:10069000FF0E1C030700001A0308A0E1020850E047
:1006A000FF0C1C030300001A0304A0E1020450E045
:1006B000FF081C03020053006000A0111EFF2FE181
:1006C0000120D0E40130D1E4010052E303005221C3
:1006D0000400001A0120D0E40130D1E4010052E30B
:1006E00003005221F5FFFF0A030042E01EFF2FE145
:1006F0000101010110B410BC7047000000009FE52B
:100700001EFF2FE1146B000404009FE51EFF2FE184
:100710001EFF2FE1186B000470B505000C0029F0D6
:10072000A3F9002814D0686901F048F900280FD017
:100730006079217900060014084320340019C1793A
:100740008279080226491043884201D1012070BDF8
:10075000002070BDF8B504000189081842790379BA
:10076000120612141A4315180E3150180606360ECA
:10077000200001F017F9002807D1697D2A7D0802C1
:10078000083610433606360E03E0687B297B0002EC
:10079000084301F0C8F80027FF4300281DD0606916
:1007A0002DF0EEFA200001F002F9002808D129F01E
:1007B0005BF9002804D1606901F000F900280CD031
:1007C0002A00A91D200026810BF024F9002804D05E
:1007D000200000F0ABF80020F8BD3800F8BD0000A4
:1007E000888E000070B50C00304E15003168042B67
:1007F00008D130004068002C00D061612A0021003F
:10080000042309E0012B09D12948616131F004F882
:1008100070682A00210001231AF33AFFBCCAAA9B80
:1008200001000000F80700000004000009358D7F7A
:10083000002070BDF8B50D001700214E1C00052BDF
:1008400001D0162C14D128894019C1788278080269
:10085000104304D1280000F073F80220F8BD2800EE
:10086000FFF782FF002801D10120F8BD052C01D03F
:10087000172C04D13A002900306805230EE0032C20
:1008800006D1280001F095F83A002900032305E07D
:10089000022C05D1B0683A00290002231AF302FFA6
:1008A0000020F8BD70B5040000F00EF8050001202E
:1008B000207320001AF37EFE280000F009F870BDB6
:1008C000000000040100070010B502F37CEE10BD2B
:1008D000802810B502D102F376EE10BD02F37CEE53
:1008E00010BD10B5040006F32FF9206010BD1248AA
:1008F00070B50468114EA10706D500210161326D63
:1009000001209047022084432006000F03D0E020FE
:1009100084431020044300250AE0E00706D0A80025
:100920003258002A02D021002800904764086D1C2C
:10093000002CF2D1002070BD0030008068BB0004A4
:10094000002810B507D00169002905D14189C08868
:1009500003221BF357FA10BD1AF32CFE10BD10B57D
:100960000189C1220818C18C0024D200914208D10B
:100970000100062212310C30FFF7E3FB002800D102
:100980000124200010BDF3B50400002085B006004E
:100990000490039002900190208901270519A878FE
:1009A0000007800F022800D00027606940790228E4
:1009B0000BD12000FFF7D3FF012806D12020A6800D
:1009C0002073FF490868401C0860A08800287ED07A
:1009D00003F06BFC00282BD029F050FC002827D115
:1009E00029F00CFE002823D1002F41D020890519C1
:1009F000E978C80701D1A81D01E028001230F14AAA
:100A0000537E002B0DD0128A092A0AD10078C00724
:100A100007D0880602D533F01BFF0BE001200490BD
:100A200008E002F0F0FD012804D033F021FF01E0DE
:100A3000002F1DD0A878010902D00009082817D17D
:100A400022892000263010180288DF4B61699A4203
:100A50000ED1C07803280BD1002909D00D208001C8
:100A60000818406B002803D080300188491C0180A1
:100A700000F085FF002868D028001BF3D9F8002873
:100A80005BD1002F13D001222000694607F0DEE978
:100A900000280CD0684607F0DEE900284DD007207A
:100AA000019000214F2028F0C1FC039007E0069937
:100AB000200002AA01AB28F0D5FE00283DD000F0AE
:100AC00053FF002848D0C14D01242C6100E032E0E2
:100AD00033F03CFF03F0E6FB00280BD136F006FCB8
:100AE000002807D1BA480660BA4806800320AC70D7
:100AF00036F0A8FB6B469A880399FF2029F042F84C
:100B0000B54C2088002804D0B44904200856401C65
:100B100009D0022401200AF090FB641E07D0287A35
:100B20000028F7D103E028F033FE26802E721D2026
:100B300036F088FBEE6007B0F0BD20206B462073D6
:100B4000187A002808D1A68006E0002F04D00222DF
:100B50002000694607F07AE904980028EBD01B20B2
:100B600036F070FBE7E77CB50C0015004979237976
:100B70000906091419430B19818842692033802919
:100B800014D9803920328180517DC906CA0F009264
:100B90002A0001A90CF3A3FFA071000AE0710198DB
:100BA000001B2071000A607101207CBD00207CBD0B
:100BB0001A00D8E78288802A10D9803A8280487942
:100BC0000A7900060014104320300871000A4871A9
:100BD000E62088710020C87101207047002070470E
:100BE0001FB501AA0400009202AA03AB2CF000F882
:100BF00001980204029812140104091420002BF039
:100C0000F9FD20000399E030418101998181029929
:100C1000C181200002F038FF1FBDFFB581B0002068
:100C20001C0001260A9D0B9F286038605ECF74155A
:100C300001000000F40B000000040000FD5AF8CB96
:100C40008A7CD207002A07D0E1072E6002D0A107D4
:100C50001EE03E6005B0F0BD0800123004F034F92B
:100C600000281DD0417902291AD18168C90417D5FD
:100C70000199C279C97991420DD103990A290FD3FB
:100C8000610702D4E107E4D10AE0E107E2D061079D
:100C90000029DEDADEE7210702D503990A29D9D235
:100CA0002E60D7E7F3B59BB005000A200E90002018
:100CB0000D900C904F480A90012009900020089058
:100CC000069005901C98002802D100201DB0F0BDB0
:100CD0002889202241190B916E6910A819F316EF8B
:100CE00010A810AB0F90D878C0070F9801D1801DC5
:100CF00000E012301C9F07904037387D8006400F7F
:100D0000012809D9032805D81C9818301AF340E89F
:100D1000000701D5012400E0002410AB99780020E1
:100D20000A07920F022A03D10909090700D50120F9
:100D300020432ED00F981AF385FF002829D1FFF702
:100D4000CDFD0290387E2C4A41070F98490F0C3098
:100D50001AF344FE0A280E9018D2002C06D00E98E2
:100D6000254900014018C168491CC160287B202822
:100D70000CD107980078C00708D10E981F490001D0
:100D8000411810AB188B000933F07AFB0298FFF77B
:100D9000A9FD288920216C18203829812071000A9A
:100DA00010AB6071188B00092072000A6072B07974
:100DB0002070F07960703079062825D1D8788007C6
:100DC00022D4A07C01210843A0740F208001301898
:100DD000806A15E09000000478380004888E0000D6
:100DE000A82B00043C050004D0040004C004000447
:100DF0009C000004E8BB0004C0C20004A8C60004B4
:100E0000816C491C816403E0A07C40084000A07410
:100E1000A888002802D1287B20283DD110ABD878A3
:100E2000800601D50120059010AB98780107890F45
:100E3000022931D1397EC90620D5000900071DD508
:100E4000F8480078002819D029F0C0FC002815D0F7
:100E5000F5480068002811D0F448006800280DD03B
:100E600033F082FC002809D031F014FE012805D0AF
:100E7000EF480068002801D10120069003F027FA0E
:100E8000002809D00F981AF3DDFE002804D10220B3
:100E900003F0ECFF33F0C4FD1C993000FFF7AAFE0D
:100EA0003100E0310E201A91085E02F024FD20731B
:100EB0001A990A20085E02F011FD10AB6073987851
:100EC0000009000703D5387E4007400F00E0FF20EF
:100ED000A072A07A0490A888002804D00F981AF372
:100EE000B1FE002858D00020A070E070A88800282B
:100EF00002D1287B20284BD1049829F073FB0028CD
:100F00000BD00598002805D00022110030000CF00D
:100F100075FA02E0C7490020087007980078C007FA
:100F200019D11CF04BFB00280CD010AB188B020918
:100F30000092387E069AC006C30F059930001CF057
:100F40006FFC07E0387E069AC006C30F0599300093
:100F50001BF014F8069010AB987805990209300040
:100F600033F0C6F80698012812D1B348008800284B
:100F70000BD0B24800220068462108F33AFA002854
:100F800003D0AF490120087002E0162036F064F962
:100F90002800FFF7DFFC98E60A98FF30401C199004
:100FA000416AA8480529189008D21898807A002824
:100FB00004D00B990A9838F09FFA0C90387EC0093B
:100FC00005D01C9A21002800FFF7FEFD05E00F9BCD
:100FD0001C9A21002800FFF7F5FD00287ED0A88884
:100FE000A070000A22000B32E0701C98D11C1AF38A
:100FF00037FE7079022810D1300003F0E7FE09A90E
:101000000091112149010DAA08904018019203781E
:101010000E9A300010A9FFF70AFE0D9800284CD058
:101020008948002201888948032303F004FA002834
:10103000019042D00198A988818001991818F05236
:1010400001000000F00F000000040000AE802BA79C
:10105000C020088101990820087301981221C0302E
:10106000029019F324EE02981421017100214171BC
:10107000E079A2790102029811438171090AC171D4
:101080000898406A012805D1B068000502D5029988
:10109000A07A0873607921790006001408430119C9
:1010A0000298AA88143019F33CED0199F068486160
:1010B0000299F07948700299B07908700299A8886D
:1010C0008870000AC8700198042100F07BFC287B1E
:1010D00020283FD0FFF70CFC03900C98012831D159
:1010E0005D4829000C301AF364FB1998406A00E04F
:1010F00061E0002828D10022189B009218897D22E7
:10110000D20042431C0057480A9923002CF064FE89
:10111000002819D11998406A002803D00A980021A4
:1011200008F0D0FC03F0DDF8002802D0052036F0EE
:101130009DF84E4B4C481C6800222900006805238E
:10114000A04727E00C98E3E719981999406A401CDA
:1011500048621FE0A88800282DD0FFF7C9FB039044
:10116000424B41481C680022290000681623A04712
:1011700001280FD10E980A280CD207980078C007D2
:1011800008D10E983A490001411810AB188B00099C
:1011900033F080F90398FFF7AFFB049829F02CFA9D
:1011A000002811D00598012809D100221100300033
:1011B0000CF02EF908E00020A070E070F2E605982F
:1011C000002801D12049087007980078C00719D17C
:1011D0001CF0FEF900280CD010AB188B020900920D
:1011E000387E069AC006C30F059930001CF022FB1A
:1011F00007E0387E069AC006C30F059930001AF042
:10120000C7FE069010AB987805990209300032F0BD
:1012100079FF0698012830D10C480088002829D091
:101220000B4800220068462108F3EDF8002821D081
:1012300008480121017020E0E6030004F8030004DF
:10124000F403000448040004E5030004143D000412
:1012500000000004E103000408BD0004DE040004F3
:1012600078180004ED94000004000004EC0200046F
:10127000A8C60004162035F0F9FF012030E57FB53F
:1012800004000E001D00142119F3E6EC25606B46E6
:10129000A672188920817FBDF0B5C3680269190064
:1012A000114301D10020F0BD0125002B0DD0002AF3
:1012B00021D11F212A008A40134203D1491E090669
:1012C000090EF7D1CB40C3600CE0002A13D01F21D8
:1012D0002B008B401A4203D1491E0906090EF7D193
:1012E000CA4002610289130712091B0F5118090134
:1012F0000B430381D6E700210C000F008C468E467D
:1013000001E0002C0ED101258D402A4222D0002977
:1013100020D04D1E0126AE401D0035421AD00124BA
:101320000F0017E001258D4016002E4212D11F2913
:1013300010D21E002E420DD00124BC406D1E641E32
:10134000A543644625434C1E2406240E0027A646CA
:101350003C00AC46491C0906090E2029D1D3714630
:1013600000290CD0CB40CA40C360026101890A0742
:101370000B097146120F591809010A430281604690
:10138000F0BD70B50400008988B006092000FFF7A1
:1013900083FF0028019023D0182102A819F35CECE8
:1013A000FF4920680622411802AD03A819F3B8EBE3
:1013B000A07A6B46987428000422103001A99E82FE
:1013C00019F3AEEB04206B46D882FF209A301881C7
:1013D0001020588120681423592102AA28F03DF9D1
:1013E00008B070BD080000214160CAE7F7B582B0BF
:1013F0000C00FF2704980026603019F3D4EC050098
:101400002168029881425ED1A8780007800F0228E7
:1014100059D102980F239B010622A91DC018FEF77F
:10142000A4FE00284FD1A87800090DD004280AD0C6
:10143000082802D00C2808D1012604984030007EEC
:1014400047077F0F01E001260027A07AD210263F30
:1014500001000000EC1300000004000011450E1410
:10146000B8423AD1288B218900090909401A01D4D0
:1014700020281BD360680027002802D008F3DFFB78
:1014800067602000FFF787FF288B218900090A0980
:10149000801A01D4202809D3E76008072761298B27
:1014A000000F090909010843208100200121002EB5
:1014B00004D0226981400A43226103E0E26881404E
:1014C0000A43E2606068002807D100220092BA4A0D
:1014D000BA48231D21002CF089FC05B0F0BDF0B501
:1014E00000260C8B178825090C7E2407240FAF4299
:1014F0000FD1C9780907C90F214303D01988491CA6
:10150000A14202D105998C4201D38680F0BD1C8096
:10151000F0BD002CF9D11580F9E7F0B50020A1B09D
:10152000040006900390029002F0F2FE002806D01C
:1015300000F038FA0028FAD0A1490120C860F4E18F
:1015400002998A06491C002A029104D19D494A6BDE
:10155000CB0D1A434A63002118AB05911A7D920600
:10156000520F012A05D90121032A02D80E99090731
:10157000C90F04910189081808A902F00EF92098F2
:10158000002805D1079800218180FFF7F7F9CCE109
:1015900020980C3003F0ACFC040005D12099012008
:1015A000123103F0C7FC04002099200002F022FC55
:1015B000002801D00024E5E7002CE3D007994C6116
:1015C000607902280CD1200003F03BFC0C30039022
:1015D000A068209AC0040799C00F1AF3CAFA17E04E
:1015E0002079012801D006280CD12300209AAC33A1
:1015F00001201AF3C8FA2079012809D1200003F04C
:1016000055FC05E02300209AAC3301201AF3DEFAE2
:10161000079801890D18E978C90701D1AE1D01E0CD
:101620002E0012360D2189016718796B002902D02E
:101630000A6B521C0A633178C90705D0796B0029FF
:1016400002D04A6B521C4A630499002971D18088E8
:1016500000287ED0A8780007800F02283DD11AF01C
:10166000BDF8002804D05849200008AAFFF7C8FE9A
:10167000A87800090C281ED004281CD0082804D102
:1016800018AB187E4007400F00E0002011214901EF
:1016900061188A79824203D00022D2434A8088713D
:1016A0008920800010222318801E00922218209981
:1016B0000798FFF714FF0798808800280DD12000B5
:1016C00008A9FFF7ABFA0798FFF758F9786B0028DD
:1016D00002D0016A491C016227E1A068C0031ED53F
:1016E000E878C10712D1800710D50F20800121189A
:1016F000280006221230FEF742FD002806D1079985
:1017000088803078C207D20F012104E03078C0070A
:101710000FD100221100200006F0BEEB09E0307866
:10172000C0070AD00F2080012218079829000CF367
:10173000E3F90798808800288BD0607902284CD183
:10174000200008A902F083FD03982099007EC97843
:1017500000E0C9E0C906C90F884218D020000EF089
:1017600025FA2079032812D1200017F07BFB0028EE
:101770000DD0617902290AD1807FC00707D02000EF
:1017800006F08EEB002802D0200006F08EEB200041
:1017900002F0E1FB200002F02DFC012803D120998A
:1017A00020003CF0CEF803984030007E032810D093
:1017B00000200BE029020000400D0300851300000B
:1017C000A82B000400340080942B00040799888023
:1017D0008AE0079880880028FAD008A819F0DCFD74
:1017E00020001EF0FFFB3078C00711D119F02AFC51
:1017F00000280DD11BF0F6FE0028079808ABDA7E12
:10180000818808A802D01CF099F901E01AF014FCB4
:1018100020981AF309FA00281ED0079881886039A9
:1018200081802099097E090707D12099C978490745
:1018300003D420990988818056E0524A0092018998
:10184000514A524B091819F3FFFF00286DD0079039
:1018500001890818209047E0209880798452C8199F
:1018600001000000E817000000040000429FDD783E
:10187000C00701D0F86900E0386A002801D1069855
:1018800001E00830069000284ED00698C17908077C
:10189000000F022801D0032810D111225201A218F2
:1018A000928820990120002A00D000201AF3D5F94F
:1018B000069A079808A900F0BFFA17E0012801D09E
:1018C00008072BD1002000F0F7F80028FAD1069A7B
:1018D00008A907A807F09CFE002804D10798002853
:1018E0002DD0002181800598002807D00698C07966
:1018F0000007000F022809D0032807D0079808A97D
:10190000FFF769F8079808A9FFF7EAF920F0FAFF4E
:10191000002814D001200CF0F7FA1CE021482FF029
:10192000ADFF21F0DBF9E9E7786B8168491C816044
:101930002098BF21C07808402099C87042E71A4813
:101940000068002807D1012108AA01F052FF0028F1
:10195000079000D0FEE515498020C04308611AF3C6
:10196000C8FA002802D004200CF0CEFA104900205A
:10197000C860002C086106D00F2080012018C068C4
:1019800003212AF06DFB21B0F0BD0A4A01000120BD
:10199000914200D0002070472C8C01C0348C01C0D3
:1019A00060C702C002000100B003000400A500806F
:1019B000A82B0004888E00000A49002049680029ED
:1019C00004D009490978002900D001207047054951
:1019D00000204968002904D003494978002900D033
:1019E0000120704794000004A82B000402220B0081
:1019F00010B50100027309481C22006819F37AFE31
:101A000010BD4069C068704710B5406903F053FAD3
:101A100010BD10B5406908F075FD10BD040000044C
:101A20000F21890140188068002803D02030407EB3
:101A3000C007C00F704703000A0000B5FFF7F0FFB2
:101A4000FD21002814D00F20800118188368C033AE
:101A50009A6180680300C033002A08D02030407E9D
:101A6000C00701D0586909E0907A0840907200BD23
:101A7000002AFCD098684307F6D5C0070028F3D1A8
:101A800000BD38B51400049A0092220009F047FC0A
:101A900038BD10B509F006FD10BD10B509F02CFCDD
:101AA00010BD10B509F012FD112800D1122010BD93
:101AB00010B509F023FD10BD10B522F0D9F9F94891
:101AC0004068002800D0012010BDFFB587B00C0091
:101AD00005001700109E1C21684619F3D2E80098F3
:101AE000012109048843F17B6B468907C90F09046A
:101AF00008430121C9040843490200908843F17B4F
:101B00004907C90F090708430090B07BD873B06834
:101B10000490E07903210007000F0906022802D192
:101B20000098884308E00328009804D188430121E5
:101B30000906401800E008430090DC4A8001810F4C
:101B4000D948A21A002901D10C3202E0012902D1A0
:101B50000D321004000C03998004890B800C89035A
:101B6000014303910098012149078843F17B0195C6
:101B70008907C90FC943C907890808430090800134
:101B8000810F1ED10098C00015D5208F2884280011
:101B900020308170B9012031C170606B6862208F84
:101BA000401C0004000C208702D1606B401C606365
:101BB0002888103028800A9A2900684604F09CFA88
:101BC00018E0800F012807D123000A9A0C3329005E
:101BD000684604F03DFB0DE000987F21C009C0017C
:101BE0000830009003980904884300994906490A7F
:101BF000084303900098C00007D4A8780007800F1E
:101C0000022802D128888038288070681C22694602
:101C100018F39AEF0BB0F0BD10B5CC79030000209B
:101C20002409022C02D14031087C10BD002AFCD0CE
:101C300059790229F9D1180003F0E6F80721C90102
:101C40004018C08A0006000E10BDF0B58C469646BE
:101C50001A000721090203004B43954C07011E1986
:101C6000751894497C18002A39D0E17BD7511E742D
:101C700001000000E41B000000040000B6F0A8CC46
:101C800001237246002A00D000235A00FD231A4384
:101C90001140E1736146A173617B8B4A491E0906BD
:101CA000090E617311D1810088480818006A030C7D
:101CB0005B1E637320738548C0300818006AD051DA
:101CC000834808180068606003E06068A84200D19B
:101CD0006660A068001DA060E17B490702D5C005D1
:101CE000C00D04E0C11FFF39FA3901D10020A06006
:101CF000F0BD207B4022401C0006000E40282073CF
:101D000000D22273607B401C0006000E40286073E6
:101D100000D26273C8591C30A842C851E8D1CE51D4
:101D2000F0BDF8B504000D0016001F0000F01CFB0C
:101D3000002811D03A00210020000123FFF78FFF77
:101D400032002900200000F015FB604AA10040325B
:101D5000604889180862F8BD584847302FF098FD50
:101D600020F0C6FFF8BD70B50500FEF7DFFD0400EA
:101D700028894019016F8A781209092A01D10120A6
:101D800006E06030007F544A800010580006000EC4
:101D9000CA785207D30F2A00FFF7C3FF2000FEF7CF
:101DA000C9FD70BDFFB583B000240600170006987A
:101DB0000294C0790007000F022805D1069A049802
:101DC000390004F0F2F906E0032807D1069A0498D6
:101DD000390004F090FA0400012834D03A49300167
:101DE0004518E87BC0070DD13800603018F3F8EFD4
:101DF0003B00029A069958330095FFF770FE686819
:101E00001C306860142030497043583140180499E0
:101E1000283819F3ECFC192000022F4970432F4D8C
:101E20003031401829686423594364224018D9018D
:101E3000401A390018F392EE2868401C40282860A8
:101E400001D100202860200007B0F0BDFEB50C00D5
:101E500007001500FEF76AFD02260090300000F032
:101E600083FA00283CD020006030019018F3B8EFCE
:101E7000C07802214007C20F30000123FFF7EFFEB8
:101E80002B00220039003000FFF78CFF01280ED113
:101E9000019818F3A6EFC07802214007C20F300066
:101EA0000023FFF7DCFE380000F096FA1DE007493A
:101EB00008484831086218E000A00090FFFF0000C9
:101EC0007CA801C0E4B501C00874040000A1009022
:101ED00000A2009001000080D85A0400146801C0DC
:101EE000F9482FF0D5FC20F003FF0098FEF722FD03
:101EF000FEBDF0B5002591B0F44806950595039513
:101F0000046A2E00016AA1430162200E05D0EE484A
:101F1000401C2FF0BDFC20F0EBFE2002000E78D01C
:101F20002002000E08902006000E0024079008985A
:101F3000C0076FD0022C6ED2E549A0004018006A9D
:101F4000E200E449121B12025118E34A8A18824245
:101F500001D1029101E01C30029020010E9082E03C
:101F6000012001900020142161430490DB480818EF
:101F700010901CE03889D949C01906900E98303964
:101F80000E5806987568006FA84202D0C0784007C6
:101F900004D578690490688809900CE0D0490868F5
:101FA000401C086000213800FEF7AEFC109819F3C1
:101FB000C6FB0700DED10498002802D1002F2ED0E6
:101FC00022E008AB5879400734D404993800002344
:101FD0006A4602F04DF8002821D108AB18790007B5
:101FE000800F022818D130688001800F012804D1A9
:101FF0000698006F0188891E0180069A04983900AE
:1020000000F00DFA00280AD100213800FEF77CFC10
:1020100005E078E170E12FE0380020F0DFFA019868
:10202000002820D000222006000E11001300FFF728
:1020300016FE18E02988280020300818C01C8008E7
:102040008000009001880022103901802006000ED7
:10205000110013000F90FFF702FE00990F983A004D
:102060000123FFF75EFE9D490E983039085802990A
:10207000884200D074E73FE1A01E0128A474C6582E
:1020800001000000E01F000000040000E52A7BA022
:10209000FBD29449A0004018006AE2009249121B4A
:1020A00012025118914A8A18824201D1029101E02C
:1020B0001C30029020010A9009E100210491079947
:1020C000E140C90739D045680600A8780007800FAD
:1020D000022802D12F00603F01E02F00A03F142012
:1020E00083496043283140182838390003F0E8FF5D
:1020F00080480169491C01618168491C81607869D7
:1021000000280ED00D2189014018406B002808D00E
:102110004268521C426078694018406B0169491C52
:102120000161380000F062F973494868401C40289A
:10213000486001D100204860C1E06E49C868401C79
:10214000C86014216A4861432830081828380D9067
:1021500019F3FFFA07004BE01920000260436749BA
:10216000642340186449496859434018D901401A0A
:102170005F4905900A9830390E5830688001810F08
:1021800006D157484169F0688004800C0C3808E09B
:10219000800F012807D152484169F0688004800C03
:1021A0000D380818039005987568603018F322EE12
:1021B000A8420AD17869504904904868401C4028D8
:1021C000486017D10020486014E0380000F00EF994
:1021D0000D9819F3BEFA070046484168491C416052
:1021E00045494868401C4028486001D100204860AB
:1021F000002FB1D10498002805D1002F5FD03800FE
:1022000000F0F4F85BE0059860300C900B9018F348
:10221000F2ED0188803101800B9818F3ECED8079A4
:10222000C0070BD103988079800707D504984079BF
:10223000022803D003990498FFF711FC0398C07992
:102240000007000F022805D10C9818F3D4ED01887F
:10225000103906E0032805D10C9818F3CCED01885D
:1022600022390180B8886038B8800C9818F3C2ED24
:1022700080780007800F02281ED1214A00923889F9
:10228000204AC119204B380019F3FCFA002816D057
:10229000070004980D2189014018406B002802D0E6
:1022A000416E491C416605993800FEF7A8FB059967
:1022B0003800FEF729FD02E038002AF039FE00223E
:1022C0002006000E11001300FFF7D3FC0A980849FE
:1022D000303908580299884218D0EEE647000100CC
:1022E00000A0009000A20090E4B501C0E406000048
:1022F00038740400F0330400146801C0085B040063
:102300002C8C01C0348C01C060C702C00898641CCA
:102310004008032C089000D213E611B0F0BDF1B5CF
:1023200082B000273D003E00142171433448081854
:10233000019019F337FA04000BE002986D1C8442F7
:1023400006D12100246801982F0003F0B9FE00E0B7
:102350002468002CF1D1002F0CD035062D0E06E09C
:102360000022110028001300FFF783FC641CBC420C
:10237000F6D3FEBD761C022ED6D3FEBD2049000149
:1023800030394018407B7047F7B582B0070011899B
:1023900016008C18802109590191C97953690907E0
:1023A0000020090F022907D1206F01998079C20707
:1023B000D20F1800FFF744FC114A3901303A8D184A
:1023C000E97BC90709D10200019903982300009510
:1023D000FFF78FFB68681C30686014207843084959
:1023E0004018310019F30DFA05B0F0BD10B50169C0
:1023F000002902D1FEF7E0FA10BD2AF08DFD10BDD4
:102400003874040010B50C008968CA0010D5012288
:1024100012079143A160217801224907490F16F064
:10242000FEFC0101206F028B1207120F0A43028388
:1024300010BD70B50C00060015001100FFF7E2FF9B
:102440003079012804D10121200037F073FD70BDDF
:1024500019F068F900282AD06035687F162826D040
:10246000212824D0222822D02089051914352000C3
:1024700005F06BF8E96920002FF030FF002811D03B
:1024800018F0FEFD002802D018F0E8FB39612AAFF1
:1024900001000000DC23000000040000CDBBFE1D95
:1024A00008E028F0CFF9002802D0002019F0A4FE9F
:1024B0001AF08EFB012070BD200005F077F8002097
:1024C00070BD200005F05CFA70BDF8B5040000890D
:1024D0006669051980204059002815D0C17909077F
:1024E000090F022907D1827AD20704D0286F018808
:1024F0001039018004E0032906D1807AC00703D097
:102500002000FFF744FCF8BD3100200000236A469C
:1025100001F0C2FD0128F6D02A0021003000FFF7AB
:1025200092FF0028EFD120003FF0F4FC00212000B2
:10253000FEF7FEF9F8BDFFB587B001241600171F9E
:10254000119D04E0FF482FF0B7F920F0E5FB042FC0
:10255000F8D22800361F603031060690090EB020F0
:102560004843F94B8646C718FF20401C88408446E4
:10257000109E10203B00089A8840AC331C3E012A74
:10258000059374D10391F1496346C96962460B42D0
:1025900034D1084204905FD1EB4B7046185C0028A0
:1025A00020D12878002241070798490F16F041FCF6
:1025B0006B46998800010907090F014301911879B9
:1025C00000090001187101990A980EF337FC06986A
:1025D000017F0A980EF395FEDC490498CA691043FE
:1025E000C86139E00A430499D8481143C1615EE0EB
:1025F0000A9878700598FEF7BAF90EE0D34B0700F9
:102600000F420CD0109A0399079820F05FF8012828
:1026100003D130000021FEF78BF9002479E09143CB
:102620000843D8610398B0264643C74F0EE002998D
:10263000A8780A0088700798143205F06AF9B85D26
:10264000401CB85502981C38FFF73FFF039802A9B9
:1026500020F004F90028EAD0002C5AD00398B023C7
:102660005843B94A115C491C115452E0FFE7089ADB
:10267000022A4ED10391B5496346C96962460B42AD
:102680001DD1050008423BD0AF4B7046185C0028B6
:1026900009D10698017F0A980EF349FEAB49C86933
:1026A000A843C8612CE0A9480A43AA43C261109A12
:1026B0000399079820F00AF80028AAD198E7A34BBD
:1026C00007000F429ED091438143D9610398B02601
:1026D00046439D4F0EE00299A8780A00887007983B
:1026E000143205F016F9B85D401CB85502981C3834
:1026F000FFF7EBFE039802A920F0B0F80028EAD01B
:10270000002C06D00398B02358438F490A5C521C12
:102710000A5420000BB0F0BDFFB581B00C000600DC
:102720002030007D0D0000272034FE2807D0617A7C
:102730004006C909C901400E014361720DE03079BC
:1027400001280CD1300016F07DFA407D002806D11A
:10275000607AC009C001401C607201270FE00920A7
:102760008001301814F368FB617A4006C909400EF5
:10277000C9010143617204980078C00704D0E86978
:10278000012109030843E861A86C02210843A864F9
:1027900004980078C0071FD0E869C90108432021C8
:1027A0008843E861707902280AD10398002803D091
:1027B00003980CF3CBFE08E0300005F052F804E07B
:1027C000002F09D130002FF00CFA617A4006400E3C
:1027D000C909C90101436172607A4106490E0329A2
:1027E00007D85B490978890603D5C009C001401D97
:1027F000607205B0F0BD42689279D20701D03F21E6
:1028000003E0112252018918098A81877047F3B5C4
:102810000024050081B04F4E3078310049780028FF
:102820003ED102F046FB04000079012806D102984F
:1028300002F086FB00285BD0040059E0002801D09C
:10284000062855D128894719380020303DF0F0FB83
:102850000500029802F074FB002819D08168CA04B0
:1028600016D5727BD2060BD4042D11D0002D0FD0BB
:10287000012D0DD0022D0BD00A2D09D0FF2D07D030
:102880000400032D34D1012000038143A1602FE017
:10289000207900282CD07978002016F0A4037067E6
:1028A00001000000D8270000000400009E612D7187
:1028B000EBF8CBE7012801D0022823D102F003FB7B
:1028C00004001FD0607902281CD102980078C0074C
:1028D0000BD0200002F0C0FA002813D00921890192
:1028E0004018806B00280DD10BE0029802F032FBFB
:1028F000040002F0D8FA002C04D0603000790328DC
:1029000000D000242000FEBDF8B505002F0000898E
:102910005419401900901C202E187C37002928815A
:1029200029D060782178000208431E2801D91E387A
:1029300000E000202070000A60708421300018F34D
:10294000C8E90098407CF8776869007903280ED0C0
:102950002BF0EEFB012809E0500001008CBF0004C1
:1029600058020004DCDF00044CC2000401D1052041
:1029700000E00020B070E078FB210840E070607E4D
:10298000217E000208430007000F2076000A6076CF
:10299000207E07210009000120763078084330703E
:1029A00009203467387728001DF074FC002802D114
:1029B00028001FF031FEF8BD70B5FD4818F3DDFEAC
:1029C00004001FD0208905196978287802F07BFA65
:1029D000002810D0606168792A79218900021043AB
:1029E00008180204120C01212000FFF78DFF0120BE
:1029F0000BF0B2FA02E0200018F32CFEED49086853
:102A0000401C086070BDFEB5EB48C1690905090F9F
:102A10006CD0EA4F0024FF20E74A401CA040D16957
:102A200003000B425FD0B02565437B5D002B5AD17C
:102A300081431020A0400842D16136D0E049E148EE
:102A400005F068EAE04A0020EE1918214143535C82
:102A5000002B20D089188978737899421BD11823CC
:102A600058438118081D029102F074FA029900225D
:102A7000497816F0E8F96B46198800010907090F33
:102A800001430091187800090001187070780099CE
:102A90000EF3DEF902E0401C0428D6D3201D010607
:102AA0007078090E0EF337FC0AE0C849C54805F0F6
:102AB00032EA201D0106E8194078090E0EF341FCA8
:102AC000C04E0AE0C249300005F024EA01981C38E3
:102AD000FFF705FD785D401C7855200001A91FF027
:102AE000C7FE0028EED0641C042C94D3FEBD30B584
:102AF000A3B068462290FDF737FF04000AA82FF024
:102B00002BF9002804D12000FDF732FF23B030BD9F
:102B100006200EF3F1FD0004000C06210CF36EFDFF
:102B20002000FDF725FF229C20000C3002F012FA55
:102B30000500210001F090F90128DCD0002DDAD049
:102B4000A0780007800F0128D5D12A6B0AA9002A96
:102B500002D028009047CEE7280020F027FACAE7E5
:102B6000F0B5CBB00027944C9A4811970D97A0610F
:102B700020000C220121183008F040FB1FF0A2FEBB
:102B800095484A90C12080022EF0A0FE0022D24338
:102B9000894D009291492869082244ABFEF799FFBC
:102BA0008F48416BC20D114341638E482EF08EFE5B
:102BB00044980028E6D0400607D500200AF042F9E4
:102BC000894948684A06104348604498C0060AD5B7
:102BD0003DF098FC8548072200681021FEF785FF2C
:102BE000382034F07FFB4498000601D51CF07CFBB4
:102BF0004498C00501D51CF0F3FB4498810602D52A
:102C00007B4A00211170400501D500F06DFD44980C
:102C1000C00401D5FFF76BFF764C20680028B1D1C6
:102C20004498400701D5FEF7AAFC4498800710D5C8
:102C3000686A0028A6D104E01398C0220021FFF79B
:102C400063FE68690422002313A9FEF74AFF0F28D8
:102C5000F2D14498092108427DD06748016855485F
:102C60000068814201D0FFF7A7FE02F0E4F90028D6
:102C700088D05148006A002884D11FF085FB0028C5
:102C800080D1FFF7C0FE0026D8E30020099008900D
:102C900006900D988106401C00290D9004D15049E2
:102CA000486BCA0D1043486353484249F2BFA05DC8
:102CB00001000000D42B0000000400006A0E58C57B
:102CC00000680968884201D0FFF780FE3889122227
:102CD000C11946484591083817F368EF43484599AC
:102CE0000838828851180C9141887D2292019142C6
:102CF00000D3FEE73D480838007B082803D33B4952
:102D000000200839087339480C99083810AA00F0D7
:102D100011FD0128079013D110AB187800F005FDC4
:102D200008908030466A300002F0A0F808980899B0
:102D3000050014358431159081610120129025E140
:102D40000C993800FFF777FD06003AD0300002F00A
:102D50008DF8040070790C990125032802D1310007
:102D6000AC31002506220AA800E096E317F31EEF17
:102D70001E481A4B0838007B10AA0AA918F3AEFEA9
:102D80000028059048D022480068002844D02148F7
:102D90000068007900283FD1144910AB1878320040
:102DA00008392B0000F0F8FC84210890159017F3E7
:102DB0009AEF159808990500143584318161012036
:102DC00071E05FE084C70004F002000458020004D0
:102DD0008CBF000411111111BBBBBBBB60C200044E
:102DE00022222222333333330432000454C200043B
:102DF000FF1F0000003400800404030040A5008091
:102E0000B8030004BD040004B0030004E40200049D
:102E100088170004BC0000040120099016A8842132
:102E2000159017F360EF3CA81C90FB48159D407B64
:102E30001435C00727D01FF02BFB27F079FA0028A4
:102E40001AD0F6480078002816D118F0B7FC0028F0
:102E500010D030003EF0D6FB012100220091EE4957
:102E60000192497B02000907CB0F012130000AF0D3
:102E7000E3F801E01AF0F4FE27F01AFC002801D074
:102E800034F09CFBC3E13079012804D07179022928
:102E900001D0062804D10C99300002F0EFF802E0CE
:102EA000300002F0F9F81290E37F31002800FFF7BC
:102EB000B6FC1A00290030000AABFFF741FCD849E4
:102EC00001200979C90609D47179022905D10521A2
:102ED000C90161180978090700D400200E903079E3
:102EE000002817D1300020304990807D000711D490
:102EF0002920405D4006400E18F36AFF04001220AE
:102F000018F366FF844205D84998807D8007C20F78
:102F1000012104E03620805D0E998007C20F280051
:102F200018F348FEBF488068002807D00C98007846
:102F3000C00703D1E86920210843E861E8698106F8
:102F400015D5B9490968002911D02921495D4906DB
:102F5000490E29290BD3012109040843B349E8612B
:102F60000968002903D0012149040843E861059854
:102F7000002818D02920405D4006400E04F014FEC1
:102F8000002806D0AA49C84304F0CEEF01200F90D4
:102F900010E0A748A749C04304F0C6EF02200F90F5
:102FA0000120099006E0A248A349C04304F0BCEF09
:102FB0000020F4E7A1490120087000F0CEFE079A36
:102FC0000092129A45982B00310000F0B8FA1C21AB
:102FD00039817918159C46910021A18069807E6114
:102FE000159C8D4937944A880006000E121A30ABA2
:102FF0009A84459A8988101808183890002038ABB0
:10300000D8717079032801D001280CD1300002F06A
:1030100043F8002807D08048017B300002F048F8D0
:103020007D49087315E03079012804D1300002F0A1
:1030300033F8002805D17079022802D030790628AB
:1030400009D10C99300002F019F8002803D0724819
:10305000007B38ABD8710F98002807D03798012132
:10306000806809070843379988600FE012980028A4
:103070000CD038ABD9790122300015F0EEFE30AB20
:10308000998D00010907090F014399850798089A4E
:1030900000280DD0604806A9C0886B460006000EC7
:1030A00007C33900119B14AA37A803F0B8FC11E03C
:1030B00006A802901299584804920391BAE9DBC31A
:1030C00001000000D02F00000004000039D48BA9BB
:1030D000C0880F9A0106090E01920091119B3900D8
:1030E00014AA37A803F0C8F9698C0028E18003D03E
:1030F00058490968002909D000213800FDF736FC3D
:10310000544900274868401C4860ABE114990029E5
:1031100017D0A1680122D2061143002EA16009D068
:103120000D2189017118496B002903D060310A8B88
:10313000521C0A833D494A7B920602D54A7C7F2174
:103140000A5520674A9817F37EEE00094A99000154
:1031500017F388EE290020314891497A1022490658
:10316000490E114308434A9917F37CEEE0602F485B
:10317000407B000706D51FF095F9A0680121C9071B
:10318000084302E0A06840004008A06030790628AB
:1031900003D1206F20303CF069FF7079032801D003
:1031A000012808D12148817B027B4B00210030009F
:1031B00001F0B7FF33E01298002803D01B48007BD2
:1031C00018F33AFF18F349FF0490079800280DD12F
:1031D0000F98002807D0210010AB1F4A18787C31C7
:1031E00018F3B5FC02E004997C2001551B48416AA4
:1031F00004984000A430085A1949884203D00B486B
:10320000807B002802D1A08800282BD00748049991
:10321000807B43007C20025D200001F063FF0028DA
:1032200020D100213800FDF7A1FB1AE14CC20004B7
:10323000E4030004DCDF000458020004708F01C0C6
:10324000748F01C0444444445555555566666666BE
:10325000781700043C8C01C060C2000440BE00042A
:10326000FFFF00003079002802D0707903281DD1BB
:1032700001F0F4F8002819D0CD48C088DF2802D129
:1032800037217D200155CB48A0800898002805D023
:1032900010AB187800F022FA00F03AFA0F980128E3
:1032A00004D0E0680E2118F386FCE060A0880028B6
:1032B00003D02900200004F038FCBF4881680029B1
:1032C0000AD069880122D203114369800021296153
:1032D0006961C168491CC160459828654698686560
:1032E000E88960820798012820D1B148C088E62883
:1032F000207802D18021084301E04006400E10AB47
:103300002070AE49187818F3ECFB7C20005DB023E8
:10331000001F5843AA490A5C521C0A54208828847A
:1033200046988422210017F3B6EC97E01498002801
:103330001FD00F9801281CD030002EF070FC4106E1
:103340004898490E407AC009C0010843489948721C
:103350003179032904D1C0094899C001401D487240
:10336000E869A0218843012109030843E86101209D
:103370000990A88920820698002801D08021085150
:103380004898407A4006400EA070206F807800096F
:10339000082810D14A9817F356ED85490122C988AB
:1033A000E62900D000220092020038ABDB79210030
:1033B000280018F3E1FB0F98012810D181498248B9
:1033C00004F0BCED10AB7D49187818F38AFBA068B7
:1033D000012149070843A0600A20287009E07949C3
:1033E0007948C94304F0AAED2A002100300007F013
:1033F00003FC2A002100300004F0A9FA7349724846
:1034000004F09CED7048A16804F098ED2000603055
:103410004790017F6C4804F092ED208828844698FC
:103420008422210017F336EC0F9800280CD046991F
:1034300001940091479810AB027F1B780F993000E0
:10344000FFF797F800280CD00998002806D10898B3
:10345000844203D108980121A03001733800FFF79E
:1034600052F800275A480068002817D1002F00D0D2
:103470001FE444980821084202D004F064ED0BE0F8
:10348000544818F38EF9002804D1534818F389F9E9
:10349000002801D0042101730700E9D1002E06D0D5
:1034A0000F2080013018C068032128F015FE4B4919
:1034B00000200870FFF77AFBF8B504000D00160035
:1034C000001F032840D8464A201F01215FA8A13EC3
:1034D00001000000CC330000000400008611AE1A89
:1034E000D2698140114239D0B0234343394FF95C4E
:1034F000002904D0491E0906090EF95407D1FF21FD
:10350000491C8140114202D001200AF043FD002DE8
:1035100024D02869002821D02D4A002018214143B9
:10352000535C002B1BD08918C978A14217D11821F0
:10353000414389180C0029680A34096FE31C098B80
:103540005A1E0909491C218000211970117800298F
:1035500004D10106090E30001CF0FEFCF8BD401C31
:103560000428DBDBF8BDF8B504000800154D06990A
:10357000AF8800263C195F68012916D1EB8802004C
:103580002100AC32E62B09D00379012B06D040791B
:10359000022801D1891D02E0062B00D1110038005C
:1035A0001230062217F316EB05E0009205492300BE
:1035B0003A0000F021F8E888E62800D00C26300018
:1035C000F8BD00004CC20004FF7F00003C8C01C02D
:1035D00060C200048CBF000477777777BBBBBBBBAE
:1035E00099999999B00300045CC7000448C7000486
:1035F0007817000458020004FFB583B00C00911C3A
:1036000006000C98170000220291130069460CC1B5
:103610000122E179A37909021943E92900D00022A6
:10362000617BC907C90F0AF327FA0500E079A17980
:1036300000020843EA2803D1617B08221143617329
:103640000F2332799B013100AC31F418012A18D0D4
:10365000062A1DD10B000699220038000AF3DDF975
:10366000A06A808F002801D0012000030543029842
:103670000622058038001A30694617F3ACEA07B015
:10368000F0BD0B000699220038000AF3C6F924E0C9
:103690007279022A15D1069B0A0006999B1D3800F3
:1036A0000AF3BBF9012040020543B879C007DED117
:1036B000022130003AF0D9F90128D8D1400305435E
:1036C000D5E7E62801D10B0000E0069B2200380078
:1036D0000AF3A3F9FF20401C054304480068007961
:1036E000C0E702480068007970470000BC00000491
:1036F00010B50400FDF756F93A4A01211368A140BC
:1037000019431160FDF752F9012080020AF042FCD2
:1037100010BD34490F2010B50860012080020AF066
:1037200039FC10BD70B5FDF73DF92F4D2D4E002130
:103730000C003268D30704D0B8234B435B19A03385
:103740001C735208491C04293260F2D3FDF72EF98C
:1037500070BDB8235843244940187047F7B5050099
:103760000026214F3400B8206043C1190800A03062
:10377000027B012A1FD16A78037A9A421BD12A78E8
:10378000837A9A4217D12A7B437A9A4213D1C07A1C
:10379000002802D1687BC00609D58031486A1349E8
:1037A000062241180198FCF73AFD002803D102983F
:1037B0000126047002E0641C042CD4D33000FEBD4A
:1037C00030B51C00B8235843074B4D78C018030090
:1037D000A0331D720D789D72A4252A50097B597261
:1037E000DC7230BD7C170004C8C30004290200004D
:1037F000FFB581B0050000201E4C2860206A0E0035
:103800001700002817D0FDF7CDF8216A002910D045
:103810000A79032A0DD1096A00290AD02960216A90
:1038200009683160216A496A3960216A0A6B049922
:103830000A60FDF7BBF805B0F0BDF0B587B0060033
:103840000F00002504AA05A906A803ABFFF7D0FFC7
:10385000069C002C0AD0049A0192330000220097A3
:1038600005981100A047002800D00125280007B0C6
:10387000F0BD0000D8370004602101817047F8B521
:103880000024160025000028009423D1300069464A
:1038900000F01CF904000CD06B461A88802A04D36F
:1038A000E188032018F38BFB02E003200DF381FF76
:1038B00060816B461888002804D060202081188819
:1038C000A08007E0002C05D031002000A580FDF786
:1038D0004DFA00242000F8BD10B50400865D108864
:1038E00001000000C837000000040000D5CB7D7641
:1038F000E52100F04FF8002808D02C48210017F3EC
:10390000BCFF2B490868401C086010BD27482100F7
:103910003C3817F3B2FF10BD70B50C000026012B28
:103920002DD0244D042B05D00F2B31D11F48210061
:1039300028381CE000F039FD002804D0022001F0F6
:1039400003FB31F0DBF8002C13D0E521200000F060
:1039500021F8002808D01548210017F38EFF1449DC
:103960000868401C086004E0104821003C3817F348
:1039700084FF286807220121FEF7DFF808E00B48E2
:103980002100143817F379FF6069022104F0F2EA8C
:10399000300070BD10B502891218D37994791A02DB
:1039A000012022438A4200D0002010BD84C70004B9
:1039B000E402000468020004002801DD002004E0A5
:1039C0006521C943884200DA08004042000600161B
:1039D0007047662801DD662002E0002800DA00203A
:1039E0000006001670470000F8B5040048D020001B
:1039F00040300600007D8006470FE07E00902000EA
:103A0000143017F334EA050220002D0A183017F39A
:103A10002EEA8103890B3B0017F302EB051B1F14F1
:103A200014042300E8040A23AA07400F920F584306
:103A300009065A43090F4018110040181F300006AC
:103A4000000E0FE028066906C00F490E0DF3EEFFC9
:103A500008E000980DF3CBFF04E000980DF3B0FFF1
:103A600000E0FF20E076307D8006410F0B202056DD
:103A70000BF066F8E072072020560BF045F8E07175
:103A8000F8BD384810B5C16944690A05120DD3085C
:103A9000006ADB00E3180405240DA24205D10122CF
:103AA00012031140104081420ED158682E4900681F
:103AB000000C884208D02D490868401C086000208E
:103AC00009F0E8F9002010BD012010BD284B0020AE
:103AD00002004102C918401C80280A60F9DB7047C7
:103AE000F3B581B00D00002722480F80006B1D4CFC
:103AF000000C1434E060FFF7C4FF00282FD0A0684A
:103B000069460604360C0320009618F39CF904005D
:103B100025D06B4619888E4207D0144A5068401C45
:103B200050600322300018F3E5F90198602221006B
:103B300017F35AE827600198FFF756FF6B4619887C
:103B4000E1800221276121730199200060306031FA
:103B5000060017F39CE9308828802000FEBD002075
:103B6000FEBD000034C80004EFBE0000648C01C03C
:103B7000006003C0C0A30080F1B56120C04384B0E1
:103B80000027039002900499B80040180D21890184
:103B90004018846B002C7ED06078217806020F20BC
:103BA0000E4380010640F6D00520C001064208D031
:103BB0000398623005D1049828F0A8FF000400148F
:103BC0000390FF204130064208D00298623005D1B0
:103BD000049828F091FF000400140290002530069C
:103BE00014D53021095D039A0120914200DD0020A7
:103BF0008021009123002200010004985E333032BE
:103C0000019711F09DFF002800D08025B00517D541
:103C10003C210A5D039901208A4200DA002001213B
:103C20004902009123002200010004985F333C32D6
:103C3000019711F085FF002802D0012040020543C2
:103C4000700616D52A21095D029A01204942914247
:103C500000DD002040210091230022000100049893
:103C60005C332A32019711F06BFF002801D040200D
:103C70000543F00518D53621095D029A0120494215
:103C8000914200DA0020FF262300761C5D332200DB
:103C90003632010000E017E004980197009611F019
:103CA0004FFF002800D03543002D0DD0002F0BD141
:103CB00004981B2149014018818B294381830121EC
:103CC0000498C90604F056E97F1C3F063F0E012FF9
:103CD00000D258E705B0F0BDF3B50024050026007A
:103CE00081B0A0000D2140198901401899FBEC0B0F
:103CF00001000000C43B00000004000021A408C231
:103D0000806B00284BD041780278090211434907A3
:103D100045D50299096900290CD101006031330AA7
:103D20004E708B70C07C0A000121002800D0010079
:103D3000117034E0010060318A784B7812021A4326
:103D4000521C1204120C130A4A708B700B78002B51
:103D500025D0877CBA4222D35B1E1A06120E0A7047
:103D60001DD1320A4E708A70C27C002A01D00A70BE
:103D700008E041780278090211430422914301705E
:103D8000090A4170002C0AD11B2040012818818BA0
:103D90000422114381835106280004F0F6E8641CD4
:103DA0002406240E012CA6D3FEBD4349C868401C3E
:103DB000C8607047F0B51D001FB40020C04384B038
:103DC0000090019004980D2189014018846B002C0B
:103DD00042D060782178000208434005002700287F
:103DE0003ADA0BF39AF9069A0E002B00121A8B415D
:103DF000029005D2069A02983100801AA94107E084
:103E0000069A00980199801A029AA9418018714176
:103E1000060020000D004A3017F332E82B00321A5A
:103E2000BB411BD3244EF088401C05042D0C200000
:103E30004E30F58017F324E8A8420DD8F780049897
:103E40001B2149014018818B012292021143818379
:103E50000498510404F098E809B0F0BD1648C780F2
:103E6000FAE70D229201801810B5846B002C1FD048
:103E70006078227800021043400519D5487D0AF386
:103E800022FF4034E179A2790B0213430A49002250
:103E900098420ED88888401C0004000C8880637A01
:103EA000247A1B022343834202D8012008818A809E
:103EB00010BD0A81FBE700008C170004FEB5050069
:103EC000002007000190012000900C00280000F065
:103ED000F5FFA079C0077DD1002D09D0A868C004E6
:103EE00078D4280026F08EFB00285FD002205EE008
:103EF000A0780107890F2CD10009042829D10220BC
:103F000000F0ECFF06000F2080010DE00F20800183
:103F100031180622A01DFCF796F900285AD002217C
:103F2000300014F07DFE0600002EEFD1032000F0DB
:103F3000D5FF0CE00F20800131180622A01DFCF7F0
:103F400082F9002846D00321300014F069FE0600F3
:103F5000F0D120001FF016FB0028019015D0019829
:103F600014F084FE050003D1032000F0B7FF050024
:103F70002879002801D0062807D1A0780007800FF3
:103F8000022802D1E078800715D5002D13D02879BA
:103F9000022804D128000BF00BFD00280BD0287953
:103FA000032805D16879002805D001E001200090A0
:103FB000207BC00702D001272FE00BE0A07801078B
:103FC000890F09D100090D2806D1E078C10703D176
:103FD000800701D40020FEBD287921002AF0CAF90B
:103FE0000099884219D901270726032800D0062600
:103FF00068790C34022805D132002100280010F025
:104000001FF80AE001982BF05DFA002805D1320074
:1040100021002800002337F069FF3800FEBDFEB5FF
:10402000070000F04BFF0190380000F06EFF040025
:1040300038793D000C34A03503281CD17D20C00008
:1040400000906068002806D06989009817F326EB75
:1040500021680E1A00E026685820005D012810D95A
:1040600000206060217E0720C0010129019905D14F
:104070000818C06B0AE010480090ECE70818806B45
:1040800004E0012803D1687A4000401C206069895F
:10409000009817F304EBB0420CD338000CF05EF834
:1040A000002807D0112040013818418A002238002A
:1040B0000DF022F9FEBD00008813000070B5050068
:1040C00000F023FF0400280000F0F8FE1122010098
:1040D0005201891849880C340020012903D1E16F6D
:1040E000012900D1012070BD10B589780A07930F0E
:1040F000022B04D10B09042B08D00C2B77E5C156F9
:1041000001000000C03F000000040000727EDBAE32
:1041100006D0920F02D10909052901D039F050FCCF
:1041200010BD0000FFB583B00D00FCF759FC0190F5
:10413000039801890E180599346F002008600290D9
:1041400068793700143702282DD128001FF0B4FAFF
:10415000A179C9070BD0280000F0BAFE6921C90077
:104160004018006800281ED0E078C00917E0A17848
:104170000A07930F02D10B09052B14D0920F022AC4
:1041800004D1090904290ED00C290CD0007E012885
:1041900009D188480622A11D2818FCF75EF80028DE
:1041A00001D101200290002000900298002810D137
:1041B0002879032878D16879022801D0032869D1A9
:1041C0000021280003F0EEEE002860D101200290CB
:1041D0000090A079C0070CD16879022809D1A07895
:1041E0000107890F0DD100090C2806D128000BF01A
:1041F00032FFA0780007800F03D1A07800090528BE
:104200001FD003986C49006988420DD0039928009B
:104210000BF080FE070014D003980021FCF7CEFBC2
:1042200003973889C619346F009903980BF0DEFFA5
:10423000002806D1069A039928000CF065F800289A
:1042400032D00598012707606879022809D1A07843
:104250000007800F05D13200210028000CF0B2FFCA
:1042600007006036307F2A000021FFF74DF9002F4C
:1042700003D003980021FCF7A1FB00F0AAF8002866
:1042800012D0022000F074FE30F04CFC0CE02879D3
:10429000032809D17C20805D001F042804D33A0044
:1042A0003100280003F082EE0198FCF79DFB029894
:1042B00007B0F0BD10B51FF0FFF9002160300174A8
:1042C0004174817410BDF8B50D0006001700FCF7AD
:1042D00087FB0400002E24D030001FF0EDF97D2173
:1042E000495D312916D032291BD16030017C01296A
:1042F00017D1417C002904D0491E0906090E4174DA
:104300000FD1012F0AD128784107490F30000CF056
:1043100011FD06E03000FFF7CDFF02E0002101743F
:1043200081742000FCF760FBF8BDF3B581B00E008E
:1043300001981FF0C1F904005820805D45076D0FFA
:10434000280017F3A1FE01000198002831D0019840
:104350000722D2018018C06B00282AD020006030CC
:104360000700007C012824D0606F0CF0A0FC00281E
:104370001FD0207E01281CD13000603016F38AED5A
:10438000C178C90615D580780107890F022910D197
:10439000000900070DD5012020343874A178C80722
:1043A00003D00198002205F05BFC019829000CF075
:1043B000C1FCFEBD29020000781800041E480068F8
:1043C00070471D480068002801D101207047002077
:1043D000704710B533F03DFD002805D0FFF7F1FF21
:1043E000002801D0012010BD002010BD10B533F011
:1043F0002BFD002805D0FFF7E4FF002801D00120A5
:1044000010BD002010BD10B50400FDF739FB0028D9
:1044100005D1052C05D100F009F9002801D00020B4
:1044200010BD06F039F9002803D10448806B00283C
:10443000F6D0012010BD000088040004A0CC0004C8
:10444000154810B50068002816D1144800220068ED
:10445000462105F350F800280ED111490A78002AA8
:1044600002D00870162005E00E490A78002A03D011
:1044700008701B2032F072FF10BD10B50A4CA088E6
:10448000002807D0FDF7FCFA002803D025F00CFA2D
:104490000020A08010BD00004804000400000004BB
:1044A000E1030004E2030004BC0400040748807C2C
:1044B000002808D1054800234038C16E806E59405D
:1044C0005840084300D0012070470000683E0004B7
:1044D0004F49504A800009581258914201D2012098
:1044E00070474C4A121F1268002A06D0494A1032FF
:1044F0001058884201D9022070470020704770B5DB
:10450000454A0169914201D0002070BDAFDB73AE16
:1045100001000000BC43000000040000708703B8E5
:104520004049C07B10310C5CFCF764FAA1003D4BA4
:104530003D4C5A586458A24204D93B4D2D1F2C685B
:10454000641C2C60521E5A50FCF758FAE6E7FFB57F
:1045500081B0002406001F003448864206D0039A2A
:104560000299300017F3E6F805B0F0BDFCF742FA07
:1045700000903800FFF7B6FF05001CD0039A02999F
:10458000300017F3D7F8040015D02649E07B10312E
:104590000F54B80010390A58521C0A50607B012190
:1045A000084360732248022DA06104D11E49091FEF
:1045B0000868401E08600098FCF720FA2000D3E746
:1045C0000422072110B515F0B0F8002800D0012012
:1045D00010BDF8B500241848164D8679878809E083
:1045E0001649600140182022290016F31CEBED1932
:1045F0002D1D641CB442F3D3F8BDF8B500240E4859
:104600000C4D8679878809E00C4960014118202209
:10461000280016F308EBED192D1D641CB442F3D3EA
:10462000F8BD000050D30004E0190004781800041D
:10463000AF430000006E04C084180004BCE402C054
:104640000148808970470000DC040004F0B591B097
:1046500000270C9720F044FBFF4D2C69FE484030AA
:104660000668300706D503F0B0ECFB490820C043CC
:1046700040310860301EF94E17DA142020F06CFD2E
:10468000F748C06B00280CD0B068401CB0604020D8
:1046900009F0A8FCF04840304168490049084160F1
:1046A00003E0ED49EF4840310860EF492000084041
:1046B000EE4909780843716A08437062FFF78BFE80
:1046C000002817D0706A002814D1E9480022006839
:1046D0001B2104F31AFF716A08437062706A002894
:1046E00008D1E34800220068082104F30EFF716A34
:1046F000084370620AF3E8FEE00101D5DD48286155
:1047000020060CD5DC490868401C086005F0CEFF87
:10471000002802D0042009F065FC2FF0F7FDA0036B
:1047200001D5D6482861A0040ED5CB484038406852
:104730000C90000602D50120C00704430C98C00667
:1047400002D5012080060443002C12DA0C980006E2
:1047500009D5FEF712FAC0488021C94340384160AC
:10476000C748286103E00120000309F03BFCBD4875
:104770002861200502D5C34801272861C24861018C
:1047800010907ED500200290019006AA07A90BA8E0
:1047900005AB2DF0F9FA0028039011D00220074351
:1047A00000068443C043286107980C3000F018FCD1
:1047B0000028019004D10390069907983BF02EFA47
:1047C00033F04CFB002806D0B0480021C161AF484F
:1047D000202140300160039800287ED0FFF710FEB2
:1047E00000280AD0AA48806C002804D10121019831
:1047F000890303F0DEEB0AF055F901983BF0E4F889
:1048000000286BD001980079012829D10799002947
:104810004ED00198123115F000F8002848D01099B8
:10482000002016F352EB8E48C038806B9849002068
:104830000865B06A00283BD196480068401C37D014
:1048400001210198890203F0B4EB0120B0620198C4
:104850000F2189014018C068042127F06FFC27E070
:1048600000200FF001FF029033F0FDFA00281DD068
:10487000019832F08BFF00900AF363FC009AFF323C
:1048800000E0E7E0521C0F92D161906106990F9A07
:104890004B68086853626B4610629A8A0C310C3A76
:1048A000052014F39AF90F9A8078906237F0EAFCA9
:1048B00032F048FD0006000E04900B98C17E0A916C
:1048C000C17A0991C1790891FFF7ACF80B99019869
:1048D00033F0F3FE0A990B9801E0AFE09EE0C17659
:1048E0000999C1720899C17133F0C2FA002872D0D7
:1048F000FFF771FD00286ED0029800286BD0049855
:10490000002868D133F0AFFA002864D1FDF7C2F86F
:10491000002803D11EF03CFA00285CD0989D9259E3
:1049200001000000B847000000040000235DD0D45F
:10493000F069012807D05D480088002851D05C4804
:10494000008800284DD06B469A8A06990C3A0C31A3
:10495000052014F34CF9010001982EF07BFC009027
:1049600054480068002806D016F3A8EA022108433C
:104970000099084233D14348002200681B2104F308
:10498000CEFD00282BD1019808F020FF002826D169
:10499000494816F394EA0099084220D14448008817
:1049A00000281CD045490098084218D16B469A8AC5
:1049B0000699019839F024FA002810D00220874384
:1049C0000FF056FE05200CF3E7FE0004000C052155
:1049D0000AF364FE0198012103F0F4EA01E00120EA
:1049E0003062002070620DE0FFE7F069012807D017
:1049F0002E480088002805D02D480088002801D0C6
:104A000001203062019803F0EEEA002814D00498E7
:104A1000002811D0FFF7E9FC00280AD025F0CEFCD1
:104A2000002806D125F08AFE002802D1012030623C
:104A300002E0082009F0E0FA306A012808D10020DD
:104A4000F0611B49088002208743032032F09AFC62
:104A50001B4828610C98C00606D504491020C043A5
:104A6000403948600B48286120012BE000A50080F8
:104A700020050004C0A80080FFFFFF7F80880000A1
:104A80007817000400000004FFFFFFFEF403000499
:104A9000FFFFFDFFFFDFFFFFFFF7FFFF38E0000430
:104AA00000A6008030E402C01C050004143D000490
:104AB000D004000498000004940300040B8000005C
:104AC000FFFFFFFB7ED500200A902868800705D5F0
:104AD0000021012014F028F80B900BE02868C00793
:104AE00071D0307814F03CF80B900AF07FFF00286A
:104AF000F6D00B980028F3D00B98C03040680028FF
:104B000046D0406820300A900B9828F0A9FA0AF3A2
:104B100022FB0B9A0F239B01D218D26851621062BC
:104B20000A98002834D00A98807AC00730D00B98B1
:104B3000407902282CD10B980AF058FF012827D180
:104B40000B9800F0D9F94B21C90009904018089042
:104B50002030007900281BD0089A089925320B983C
:104B60002D310E9211F368FC0998406C00280FD08B
:104B700008990E9A0B982E312EF02EFD09980521DA
:104B8000C9014018807A800702D50B9808F026FEEC
:104B90000A98807A80074BD533F06AF9002806D04E
:104BA000C7490020C861C64920204031086009F08B
:104BB000BDFFC448806B0D9009F0CCFE0B983AF015
:104BC00043FE01E070E033E00B983AF0DFFE00288E
:104BD0002ED0BD480068401C2AD0109816F36EE90C
:104BE0000D994018109916F37AE90B99A03149896B
:104BF0004843B649884205D3B16A002902D0B44A75
:104C000001211165B349884212D3B06A00280FD040
:104C10001099002016F362E901210B98490203F074
:104C2000D2E90020B06239F0D4F8A9490020086523
:104C3000FFF7E3FB002835D0022000F0ADF9099022
:104C400032F0AEFD0890099800F056F907900998E7
:104C500032F098FD0690072032F094FB98480169E5
:104C6000026A0698008802281CD1002901D0012A76
:104C700018D10898C030007E002813D106984068EB
:104C8000C00707D00798092189014018806B0028C8
:104C900008D104E0FF2009F02FFA002802D01320E9
:104CA00032F070FB8C482861A00101D58B48286147
:104CB000002F05D08A48072200683900FCF765FFFD
:104CC000E0007ED533F0D4F8002807D00121490454
:104CD000002003F078E97E490020886416F034FA59
:104CE000002801D015F02EFF2868C0076FD07D483E
:104CF000806A0006000E307013F032FF07004FD0BC
:104D0000FFF77BFB002810D0380032F03BFD7549DF
:104D1000496B327801239340194201D0002100E011
:104D200001218170062032F02DFB3800322251C75C
:104D300001000000B44B000000040000D732A56061
:104D4000A030417E491C0906090E4176027E91423F
:104D50007ED1002141760F2080013818C068C07BC9
:104D60000028F5D16448416B3800C0300278012337
:104D70009340FF22521C13435F4A194351637979D0
:104D8000022917D1534900784031886051480169A0
:104D9000006A012901D001280CD13879022805D0F8
:104DA0000121380003F01CE9002803D0012138005C
:104DB0000BF08BFB3879032813D1380014F0DEF8A0
:104DC0000B908068C0050CD5380003F01AE90B98E9
:104DD000FF21806801E006E003E0491C88430B994D
:104DE000886046482861E0020DD5012014F034FDAA
:104DF000002806D03B49012088648103002003F08D
:104E0000ECE83F482861E00702D00120C043286158
:104E1000A0070DD57068401C7060102009F0F6F8EE
:104E20000220C04328610120C0038443C04328619D
:104E3000200405D53348072200680121FCF7AFFEA6
:104E4000600707D5F068401CF0600420C04300E014
:104E500024E02861200705D53069401C3061082016
:104E6000C0432861E00605D57069401C70611020C0
:104E7000C0432861A00605D5B069401CB061202060
:104E8000C0432861F069002801D11FF009FF1E48C6
:104E90008168820D1143816011B0F0BD164B586BD3
:104EA000317801228A409043D90D0843586381E745
:104EB00070B504000D0040200DF08EF8002807D1D9
:104EC000114901204002C86029002000FFF7D2FBF1
:104ED000012070BD00A6008000A800801C05000411
:104EE0005014000030E402C0581B0000FFFFFFF721
:104EF000FFFFFFFDB8030004C0A20080FFFFFFEF2B
:104F0000FFFFEFFF280600040030008001000020B2
:104F1000002906D00F230A799B01C918022A01D162
:104F2000886A7047032AFCD1086B704770B505008A
:104F3000FBF774FD7E494C6809E0072D02D021790A
:104F4000A94203D1FBF76EFD200070BD2468002C40
:104F5000F3D1FBF767FD002070BD002100280AD0C7
:104F60000279022A02D17D21C90003E0032A02D17D
:104F70003F21090141180800704770B505000E0077
:104F8000FBF74CFD6A494C680AE0A179A94206D1B9
:104F9000E179B14203D1FBF745FD200070BD2468E3
:104FA000002CF2D1FBF73EFD002070BD60490228C5
:104FB00001D108697047C86870472030407DC0063D
:104FC000C00F704710B504000AF35CF90F21890186
:104FD0006118886310BD70B5FBF720FD05005448CB
:104FE00044680AE0200014F0FFFB002804D02800E9
:104FF000FBF718FD200070BD2468002CF2D12800BA
:10500000FBF710FD002070BDF8B507003BF0B2FBC8
:10501000002801D00020F8BDFBF700FD0600444841
:10502000444D44680CE0062239006019FBF733F95F
:10503000002804D13000FBF7F5FC2000F8BD2468FF
:10504000002CF0D13000FBF7EDFCE3E7F8B50500EC
:105050000F0008003BF08EFB002801D00020F8BDB7
:10506000FBF7DCFC06003248446810E02079A842D7
:105070000CD1200006223900AC30FBF70CF90028D7
:1050800004D13000FBF7CEFC2000F8BD2468002CD2
:10509000ECD13000FBF7C6FCE0E770B505004078C6
:1050A000002801D1002070BDFBF7B8FC06002048A5
:1050B000446814E02079012810D1A8206A78005DA6
:1050C00082420BD12000A91C8830FBF7E4F80028AD
:1050D00004D13000FBF7A6FC200070BD2468002C32
:1050E000E8D13000FBF79EFCDCE770B5FBF796FCDF
:1050F00005000F48446800E02468002C09D0200017
:105100003AF05CFC0128F7D12800FBF78BFC01206A
:1051100070BD2800FBF786FC002070BD0978C90728
:1051200001D00020704780680005C00F7047000064
:10513000001A000429020000002805D027F1EF54CE
:1051400001000000B04F00000004000084E8760C6D
:105150000F21890140180069002801D10020704703
:105160000078704703000A0000B5FFF7EFFF002842
:1051700007D00F2080011818016960205043AC301F
:10518000085C00BDF8B504000F00954910004E6A98
:105190001D0022F0E3F80421615E002908D17900A6
:1051A0008919A03189888D4204D2491BA18003E06E
:1051B000002901DA0020F8BDA188081AA08001208A
:1051C000F8BDFFB5012081B00C001F0000900198D0
:1051D0000026FFF7BBFF25006035002803D00198AB
:1051E0000079012802D1002028772CE0FF2A27D05F
:1051F00001990F20602380015A43081811000069AB
:10520000A931AB32415C865C75484A00406AA432E1
:10521000805A744A904201D0002F02D1A088002801
:1052200011D03B0032002000FFF7ACFF00280AD16C
:10523000A178019801221EF0D3FB002005B0F0BD3B
:1052400000200090FAE72E770098F7E7F3B591B0C9
:105250000C0000260D684021286F10901435684618
:1052600015F39AED2000694633F0F6F900246F46F5
:1052700017E01198FFF76AFF109903000A88E9699F
:1052800020000904090C09F363FD8619E86921006F
:1052900002041198120C04F03DFF8619385D401E7F
:1052A0003855385D0028E4D1641C2406240E3D2CBA
:1052B000F7D3300013B0F0BDF8B504000F22086832
:1052C0006023056F0600007892014007400F5843A5
:1052D000A1180969B230085C143683009A1889183D
:1052E00009F0F2FF0700092080012018416BCC3043
:1052F0000B5CF0692A8801041800090C012309F3EA
:1053000027FD010038004843F8BDF8B506000A68DB
:105310000F00146FFFF71AFF00283DD00F20800107
:10532000301801693868602300784007400F5843FF
:10533000238B4018A030457A1B090382A07800090E
:105340002AD0082801D00C2826D1142068434418FC
:105350002079000720D59068800004D539003000FE
:10536000FFF7AAFF03E039003000FFF76FFF218A43
:10537000C002000C00290FD0227D002A0CD1628AC5
:1053800010180004000C8842608205D901202075A5
:10539000290030003CF0C8FFF8BD03000A0000B54A
:1053A000FFF7D4FE002807D00F20800118180169EC
:1053B00060205043AE30085A00BD03000A0000B51B
:1053C000FFF7C4FE002809D00F20800118186023C1
:1053D0005A430169AE32885A431C8B5200BD00000B
:1053E00040BE0004FFFF0000002810B502D10122DA
:1053F000FF4BDA61FE4A80000C3210584030818346
:1054000034F0A2FC10BD10B50C000221002807D119
:10541000F74A9378002B00D0032100235370937038
:10542000F34B82000C339A581461FFF7DDFF002024
:1054300010BDF8B50D0000260700002800967ED1AB
:10544000BC00032D01D0832D20D1EA4816F3F9F9D1
:10545000E749343108608069E749884212D1E44B5A
:105460000C331868006880070AD5E44900201A59EF
:1054700051661A591268920702D5401C0A28F6DBB9
:1054800001200090DE482CF085FA19E0052D0CD1A2
:10549000D748C06C0606D748360E143816F3D1F933
:1054A000D449BC31B20088500AE0022D01D0822DCF
:1054B00006D1D048143016F3C4F9CD493431086010
:1054C000E943880701D0A80703D5C94834300059FB
:1054D00005E0C84AF801BC328018B2008058028941
:1054E0008018890741D0A9073FD442780178120279
:1054F0000A43BF490C310D5973001833EA520A5957
:1055000060321675457802782D0215430A59D55236
:105510000A590D00D066303501222859B240104397
:105520002851B348C05D002811D1881FC05D0128F3
:1055300009D9AF4BDA6C521C9042DA6400E013E0F8
:1055400001D10020D8640859006900280EA8D5456B
:1055500001000000AC530000000400003B2D53BFCD
:105560000CD1002F04D10520FEF77FFF002805D0C5
:1055700029593800FFF751FF00202851F8BD427823
:10558000017813020B439F490C310A59C032136052
:1055900009598031C863380034F0CEFC00980028E7
:1055A000ECD031F097FF974801214170F8BDF8B574
:1055B00004000D007DD0E06800287AD1914E343689
:1055C000022B78D020271C22E819A918032B0CD015
:1055D000052BF2D12F81C37886781B0233432DD15E
:1055E0002800FBF76BFA0120F8BD2A81C278837886
:1055F00010021843001D0870000A487001208870CE
:105600000020C870FBF71EFA0700E0681423584317
:105610007D494018290016F376F97F482CF0C4F92B
:10562000E06881007158002903D03800FBF70EFABA
:10563000D9E70321FFF707FF380084E02A81C27809
:105640008378120246791A4303793006001418430E
:105650001018001D0870000A487000208870C8707B
:10566000FBF7F0F90600E068142367495843143942
:105670004018290016F347F9E0686349C001BC31BE
:1056800040186049C96C8900405800280FD1052096
:10569000FEF7EBFE00280AD0E26810009100594A9C
:1056A00038325158002902D10521FFF7CCFE3000D5
:1056B00049E04AE0FFE72889471908300004000C58
:1056C0002881F97ABA7A09021143401903228270BB
:1056D0000022C270083101700422090A00224170C0
:1056E000FBF7B0F90090787B397B0002084346490C
:1056F00014310A28E06806D11423584340182900C1
:1057000016F323F905E0142358434018290016F333
:10571000FAF8E06880003058002813D1787B397B94
:105720000002084304F0BEFF00280BD025F028F942
:10573000002807D1E068002134F0BEFAE0680221B9
:10574000FFF781FE0098FBF781F90020F8BD10B546
:10575000040011F0F9FA002802D0200010F028FD12
:105760002000FEF7FEFE2D4810BD10B5040011F01C
:10577000EBFA002802D0200010F01AFD2248210088
:10578000283016F3C0F80820207300F0A2FC10BDEA
:10579000F8B5002426001B4D20003C35296800295F
:1057A00017D02A00303A12681269002A11D1FFF787
:1057B00034FEB10003E0421E1040641C685068587B
:1057C0000028F8D134E005213000FFF73CFE641CCE
:1057D0000AE00D4A1420143A70431300F101D0334B
:1057E000CD188018B7000090009816F35DF80028D7
:1057F0001ED00448C06C80002858002818D105200D
:105800000EE00000F84D0400F0860400112B0200A9
:10581000EFFEFFFF20200400101004001F5F0000B7
:10582000FEF723FE002803D0F848C0590028CAD04C
:105830002000F8BDF1B582B0029800285FD1F3488E
:1058400000212C380068F14A406920321060121D96
:10585000401C116053D010005C38006D02990704A1
:10586000EB48C9010C1802983F0C850043E0E74A59
:1058700001202032B840515901900143E448515170
:10588000143815F3E8FF002801D0A05109E0E148E1
:1058900000220188E0481300FEF781FE0028A05195
:1058A0002DD0A05900224261A159C0200881D749BA
:1058B0002C39485960304775A35908201873A059EE
:1058C0000389C0184B591867080050304359019E8E
:1058D00033434351495901984861CC493839086DDF
:1058E0004B1D401C0865029E9B5D834200D10A65EA
:1058F000086D07043F0CBE00A0590028B7D0FEBDBC
:10590000F8B504001700C14D0026383D1D2970D0A0
:1059100012DCBE4808392C3002880B0015F3C6EBA8
:1059200015EFEE575757EDED57575757ECA3EB5779
:10593000EAE9E857E7E6570049297ED010DC42291A
:105940007CD008DC1E297AD0202979D041293ED18B
:10595000AF4F0025D5E1462973D04829F2B881948C
:1059600001000000A85700000004000068F780D381
:10597000F7D1F3E166296FD00EDC4A296DD04C29AE
:105980006CD06229EDD1E0680028EAD1FBF764F819
:10599000A44F0090503F27E068290FD06929E0D13B
:1059A000E0680028DDD1FBF757F80400FFF7FAFEA6
:1059B00005002000FBF754F82800F8BDE068002837
:1059C000CFD13803000F08280BD239040A0E6B69B7
:1059D0003906090E1B5C002A01D0934319436A69FA
:1059E0001154FCE1FBF774F8E06814235843C01924
:1059F00015F33BFF0028F5D134E0E96C491EE9645A
:105A000002D0E96C05E0C9E085493239095C491EDC
:105A1000E96401273B008B401A4211D0814AC00142
:105A20008032801889004058002809D0FBF750F8D0
:105A3000E0687C49C00180314018E96C890046501B
:105A4000E068774A8000121D1158EB6C07E0AFE167
:105A500047E1B4E03FE172E16BE1AEE1B2E19F40CA
:105A6000B9431150E0686E4B81001B1D5A58002A43
:105A7000C3D10098FAF7F4FFB1E1FAF7EDFF6849F6
:105A80000090E0683839095C00294BD1644A8100F4
:105A90002C3A52585769624A283251580F40110027
:105AA0005B39095C012909D900F011FB002805D0F8
:105AB000002F03D00098FAF7D3FF4DE1E0680021F2
:105AC00000F0F9FAE06800F002FB002806D1E06877
:105AD00034F02AF8E0688021FFF79AFC002FC8D143
