:1000000001000000000000A0000200000AB6BD1BB5
:100010001CF09FE51CF09FE51CF09FE51CF09FE5A0
:100020001CF09FE51CF09FE51CF09FE51CF09FE590
:10003000071C0F239C220000E4210000F421000093
:100040004C2200005C2200006C2200007C22000098
:1000500088220000000000EA5D0700EA28008FE225
:10006000000C90E800A08AE000B08BE001704AE24A
:100070000B005AE15607000A0F00BAE814E04FE2FD
:10008000010013E303F0471013FF2FE1C40803003E
:10009000040903000030A0E30040A0E30050A0E307
:1000A0000060A0E3102052E27800A128FCFFFF8A44
:1000B000822EB0E13000A128003081451EFF2FE1E3
:1000C00004309FE503308FE013FF2FE1C91F0000CC
:1000D0001D48802110B502F0EAE91C48582102F0C1
:1000E000E6E91B4800210A0006C0202117485830C5
:1000F00002F0DCE9002010BDF0B50024144F0837F1
:10010000012609E0C51968682CF062FF69683000B3
:10011000884010498860641CE00039580029F1D1FA
:100120000B4F0024283709E0C51968682CF050FFF0
:1001300069683000884008498860641CE0003958CC
:100140000029F1D10020F0BDD80A0300D404000436
:1001500008000004009000A8009100A8574804225D
:10016000062102704170027241727047F8B513F0B7
:1001700019FF002803D013F0BDFE002879D14F48A5
:1001800000241838046000F0FEF903F0D3FB4C495A
:100190000D5C0FF069FA290002F08CE9494E23004A
:1001A000320002F08CE9401C614105042D0C03F083
:1001B000C1FB454940000F5A14F08AF9390002F09A
:1001C0007AE92300320002F07AE9401C6141000420
:1001D000000C290000F0E6F903F0ACFB3B490D5C94
:1001E0000FF042FA290002F066E92300320002F023
:1001F00066E9401C614105042D0C03F09BFB34496A
:100200000F5C0FF031FA390002F054E9169DC0AED0
:1002100001000000FC0100A000020000CE6362307B
:100220002300320002F054E9401C61410004000C3C
:10023000290000F0D8F9082000F0C4F90FF01EFAE8
:10024000310002F04AE9401C0004000C00F0C3F940
:100250000FF014FA052102F038E9234A230002F0D6
:1002600038E91922801861410006000E00F0C1F93A
:10027000601E12F049FBFF24641C200013F054F9A7
:10028000200013F059F912F0FBFA12F01DFB402088
:1002900016F0A2F800F0E0F900F0CCF90C200FF015
:1002A00045FAC0200FF042FA13F0CEF813F0F0F840
:1002B00013F010F913F0E0F830200FF037FA0320B4
:1002C00000020FF033FAFFF753FF00F0ADF8F8BD6E
:1002D000280A00B02CEF020040420F0016EF020087
:1002E00042EF020037EF0200C0C62D0010402DE99A
:1002F000C81500FA78409FE5000094E5000050E33F
:100300000300000A060100FA000094E5000050E333
:10031000D150001BAE0100FA0000A0E3B44D00FA7A
:10032000370100FA0000A0E3F70000FBF70000FA35
:10033000000094E5000050E3E800001B550100FBBD
:10034000870100FB000094E5000050E30100000A73
:10035000530100FA384F00FA500100FA00000FE193
:10036000BF0000E200F021E1205800FA0000A0E305
:100370001080BDE8841700B010B500F019FC02F041
:10038000B0E813F0DBFD00F0EDFB002801D0012008
:1003900010BD15F0D3F8002010BD10B5FFF7F0FE2A
:1003A00001F094FE0400012012F076F9200001F023
:1003B00091FE13F001FE002805D013F0A5FD0028E2
:1003C00001D013F051FB002010BD10B514F0E0FE79
:1003D00010BD30B59408002203E09300CD58521CA4
:1003E000C550A242F9D330BD9308002210B502E0F7
:1003F0009400521C01519A42FAD310BD4B22094875
:100400001202002110B5FFF7EFFF03220B2052026A
:1004100000210007FFF7E8FF00F051FA0DA9D6020E
:1004200001000000F80300A0000200003A8BDC8D00
:1004300000F068F8002010BD605E00047047000006
:10044000084810B50168084B0A001031080019600F
:10045000111D5960242102F03EE80449022015F0E4
:100460004DF810BD647900B06C0A00B00D180100A1
:10047000F8B5002425001C48A70014266643C55182
:100480001A481421301802F026E8184814211430B4
:10049000301802F020E8154814212830301802F0F6
:1004A0001AE8114830222838C159104862433C30BC
:1004B0001018C4608160456185610D49C5610161A5
:1004C0000C4901620C498562416202F018E8641C23
:1004D000012CD0DB094908202CF08EFD0849FF20B3
:1004E000401C8860F8BD0000F81700B018AF00B0DD
:1004F0007DDE020061DF020021DB0200E1DC0200A0
:10050000009000A80F490E4810B508600F490E482A
:10051000086010490E48086010490F4808601149EA
:100520000F4808601048802101F0D4EF0E48802168
:10053000803001F0D0EF0D48802101F0CCEF10BDEC
:10054000612701008CA900045127010090A9000433
:10055000B526010094A900044054890084A9000430
:10056000A086010088A90004D87D00B0D87E00B024
:1005700010B5084C00206062DF200002E0620648EF
:10058000A06201210548490201F0A4EF0120606248
:10059000002010BDC09B00A800ADDEEF587F00B06A
:1005A00052484068C168524A1143C160704700B563
:1005B000FFF7F6FF4D48406841680122520211439F
:1005C00041604168D2001143416000BD090401430C
:1005D000464840688161704744494968CA681204C6
:1005E000120C00040243CA607047404949684A69D6
:1005F000120C120402434A617047090401433B484C
:100600004068C1637047394949684A68120A120252
:1006100002434A607047354840680169012212046C
:1006200011430161704731484068C030525B34C8A3
:1006300001000000F40500A000020000237302FD89
:100640000168402211430160704770472C484068A0
:10065000C0304168372211434160704728484068E4
:10066000FF30413041681D2291434160704724486A
:100670004068FF30413041681D221143416070479E
:100680001F484068FF304130416802229143416079
:1006900070471B484068FF304130416802221143D7
:1006A0004160704716484068803041680622914397
:1006B000416070471248406880304168062211430B
:1006C000416070470E4A52688032536A09011B0F1D
:1006D0001B0709090B435362116A4003C90CC90483
:1006E000400B0143116210681F2109048843012156
:1006F00009054018106010684900084310607047F1
:10070000740A00B08F0300008DC08FE21CFF2FE140
:1007100001210920000701600021416070477448F1
:10072000012101600021416070477248016B802205
:1007300011430163704770476F4800B50068002897
:1007400001D0FFF7F2FFFFF7EAFF00BD10B56B4CD9
:1007500005F032FAA04220D069496A4B08409969F5
:100760000F22D2059143020752090A439A61654B51
:10077000403319683022914302400A431A60000A4C
:100780004107614A490F0429117001DD04211170EC
:10079000000702D510784042107010BDFF2310B53D
:1007A000C133202403F0E4F8052803D003F0E0F877
:1007B000012801D101235B022100180011F0A7FFDD
:1007C00010BD10B5514C207900280BD101202071AB
:1007D0002EF04AFA062013F05DFAC006C00F6071D1
:1007E0002EF092F9607910BD70B50600FFF7E9FFB1
:1007F000444D803D2C0D002811D02EF035FA80217B
:10080000262013F053FA2EF07FF9A8682043A86041
:100810003F488168220211438160002003E0A868FC
:10082000A043A860300013F016F970BD70B513F046
:1008300073F913F08FFA11F043FA7D2495BF13B9C1
:1008400001000000F00700A000020000D79BBC40A0
:10085000E4010021200013F093FA0021200013F09E
:1008600095FA0021200013F02DFB0021200013F049
:100870002FFB2D4C0221200013F088FA02212000CA
:1008800013F026FB214D294C2868002804D020684D
:100890000121C905884320606068254908406060DF
:1008A000E068172149020843E06013F017FB216854
:1008B000C206204801D5014300E0814362686260BE
:1008C00021602168014321602868002802D0B520FA
:1008D000FFF794FF70BD70477047704770477047CF
:1008E00010B513F023FE0E4C002802D013F028FEA2
:1008F00001E013F037FEE06010BD10490E480860BB
:1009000070470000003000A8400C0090841700B031
:10091000FFFF00003F0F000000290080740A00B0B4
:10092000700B00B040230080409C0000002100803C
:10093000FF7FFF7F0000002095270100F40C00B02E
:10094000F8B5304800680002000F082828D12E4C66
:100950006069E504284360616069400040086061A7
:1009600020680826304320602068EF12B8432060DA
:100970004821452013F0C0F90421482013F0BCF9A8
:10098000206830432060206838432060322011F016
:1009900031FF606928436061606921050843606137
:1009A000F8BD1A4810B5006800282AD02EF066F964
:1009B000FFF7C6FF2021192013F082F9022116202B
:1009C00013F07EF93721332013F096F99421242077
:1009D00013F092F9262013F067F9800880000221B5
:1009E00008430106090E262013F086F966214120EE
:1009F00013F082F92EF092F813F00CF8642011F045
:100A0000F9FE10BD0020008000280080841700B08F
:100A1000F8B5594C594D2068002804D0E8172860D3
:100A2000686012F071FE5648016A49004908016287
:100A30005448072101610521416106218161524924
:100A4000002088600B205149000701222C5192762A
:100A500001000000EC0900A0000200001082BE1D91
:100A60001204036880188842FBD3002001688018B4
:100A70009042FBD3012080060068444800680028AB
:100A80007ED02EF005F92EF053F84148416B020D4F
:100A90001143416301686F2291430160C168890974
:100AA0008901C1603F48416A702291434162816976
:100AB00091438161816A020C1143816213F018FA3B
:100AC000040080070DD53848C168090109D5C168FF
:100AD0000F2212059143C160C1680722920511439C
:100AE000C160304D0326314F2107803D36020F2073
:100AF000002922DA610610D4A00712D43868022136
:100B0000884338602869B043286128698843286190
:100B100028690D21084328611FE0A10701D461065F
:100B200012D515F079FC212817D3286930432861A4
:100B300038680A21884338600FE0610601D4A107B4
:100B400002D52969314304E02969B1432961296942
:100B500001432961396801433960A00605D40C4975
:100B6000C868192292039043C860084800680028AA
:100B700009D00848012149044162891C816200E0D2
:100B800001E00B49C1620020F8BD0000841700B0ED
:100B900000210080C0900090000800A80023008081
:100BA000000001B000290080802F00808027008095
:100BB0000202020000B50D49002087B00860020063
:100BC00001001E2003AB07C302000948FF21491C96
:100BD0006B4607C3A838074A002307A101F0B0EC11
:100BE0000006000E00D0012007B000BD8800000400
:100BF000940D0004B14B000049646C6500000000D6
:100C000010B5FFF753FC10F0BBF915F03DF814F0E8
:100C1000C9FF15F00BF810BD12483C2110B501F0CA
:100C200078EC1048114A42600F49114A0160826015
:100C300081610021016201630E4A4163C2620E4C70
:100C400081630E48EE22210001F07EEC0B480C4B34
:100C50000422210001F07CEC10BD10B543E572AA1E
:100C600001000000E80B00A000020000E46A00A000
:100C700000F040FB002010BD000000B0ED3100008E
:100C8000DD2F00009D34000005E40000DC050000BD
:100C9000100700045FF2F303F8B5BF4D28680C217C
:100CA00088432860BD4CE068A10C0843E060E06820
:100CB000072149020843E060E06801210906084372
:100CC000E060E06880098001E060E0680914884322
:100CD000E060E06809018843E060E0684F03B843E2
:100CE000E060E0680721C9068843E060E068F91029
:100CF0000843E0602068AA49084320607D20002165
:100D0000400213F051F87D26F6010021300013F067
:100D1000EDF80021300013F04DF80021300013F001
:100D2000EBF8A048016A10263143016228680C21C3
:100D300088432860686861058843686013F070F92B
:100D4000A868E1040843A8602869032109068843CC
:100D50002861286938432861934948680020486021
:100D6000486819221206104348608F488030036893
:100D700040229343036003680F273F02BB43036095
:100D8000036803277F023B43036003680F273F0389
:100D9000BB430360036803277F033B43036003688F
:100DA0001B091B010360036806273B430360286897
:100DB000104328602868302398432860286830430F
:100DC000286008680123184308600868B843086071
:100DD000E068090D0843E060A06A1043A0621800B3
:100DE00013F094FA012012F0F1FCF8BD10B50FF0E9
:100DF00021FF6E4908806E486E49000C00040860AF
:100E00006E496D4808606F496D4808606F496E48CB
:100E1000086070496E48086070496F480860714901
:100E20006F480860714970480860724970480860EE
:100E30007249714808607349714808607349724883
:100E400008607449724808607449734808607549BD
:100E500073480860754974480860764974480860AA
:100E60007649754808607749754808602EA3802048
:100E700001000000E40D00A000020000FD92DED0A1
:100E80007749764808607849764808607849774815
:100E900008607949774808607848794908607A4954
:100EA000784808607A49794808607B497948086041
:100EB0007B497A4808607C497A4808607C497B48CD
:100EC000086010BD0121080010B50CF0AFFF02F062
:100ED00077FD78494000085A7749086000F06CFABD
:100EE000022101200CF0A2FFFFF7E0FE0321012008
:100EF0000CF09CFF00F052FB042101200CF096FF47
:100F0000FF226E4919321C2001F03AEB0521012025
:100F10000CF08CFF062101200CF088FFFFF770FF1A
:100F2000072101200CF082FF6549E12040020860A2
:100F30002CF012F9082101200CF078FF60490422FE
:100F400007202CF0ABF9092101200CF06FFF5D4860
:100F500000210A0006C05B4A5B495C485C4B01F01B
:100F600014EB0A2101200CF061FF00F033FA0B2191
:100F700001200CF05BFF00F0ABF90C2101200CF01C
:100F800055FF00F0A7F80D2101200CF04FFF0E21B6
:100F900001200CF04BFF002010BD10B500F02AFA24
:100FA00000F05EFB00F098F9002010BD002F0080DB
:100FB0000021008000081C2000280080802600807E
:100FC00040AD00046C2100B034AF0004F3E5000034
:100FD000D8A90004C5840000C8A900040585000044
:100FE000CCA9000417850000D4A900041D850000C9
:100FF000D0A9000441EB000018AB0004C5E60000D6
:101000001CAB0004A9E6000020AB0004F5E50000DD
:1010100024AB00044961000054B000046161000089
:1010200058B00004756100005CB000040547000082
:1010300050B0000429EA000028AB0004CDE900000C
:101040002CAB000445EB000038AB000491EB000032
:101050003CAB000495EB000040AB000449EA000003
:1010600008AB000429EB00001CB5000431D40000DB
:1010700018AA0004BD44010030AB000495D6779156
:1010800001000000E00F00A000020000097A606D7E
:10109000A144010034AB0004ADD3000010AA000449
:1010A0005DD3000014AA0004D1D500000CAA0004EE
:1010B00011D7000008AA0004810E010000AB000453
:1010C000390E010004AB000400EF0200E8A900049F
:1010D000502A0004F0A90004080C00B0B81B00005E
:1010E000980E0004AC0900B00449034810B54860EC
:1010F000080014F053FA10BD491701002C0C00B081
:1011000011491048086012491048086012491148F6
:1011100008601349114808601349124808601449CF
:1011200012480860144913480860154913480860BC
:1011300015491448086016491448086016491548AE
:10114000086070472DD50000CCB3000481D40000A6
:10115000BCB30004B9D40000C0B30004C5D400007F
:10116000C4B30004F1D40000C8B3000489D5000062
:10117000DCB30004A5D50000E0B3000431D50000C5
:10118000D0B300044DD50000D4B30004BDD5000099
:10119000E4B3000475D50000D8B3000410B50124F1
:1011A000A4022048EE22210086B001F0ECE926F0EE
:1011B000F9FE23F091F8012200210C2003AB07C3B4
:1011C0000200184802920090174A0019002317A144
:1011D000019401F0D4E900281DD1194815A101F0AE
:1011E000E2E918481A4A41681748816017490161C5
:1011F000002141618261174AC16102624162164960
:10120000816201F0B8E9002805D1144911202BF0C2
:101210002FFF002802D0012006B010BD00F06AFDAB
:101220000020F9E71033000469DA01004E666354C8
:1012300061736B004E6663466C616773000000006B
:10124000B83700049C0C00B0989500B08D74020073
:10125000C58602004DB80200BD4802001D580100BD
:1012600010B500F079FF1B4C6060A168002904D024
:10127000491CA16000F074FF10BD0021012011F095
:101280009BFAA068401CA0600020C043C4314D14EC
:1012900001000000DC1100A0000200007761C7DD42
:1012A00020610020E06011480168820B1143016059
:1012B00010490F480880091F088004F073FE10BD14
:1012C00010B5094CA068012802D9401EA06010BDCD
:1012D00004F04CFE0020A060012011F02DFA60689F
:1012E00000F048FF10BD0000201B00C0002100805E
:1012F000FFFF00005006009006490020088070475C
:101300000649054808600749054808600749064836
:1013100008607047189800B0C52401002CBB000479
:101320009524010028BB00041124010024BB000403
:1013300011491048086012491048086012491148C4
:10134000086013491148896808601349114808600A
:101350001349124808601449124808601449134898
:101360000860154913480860184814A1016018A1C5
:10137000416070474DA30000ECB6000465A3000077
:10138000F0B60004F99F0000E0B60004600E00A96A
:10139000FC0C00B099A400002CB7000471A300005D
:1013A00000B7000489A3000008B7000459A4000096
:1013B00020B70004081000A9A4B000046D6465768D
:1013C0005F6169757265636F72640000C0B000048C
:1013D0006D6465765F616975706C6179000000000D
:1013E00070B500240B4D04E0401940682BF04AFE14
:1013F000641CE00029580029F6D170BD06488168B8
:10140000FF22521C114381608168102211438160C8
:10141000704700001C0D00B0009000A810490F4854
:1014200010B5086010490F48086011490F4808605E
:10143000114910480860FFF76DFE00F02BF800F02E
:1014400075FC0F490D4808600F490E48086001F00F
:10145000B8E80F490D48086010BD000033160100C0
:1014600050B400042916010048B4000431160100EC
:101470004CB40004E97000004CB3000439D70000FC
:1014800068B7000469DA00006CB7000429CF0000D7
:10149000E8BA00041649154808601749A920F6B4AF
:1014A00001000000D81300A00002000083897960C9
:1014B000154808601749164808601849164808601A
:1014C0001849174808601949174808601949184809
:1014D00008601A49184808601A49194808601B49E9
:1014E000194808601B491A4808601C491A480860D6
:1014F0001C491B4808601D491B48086070470000D4
:101500005574000000B400042D740000F8B300040A
:1015100041740000FCB300040D75000004B4000425
:101520003975000014B400045575000018B40004A7
:10153000697500001CB400042575000010B4000497
:1015400045D2000008B40004157500000CB4000476
:1015500019740000F4B3000405740000F0B3000433
:101560007DD1000094BB000499EB000090BB000407
:10157000F7B5012082B00D000190088846082DF0D3
:1015800065FB710002980F0012F040F9012409E098
:10159000029A6000295A8018801E0004000C12F084
:1015A00035F9641CB442F3DD78194188029812F0D1
:1015B0002DF92DF0CFFA2DF073FB492012F022F90E
:1015C00004990842F9D0000601D5002001902DF0C1
:1015D000D1FA019805B0F0BD2B4970B548680E0CE2
:1015E000304348602DF05CFB092012F00BF90C2110
:1015F0000143092012F00EF9152012F003F9BF2162
:101600000140152012F006F94A2012F0FBF80621DD
:10161000050001434A2012F0FDF80024472012F093
:10162000F1F8641C0A2CF9DB2900F92001404A205A
:1016300012F0F0F8492012F0E5F81021014349209A
:1016400012F0E8F8002012F0DDF8104908700120CF
:1016500012F0D8F80E4908702DF08CFA0D492022AE
:101660003000FFF785FF002807D01F200A494022DD
:10167000C002FFF77DFF002800D1FEE700F03CFB31
:10168000012012F0E5F870BD4023008090000004B6
:10169000910000046C2100B00C1800B070B500255A
:1016A000B549B4480860B649B44808603AED969D1B
:1016B00001000000D41500A0000200009A71A710DC
:1016C000B649B5480860B749B5480860B749B64853
:1016D0000860B849B6480860B849B7480860B949D1
:1016E000B7480860B949B8480860BA49B8480860BE
:1016F000BA4CB948E064BB49E062B9480860BB49EC
:10170000B9480860BB49BA480860BC49BA48086093
:10171000BC49BB480860BD49BB480860BD49BC48DE
:101720000860BE49BC480860BE49BD480860BE4864
:10173000BF498571BD480860BE4901208877BF490F
:10174000BD480860BE48BF490860C049BE4808603F
:10175000C049BF480860C149BF480860C149C04886
:101760000860C249C0480860C249C1480860C3490E
:10177000C1480860C349C2480860C449C2480860FB
:10178000C449C3480860C549C3480860C549C4483E
:101790000860C5482061C6492062C4480860C54841
:1017A000C6490577C4480860C649C5480860C749A6
:1017B000C5480860C749C6480860C849C6480860A7
:1017C000C74905200870C849C648086014F060FE83
:1017D000212802D2C649C5480860C749C5480860E3
:1017E000C749C6480860C849C6480860C849C748CC
:1017F0000860C949C7480860C949C8480860C9485D
:10180000A064CA49A062C8480860C948CA49606360
:10181000C8480860CA49C9480860CB49C948086037
:10182000CB49CA480860CC49CA480860CB48CD4972
:101830006065CB480860CD49CB480860CD49CC48AD
:101840000860CE48CC490162CD49CF4A4162CD49BA
:101850001160CF4ACD491160CF4ACE491160D04ABC
:10186000CE491160D04ACF491160D14ACF491160A9
:10187000D14AD0491160D24AD0491160D24AD149E7
:101880001160D34AD1491160D34AD2491160D44A78
:10189000D2491160D44AD3491160D54AD349116065
:1018A000D54AD4491160D64AD4491160D64AD5499F
:1018B0001160D74AD5491160D64981600E72DA3677
:1018C00001000000D01700A0000200006E9919ADC1
:1018D000D649D84AC161D6491160D7496161D84A11
:1018E0006162D6491160D84AD6491160D84AD749B1
:1018F0001160D94AD7491160D94AD8491160DA4AEA
:10190000D8491160D949DB4A0D70D9491160DB4AC9
:10191000D9491160DB4ADA491160DC4ADA491160C1
:10192000DC4ADB4911603249DB4A8031CA60DB495D
:10193000A165DC4AA163DA491160DC4ADA49116029
:10194000DC4ADB491160DC492163DC490160DC4988
:101950004160DD49DB480860DD49DC480860DE495C
:10196000DC480860DD48DF492065DD480860DF4964
:10197000DD480860DF49DE480860E049DE4808606D
:10198000E049DF480860E149DF480860E149E04894
:101990000860E249E048086070BD0000D1C1000065
:1019A00070BB0004AD68000078B2000435AE0000E2
:1019B000D4B90004C99F000060B70004C19F0000B3
:1019C0005CB7000441AB00007CB9000489C0000092
:1019D00000BB00048DAE0000D8B90004ADA9000022
:1019E00038B900040D90000054B50004398A000095
:1019F000B4AF000411B60000F8B90004F9C000004B
:101A00006CBB0004A98C000040B500049D97000049
:101A100090B60004E9650000F0B10004DDA8000004
:101A2000FCB70004F9AC0000ACB90004697900000F
:101A300010B5000455AC000080B9000440AD0004AE
:101A4000D97100005CB3000440AA000429A600007C
:101A500094B70004D1A5000090B7000405A70000CA
:101A60009CB7000405A500008CB70004ED710000D0
:101A700038B60004D56B0000D4B20004D573000062
:101A800080B3000441780000A0B40004A9BD0000A8
:101A900098BA000479AD0000C8B900043D6900009F
:101AA00088B20004EDAD0000CCB90004CD6D00009B
:101AB000E0B20004E9800000A8B500040D9C00001D
:101AC000F59C0000A8B600048009030033D0E3872A
:101AD00001000000CC1900A000020000A9801BF04A
:101AE000719B0000A0B60004158D000054B60004E0
:101AF0004DD1000088BB0004C9A40000A8AA0004BE
:101B00000D650000ECB1000465AA0004E1C300000B
:101B1000D0B90004C16E000004B30004E1B60000B7
:101B20005CBA000459780000A8B4000435810000B4
:101B3000ACB50004C57F0000A0B50004817E0000A4
:101B40007CB50004EFC2000068B90004AD85000058
:101B50009592000060B600047185000081CF0000FE
:101B60004CB9000409A9000060B8000491B8000055
:101B700064BA0004BDBD0000E4BA0004BD810000E9
:101B8000BCB50004458B0000017200006CB300047A
:101B9000E1C70000E4B90004F5C70000F4B900048F
:101BA0006773000054AD00045D730000E17A00002B
:101BB0004CB60004CDC30000A8B90004E1C9000080
:101BC00084BA00045D68000000B2000461A900004E
:101BD000F0B8000441B6000048BA0004ADC70000E8
:101BE000DCB9000405A80000E8B7000441C000000B
:101BF000FCBA0004CD94000088B600041D6F0000FC
:101C000014B300045D8F000058B600046592000014
:101C10005CB600042D820000CCB50004FD810000FC
:101C2000C0B5000439830000ECB5000449930000FE
:101C30006CB600048D70000028B300049D70000095
:101C4000197200008D820000D8B50004C99E000002
:101C5000DD7C000068B600047594000084B60004C2
:101C60000199000094B60004719700008CB600043E
:101C7000756D000058AC00042DC3000078B9000455
:101C800090AD0004ADC20000D0B70004599400002C
:101C900078B600043593000064B60004A97800000B
:101CA000C8B40004A97700006CB40004A18A000045
:101CB000959A0000B1D0000078BB0004FD760000CA
:101CC00044B40004A1810000B4B5000425850000DF
:101CD000C575000091750000B9710000ECC154EEAB
:101CE00001000000C81B00A0000200005D68A54DB7
:101CF00058B30004217C00005CB50004357D000071
:101D000060B50004E98A0000C15F0000C0B10004B2
:101D10002194000074B60004E176000040B4000491
:101D200049790000ECB400047D68000058B200045A
:101D3000D9780000DCB400044D7E000078B50004C2
:101D4000D16A0000BCB20004054810B50078102824
:101D500004D1044904484C222DF02EF910BD000096
:101D6000910000049E000004CE01000405480649CD
:101D700010B50078097800F029F804480068804719
:101D800010BD0000004000AA004000AADC010004D1
:101D90000749064808600849064808600849074896
:101DA0000860094907480860704700008D39000045
:101DB000F4B10004F183000000B60004FF830000CA
:101DC00004B60004E9830000FCB50004064808B529
:101DD00002680092054A0649130008000C386C336B
:101DE00000F024EC08BD00006400000450D100B0F5
:101DF000EC1600B0203052E20400005A203062E2BB
:101E00003002A0E1110380E13112A0E11EFF2FE1B9
:101E10003103A0E10010A0E31EFF2FE1194930B407
:101E200017220A6036224A60174A184C0021030C18
:101E30008D001B185351164B491C58430019372964
:101E4000F5DB30BC70470120E8E770B40D4C0E4D57
:101E50006068216883008E00EA58AE59491E401E12
:101E60009219EA5036230029216002DA236060606B
:101E700003E00028606000DA6360500070BC400836
:101E8000704700007C1700B0DCAD00B0E119D666E9
:101E9000CD0D010010B4042A0ED303000B439B07A1
:101EA0000AD108C810C9A34202D1121F042AF8D2CD
:101EB000A34201D0001F091F002A02D1002010BC3C
:101EC0007047D30701D0521C05E003780C78401C02
:101ED000491CA34207D103780C78401C491CA3423B
:101EE00001D1921EF1D1181BE9E70000E9C434B812
:101EF00001000000C41D00A00002000044907B3DD2
:101F00000000A0E1230000EB03002DE9830000EBBB
:101F10000300BDE84B0000FA0F002DE9820000EB42
:101F20000F00BDE81CC09FE50FC08CE001001CE362
:101F30000DE08F120FE0A0011CFF2FE101C08FE226
:101F40001CFF2FE100F01CF82D3D010001402DE9A0
:101F50000000A0E16A0000FA0140BDE8000000EACC
:101F60000000E0E30000A0E10C109FE51800A0E3F2
:101F7000563412EF1EFF2FE1C401000026000200BC
:101F800010B5C046C0460400C046C0462000FFF75A
:101F9000DEEF10BC08BC18470E40A0E1670000EB64
:101FA00004E0A0E101402DE97C0000EB0040A0E14D
:101FB0000140BDE813402DE90100A0E3121DA0E39C
:101FC000081084E5000084E51340BDE80010A0E19E
:101FD000040084E50EF0A0E110402DE903002DE996
:101FE0006E0000EB0040A0E10300BDE8042094E592
:101FF0000D30A0E100E082E003005EE1002081E519
:102000000B00008A0E3093E0011A8EE26330A0E1EB
:10201000071081E20730C3E30710C1E3030051E179
:102020000310A081041084E51040BDE8020041E0E7
:102030001EFF2FE10020A0E10000A0E30000A0E1CE
:102040001040BDE81EFF2FE1F0B585B0C046C04688
:1020500005000C002CF0E6EF002001950294C0462C
:10206000C046039001A8FEF7C2E8040001A80D00D5
:10207000009303C81600C046C046C046C046FFF7DE
:10208000ECFE00210800C046C046070000F090E8C2
:102090000490002107600800C046C046411C049817
:1020A000416000210800C046C046010004988160DC
:1020B00000210800C046C04601000498C16000210C
:1020C0000800C046C046010004980161C046C046F1
:1020D000C046C046C046C046C046C046C046C046D0
:1020E000C046C046C046C046C046C046C046C046C0
:1020F000009B05B02000049C29003200ED0C223228
:1021000001000000C01F00A000020000B078C580E0
:10211000A646F0BC01B0704710B5C046C0460020CE
:10212000C046C046C046C046C046C04610BC08BCFB
:10213000184700000000E0E30210E0E31EFF2FE17B
:1021400010402DE90000A0E11040BDE81EFF2FE186
:102150001EFF2FE10E50A0E11F0000EB05E0A0E103
:102160000050A0E10700C0E30D10A0E10A30A0E19B
:1021700000D0A0E160D08DE220402DE9E43200FAE9
:102180002040BDE80060A0E30070A0E30080A0E371
:1021900000B0A0E30710C1E305C0A0E1C009ACE8AE
:1021A000C009ACE8C009ACE8C009ACE801D0A0E1C6
:1021B0001EFF2FE104009FE51EFF2FE11EFF2FE110
:1021C000C8AE00B004009FE51EFF2FE11EFF2FE107
:1021D000D8AE00B010B410BC7047000000009FE5FE
:1021E0001EFF2FE1B8AE00B004009FE51EFF2FE1F7
:1021F0001EFF2FE1BCAE00B010B500F030EA10BDFC
:10220000802810B502D100F02AEA10BD00F02AEAB9
:1022100010BD10B5040000F02AEA206010BD0F4880
:1022200070B504680E4EA10706D500210161F26C5D
:10223000012090470220844300250AE0E00706D0F1
:10224000A8003258002A02D02100280090476408D4
:102250006D1C002CF2D1002070BD0000009000A881
:10226000D80A0300913082E00300A0E10210A0E14F
:102270001EFF2FE100A0004750129FE5001091E5DE
:10228000D100A0E300F021E101D0A0E174129FE5AC
:1022900034229FE5DB00A0E300F021E1021081E0A1
:1022A0000310C1E3041041E201D0A0E100A0A0E3CB
:1022B00000B0A0E318229FE5D200A0E300F021E1E6
:1022C000021081E00310C1E3041041E201D0A0E15B
:1022D000D300A0E300F021E1E8319FE5001083E5A1
:1022E000E0119FE5000091E5040080E2E8219FE510
:1022F000000082E510229FE510029FE52C0082E598
:102300000700A0E3300082E50900A0E3F3095B9A2F
:1023100001000000BC2100A000020000B8A7345D4D
:10232000000082E50B10A0E3101082E50130A0E36D
:10233000243082E5283082E5E8219FE51030A0E3D3
:10234000083082E51EFF2FE10100A0E30E10A0E19E
:10235000840000EBFEFFFFEAFF402DE900004FE1A3
:1023600001002DE9C0119FE5002091E51F2002E248
:10237000B8319FE5823193E70FE0A0E113FF2FE131
:10238000A8019FE50810A0E3920102E00410A0E379
:10239000012082E0021090E724209DE5012082E0E8
:1023A00024208DE50100BDE800F069E1FF80FDE833
:1023B0000200A0E30E10A0E16A0000EBFEFFFFEABE
:1023C0000300A0E30E10A0E1660000EBFEFFFFEAB1
:1023D0000400A0E30E10A0E1620000EBFEFFFFEAA4
:1023E000A80000EAFFF725FF52480047FF402DE90B
:1023F0000E00A0E1AD0500FAFF40BDE804F05EE28A
:1024000030019FE50010E0E3001080E5001090E54A
:1024100024019FE5100F01EE20F19FE5900F07EEDC
:102420001EFF2FE1FC009FE50010E0E30C1080E5AB
:10243000F0009FE508119FE5081080E504019FE585
:10244000001090E5081081E3001080E5001090E591
:10245000081011E2FCFFFF0A900F07EE1EFF2FE1AC
:10246000100F11EE1EFF2FE1100F01EE1EFF2FE1E6
:10247000010050E2FDFFFF1A1EFF2FE1C8109FE58B
:10248000A520A0E30000A0E3040081E4012052E2C3
:10249000FCFFFF1AB4009FE5B4109FE5001080E533
:1024A000B0009FE5B0109FE5001080E5AC009FE50F
:1024B000AC109FE5001080E51EFF2FE100000FE14A
:1024C0001F0000E2120050E30100A0030000A0136F
:1024D0001EFF2FE1100F6FE11EFF2FE1ACBD0004C6
:1024E000100000004000000400040000E0030000B1
:1024F0009CBD000401C05EE50C0053E10330DE37F3
:102500000C30DE2783C08EE01CFF2FE13F96A0E356
:1025100019FF2FE10396A0E319FF2FE11C11403CA6
:1025200001000000B82300A0000200004C4F8AE028
:10253000580B0300009400A83F1F0000009000A863
:10254000B0380080587F00B00016F00300210080F2
:102550007C1700004400000002004000C4200080FE
:102560006CBD0004F4BD000425210000F8BD00048A
:1025700081EE0200FCBD00048122000000204FE13A
:1025800000300FE1D170A0E307F021E1353F00FA00
:10259000FEFFFFEA0E002DE900200FE1D33083E3B8
:1025A00003F021E10D00A0E102F021E10E00BDE801
:1025B0001EFF2FE10E002DE900200FE1D33083E351
:1025C00003F021E10E00A0E102F021E10E00BDE8E0
:1025D0001EFF2FE10E002DE900200FE1D23083E332
:1025E00003F021E10D00A0E102F021E10E00BDE8C1
:1025F0001EFF2FE10E002DE900200FE1D23083E312
:1026000003F021E10E00A0E102F021E10E00BDE89F
:102610001EFF2FE104F01FE54038F40304F01FE52E
:10262000D03AF40304F01FE52C33F40304F01FE563
:102630003041F40304F01FE5015EF00304F01FE5F0
:10264000D573F00304F01FE57D46F00304F01FE5A9
:10265000F836F40304F01FE587F2F30304F01FE5F6
:10266000FD7DF00304F01FE5DB80F00304F01FE5BF
:10267000A131F00304F01FE57D93F00304F01FE5A2
:10268000015FF00304F01FE58C17F00304F01FE571
:10269000A017F00304F01FE5114DF00304F01FE54F
:1026A0001817F00304F01FE5EB0BF40304F01FE52B
:1026B000B50CF40304F01FE5DB0CF40304F01FE594
:1026C000830CF40304F01FE5AF0BF40304F01FE5E3
:1026D000A141F40304F01FE50375F00304F01FE5C6
:1026E0007905F40304F01FE56542F40304F01FE5E7
:1026F0003D42F40304F01FE59438F40304F01FE5B1
:102700004708F40304F01FE5FB07F40304F01FE59A
:102710002108F40304F01FE5FB08F40304F01FE5AF
:10272000D907F40304F01FE50837F403AEADC50E76
:1027300001000000B42500A00002000055B754902D
:1027400004F01FE59F5FF00304F01FE51998F00304
:1027500004F01FE583ECF30304F01FE567ECF303DB
:1027600004F01FE5457EF00304F01FE5637EF003EF
:1027700004F01FE555ECF30304F01FE50FDBF00355
:1027800004F01FE559ABF00304F01FE5039CF003D0
:1027900004F01FE54D41F40304F01FE537ACF003EE
:1027A00004F01FE50BAAF00304F01FE5E43AF4037C
:1027B00004F01FE54B7EF00304F01FE5939FF00348
:1027C00004F01FE5558CF30304F01FE5E99CF303C7
:1027D00004F01FE595ABF00304F01FE541C5F003DD
:1027E00004F01FE541C3F00304F01FE5E58BF3039C
:1027F00004F01FE54BADF30304F01FE515ACF00347
:1028000004F01FE57B8CF30304F01FE5CDA1F0037A
:1028100004F01FE58532F00304F01FE5A533F00353
:1028200004F01FE55C39F40304F01FE5D764F103FD
:1028300004F01FE51F9EF30304F01FE54FA1F3030F
:1028400004F01FE5174DF20304F01FE50D80F003BF
:1028500004F01FE52580F00304F01FE5038CF3036B
:1028600004F01FE5CD8BF30304F01FE5976AF20334
:1028700004F01FE51970F20304F01FE51F6AF2036C
:1028800004F01FE5550BF30304F01FE5FD56F303B9
:1028900004F01FE54149F40304F01FE585A2F303AA
:1028A00004F01FE5D35BF20304F01FE59FA3F303DD
:1028B00004F01FE5970BF30304F01FE58B0BF30304
:1028C00004F01FE5650BF30304F01FE56DD9F20377
:1028D00004F01FE51D4FF20304F01FE543A4F303CA
:1028E00004F01FE5A119F00304F01FE5997AF00345
:1028F00004F01FE513EDF30304F01FE55BECF303B5
:1029000004F01FE5E7F0F30304F01FE533C5F3031C
:1029100004F01FE5D128F20304F01FE5BFB3F20372
:1029200004F01FE5DB24F10304F01FE50D4AF10379
:1029300004F01FE5C148F40304F01FE5E0FD3C6727
:1029400001000000B02700A000020000A15FEA2DF6
:102950000BB8F00304F01FE5C3ABF00304F01FE570
:1029600071CFF00304F01FE5F543F40304F01FE515
:1029700085B9F20304F01FE5ABB9F20304F01FE5DB
:10298000CB1BF30304F01FE51DF8F10304F01FE572
:10299000D3C0F20304F01FE57FBAF20304F01FE591
:1029A0001B69F10304F01FE595BAF20304F01FE57B
:1029B0009FC3F20304F01FE5DC37F40304F01FE5C6
:1029C0005DD1F10304F01FE5E5BCF20304F01FE55F
:1029D0008353F10304F01FE5F582F10304F01FE5D2
:1029E00079B5F10304F01FE535B5F20304F01FE5F6
:1029F0004927F20304F01FE50118F20304F01FE574
:102A0000A114F20304F01FE57543F20304F01FE57F
:102A10002553F20304F01FE54150F20304F01FE5D3
:102A2000EF39F10304F01FE5D9A5F20304F01FE527
:102A3000F797F20304F01FE5F187F20304F01FE5B6
:102A40009584F00304F01FE5EB86F00304F01FE526
:102A50002186F20304F01FE5BB6CF20304F01FE5CE
:102A600013AAF20304F01FE59F76F20304F01FE5BA
:102A70002D8CF20304F01FE54F89F20304F01FE5EB
:102A800011ACF20304F01FE5F38CF20304F01FE530
:102A90009DB3F20304F01FE5C5B9F20304F01FE58E
:102AA0000D8CF30304F01FE52384F00304F01FE50D
:102AB0007371F20304F01FE599C9F30304F01FE5F5
:102AC00005FEF20304F01FE50FA4F30304F01FE575
:102AD0007152F30304F01FE59913F30304F01FE5AB
:102AE00065D0F00304F01FE5412AF30304F01FE56D
:102AF0005B34F30304F01FE5B34DF30304F01FE56B
:102B0000AB48F30304F01FE59D5EF30304F01FE5FB
:102B1000B713F30304F01FE51D57F30304F01FE59B
:102B2000F384F30304F01FE5D79EF30304F01FE5DD
:102B3000159AF30304F01FE5539CF30304F01FE51B
:102B4000DFB6F20304F01FE573C4F303900E84F8BC
:102B500001000000AC2900A0000200006646E870F9
:102B600004F01FE587CBF30304F01FE555E1F30301
:102B700004F01FE565DEF30304F01FE573D4F303EF
:102B800004F01FE5CBC6F30304F01FE5DFC0F30339
:102B900004F01FE55BA3F30304F01FE575B5F20332
:102BA00004F01FE581DCF30304F01FE50DDDF30302
:102BB00004F01FE5A7E2F30304F01FE50B0AF3039B
:102BC00004F01FE5B9DDF30304F01FE5FFDAF303BA
:102BD00004F01FE509A4F30304F01FE50BE3F3037E
:102BE00004F01FE51FDBF00304F01FE56FBEF303E5
:102BF00004F01FE5054FF20304F01FE5C9ADF30330
:102C000004F01FE57BA4F30304F01FE545C4F303C0
:102C100004F01FE591B8F30304F01FE58FC0F30340
:102C200004F01FE5C9BEF30304F01FE521ACF30374
:102C300004F01FE5C7EBF30304F01FE5590BF303A2
:102C400004F01FE5DFA7F30304F01FE523CFF30330
:102C500004F01FE52BD8F30304F01FE599D2F3032A
:102C600004F01FE5C7D8F30304F01FE54DCDF303CF
:102C700004F01FE5BBC3F30304F01FE549E0F203D2
:102C800004F01FE53BA5F30304F01FE5D9D1F303DE
:102C900004F01FE5A5DEF20304F01FE535E0F203C2
:102CA00004F01FE5B1DEF20304F01FE517DFF203C5
:102CB00004F01FE521A1F30304F01FE531A1F303A4
:102CC00004F01FE553BAF30304F01FE5E7B2F30382
:102CD00004F01FE521B2F30304F01FE5CBB1F303C9
:102CE00004F01FE5D5B5F30304F01FE539A7F3039E
:102CF00004F01FE50923F10304F01FE52312F2039A
:102D000004F01FE5BF69F20304F01FE54134F1034D
:102D100004F01FE58169F20304F01FE5E111F203FD
:102D200004F01FE5293CF10304F01FE59F69F2035D
:102D300004F01FE52731F10304F01FE53FBCF10368
:102D400004F01FE5258BF10304F01FE5558CF1031A
:102D500004F01FE501C4F10304F01FE5B69C252D26
:102D600001000000A82B00A00002000092AE56CD8A
:102D70001B0FF20304F01FE547DEF10304F01FE52B
:102D8000170FF20304F01FE5210FF20304F01FE513
:102D9000FB0EF20304F01FE563BCF10304F01FE532
:102DA0004341F10304F01FE5E913F30304F01FE5C9
:102DB0000D69F10304F01FE5699DF20304F01FE5BE
:102DC000759AF20304F01FE5D97AF20304F01FE5C7
:102DD0002582F20304F01FE56770F20304F01FE59B
:102DE000296DF20304F01FE5BD7FF20304F01FE537
:102DF0003911F20304F01FE5DDA5F20304F01FE52D
:102E00003195F20304F01FE5A30BF30304F01FE573
:102E10000B0FF20304F01FE5110FF20304F01FE59E
:102E2000FD1BF30304F01FE50F6DF20304F01FE533
:102E3000CD5FF10304F01FE58F84F00304F01FE57C
:102E40003B97F30304F01FE54B8EF30304F01FE5FB
:102E5000EF9CF00304F01FE5C933F10304F01FE514
:102E6000FD36F10304F01FE5FDF3F10304F01FE567
:102E7000711BF20304F01FE51919F10304F01FE5BB
:102E80006581F10304F01FE5251CF20304F01FE542
:102E9000C546F20304F01FE5C971F20304F01FE513
:102EA0004D11F20304F01FE5259DF20304F01FE528
:102EB000A571F20304F01FE5A3A2F20304F01FE5DD
:102EC000E583F20304F01FE5398EF20304F01FE5F9
:102ED000578BF20304F01FE525C6F30304F01FE54A
:102EE000B5B7F30304F01FE5A9A1F30304F01FE550
:102EF0002380F30304F01FE511EFF10304F01FE555
:102F00003B85F00304F01FE5E784F00304F01FE5C0
:102F1000EDA3F00304F01FE59D8EF00304F01FE520
:102F2000E114F40304F01FE54519F40304F01FE570
:102F3000131DF40304F01FE5791AF40304F01FE5F0
:102F4000F71DF40304F01FE5FD1AF40304F01FE578
:102F5000EF9FF00304F01FE58D9AF00304F01FE5E6
:102F60009D9AF00304F01FE5639AF003C40442E65F
:102F700001000000A42D00A0000200008B5688BDB7
:102F800004F01FE5EB88F00304F01FE58513F4035C
:102F900004F01FE58D9BF00304F01FE5350FF403EB
:102FA00004F01FE57B11F40304F01FE5556BF003FB
:102FB00004F01FE5CB74F00304F01FE56B74F0031D
:102FC00004F01FE55D11F40304F01FE5E10EF403C6
:102FD00004F01FE56D6BF00304F01FE5EB74F003E4
:102FE00004F01FE5736FF00304F01FE5A76EF00314
:102FF00004F01FE5690EF40304F01FE5190FF40354
:1030000004F01FE5FF0EF40304F01FE55B75F00309
:1030100004F01FE5ED75F20304F01FE54780F003AF
:1030200004F01FE53C39F40304F01FE5EF96F003CC
:1030300004F01FE56575F00304F01FE5C83AF403DA
:1030400004F01FE5B742F40304F01FE55542F40312
:1030500004F01FE5DF15F20304F01FE5EDA6F00311
:1030600004F01FE5D999F00304F01FE5FBDEF3033C
:1030700004F01FE575DFF30304F01FE5BDB5F203AF
:1030800004F01FE50F9AF00304F01FE5319AF003F6
:1030900004F01FE5BD7EF00304F01FE5CF9AF003B6
:1030A00004F01FE5B79CF00304F01FE5BB9EF0039E
:1030B00004F01FE5C19DF00304F01FE56B9DF003D4
:1030C00004F01FE5459EF00304F01FE5019BF003AB
:1030D00004F01FE52B9CF00304F01FE51B99F0039F
:1030E00004F01FE59398F00304F01FE50D4AF00388
:1030F00004F01FE5AD35F00304F01FE5F5B5F2036C
:1031000004F01FE56571F20304F01FE55F92F2031E
:1031100004F01FE58186F00304F01FE54987F00302
:1031200004F01FE54733F20304F01FE5ED0600B09D
:1031300004F01FE5490700B004F01FE5290700B0BF
:1031400004F01FE5410900B004F01FE50D0900B0CF
:1031500004F01FE5F947F00304F01FE53743F403DB
:1031600004F01FE5FB42F40304F01FE57114F403BF
:1031700004F01FE56D19F40304F01FE5750C1C7DC8
:1031800001000000A02F00A0000200007FBE36005A
:10319000A98FF00304F01FE53394F00304F01FE55A
:1031A000BF92F00304F01FE5D58FF00304F01FE594
:1031B0008995F00304F01FE50780F00304F01FE594
:1031C000A817F00304F01FE5B70EF40370B5040070
:1031D00008000025E20704D0FFF7A0EA12491148D1
:1031E000086012480078012819D1200702D500F0A4
:1031F0001FF80500600602D5FFF794EA05002006D7
:1032000002D5FFF794EA0500A00502D500F06AF8A0
:1032100005006007800F02D0FFF78CEA0500280048
:1032200070BD00002D25010064B700046CB00004DF
:103230007FB525480078002843D1FFF780EA0022B7
:103240002248D2430021FFF77EEA214E1F22306040
:103250000189520308181F49000C009008681E4D90
:1032600090430F225203801808600A00A8692521A4
:10327000FFF76CEA686925216A46FFF768EA154A94
:10328000A8692621FFF762EA144A68692621FFF738
:103290005EEA134CE080306800892081FFF75AEA2B
:1032A00060814004000C0021A08121806180316890
:1032B0000A89019051180391A8692C2101AAFFF7EE
:1032C00046EA002004B070BD88B00004700C00B065
:1032D00078B00004500000B0AC0000B05C0000B05A
:1032E000B00100B0FEB50024334E344D272168698B
:1032F00001AAFFF72CEA0198641CC00701D0B44270
:10330000F4D32F4C2F4E2088002822D1306800277C
:10331000002803D02C490968884737602B48FFF7FD
:103320001EEA002830600FD001890A182849521E71
:1033300089788A1812781207120F22806780E78036
:1033400000894018A0800DE022490868401C0860F0
:1033500008E068692D216A46FFF7F8E9E0880099DE
:103360004018E080E1891C480429218902D1628942
:103370008918FFE7026811812188002913D00168AC
:1033800032680A60A088E288052380180DA709B971
:10339000010000009C3100A00002000001A591B0D6
:1033A0003268108168690122FFF7E6E96088401CF5
:1033B00060802088401E208005E000680189081890
:1033C0006189FFF7DEE90020FEBD0000FFFF00007D
:1033D000AC0000B0B00100B07CB0000484B00004C8
:1033E0003C0000B0680000B090B0000478B0000469
:1033F00070B504001A4D0020E20708D06868002864
:1034000002D1194A174810600800FFF7BEE91749B2
:10341000097801291AD1210704D515480078002818
:1034200015D00020610604D5124900200860FFF77E
:10343000B0E9210601D5FFF7B0E9E10501D500F0BB
:1034400071F86107890F01D0FFF7AAE970BDFFF796
:10345000ACE968680028E4D100F00EF8E1E700006C
:10346000AC0000B02D25010064B700046CB000046E
:1034700088B00004F80C00B07FB50022D2430021D0
:103480002048FFF76AE9204E204D30600189204A2C
:103490000818000C0090E8682521FFF762E9286908
:1034A00025216A46FFF75CE9194AE8682621FFF7FB
:1034B00058E9184A28692621FFF752E9164CE0809E
:1034C000306800892081FFF750E960814004000CDA
:1034D0000121A08121800021618031680A89019049
:1034E00051180391E8682C2101AAFFF73AE90B482B
:1034F000E1880088FFF7E0E80949C870002004B0BF
:1035000070BD0000700C00B074B00004AC0000B0DE
:10351000500000B05C0000B0A00100B06EB000042C
:10352000680000B0F8B50024534D544827210069C5
:103530006A46FFF716E90098641CC00701D0AC4248
:10354000F3D34F4D4F4E6888F1784F4F4F4C884220
:103550004BD12368242018816888E988B2784843D1
:10356000310080189880B078F21C80180278F378C7
:1035700012091B0712011B0F1A430270B0783200A8
:10358000093A80188278C37812021A43521C130A2F
:103590008370C2703A68130E0371130CA2057BE8A6
:1035A00001000000983300A000020000F54D2F0D2F
:1035B0004371130A8371C2712268081D9288121F19
:1035C0008A7122689288121F1212CA712268938827
:1035D000083B0B729388083B1B12437110898018BB
:1035E0008A78091DFFF7EEE821682E488A8800686E
:1035F0001123FFF7CCE800206880206002E02068FB
:10360000002819D12848FFF7E2E8042814D800223E
:103610002548D2430021FFF7AAE811212060C1808C
:1036200020300221C1702168242008810020688098
:10363000B0782430A88003E01C490868401C08606A
:10364000206800281AD01A49096808606888EA8842
:103650005043AA88801822681081E88904282889A4
:1036600002D16A898018FFE70881094801220069B0
:103670000423FFF78CE86888401C68800020E881FC
:103680003868401C38600020F8BD0000FFFF0000D3
:10369000AC0000B0A00100B0680000B0F80C00B0B1
:1036A00080B0000450000004700C00B08CB0000426
:1036B00074B00004002070470549012010B508705F
:1036C00000F03CF8FFF786E8012000F08DF810BD0F
:1036D000440000047047102010B500F0ADF810BD94
:1036E00010B50CF0EFFE10BD70B50500FFF776E8E1
:1036F000002803D100F02CF9002801D0012400E0BB
:103700000024002D02D0FFF76EE800E000202043E7
:1037100070BD0000042008B5FFF768E8002800909D
:1037200006D004490160044801686846FFF762E872
:1037300008BD0000EF1300005058F403F8B521480D
:103740004569681C3DD01020FFF750E80028009024
:1037500037D01D49002402C0FF220A21FEF7C6EF20
:1037600024E0E80720D0601E0D281DD8A000001915
:10377000083800D5002001001A314F2903DD4F2100
:103780000E2C00D03520009A091A121D41188C46C3
:1037900008E04607C108760F0127535CB740BB43DA
:1037A000401C53548445F4D86D08641CBE4E49EE49
:1037B00001000000943500A000020000ECB5F17D8E
:1037C000002DD8D10098001D00F036F8044801689B
:1037D0006846FFF71AE8F8BD440000040114000031
:1037E0005058F40310B5044C6070A170E2700120D1
:1037F0006360207010BD0000340E00B01CB50C4A90
:103800001178002912D09178D2786B461A705870CE
:103810000A0A9970DA700A0C1A71090E5971054C6E
:103820000300062120006A4600F030F81CBD0000AD
:10383000340E00B087FC0000020003480A21012377
:1038400010B500F023F810BD89FC00000D4A30B51A
:10385000040012880020C0210A4201D0012030BD9E
:10386000094D00210A224A435219137A022B02D130
:103870005288A242F2D3491C0904090C0229F1D34F
:1038800030BD00004EB00004A4A40004FFB581B018
:1038900006000D003C292CD82F0009373806000EF1
:1038A000FEF7B6EF040024D0208916490019016004
:1038B0000021017114492A00096841711149C7802A
:1038C000083078390160868085710399C01DFEF744
:1038D00084EF0E480022006821000123FEF760EF0C
:1038E0000498002803D100210120FEF796EF05B0CF
:1038F000F0BDB30512219B0DB20A0420FEF790EF34
:10390000F5E700000A1400005058F403E00D00B081
:10391000034810B5006800224B21FEF736EF10BDBA
:10392000E00D00B070B5064C258800F039F8054A66
:1039300020881388411BC918401A1180208070BD4F
:1039400004AA000406AA00040449054A497812782A
:103950000120914200D0002070470000000002A921
:10396000000002A9024800884007C00F704700000D
:103970004EB00004030000208B4201DA401E704765
:103980009342FCDD0120704710B580242000641CA8
:103990002404240C00F004F8BF2CF7D910BD00005B
:1039A000F8B5002406008038104B11490004000CC3
:1039B0001A5C0D880F4F52190A801C54341E1C903B
:1039C00001000000903700A000020000185D4FC009
:1039D00011E0A0003D58A8880005000DB04207D1B5
:1039E0001C3D2000FEF72AEF2800FEF72CEF02E036
:1039F000641C2406240E054800788442E9D3F8BDEF
:103A0000506A000404AA0004906A0004F8A90004A3
:103A100010B5C178827809020A4324381C21431862
:103A200001810849C1610321197107490968597168
:103A3000111D41840100054804230068FEF7BAEE19
:103A400010BD00000B1400004C58F403E00D00B052
:103A50000A4930B40978002903D0094909880029A6
:103A600003D00849096830BC0847074A074C117859
:103A70008B00491CE050117030BC7047F7A900045E
:103A800004AA00040CAA0004F8A90004906A000427
:103A900070B504000D0000200DF0C6FE052D19D1F3
:103AA000E188A088091D0A04104900050978000D65
:103AB000120C002912D0010080393F290ED80C4B7E
:103AC0001988491E19800B49081880380178491C4B
:103AD000017003E0E088001F0204120C0648210078
:103AE00000681C392B00FEF766EE70BDF7A90004D4
:103AF00004AA0004506A00045400000400060016E2
:103B000010B512F0ABFC0020FFF782FE10BD0000E4
:103B100070B5060010781400E02886B004D12000AB
:103B20000DF0DCFE050000E011250021481EFEF727
:103B30008EEE2279E178A07803AB07C33300627878
:103B400021780191FF21029221310E2002A20095DD
:103B5000FEF780EE06B070BD526862626262626219
:103B60000000000007484178002909D1064909688A
:103B7000012209024270090F02002832515C817053
:103B800080787047700B00B000200080F1B50020F5
:103B90000C490E680C4F340005000AE0E10706D01E
:103BA000A9007A58002A02D0009930009047640892
:103BB0006D1C002CF2D1012803D000990020FEF7E3
:103BC00042EDF8BD009100A8D80A0300D133E5EA20
:103BD000010000008C3900A000020000DF444D9D70
:103BE00003488168012292041143816070470000FC
:103BF000009000A8F8B5012400253D4FB88800903A
:103C000072E03C49E000411808784E78420660D5E1
:103C100003003F3BFEF72CEE0A6B1E1E06130A0D37
:103C20001C181C1F641C2404240C5DE08878386177
:103C3000F8E78878C978090201437981F2E72E48CC
:103C40002022FEF7DEED03E088787870C878B8703F
:103C5000301947E0891C49281CD07F281AD0488891
:103C6000000B01D0088815E008780200AF3A072A57
:103C700001D9BF280ED10A7AD303034310091B04CC
:103C800000011B0C00021843B22803D1497A09072E
:103C9000090D0843184A002120320BE006234B434C
:103CA000D35A834203D16D1E2D062D0E04E0491C0C
:103CB0000906090EA942F1D3062359435052881828
:103CC00044804671301904046D1C240C2D062D0E01
:103CD0000AE0022801D1897839700121002800D03A
:103CE000310008190404240C0098844289D3F8BDDB
:103CF000001B00C0401D00C0402700C010B50400DC
:103D00001248134A016812680120904700281AD00F
:103D10000122102C06D20F488168A2401143816015
:103D2000006907E00B484030416A103CA240114353
:103D30004162C06AE0400849C4070968E40F0120F5
:103D40008847200010BDFF2010BD000088A9000496
:103D500090A900040002009094A900040849401EA4
:103D60008978414307480079081806490839497895
:103D7000401829300006000E442800D34320704725
:103D8000E4A90004340D00B0F8B50C0000270600CB
:103D90001500401E00971528177034D81C20FEF718
:103DA00044ED002800902CD0184901602178017260
:103DB000C90747721CD0012E1AD9072E13D3617977
:103DC000102910D8A27861781202114381802279DB
:103DD000E17812021143C1806279427203897AB894
:103DE00001000000883B00A0000200002BACF32083
:103DF000A11D0A30FEF70EED04E01220287068467F
:103E0000FEF744ED2878002804D10648016868468A
:103E1000FEF718EDF8BD072000E012202870F8BD6D
:103E20000E1400004C58F403F0B506000C001F00FF
:103E3000002585B001F0A8FE002804D0012816D086
:103E4000022814D10C25032E03D1A17860782A0012
:103E500002E01522002128000291019003922278AD
:103E600000920021FF205B2304A2FEF708ED002052
:103E700038700A98057005B0F0BD000056626262A5
:103E80006262000070B588B00C9D0C0012260428F8
:103E900020D100206B46D88361782078090208433E
:103EA0001883E178A0780902084358830E481C2142
:103EB000006806AAFEF786EC002800D02E702A784B
:103EC000E178A07802AB07C362782178019207A25B
:103ED000009102E02E7007A200960021FF206923C6
:103EE000FEF7CCEC08B070BD54000004566262626C
:103EF0006262620056626200F3B50C0081B0344F1A
:103F00007878002804D02079FF2801D012F058FAE0
:103F100021793048FF29017109D17878002804D02F
:103F200012F04EFA012012F07FF90020FEBD217838
:103F3000017061784170A1788170E178C170217958
:103F4000017161794171A1798171E179C171217A40
:103F500001720091657A4572E17AA67A09020E43F0
:103F60004681217B0173019912290CD3A27B617BCD
:103F700012021143E27B237C12041B061A431143F5
:103F80000161617C02E00021016104210175114899
:103F9000019915301C2905D321000A221231FEF7A0
:103FA0003AEC03E0FF220A21FEF7C8EB002E07D00F
:103FB00009496800085A864202D800980E2801D99B
:103FC0001220FEBDE806C00FB87012F0C5F9ACE7CC
:103FD000240E00B0089B00B03C5BF403FEB5382310
:103FE0004343564C8E7A1C19CB7A4D7AF47FF815E0
:103FF00001000000843D00A00002000032542D505A
:104000001B021E430B7A2D022B430193E37C257C7C
:10401000042B01D3002D7CD10B795700022B05D046
:10402000032B37D0062B5CD100205BE07D22010002
:104030005201012001F04AFD00210220617400902C
:1040400001980825112806D0132804D0192870D10A
:1040500001250095A174207C002804D1382120007E
:10406000FEF75AEB0FE000208100625A002A05D1CA
:1040700009194988002901D1207504E0401C000677
:10408000000E0428F0D3207D81000819C653257442
:1040900000984BE0207D800003190120002A00D009
:1040A00000204000185AB04241D10220012D05D114
:1040B0000122207462740022A27404E0082D02D14F
:1040C000092323746074087B002805D1487B0028ED
:1040D00002D1E07C401CE074207D0199820010191F
:1040E000C15324E081000B19D95BB14212D10121E7
:1040F000002A00D000214900595A019B994209D158
:104100008200111900220A804A80E17C491EE17474
:1041100005E016E0401C0006000E0428E2D300284B
:1041200005D1082D05D0092D03D020746074002D11
:1041300008D0207C002805D10DF0CEFC00200DF029
:10414000D7FCFEBD607C0128FBD10DF0C5FCFEBD97
:104150004C0500041CB500200B49019000900400A0
:10416000087020006A4601A900F064F8002801D018
:1041700000F04EF8641C2404240C082CF1D30099A0
:1041800001980DF0C1FC1CBD84000004F1B500993C
:104190008A884E7B1005000D05000B2822D2920B59
:1041A00000D00020164AC3009C182279002A19D09A
:1041B000E5808A888968120B002300F093FC002EAA
:1041C00002D16079401C60710E480078012805D04A
:1041D0000D4801686846FEF740EBF8BD0098FEF711
:1041E00064EBF8BD88680949096888476846FEF7A6
:1041F00058EB002EF5D10121280009F0200C795B45
:1042000001000000803F00A000020000C6BC93ED4A
:10421000C7FBF8BDF8690004F4A90004B85BF40317
:10422000C8B30004064810B50178002907D1012160
:1042300001707D2003490022C000FEF744EB10BD51
:1042400084000004F3130000F8B50D000021009174
:104250003821160041431A4A8C18002110F0A0FBA7
:1042600000282AD0607DC11C8A07411C80000019EB
:1042700083698907920F890F002B0AD1876A002F63
:1042800007D1920012199769002F02D1926A002A71
:1042900001D001220092002D08D0002E06D02A68FD
:1042A000D2182A603268806A1018306000228800B4
:1042B000001982618262A27561750098F8BD0000E4
:1042C0004C05000438B504000089011900910A7AF0
:1042D000052A0CD0082A01D0142A0CD1C87A097BEF
:1042E00009020843002100F059F8002803D068466D
:1042F000FEF7E0EA38BD07490868002802D10C60E3
:1043000038BD080001680029FBD10460002020604E
:1043100038BD0000400D00B00FB410B50A486B4620
:10432000197B01715A7B002A09D0198901805989AA
:10433000418003A94271891C801DFEF780EA10BCF0
:1043400008BC04B018470000440D00B070B5114D12
:10435000286800281DD0281D0079C00719D00E4EEE
:104360002968C8880C68022805D12520425C30687D
:10437000921C022308E00889052340188278C0783F
:10438000000202433068121DFEF73CEA002C2C604C
:10439000E6D170BD400D00B054000004F7B582B006
:1043A000050000272F480468260053E0E188208993
:1043B00002292FD1049A0019002A01900BD0037B07
:1043C000C27A1B021A43037A0498834240D1954271
:1043D0003ED1012729E0027A032A06D01B2A0AD1FE
:1043E000827AC07A0002024302E0C27A007BF9E7D7
:1043F00095422DD119E0122A0AD0202A28D10A305C
:1044000003990622FDF7FAFD002821D166DE8F68A8
:10441000010000007C4100A00002000023EBCEEA76
:10442000E1880AE00B30F5E70019027840780002D5
:1044300002431005000DA84214D1002912D00E4BE2
:1044400020001A689442226801D11A6000E03260AC
:104450002468022903D101A8FEF736EA04E010F02F
:10446000F1FC01E026002468002C01D0002FA7D029
:10447000380005B0F0BD0000400D00B038B50C00AC
:10448000032812D10820FEF7F8E9094900900160DD
:1044900021780171A278617812021143C180054828
:1044A00001686846FEF7ECE938BD1220107038BD8F
:1044B000FD0C0000B45BF40338B50C0002280FD1EA
:1044C0000820FEF7DAE908490090016021780171BF
:1044D00061784171054801686846FEF7D2E938BD48
:1044E0001220107038BD0000F40C0000B45BF4031F
:1044F0003EB50C000C2810D10422210002A8FEF7C2
:10450000A8E90822211D6846FEF7A2E902A800F0EA
:10451000EBFE684600F000FF3EBD122010703EBD6D
:1045200012230128137004D1087802490870002072
:10453000107070479209030010B50400FEF7D0E92F
:104540000A21614308186038C07C012800D000208F
:1045500010BD000010B504000021481E86B0FEF713
:10456000A8E920222100283102920492039122001E
:104570000021083200913921019249013E2008238F
:1045800003A2FEF79AE90448FEF7AEE906B010BDB3
:1045900062626D6D000000003E0800003EB5002123
:1045A0000400481EFEF784E92022A11D00206B466E
:1045B00007C3392149013E20092303A2FEF77CE904
:1045C0000248FEF792E93EBD62626D003E090000BE
:1045D00038B50C000D78497809020D43290080395F
:1045E0003F2907D82200104B01001C680D480F4BD3
:1045F000A04738BD0820FEF740E9FF217E3100903A
:1046000001608580A1788171A078290001F022F9EC
:10461000074801686846FEF734E9290044470FACB3
:1046200001000000784300A000020000D70370578B
:104630000120FEF748E938BD75FC000024AB0004FA
:104640003C6B0004B45BF403F7B53823009858437F
:104650001F4BC518C8788B7800020343287C0128BB
:1046600007D0022805D0082801D0092803D1022448
:1046700002E0012400E000240120002A00D00020F4
:104680004600A85B984206D1012C6C7402D101202F
:104690000DF040FAFEBD012081004919895B994265
:1046A0000FD1012C6C74F5D10220002A00D1012019
:1046B000A8740CF09DF9A97C009A20000CF06AFA0D
:1046C000FEBD401C0006000E0428E5D3FEBD000020
:1046D0004C050004F0B5482085B0FEF7D8E839490C
:1046E000029009681522C01DFEF7BCE8029800255B
:1046F000817D467D0902027E0E43C17D1202114377
:104700000191417E0091C17E877E09020F433F21C6
:10471000C41D81710520A073E57325746574A574AB
:10472000E07425756575A5753C20E5752076657680
:10473000A076E5767D2025776077A577E57720342C
:1047400025706070A5700020E57000F0D7FC207126
:104750006571A571E5710020257200F0CFFC6072D3
:10476000A572E572257308206573A073E573207444
:10477000657401990806800F039000F0CDFCA074C9
:10478000039800F0C9FCE074257501206575A075DB
:10479000E075102020766076300AA676E076380A3A
:1047A000277760770099A1770298074A817911707D
:1047B0000449C01D0860FEF7A6E802A8FEF78EE8CF
:1047C00005B0F0BDB0AA000470AA0004F0B5442002
:1047D00085B0FEF75CE83949029009681122C01DD6
:1047E000FEF740E802980025817C467C0902027DA4
:1047F0000E43C17C120211430191417D0091C17DA4
:10480000877D09020F433B21C41D81710520A072E1
:10481000E57225736573A573E07325746574A574DB
:104820003C20E57420756575A075E57553EC958D94
:1048300001000000744500A000020000CEFBAE277E
:104840007D2025766076A576E57625776077A57755
:104850000020E57700F05CFC203420706570A570C6
:10486000E5700020257100F053FC6071A571E571C1
:10487000257208206572A072E57220736573019934
:104880000806800F039000F051FCA073039800F01D
:104890004DFCE073257401206574A074E074102051
:1048A00020756075300AA675E075380A277660763F
:1048B0000099A1760298074A817911700449C01DB8
:1048C0000860FEF72EE802A8FEF712E805B0F0BD7A
:1048D000B0AA000470AA000410B50400FEF714E8A2
:1048E00000210A224A4312185279002A03D00A00F2
:1048F0000832A24204D1491C0904090C0329F0D34F
:1049000008310804000C10BDF8B500240600154F4E
:1049100025000021280010F061F800281AD0002E90
:1049200003D1641C2406240E14E0012E08D1382083
:104930006843C019007C0128F3D00228F1D009E0B7
:10494000022E07D138206843C019007C0828E8D01F
:104950000928E6D06D1C2D042D0C082DD9D320007C
:10496000F8BD00004C050004002010B5FFF7CCFF97
:1049700010BD000070B50125134C060063782A00B5
:10498000002B00D00022A0782900002800D00021B0
:104990008A4203D1802B01D0607070BD002804D101
:1049A000002E02D12178002902D100F0EBF970BD70
:1049B000E0780028FBD10022012004490003130005
:1049C000E570FDF7B2EF70BD440000040414000070
:1049D00038B504000820FDF764EF0028009007D0E8
:1049E000044901600471044801686846FDF75CEF02
:1049F00038BD0000031400004C58F40310B5040047
:104A0000FDF796EFFE20002C00D10120FFF7E0FF1C
:104A100010BD000001000839022904D803494000F4
:104A2000085C012800D00020704700006E7100046F
:104A300038B50D00154C402822D148204E6C2B343F
:104A400001000000704700A0000200003A13109A15
:104A5000FDF730EF13490090016000218180202292
:104A600046210A542900801DFDF710EF00982022EE
:104A7000A9182630FDF70AEF00210120FDF736EFD7
:104A800021880020FDF762EF074801686846FDF7BE
:104A900016EF38BD21881220FDF758EF38BD000011
:104AA00090AA0004A70F00003058F403082008B5AE
:104AB000FDF700EF094900900160002181808171BC
:104AC0000120FDF714EF064801880020FDF73EEFB6
:104AD000044801686846FDF7F2EE08BDA50F000026
:104AE00090AA00043058F40310B50400FDF716EF47
:104AF0000A21614308186038407D002800D0012059
:104B000010BD00007CB504000820FDF7D4EE0C4970
:104B100000900160002584800A4E857131686846E6
:104B2000FDF7CCEE0820FDF7C6EE05490190491CC3
:104B3000016084808571316801A8FDF7C0EE7CBDFD
:104B40009E1300004C58F403FFB583B005000828FD
:104B50005CD238236B432E4892071C18677CA07CDC
:104B6000029048780E780002CB78064388781B02C2
:104B70001843920F012A49D0069A012803D0280031
:104B8000FFF776FD02E02800FFF764FA607C2A0058
:104B900031000BF0F5FF06980028607D05D08000FD
:104BA0000019816A8919816204E080000019816915
:104BB00089198161FFF75EFB607CB84208D100284B
:104BC00024D0012822D16B46A17C1A7A91421DD0B3
:104BD000012801D1012600E000260127022800D08B
:104BE00000270C20FDF766EE0A49019001608580E0
:104BF0008671A17C0172C7710748016801A8FDF7A1
:104C00005EEEA17C607C2A000BF0D8FF07B0F0BDFF
:104C10004C050004120D0000BC5BF40338B5030022
:104C200048781500742A03D10C780002044303E08D
:104C30008A78120210430400200080383F280AD8E6
:104C40003F222800920210430A001900DAB25A43A8
:104C5000010000006C4900A000020000FD0A12C71C
:104C60000D4B1C680023A04738BD0820FDF72CEE33
:104C7000FF217C31009001600121742D848000D1DE
:104C800000218171054801686846FDF722EE210088
:104C90000120FDF736EE38BD24AB0004B45BF4030D
:104CA00070B5040008281CD2002211002000FFF774
:104CB000FDFAFFF76DFE00280CD10A4D2878002878
:104CC00008D009480021FDF750EE002001002870AF
:104CD0000CF056FF38206043044940183821FDF796
:104CE00058ED70BD84000004F31300004C0500046F
:104CF00071B581B0019A274E908894680B2839D2FB
:104D0000254983001B1859188B78002B32D0FF23BC
:104D1000F73300921360009A2389D3800A79521CDA
:104D20000A711E490978012905D01D4801686846A5
:104D3000FDF7CEED1BE021891C230D1958431949BD
:104D400040181949407909688847009AA978D180A4
:104D5000AA78E91CFDF7A4ED0098FDF70AEE200003
:104D6000FDF7CAED306900221421FDF772ED002035
:104D700001907CBD2000FDF7C0ED306900221421B8
:104D8000FDF766ED01980028F3D001A8FDF7C4ED0A
:104D90007CBD000044000004C06A0004F4A90004C3
:104DA000B85BF40310820004D8B3000438B50400E3
:104DB0000AF032F90820FDF788ED08490090002C30
:104DC000016001D0002100E001210171044844701C
:104DD000044801686846FDF77CED38BDCE0C000044
:104DE00044000004C05BF40338B50C000D7849782A
:104DF00009020D43290080393F2907D822000F4BB3
:104E000001001C680C480E4BA04738BD0820FDF778
:104E10005CEDFF218031009001608580A178817177
:104E2000E178C171074801686846FDF752ED290035
:104E30000120FDF766ED38BDE9FC000024AB00045D
:104E40003C6B0004B45BF403026801231104090CF9
:104E50009B07491C1A4011430A009A434C01F7F57D
:104E600001000000684B00A00002000009E2AC7ADB
:104E7000082A01D359401940016070471CB500242D
:104E8000E44307480122032101AB0094FDF77EEDC6
:104E900001980028F5D00128F3D110F063FCF0E769
:104EA0002CB400B001000348002210B5FDF772EDEC
:104EB00010BD00002CB400B070B50AF0BFFD0A4868
:104EC000002200680D21FDF7CEEC084D2C6804E0AF
:104ED0006068002800D080472468002CF8D10CF0CE
:104EE000CFFD0AF0A3FDF1E74C00000488000004A8
:104EF000134810B501680800FF306130C2880323F1
:104F00001B039A43C280C28801231B031A43C28039
:104F10001622CA840B4ACA870188402211430180A5
:104F200009480078012802D100200EF0A9FD0749A8
:104F300048680A0C904348600EF066FE10BD000001
:104F400000AF0004408000002C0D00B04023008022
:104F5000F7B51300140415003E4E0700240C366804
:104F6000010082B0039A30A0B04703993800FDF7E2
:104F700026EC002955D10398854234DD0399280099
:104F8000FDF70CED681A334E04043268240C21003E
:104F900031A0904723E003992000FDF710EC002991
:104FA00019D1002F3DD02B4E009736682B00039A65
:104FB000210033A0B047BC4205D939002000FDF7DD
:104FC000FEEB00292DD0BC4205D821003800FDF7AA
:104FD000F6EB002925D00398201A0404240C03982A
:104FE0008442D8D21DE01B4A00261268290034A052
:104FF000904710E0174B019A1B6839003AA0984778
:1050000001993800FDF7DAEB002901D1019C08E095
:10501000B61C3604360CA81B0004000C06280190B0
:10502000E8D2200005B0F0BD756954736E696666FC
:105030002025642C207569546573636F2025642CCA
:1050400020756954617267657454736E6966662071
:1050500025640A00D8A900044361736520313A2011
:10506000496E697469616C2075694E65DCCFC3D87F
:1050700001000000644D00A000020000101A720A36
:105080007754617267657454736E696666203D205B
:1050900025640A0075694E657754617267657454BA
:1050A000736E696666202564207569546573636F45
:1050B00020256420756954617267657454736E6944
:1050C000666620256420756954736E6966662025BE
:1050D000640A00004361736520323A20496E6974A6
:1050E00069616C20756954617267657454736E6987
:1050F0006666203D2025640A000000004361736558
:1051000020323A20756954736E69666620256420E2
:105110007544697669736F72202564203D2025648B
:105120000A000000F8B506000F00FDF746EC050088
:105130000C20FDF7DEEB8821714300904D19E91D2D
:10514000062280C0FDF7C0EB0099287D88720348D5
:1051500001686846FDF7D0EBF8BD000070AC0004B4
:10516000002807D0012803D0022805D0032800D04A
:10517000002070470220704701207047002807D0A8
:10518000012807D0022807D0032807D10420704740
:1051900001207047022070470320704700207047AD
:1051A000FEB5FDF70EEC05008007800FFFF7D8FF76
:1051B0000D490C4E0190096830008847012801D044
:1051C000012400E0002409497D270968BF0130005F
:1051D0008847074B009021001C683A0001982B007B
:1051E000A047FEBDFFFF000028B5000424B5000461
:1051F00034B500040C235843014940180089704716
:10520000F89800B0F8B506000020FDF7DEEB0F4F70
:105210000500396C0024884203D00D48C562FDF7B3
:10522000D8EB082E3D640CD0102E06D0FDF7D0EB45
:105230000406FDF7CEEB00040443FDF7CAEB0002C1
:105240000443FDF7C6EB2043F8BD000080090300CE
:1052500080AC000438B504002AD016481C234088CE
:105260001549584340180079A04221D113480078CD
:1052700000281DD012490120C873FDF799454F81C0
:1052800001000000604F00A000020000E4F2CCB773
:10529000AEEB1149600009684018018D02221143EC
:1052A0000185FDF7A8EBD1252D0121002800FDF790
:1052B000A6EB0A482900026800922200042000237D
:1052C000FDF7A0EB38BD0000E0AC00041082000444
:1052D0004CAF000480090300B0AE0004C05BF403CF
:1052E0001C235843134910B540180079124C00286C
:1052F00009D1E17E1148FDF78AEB1048E17F0838BB
:10530000FDF784EB10BD0D48617F001FFDF77EEBBC
:105310000320FDF780EB0028F4D1094800680188DC
:105320004908490001800748006801884908490088
:10533000018010BD108200044083000404AD00040D
:10534000ACAE000498AE0004F8B505000E001700DE
:10535000FDF73CEB882169430C182034A07C012820
:1053600006D13A0031002800FDF758EB0020A07468
:10537000F8BD000001784278C907D206C90F920E25
:1053800011438278C078D207D20DC0061143800C39
:10539000014303480068FF30FF30801CC183704721
:1053A00000AF00040178CA074178D20FC906890E00
:1053B0000A438178C906490D0A43C178C9020A43E4
:1053C0000A490B681121490159180A800279437969
:1053D000D207DB06D20F9B0E1A438379C079DB0616
:1053E0005B0D1A43C00202434A80704700AF0004BD
:1053F0000249C88002490880704700002C0D00B0A7
:1054000098AD00040849C97900290BD00749FF224B
:105410000968521C40310028888801D0104300E000
:10542000904388807047000040660004E0AE0004AE
:10543000F8B50C00070015001E00FDF7F4EA742112
:10544000794308184030818A2180418B2980C08BA4
:105450003080F8BD10B50400FDF7E4EA7421614323
:10546000425C002A06D0081840300079032801D198
:10547000012010BD002010BD10B50400FDF7D2EAD8
:1054800074216143425C002A04D008184AB1929A00
:10549000010000005C5100A0000200009AE96B07C7
:1054A00040300079012800D0002010BD10B5040064
:1054B000FDF7C2EA742161430818407810BD00006E
:1054C000F3B5040083B02F4D687901283FD12E4BEE
:1054D00000201A68C100565A3607360F0A2E04D12A
:1054E000565A36093601761C5652401C0004000CF0
:1054F0000E28EED3AE8901204002864201D9060073
:1055000002E0402E00D240260020FDF772EA07009C
:105510001020FFF78BFE3100FDF76EE97818860149
:105520001A48B609EE640068008FC107184800D019
:1055300001210174017C0172AA89E989019200911B
:105540002B7C144D01222D6831000C20A8471248F5
:105550000078002813D00820FDF7DEE9FF215C3138
:10556000029001602178017161784171A1788171A7
:105570000499C1710948016802A8FDF7D2E905B094
:10558000F0BD000004A10004A4AE000400AF0004BC
:1055900044A10004CCB5000438AD000470AC000494
:1055A00010B504000020FDF74CEAFF2119316143DA
:1055B0000818817C002901D00D2905D140300078E0
:1055C000002803D0092801D0012010BD002010BD03
:1055D000042008B5FDF7A0E90449009001600448E3
:1055E00001686846FDF79CE908BD0000A40F0000B3
:1055F0003058F40370B51A4C607D00282BD0200081
:105600002030027817481849007809780843002AA2
:105610000ED0002803D115480078012803D9302086
:105620002075102002E03C2020750420E07470BD3D
:105630002025002801D0257501E02D20207510F0CF
:1056400071F9002805D00CF025FB002801D1E57484
:1056500070BD0C20EAE700202076607670BD000067
:10566000800903004BAF00044CAF000444B00004B9
:10567000F8B506000F4800250068408F0E4C000664
:10568000070F318A607DFDF7E0E900280BD0308AF2
:105690000A49085C052806D109483A00F08E3E46C2
:1056A00001000000585300A0000200006E01D5BAAE
:1056B000C17B300000F0ACF805000021002D00D1C6
:1056C000217E28002176F8BD00AF00048009030088
:1056D00098AF000470A00004F1B5002501264949E7
:1056E0000D76484F3100787DFDF7B8E900283BD0B2
:1056F0004821714344480C182000FDF7B4E93800F4
:10570000407E012830D03800203000783100FDF78D
:10571000A6E9218A3D4A515C052917D05737002850
:1057200000D1083FFDF7A2E92821714340184078D5
:1057300021002031385C0A000875A17E00290BD0B9
:105740000A210A2800D90100117505E03C21002832
:1057500000D12D21342001553420015D2948027EDD
:1057600089180176007DA085761C3604360C072E3C
:10577000B7D9244F787E012806D0387E3900401EE4
:105780000006000E387609D1F87C801C06060098C9
:10579000360E8019B8630220787602E000260120D8
:1057A00048760124787D2100FDF758E900281CD0B7
:1057B00048216143144808180021C1767A7E012AE5
:1057C00008D1002D00D105000E4A48321219203AA6
:1057D000D17703E00121342211548185A84204D0FD
:1057E000009905228919FDF746E9641C2404240C5C
:1057F000072CD7D9002D04D0009905222800FDF7E9
:105800003AE9F8BD800903005099000498AF0004FC
:1058100070B504001E4D10000026002909D000F0CC
:105820003BF9002801D1012607E0218A00204855D4
:1058300003E0208A415D491C4155200000F000F939
:1058400013494739002804D0207E627E897D801864
:1058500011E0208A1C2358430E4A0C2380188078BC
:105860000D4A5843126880188088142807D2207E79
:10587000627EC97D80184843C005000E00E02D20DF
:10588000218A495D814200D90126300070BD0000A7
:10589000C70903001082000414AF000401218140F5
:1058A0000248427811434170704700007F18AAF601
:1058B00001000000545500A00002000077F90BCA57
:1058C000A009030070B504000C4E008A01252A00CF
:1058D000B1788240114203D0FDF7DAE8607600E04B
:1058E0006576208A2900727881402B000A4203D015
:1058F000FDF7D2E8207670BD237670BD10A40004B9
:1059000070B50D001400012A07D9401B0019401E74
:105910002100FDF776E84443601970BD0122054B74
:105920008A40597C002802D00A435A747047914338
:105930005974704780090300F7B54823050010002B
:105940005A432549521814009646244A20341778A1
:1059500094460F22D2018E182149B37E0A5C0121A0
:105960008140002D1DD00B43B3761C2301254343FA
:105970001C4D5B199D781C4B1B681B880126AE4093
:10598000334202D13943634619701549012A1BD0AD
:10599000019A022A01D1052200E004220A540021C2
:1059A0000BE08B438F43B3760D4B6146042A0F7097
:1059B00001D0052A08D10021195472469185074A61
:1059C0002175203A117651760549095C02F07AFE7C
:1059D000064800688047FEBD50990004A0090300F6
:1059E00098AF00041082000498AE0004E8B50004EB
:1059F00010B50C00002814D02000FDF752E8002854
:105A00000FD01C206043074940180079002808D1B6
:105A10000548005D002804D1012212212000FDF775
:105A200044E810BD1082000498AF000400B5008A5D
:105A3000FFF708FC904201D9012000BD002000BD05
:105A40000100034810B50079FDF712E810BD000011
:105A5000A00903000100897E0120002900D0002058
:105A60007047000002484078002800D001207047AD
:105A7000A0090300014949780840704710A40004B8
:105A80000300084800B50078FFF7F4FF002806D0AF
:105A9000998A0720072900D20800988200BD024891
:105AA0000088FAE7A009030046B000040121814004
:105AB0000348014201D00120704700204438E7BD6F
:105AC00001000000505700A0000200008311B577CC
:105AD0007047000018CF0000012282400248417840
