:10000000010000000000080000020000DD07D1C868
:1000100000000900910308000B050800A304080074
:10002000A5040800A7040800A904080000000000B7
:1000300000000000000000000000000059DC040087
:100040000F0508000000000059DC0400B904080096
:10005000C7040800D9040800EB040800AB0408003A
:10006000AB040800AB040800AB040800AB040800B4
:10007000AB040800AB040800A3040800AB040800AC
:10008000AB040800A3040800A3040800A3040800AC
:10009000A3040800A3040800AB040800AB04080094
:1000A000A3040800A3040800A3040800AB0408008C
:1000B000A3040800A3040800A3040800A304080084
:1000C000A3040800A3040800A3040800A304080074
:1000D00000F002F800F02CF80AA090E8000C82442E
:1000E0008344AAF10107DA4501D100F021F8AFF20B
:1000F000090EBAE80F0013F0010F18BFFB1A43F006
:100100000103184734E7000084E7000000230024BF
:1001100000250026103A28BF78C1FBD8520728BF17
:1001200030C148BF0B6070471FB51FBD10B510BD73
:1001300000F032FA1146FFF7F7FF0DF0EFFC00F088
:1001400050FA03B4FFF7F2FF03BC00F055FA0000C9
:100150004749464808604849464808604849474872
:1001600008604949474808604949484808604A4981
:10017000484808604A49494808604B49494808606E
:100180004B494A4808604C494A48086070474C4906
:100190004A4808604C494B4808604D494B48086044
:1001A0004D494C4808604E494C4808604E494D48FE
:1001B00008604F494D4808604F494E480860504913
:1001C0004E48086050494F48086051494F48086000
:1001D000704717F0D1BD10B5FFF7BAFFFFF7D7FF93
:1001E00014F0A7FC17F0C8FD15F002FD002010BDAB
:1001F00038B5484C484B494A20680090484949481E
:1002000083F768FA20680090474B484A6D33E495BD
:1002100001000000FC0108000002000019D20EE3FA
:100220004849494883F760FA38BD4848484910B5FD
:100230006FF30F000860484946480860484947483E
:1002400008604949474808604949484808604A49A0
:10025000484808604A49494808604B49494808608D
:100260004B494A4808604C494A4808604C494B4849
:10027000086015F099FD4C494A48086010BD00001F
:10028000E55B0900AC380C00135C0900B0380C00C9
:10029000195C0900B4380C003B5C0900B8380C004C
:1002A000415C0900C8380C005D5C0900CC380C00CA
:1002B000A75C0900BC380C00C35C0900C0380C0006
:1002C000835C0900D0380C00955C0900C4380C0030
:1002D000234F0900FC380C003B4F090000390C008B
:1002E0005B4F090004390C00794F0900F8380C0005
:1002F000018C0900F0380C00A54F0900F4380C00FF
:10030000854F0900DC380C00934F0900D8380C00E9
:100310006D4E0900A83D0C00AD4F0900A43D0C0036
:10032000C14F0900A03D0C00F07D00B0502900B085
:10033000B4DC090000DA0900F4D90900B04A00B0C1
:10034000D4DC090014DA090008DA0900000000B062
:10035000AC2D0C00615D0900D8360C00675D09000A
:10036000DC360C001D5D0900E0360C0071560900FA
:10037000F8310C002B570900FC310C00D350090058
:1003800060390C005B1908009C310C00B350090067
:10039000F0310C00C3500900F4310C00E1500900A9
:1003A000AC310C00E4DC0900D02A0C00B0FA80F07B
:1003B000704700004FF000004FF000014FF00002C6
:1003C0004FF000034FF000044FF000054FF000061F
:1003D0004FF000074FF000084FF000094FF0000AFF
:1003E0004FF0000B4FF0000C4FF0000EDFF894F0D0
:1003F0004FF0E0202449C0F8081D2448224909682C
:1004000001604FF0E0204FF00001C0F8181D4FF0E0
:100410007F41C0F81C1D1E49C0F8201D1B2918B1C2
:1004200001000000F803080000020000ED3AB05E91
:10043000D0F8241D41F4E021C0F8241D70471A486B
:100440001A49194A1A4B70471A481B4901601B4840
:100450004FF0000101604FF0000686F309884FF06D
:10046000000686F308884FF0000080F3038880F3CD
:10047000108880F3138880F3118880F314884FF07C
:10048000000213689D4602F10402136803F10C0395
:100490000B480C490C4A1847C1000800000008002E
:1004A000642E0C000000FF4000FC08000000090062
:1004B00000FC08000CED00E00200FA0508ED00E089
:1004C00014AF209348E70F199404080001A19AB1D2
:1004D00001000000A0040800E7A4FEE7FEE7FEE735
:1004E000FEE700B5CDF7F0FA00F0C4F8CDF7CABAD0
:1004F00000B5CDF7E9FACDF747FDCDF7C3BA00B5A2
:10050000CDF7E2FA4FF0000001F00AFBCDF7BABADE
:1005100000B5CDF7D9FA4FF0010001F001FBCDF79E
:10052000B1BA00B5CDF7D0FA4FF0020001F0F8FAF9
:10053000CDF7A8BA30BFBFF36F8F7047401EFDD113
:10054000704700F080B8FEE70348044901600448A2
:10055000044901607047004758160C00CD0308009D
:100560005C160C0005E6080040EA010310B59B0785
:100570000FD1042A0DD310C808C9121F9C42F8D00D
:1005800020BA19BA884201D9012010BD4FF0FF30BE
:1005900010BD1AB1D30703D0521C07E0002010BDD4
:1005A00010F8013B11F8014B1B1B07D110F8013B60
:1005B00011F8014B1B1B01D1921EF1D1184610BD41
:1005C000754600F029F8AE4605006946534620F00E
:1005D0000700854618B020B5FFF731FFBDE8204081
:1005E0004FF000064FF000074FF000084FF0000BEF
:1005F00021F00701AC46ACE8C009ACE8C009ACE8A2
:10060000C009ACE8C0098D4670470446AFF30080CE
:100610002046FFF7AAFD000000487047AC7F0C00A1
:1006200001491820ABBEFEE726000200E2715BCF55
:1006300001000000F405080000020000F4C26E2E64
:10064000704700000120CDF7EFBACDF7EDBA10B535
:100650000446CDF7C7FB206010BD70B51148006897
:10066000800503D5BDE870401AF01CBC4FF0004473
:1006700042F2107594F8EE12992901D11AF012FC89
:1006800028461BF067FAF5E710B582F7D1FF10385E
:10069000202805D2044951F820200AB100219047B2
:1006A000002010BDD022008084D000B010B5002101
:1006B00001208AF7EAFA4FF40044214600208AF725
:1006C000F4FA214601208AF7F0FA214602208AF73F
:1006D000ECFA8AF704FA8AF7FCF90028FBD18BF7C9
:1006E0008DF8044948F2340008800249801C2E31FC
:1006F000088010BD280C02A910B5A0F57F42FF3A72
:1007000005D10C4A002100F03FF90B4810BD00F064
:100710003F0000EB400202EBC002074800EBC202C0
:1007200092F8820009B980F001002B2100FB012022
:100730002C3010BD140B0C0098730C0010B506483B
:100740008AF75DFBFFF7B2FF00208AF77EFBBDE86A
:10075000104000208AF785B9750900800348002100
:10076000C0F81211A0F81611704700001C000C0010
:1007700000F03F0202EB420000EBC2020E482B23C6
:1007800000EBC20090F8822002F0010202FB03029B
:100790002C3202EBD10001F007030078D840C007EB
:1007A00001D0084670475079B1FBF0F300FB1310FD
:1007B000104480797047000098730C0038B5074AE0
:1007C00004460F21126841F67500904700900028FA
:1007D00003D0846068468BF761FE38BD34370C0067
:1007E00030B4054C20700548017005480270438004
:1007F00030BC00F007B80000EC410C00F8410C00E0
:10080000260B0C000B4908B50968132088470028FF
:100810000ED009490F20096888478AF757FA41081E
:10082000064800900648037842880F208AF766FE43
:1008300008BD0000BC390C00CC370C0053D40FC5E8
:1008400001000000F007080000020000002AD09319
:100850001D400C00260B0C000A4600F03F0000EB88
:100860004001054B01EBC00103EBC10191F882107F
:1008700081F0010100F092B898730C0000F03F0085
:1008800000EB400101EBC001044800EBC10010F88F
:10089000821F81F0010101707047000098730C0005
:1008A000034800886FEA1020401C40B270470000E7
:1008B0000C0C02A970B50646C41D122509A188F7C3
:1008C00029FB38B1B4F80330A27861782078FFF7BB
:1008D00091FF0025074A01213046126890470570B4
:1008E000304670BD0401506C01506C0100FF0200E5
:1008F00000FF7F00D83A0C002DE9F0410746122690
:10090000B0F807500DA188F705FB00B100260D4A8D
:100910000821384612689047067004464570280A38
:10092000A07001212846FFF7F1FE0168C4F803100A
:100930000079E0713846BDE8F08100000102000056
:10094000FF0E0000D83A0C0070B50546122408A12D
:1009500088F7E0FA18B1E81D04F07EF80446054A6D
:1009600001212846126890470470284670BD000097
:10097000014D0500D83A0C0001B507A1009888F791
:10098000C9FA18B10098C01D04F050F86846CCF7B9
:100990002AF8002008BD0000014D0A0010B5A0F59E
:1009A0007F43FF3B01D114490EE000F03F0000EB14
:1009B000400303EBC000104B03EBC00301F0010048
:1009C0002B2101FB00312C3110680860107908716F
:1009D000002048718B1D01EBD00200F00704127853
:1009E000E240D20703D04A79541C4C71D054401CC9
:1009F000C0B22528EFD310BD98730C00054910B57F
:100A00000120087001F052F803480068BDE810406A
:100A100000470000CC7D00B0B0310C0001480078E8
:100A20007047000020410C00014900200870704709
:100A300020410C000A4910B5084A0A601F224A608A
:100A400000228A600A764A764A8308B9DFBC03CB63
:100A500001000000EC09080000020000C733D2CEFC
:100A60000122CA75FFF7EAFFBDE8104007F0BCB8E5
:100A700020130C0000000C0008B5574F574E4FF0E4
:100A8000FF394FF4C87800244A4669463068CCF7ED
:100A9000A5FE0028F8D100980028F5D00168A1F53E
:100AA0009851923917D00A290CD0A1F560610C3900
:100AB00002D0012971D102E007F09AF985E088F7A8
:100AC00099FF82E00146407A01230A303D68002206
:100AD000A8470094D8E7317E0025491C31768188EB
:100AE0008A0A052A24D004DC012A07D0032A69D106
:100AF00011E0082A23D03F2A64D127E0C1F309017D
:100B0000062902D01D2903D05CE088F705FE4EE0DF
:100B100088F73FFE4BE0C1F309012D2902D03329AC
:100B200003D04FE088F718FE41E088F745FE2FE03C
:100B3000C1F30901052945D188F749FE37E0C1F322
:100B400009010A2900D10125254A0CE0C1F3090158
:100B5000A1F180021F2A0AD87F3989B2172900D350
:100B600000211F4AE43252F8211088471FE0712902
:100B70000CD07429E0D075290CD0E9290ED0A1F24F
:100B80005312062A0DD806F0D9FF10E088F73BFE75
:100B900001460EE089F724F909E019E089F739F9EF
:100BA00005E041450ED341450CD806F0D3FF014680
:100BB000009431B1487A01230A303D680022A847E9
:100BC00003E015B9307E401E30760098002881D0B1
:100BD0006846CBF712FF57E7F8360C0000000C0010
:100BE0006C3E0C0010B589F7F8F8074A04460E2150
:100BF00012681120904714B1012C02D108B10120D4
:100C000010BD002010BD0000B4390C002DE9F843E0
:100C1000044600F03F071B480D4607EB00067078BE
:100C2000C00601D4232D2BD1174B052269461B6822
:100C30000C20984780460098144A210A0570447099
:100C40008170D15DC90701D0022100E00121C1708E
:100C5000D15D4908C90701D0022100E004287FB610
:100C600001000000E80B08000002000033DB6C7399
:100C700001210171232D03D0707820F010007070D5
:100C80004FF4006088F77CFF002803D005494046F8
:100C900009688847BDE8F883E46C0C0004370C0051
:100CA00040610C0014370C0070B51546084A0E461A
:100CB0000446014612680220904730B12A46314668
:100CC000204603F0D9F9002070BD122070BD00004D
:100CD000B4390C002DE9F34F85B001F114000390F5
:100CE000083800260190001D0C4601F108084FF05D
:100CF000010B029058E031485F4610F806900BFA5D
:100D000009FA11EA0A0F4BD0A06828B911464846E3
:100D100005F052FEA060E8B3284948465031039AD6
:100D200051F83930059998470025BB462FE00BFA5A
:100D300005F7384224D029464846039B059A05F01A
:100D400021FC022E09D91E4A05EBC50102EB8101E7
:100D50000979012901D058B912E028B13146284655
:100D600005F014FE20B10BE06068B843606007E056
:100D7000CDF80080DDE90121231D284605F0ACFDFA
:100D8000A0686D1CB843EDB2A060202D04D2A0680D
:100D9000002800E000E0CAD1208820EA0A00208074
:100DA000761CF6B2072E04D2626812B1218800299F
:100DB000A1D107B00120BDE8F08F000048400C0031
:100DC000689500B0F0B5114BD3E901431C437F2374
:100DD00044600380002383600373036143751C46F2
:100DE0000EE0CE1800EB4405767805F8613F06F07A
:100DF0003F063344B71F1B1D641C6F70DBB2E4B2A7
:100E00009342EED380F86040F0BD00003C400C00FF
:100E100030B59BB000F108056C4642792946204662
:100E2000FFF7D0FF21462846FFF754FF049828B16A
:100E3000024604F11401284600F086F99DF80C00E2
:100E4000002800D001201BB030BD00002DE9FF4F6D
:100E50000546DFF8B49000EB450709EB870083B047
:100E600042689B460C46FF261AB1194659E655279B
:100E700001000000E40D0800000200002A23B20374
:100E800005989047064601A8009033465A462846E2
:100E9000059905F0DBFF244A04EBC4032049DFF881
:100EA00084A002EB83024FF0010802EB4504A0B1DD
:100EB0009DF80420A08A08FA02F24546104203D0A9
:100EC0000C2007B0BDE8F08F086880479DF804103B
:100ED000A08A8D402843A0821AE014489DF804207F
:100EE000405D904201D80D20EBE7086880479DF8EF
:100EF0000400009059F8277033465A462846059951
:100F0000B8479DF80420A18A08FA02F00143A182A3
:100F1000DAF8000080470020D3E7000050400C00C2
:100F200058370C005C370C00689500B010E80800DA
:100F300070B5054608480C4602689047074904EB1F
:100F4000C40001EB800000EB4500002282820448CF
:100F500000688047002070BD58370C00689500B0CD
:100F60005C370C002DE9FC410D46044600EB4401C2
:100F70001A48174600EB81001E464268FF231AB14B
:100F8000314638469047034601A80090324639461C
:100F9000204605F05BFFF0B1114805EBC50100EB01
:100FA000810000EB44049DF80410A08A012606FA93
:100FB00001F528420FD00B48006880479DF80410C7
:100FC000A08A06FA01F5A843A08207480068804776
:100FD0000020BDE8FC810C20FBE7000050400C0025
:100FE000689500B058370C005C370C0010B504460B
:100FF00005F09CFF05F06CFF0249095D081AC0B2BC
:1010000010BD000010E808002DE9F0410446877883
:10101000B0F80330407A00268846022802D033F028
:101020007D0001D0112630E0384606F04BF808B1BB
:101030000C262AE0184605F08DFF174B07EBC70278
:1010400023F82200607900F07D0005F083FF03EBB8
:1010500082056880E0792871207A6871607AA871C9
:1010600060898FF7C7FFA860207B2873607B687357
:10107000E0898FF7BFFF2861102085F8B2F1FE9F4D
:1010800001000000E00F080000020000DECB0CBEF3
:101090002000384606F02EF8384605F0C7FF044811
:1010A000017888F800103046BDE8F081689500B0FE
:1010B0003C400C0070B5074C0E46A56805F0DCFFFF
:1010C000284600F074F87F2060702078307000208F
:1010D00070BD00003C400C002DE9F0418578884649
:1010E0000026284605F0F8FF1B4F58B1284605F0AA
:1010F000D7FF1A4805EBC50100EB8104A079012850
:1011000002D004E00C2621E0284605F005FE94F903
:10111000050097F90150A84206D0A079012815D101
:1011200094F90D00A84211D17F2078700024204648
:1011300005F0D2FF30B1204605F0DCFF97F9010041
:10114000A84203D0641CE4B2202CF0D3397888F88C
:1011500000103046BDE8F0813C400C00689500B0BE
:101160000248007808701220704700003C400C00D4
:101170002DE9F047814648781446884620B9424612
:101180004946002005F094FB002501270BE007FAF3
:1011900005F6264205D042464946284605F04AFC57
:1011A000B4436D1CEDB2002CF1D1BDE8F0872DE900
:1011B000F04100250446012709E007FA05F626421A
:1011C00003D0B443284605F0A7FD6D1CEDB2002CFA
:1011D000F3D1BDE8F081000070B504460579FFF752
:1011E00045FC00281FD0284605F076FF00281AD0BD
:1011F0006068C0F30744C0F307210B4800EB0410FC
:10120000807A81420FD100282146284602D005F07D
:10121000CDFC01E005F0C2FC002804D02046BDE86A
:10122000704005F007BD70BD04A000B010B50C4CB7
:1012300000204FF490616060A06020202070094879
:10124000CFF78FFB7F2060701020A0700024204615
:1012500005F0F0FC641CE4B2102CF8D310BD0000C3
:101260003C400C00689500B0F8B5064614460D46A3
:101270004020CBF7DDFB0100009015D041F29C32FD
:101280000A60FF220A72052201F10A007CB638D0FA
:1012900001000000DC11080000020000A0D0AB0E2D
:1012A0004A725521017046708570C470210A01711F
:1012B0000348921F69460068CCF794FBF8BD000014
:1012C00000000C00F8B5467805462036304603F09D
:1012D0004DFC0446007B012801D9042809D1114A9C
:1012E000314601201268904718B9287808B10C20BF
:1012F000F8BD0D4A314641F2727012689047009075
:1013000029780172608B11B140F0010001E020F0FA
:10131000010060834FF0FF3269460448CCF762FB5E
:101320000020F8BDB0390C0030370C0058130C0009
:10133000F8B51E4A457D044605F12006126831467F
:101340000020904708B10C20F8BD194A314641F2FF
:1013500071701268904700902188018161884181F5
:101360002179017361794173A21D284601F0A0FA29
:101370000098217B8173D4F80D10C0F80F10B4F8D9
:101380001110A0F81310E17C4175217D8175E27D7B
:1013900094F91610284601F07DFA4FF0FF326946A5
:1013A0000448CCF71FFB0020F8BD0000B4390C0046
:1013B00030370C0058130C00064A002152F8213037
:1013C000834201D101207047491CC9B21029F5D3CD
:1013D00000207047CC3F0C002DE9F04106464FF449
:1013E00092712948CFF7C7FA28481B24294904706D
:1013F0002748086028493630086028480068804738
:10140000214D4FF6FF70A885002085F82A0085F849
:101410001D01A5F81E414FF4A470A5F8200105F1A7
:101420006000CBF729FB05F168008046CBF724FB71
:10143000002404EB440005EB800070300746CBF736
:101440001BFB38464146CBF731FB641CE4B2082C49
:10145000EFD3304602F096FC11211148CFF78BFAFA
:101460000F49087840F00F000870A1F160000D49A5
:1014700008600D49022008700C4930460968884709
:10148000BDE8F041FFF7DCBE60090C00DD260C0072
:1014900070D90900E4260C00E8260C007681D428D7
:1014A00001000000D813080000020000543815B3F2
:1014B00054370C00E46C0C00E0260C00DC260C0019
:1014C00024370C002DE9F84314460F4605468CF7E7
:1014D00017F9DFF8688005F03F05194E58F8250028
:1014E0004FF0FF3937BB2CB3002812D0016811B977
:1014F00011E0006811460A681AB1641E2404240C25
:10150000F7D102601C3100914A4669463046CCF75B
:1015100073FABDE8F88350F81C1B48F825100090BA
:1015200044464A4669463046CCF766FA002FF0D06A
:1015300054F825000028EED1EBE70000946C0C0075
:1015400058130C002DE9F0470646848815468A4654
:101550000068FFF73BFF074620468CF7D1F85FB3E2
:10156000DFF8589004F03F08BAF1000F59F828400E
:1015700009D04020CBF770FA070004D04022314652
:10158000CFF7F0FB3E463046CBF775FA00210160FD
:101590000CB11DB105E049F828000AE00460FAE743
:1015A0000C46216819B16D1E2D042D0CF8D1016077
:1015B00020600120BDE8F0870020FBE7946C0C0060
:1015C00070B50C46064600258BF7FAFFA8B10C480B
:1015D00006F03F01425CD00706D0022042F34001F2
:1015E000491C03D0012202E00120F7E7022240EA71
:1015F000022500202070284670BD0220FAE7000076
:1016000040610C00F8B515460E4A0E4604460146E8
:1016100012680320904798B10B4A214641F6F12009
:1016200012689047009058B12A463146204600F093
:1016300013F900990872684601F0BAFE0020F8BD5F
:101640000C20F8BDB4390C0030370C0030B5114C0B
:1016500000F0010504EB850500236D5C122D17D009
:10166000C0F3400504EB8504A45C122C10D0C40721
:1016700000D00321084D4008C0072C7861F3010415
:101680002C7000D0032262F383042C70184630BD06
:101690001223FBE7BA3F0C00E46C0C002DE9F84381
:1016A0000024984617460E46814600946A2D47FB53
:1016B00001000000D4150800000200004DC0CBC39B
:1016C0008CF728F8054648468BF784FFC8B12948AF
:1016D00006F0010100EB8101C95D122913D0C6F3A8
:1016E000400100EB810111F8080012280BD02248BC
:1016F00090F82300C0070CD095F82100C0070CD14A
:1017000003E0022406E0122404E095F82000C0075C
:1017100003D011242046BDE8F883F00700D002274B
:10172000164809F03F010D1871086878C90767F37A
:101730000100687001D0022100E0414661F383009E
:101740000F4A68704946126841F2AF7090470090A6
:1017500070B169784FF0FF3201F0030101726978CE
:10176000C1F38101417269460648CCF74FF9D1E7D0
:101770000724CFE7C23F0C0060090C00E46C0C00AA
:1017800030370C0058130C0008B5354C4FF0FF35BE
:101790002A4669462046CCF75DF80028F8D1009823
:1017A0000028F5D00068A0F5F851463906D12D493A
:1017B00068460968884700980028E9D000980168C1
:1017C000A1F5B8517039FF291AD8808803F0E2F9E1
:1017D000B0B10068A0B100990A68A2F5B8528F3A7A
:1017E000042A03D808468BF794F802E0694603F010
:1017F00001FA00980028CBD06846CBF73AF9C7E742
:1018000000980168A1F5B852943A02D18BF7B1F86B
:10181000F2E7A1F5B852963A02D18BF7DEF8EBE782
:10182000A1F5C052703AFF2A02D802F025FCAFE7BA
:10183000A1F50452993A0A2A02D201F0CFFEA7E795
:10184000A1F5B8529E3A02D1FFF7E4FCD4E78BF73A
:1018500081FA0028D0D104490888401C0880CBE7D1
:1018600058130C0028370C00B83F0C00034600202A
:1018700003F03F03012A09D007480029C15C06D0C4
:101880009143C15411F0FF0F03D002207047114360
:10189000F7E7012070470000D46C0C0010B500245D
:1018A00088F7D4FA38B1FFF7D9F920B189F7B0FE3B
:1018B000102800D30124204610BD000040CE13BBE9
:1018C00001000000D017080000020000B928757E52
:1018D00008B50022152116488FF73FFBDFF854901A
:1018E000154C164E164D4FF0FF3A4FF462784FF4F8
:1018F0006177524669464846CBF7B6FF0028F8D1D3
:1019000000980028F5D034EA00010CD00168414568
:1019100000D907600168A1F5617155F8211000290F
:10192000E7D08847E5E700F00F003168F9E70000ED
:10193000347C0C0000140C00C0BAC0AC043D0C0098
:10194000DC400C0070B5184C04F1440588B1294600
:1019500041F644708FF78EFD211D41F641708FF7DF
:1019600089FD124E01E08FF703FD306880470028A3
:10197000F9D100264021201D2660CFF71AF840211A
:101980002846CFF716F844F8846F4FF480706660ED
:101990006672267260816673012020738FF77BFD6B
:1019A00004490348086070BD800E0C0068370C00C5
:1019B000C8130C0020270C0008B50F4D0F4C4FF03A
:1019C000FF3841F64C764FF4FA574246694628688C
:1019D000CBF74AFF0028F8D100980028F5D001681D
:1019E000B14200D307600168A1F5FA5154F8211003
:1019F0000029EAD08847E8E720270C00F0400C00D7
:101A00000149405A70470000000004A9014A815270
:101A100070470000000004A91AF0D6BA1AF0E0BA24
:101A20001AF0ECBA1AF0F6BA1AF086BC1AF0A2BC98
:101A300016F016BA1AF068B8030EC0F3074281B266
:101A4000184686F71ABA30B40A46040EC0F30743A4
:101A500081B2204630BC86F72FBA1AF009BE0000CA
:101A6000094950B101F55171086820F4000008607F
:101A7000086840F4800008607047D1F8440320F4FF
:101A80008000C1F8440370470020008002480168CC
:101A900021F0010101607047802B00801BF052BDD6
:101AA0001BF05EBD86F79FB90248016841F4004112
:101AB00001607047442300800248016821F400411E
:101AC000016070474423008016F0FEBA8A07AF21F8
:101AD00001000000CC190800000200007E317723CD
:101AE00010B516F0FBFA024931F8100010BD0000E5
:101AF000E4D509000248016841F001010160704726
:101B0000802B00800348016821F0010101601BF077
:101B100045BD0000802B00801BF05CBD86F725B919
:101B200003490120096811F4004F00D000207047DC
:101B3000442300800248416C21F002014164704757
:101B4000002000800248416C41F00201416470476E
:101B500000200080002009F03BBE012009F038BEC3
:101B600008B50B4800F044F81020CAF793FF009026
:101B700000280BD041F2014102C00A220449CFF7EC
:101B80000FF9044801686846CBF73CF908BD00002E
:101B9000DC7D00B0201F0500F0B500204FF0FF31C4
:101BA000114E0C46034602460125F75C05FA02FC7D
:101BB00017EA0C0F02D04F1C10D104E04C1C00D1CE
:101BC000014649B244B2521CD2B2082A02D10022C4
:101BD0005B1CDBB2401CC0B24F28E6D30348006850
:101BE00000F8221F4470F0BDDC7D00B05C2D0C00BD
:101BF00001464FF689400A2291F7C2B870B50546F2
:101C000089F77DF9FEF74AFC20280ED2C0F11F04A7
:101C1000064850F8241009B1204688470121A14008
:101C20002846BDE8704089F76FB970BD140F0C00ED
:101C300070B5064C257800F017F8054A217813781E
:101C4000481B18441070081A207070BD07300C0033
:101C500008300C0010B580242046641CA4B200F0AB
:101C600003F88F2CF8D910BD2DE9F04106468038D5
:101C7000114A124B80B20024115C1D78104F294488
:101C800019701454DFF83C8010E057F82450A888ED
:101C9000C0F30B00B04207D11C3D204699F706F86F
:101CA0002846CEF748FF01E0641CE4B298F8000033
:101CB0008442EAD3BDE8F08148160C0007300C00DE
:101CC00038250C0000300C0024381C21018104212F
:101CD00000F064B80849097811B10849BC11C9DAA3
:101CE00001000000C81B0800000200008AD9C99E3C
:101CF000097811B1074909680847084A064B117865
:101D000043F82100491C117070470000FF2F0C00A0
:101D100007300C00DC310C0038250C0000300C00C2
:101D200070B504460D46002019F078FBA068A38822
:101D30002838E2882421018100F124011C0A0B705B
:101D40004C708A70140ACC70C3F30B010C4B1B78D7
:101D50006BB1A1F180030F2B09D80A4B1C78641ECC
:101D60001C70094B194411F8803D5B1C0B70014637
:101D700006482B46121D0068BDE87040CEF75EBFD6
:101D8000FF2F0C0007300C0048160C00D87D00B067
:101D9000142804D0702807D1084688F7B4B80889F9
:101DA00008440249096808477047000074370C006E
:101DB00003B581B04FF0FF32012906D0042908D0C5
:101DC000092912D101A909480DE0084801A93830B4
:101DD00009E001980189084441F6417100900160D1
:101DE00002486946A830CBF72FFE0EBD20130C0029
:101DF0001CB5264CE06890F83010C9072FD090F839
:101E0000310040072BD4694601A888F7DDFE40F277
:101E1000472106E0019A00F2E240521E0192ADF81D
:101E20000000BDF800008142F4D880B2401A81B2AF
:101E30000198ADF80010C20705D001F2E241401E42
:101E4000ADF800100190E0688AB20199008901F0B4
:101E5000DBF9E06810F8311F41F004010170E0681F
:101E600090F83110CA0710D021F0010180F831102C
:101E700000898BF777F8E06890F83010C90704D034
:101E8000034A00890021126890471CBDC8410C001C
:101E9000DC370C0010B5FEF7BFFC002089F7E6F830
:101EA000002089F776F8BDE8104001F003BA000081
:101EB0002DE9F0413A4D0024E868C6691836FEF76E
:101EC000ABFCE86890F83000C0F34012C0F300119A
:101ED000304688F70AFEE96802200875314928690A
:101EE00086F781FC687890B1B5F9021016E704CD49
:101EF00001000000C41D080000020000932117EE3D
:101F000091FBF0F004B2E868297810F9402FC1F194
:101F1000FF035A4304FB012109B2FF2291FBF2F1B6
:101F20000170264E0027306880B1418971B18480EC
:101F300088F72AFE01463068C28861F30502C28034
:101F40001F4A41F64571126890473760002088F7B4
:101F50001AFD002088F7FEFCA86818B11949096825
:101F60008847AF6018480068817821F004018170CB
:101F7000418801F00F01418014480068817821F008
:101F800004018170418801F00F014180E86890F8F8
:101F9000321089060AD402890021022088F70EFB3C
:101FA000E86801210289022088F708FBBDE8F041BA
:101FB00001F08AB9C8410C00C87E0C00BC260C0098
:101FC0007C370C003C370C0024270C0028270C0021
:101FD00010B5FEF72BFC05480349406886F70DFC59
:101FE000BDE8104001F070B9707E0C00B8410C00E3
:101FF00010B5FEF71BFC0E4C0C49E06886F7FDFBA4
:10200000606870B104F03CFA28B1626A41F6477129
:102010006068904703E0216A09B160688847002042
:102020006060BDE8104001F04FB90000347E0C0044
:1020300090410C00F8B502F02DF802262C4D01233A
:1020400008B1282400E02524686890F82010A142F7
:102050002DD229B10A22B1FBF2F702FB17121AB3F3
:10206000D0F818C0CF0801F007021CF8077003FA77
:1020700002F2174232D01F4800688189C1F30A0179
:10208000009183686888A96800F25B2082B2091D0C
:10209000032089F76DFC50B16868024690F8201063
:1020A00022300B5C93B113E080F84A300675686803
:1020B00090F82010A14207D106752230FEF7F6FBFA
:1020C0006968002081F820000020F8BD2B780B54AF
:1020D00092F8200088F74CFD0120F8BD00F12202A3
:1020E0002F788F5490F82010491C80F82010ACE70E
:1020F000EC410C0028270C000548C168F8DACEEC4A
:1021000001000000C01F08000002000067C9A953B9
:1021100011F8340F0979C0F30010C1F3001108431E
:1021200070470000C8410C002DE9F843254E264CAD
:102130000F465FEA000840F2555508D0FEF738FB1D
:10214000012F0BD020684188B5EB111FFBD0012F68
:102150000AD02068836809D1306808E03068418877
:10216000B5EB111FFBD0F2E73068F3E720688089F8
:10217000164EC0F30A000090716840F65B62091DBC
:10218000072089F7FFFB18B1B8F1000F08D009E06C
:10219000316802200875FFF725FF0D48BDE8F88378
:1021A000FEF706FB2821002088F753FD822101203D
:1021B00088F7FDFD2068418865F30F1141800448D0
:1021C0000C30EBE724270C0028270C00B8410C004A
:1021D000707E0C002DE9F843324C334D0F465FEA18
:1021E000000840F2555608D0FEF7E2FA012F10D051
:1021F00028684188B6EB111FFBD02C484178007845
:1022000088F7C4FE012F0AD02868836809D12068A6
:1022100008E020684188B6EB111FFBD0EDE720688D
:10222000F3E728688089224CC0F30A000090E16837
:102230006288091D062089F7A5FB88B104F02AF9F8
:102240000027A8B1626A41F6477160689047E0696B
:102250008047606038B14771B8F1000F0AD00BE0D9
:10226000A16802200875FFF7CDFE1248BDE8F8838B
:102270006068F0E7FEF79CFA2821002088F7E9FC67
:10228000616828680B314160418866F30F11418015
:10229000A068007F012802D1822188F788FD0548C7
:1022A0000C30E3E724270C0028270C00F9410C0030
:1022B00090410C00347E0C002DE9F0410D4606469D
:1022C0004FF400442146022088F771FD2146012089
:1022D00088F76DFD314F786890F82010491CCCB21A
:1022E000012306E0C27F03FA04F10A4203D1641C11
:1022F000E4B2032CF6D3022C02D90221017514E0BA
:10230000B0F84A2005F2E1410A4440F219EA49C70F
:1023100001000000BC210800000200006F16588E6A
:10232000E248B2FBF8F18A19B968521C8B68C96897
:10233000A2EB4302494202EB4101002905DDFEF711
:1023400089FABDE8F04104F0B9B880F82040194896
:102350004178007888F71AFE2534E0B288F71CFC33
:10236000154C78682168028F0A80FA684A60017FFC
:10237000012907D005F50875B5FBF8F23244C264AF
:10238000032903D04421022088F71BFD206840F276
:102390005552418862F30F1141800849B86886F7A9
:1023A00040FABDE8F0412021012088F75CBC000024
:1023B0007C410C00F9410C0024270C00107E0C001D
:1023C000252801D802207047732801D804207047BF
:1023D000C12801D8062070470820704718F047FB35
:1023E0000A4E0B4D746803E0606800B180472468B2
:1023F000002CF9D109F058FA1AF0BEFD18B128687E
:1024000040F48070286018F02BFBEBE7C07D00B033
:10241000349400A810B50E4C2078C00715D0A068E1
:10242000418CFF290ED84FF6FF7202EA4101418428
:1024300088F7E1FCA1684A8CB0FBF2F302FB1300C1
:10244000401C88840020207010BD0120FBE70000A4
:1024500090410C0038B50446FF208DF800000020A4
:102460002087202084F84800207F464D40F6DB314D
:10247000052857D2DFE800F003083B49080028345C
:10248000206920F00F0037E0A06B20F00F00401C07
:10249000A06340F6BB40A4F84A000C2084F8480032
:1024A000607F01281CD0D8B1A07F6B46012204F1C7
:1024B000220189F76AFF98B19DF8000000EB8001C6
:1024C00001EBC0003049096801EB80008168C5F864
:1024D000061080896881A06B40F08000A06321E035
:1024E000D4F82200C5F80600E08C68811AE0283490
:1024F000206920F00F00801D206120786278104450
:1025000001EB40106084283C0CE0A06B4FF4587144
:1025100020F00F00801CA06394F8280031530C9E1B
:1025200001000000B8230800000200009BFEE63313
:1025300001EB4010A4F84A0094F831000028A06B89
:1025400002D040F0400001E020F04000A063616B49
:10255000206C0A68026089888180616B606C0A68FF
:10256000026089888180207F012801D004280AD157
:10257000606B016829608088A880A07F18B1A06B7B
:1025800040F08000A063208FA087E06B20F00F0058
:10259000001DE06338BD0000EDA100B0D8260C009E
:1025A00070B52A4D0446817F294E2868012923D021
:1025B00041B3207F002839D1FF2084F82700607FB5
:1025C00004F1270300F001000022D91F89F7E7FE7C
:1025D00068B3286840F04000286094F8270000EBBA
:1025E000800101EBC0001B49096801EB8000D0F8B5
:1025F0000E103160408A0DE040F04000286087F7FF
:1026000058FF04E020F04000286087F74FFF016882
:1026100031608088B080207F002807D1607F58B16A
:10262000012809D0286840F08000286070BDA07F94
:1026300002282868E6D0DFE7206AC6F80600A08CEA
:102640007081617F286861F3C710EEE7C4410C0018
:10265000B2A200B0D8260C0070B50446427F1048E4
:10266000104D012A016801D032B10EE041F0400165
:10267000016087F71EFF04E021F04001016087F749
:1026800015FF016829608088A8800548217F1438DB
:1026900019B141F25651418070BD40F63B01FAE755
:1026A000A4410C00D4A200B02DE9F04701252F462B
:1026B000B84689468246464689F736F95B4888F728
:1026C00024FCBAF1010F14D0BAF1050F74D3012024
:1026D00087F779FF0446002087F775FF544A514673
:1026E000BAF1050F12D0062941D0BAF1070F3DD13A
:1026F00063E04C46442088F708FC4FF4907088F75C
:1027000014FCE069BDE8F04788F73DBA99F81C1061
:10271000012925D08178491C01F00301817083795A
:102720004900CB4003F00306037B407AF59C2DCB98
:1027300001000000B42508000002000082063843B2
:10274000CB40C84000F003009070A07803F003086D
:10275000401C00F00300A070A1794000C14001F0CE
:102760000305217BC14001F00307617AC14001F0FC
:102770000300D07016705570D9F8180088F70DFA5C
:1027800049E00179491C01F003010171837A490094
:10279000CB4003F003031370007A9846C84000F062
:1027A00003062079401C00F003002071A17A40004C
:1027B000C14001F003075770217AC14001F00305C1
:1027C000617BC14001F003009070D5E71CE04179C6
:1027D000491C01F003014171C27A4900C079CA4025
:1027E000C84000F00306607902F00308401C00F0C6
:1027F00003006071E17A4000C14001F00307E17914
:10280000C14001F00305B7E7BAF1030F03D1032577
:102810002F46B84646462946304688F7CBFB394610
:10282000404688F7D1FB03F02FFE0021012003F082
:10283000DDFDBDE8F0470021084603F0D7BD0000EC
:1028400031090080F9410C0010B502F0B5F9054CD2
:102850002068002804D004490968884700202060C7
:1028600010BD0000BC260C0070370C00014985F734
:10287000DCBF0000047E0C0010B501460C4A0D4878
:1028800085F7D7FF0B490C4A01F10C0085F7D1FF02
:1028900008490A4A01F1180085F7CBFF0549084AA3
:1028A00001F1240085F7C5FF07490648086010BDFF
:1028B00071800800047E0C0071850800CD8108003D
:1028C000E9850800F1220800A8260C00014985F7D7
:1028D000ACBF00001C7F0C0010B50146054A06483D
:1028E00085F7A7FF0449BDE81040044A01F10C0038
:1028F00085F79FBF198608001C7F0C0065870800BC
:10290000014985F792BF0000C87E0C0010B5014652
:10291000084A094885F78DFF0749084A01F1180060
:1029200085F787FF0449BDE81040054A01F10C0016
:1029300085F77FBFE5870800C87E0C00B8F153AE6D
:1029400001000000B02708000002000076EE86FEBD
:102950007D8E0800818C08003C210148CEF757B8D5
:10296000347F0C0013460A46194687F72ABF000039
:1029700070B515460C4687F722FF0349096888475A
:1029800000F8504F457070BDBC370C0070B5144650
:102990000D46064687F713FF0D49096888470D491C
:1029A00006EB460201EB8203216845B1C3F806102D
:1029B000A1885981012180F831109B1D05E0196023
:1029C000A1889980002180F83110436370BD000018
:1029D000BC370C00347F0C00054A00EB400002EBD2
:1029E00080000A68C0F8062089884181704700008D
:1029F000347F0C0013460A46194687F7F5BE0000DF
:102A0000014985F71CBF0000707E0C0010B501461F
:102A1000114A124885F717FF1049114A01F10C00BD
:102A200085F711FF0D490F4A01F1180085F70BFFDB
:102A30000A490D4A01F1240085F705FF0C490B48AE
:102A400008600C4800210180016821F00F01491D38
:102A500001602221417010BD298F0800707E0C009A
:102A600001900800D1920800219408002924080050
:102A7000AC260C00C4410C00314910B52F48086049
:102A800030490420087087F72FFD03F083FCFDF721
:102A9000FFFE89F705FA00F055F989F7AAF989F7D9
:102AA000EFFA294800F068F8284800F05FF8264857
:102AB000FFF7ECFE25482C30FFF7E2FE224800F03D
:102AC0006BF82248403000F061F81F48FFF79EFF86
:102AD0001E481830FFF794FF1B4800F013FD1B48F9
:102AE000683000F009FD1848FFF71AFF1748001D6D
:102AF000FFF710FF1448FFF7F9FE14485430FFF7B2
:102B0000EFFE134800688047FFF7A8FE12491148FE
:102B1000154C08601249114808601249216088F775
:102B2000CCF8206888F7CDF8FFF716FFFDF7C0FE58
:102B3000BDE81040012088F75CBA000070600C000E
:102B4000D8260C00D4260C0000620C0098FF6E15ED
:102B500001000000AC29080000020000B1F784A3C6
:102B60001C000C00A4370C00B2A200B02C270C00F3
:102B700004A100B024270C0014A100B028270C00E9
:102B8000014985F766BE0000EC7E0C000146024A52
:102B9000024885F762BE0000AD940800EC7E0C0090
:102BA000014985F756BE0000347E0C0010B5014681
:102BB000194A1A4885F751FE1849194A01F10C00C3
:102BC00085F74BFE1549174A01F1180085F745FEB8
:102BD0001249154A01F1240085F73FFE0F49134AB7
:102BE00001F1300085F739FE12491148144A086096
:102BF00012481149C1610021C0E90812426802B1BE
:102C000041600E4814300180016821F00F01C91C99
:102C100001600C21417010BDC5940800347E0C0089
:102C2000D195080031970800019C0800819A08009E
:102C3000E1240800B0260C003D7E090090410C0004
:102C40004B7E090070B50A4C6368217B2288C51A47
:102C5000490856198D1C3544B5FBF2F502FB0532C7
:102C6000511A081A801EC0F34E00A26070BD000009
:102C7000DC010C0010B505F052FA03480124944021
:102C8000435CA343435410BDB23F0C0010B505F0A4
:102C900046FA034801249440435CA343435410BDC7
:102CA000B03F0C0070B5054600F0E8F900282DD0C3
:102CB00017492846096888470446806980880028A3
:102CC00024D088F7B7F82169803DA1EB50006189D5
:102CD000ADB2B0EB410F19DD2046C9F749FF0D48F1
:102CE000415D603884F8201030F815106184403858
:102CF000094950F82520E26250F82520204689F73E
:102D0000A1F906480068BDE87040004770BD0000AA
:102D1000BC370C00F0610C0034010C00C8370C000B
:102D200070B50C46054600F0A9F900280AD02146E6
:102D3000284608F05BFC002C04D12846BDE8704012
:102D4000FFF7B0BF70BD00008038024980B231F893
:102D500010007047D0610C002DE9F05FC5E1DEFC8A
:102D600001000000A82B080000020000451F3A1EC9
:102D7000DC21AD48CDF781FE4FF48C71AB48CDF727
:102D80007CFE4FF4C061AA48CDF777FE2821A94800
:102D9000CDF773FEA7484FF4D2712830CDF76DFE02
:102DA0002821A548CDF769FEA34824212830CDF776
:102DB00064FEA1484C214C30CDF75FFE89F770FBD3
:102DC0009D4880219830CDF758FE98480027D83884
:102DD000954D076047608760C76098488C35DFF87D
:102DE0005082077047709148C5E900089148A86073
:102DF0002830E86090482861283068612430A86154
:102E00008F4900F14C098C3DC1F800908D4A00219A
:102E1000A0F6481085F72BFDA8F598718A4A01F1B4
:102E20000C0085F724FDA8F59271884885F71BFDF5
:102E3000DFF81CA2002404EB840005EB800630467A
:102E4000C9F79CFE204687F727FBB0605AF824009C
:102E5000641CF060E4B23774072CECD3012085F8D1
:102E6000240085F888000024D5F88C00C4EBC40148
:102E700000EB8100C9F782FE641CE4B20A2CF3D394
:102E8000DFF8D0A100244FF01C0BD5F8900004EB24
:102E9000440600EB4610C9F771FED5F89020C4EB4C
:102EA00004110BEB46100AEB8101115008EB4610A0
:102EB000C06910F8281F41F010010170664804EB4A
:102EC000840100EB810109EBC400641CE4B24160A1
:102ED000102CDAD355F8940F604C8461A868846193
:102EE00055F89409C9F74AFE5D490520DFF874B129
:102EF00008700026A0464FF0180A4FF0060955F852
:102F0000981FC6EBC60000EB400401EB8400C9F734
:102F100035FE2A680AEB840106EB860042F8018040
:102F200040212B6800EB461001EB840100EB0B0203
:102F30005A504D492A680144442000EB8400115046
:102F400028212A6801EB8401312002F8019029210F
:102F50002A6801EB840100EB840002F801902968E3
:102F60000F5487F7CBFA34212A6801EBAE43857101
:102F700001000000A42D0800000200005CE7E46EE0
:102F80008401761C505050212A6801EB84010420F2
:102F900050545122296802EB84023B2088542F228E
:102FA000296802EB8402FF2088542E22296802EB54
:102FB0008402F6B2885455F89809302101EB840157
:102FC000052E4754A5D355F89C0FC9F7E1FD686855
:102FD000C9F7DEFD2A4908F12800C8F83010C8F802
:102FE0003410017821F0020101702649C8F82C1034
:102FF0002521817040212448CDF749FD23492248ED
:10300000086020214030CDF720FD1F482049403086
:1030100008600F212030CDF73AFD11481E49C5E95F
:10302000077045F8247F072068721A4808601C4919
:103030001A48086003202872BDE8F09F34010C0094
:1030400018620C0030630C0030690C00FC6A0C0044
:10305000AC3F0C0074260C00618008001F80080043
:103060009C260C00F4E7080000FC00B020080C00CF
:10307000C0FF00B095260C0034A100B0F9A100B04B
:10308000D6BE898E55555500146C0C00A0260C0038
:10309000A4260C00D5AF0800B8370C003DB00800DE
:1030A000D8370C00A0F1800110290BD200F03F00AE
:1030B000054900EB400001EB401090F83000C0F3F0
:1030C000000070470020704730630C0010B505F019
:1030D0003AF8044C01239340605C1840605400D0DF
:1030E000012010BDB43F0C0010B505F02CF8044CC5
:1030F00001239340605C1840605400D0012010BD53
:10310000B23F0C0010B505F01EF8044C01239340AB
:10311000605C1840605400D0012010BDB03F0C002E
:103120002DE9F05F87F79AFE801C47080026741E81
:10313000DFF83CB1A14606EB86000BEB800A59464E
:10314000DAF80050002D6CD02B69AA89F81A57D4F0
:10315000944255D38EB1E8891844C01BA04233D89D
:1031600031E0D5F810C0ACEB030C944509D895F8C4
:103170004EC090F84E80C44500D928469EF3A489DD
:1031800001000000A02F080000020000A80F5AD381
:103190002D68002DEFD10546006830B1008AC01BB4
:1031A00080B2A04206D8044604E06A892869104427
:1031B000C41B641E012000EB800251F822202AB1BA
:1031C000128AD21B92B2A24200D81446401CC0B24E
:1031D0000728F0D3A889A04200D304469AF810002B
:1031E00018B19BF8C900B04229D0D846CBF8C050DE
:1031F0002548C8E9347400688047C8F8CC50DAF82C
:1032000008100020C8F8B81088F8C8001F480068E7
:10321000804714E0D91B00290ADD8C4200D90C46F6
:10322000894508D9304604F0F8FF00B9894602E024
:10323000944200D2A146761CF6B2072E85D35D4695
:103240008BF8C960072E10D1002045F8B80F4C4606
:10325000A8606861B83D601C03D0022185F8C810E1
:1032600003E0032185F8C81000244FF0FF3000EB85
:103270004701074A012088F756FE3819C5F8C400EF
:10328000BDE8F09F34010C0058370C005C370C008F
:103290007932080070B50D4E0546002404EB840019
:1032A00006EB8001086858B10269AA1A002A04DCFA
:1032B000427D2AB1027D022A02D1CA68294690477E
:1032C000641CE4B2072CE9D370BD000034010C008B
:1032D0002DE9F0414F0800F03F01134B01EB410194
:1032E00003EB411491086689A187E16ACD1B94F82C
:1032F0003110C9070AD1691E052901D2012103E055
:10330000002D03DA4FF0FF3100F0BCFDB5EB560F96
:1033100007DD6D1C95FBF6F000FB0670E062BDE872
:10332000F081E762FBE7000030630C0070B50C46EB
:1033300004F013FF064D012393406E5CAA1C1E434C
:103340006E54555C9D435554024921F8104070BDA0
:10335000B23F0C00D0610C0070B50B4604F0FDFECE
:10336000044D012696406C5C34436C54024921F8AC
:10337000103070BDB03F0C00B0610C0070B520483B
:10338000006880471F4D95F8C8000128E389E97C53
:10339000010000009C31080000020000D614FD630B
:1033A00005D00024D5F8B800002804D102E04FF081
:1033B0000104F7E71948C5F8BC0002D04FF001003E
:1033C00001E04FF0020005F1B8054FF00006287447
:1033D0002E606869A5F1B80530B1417D01B1017D6C
:1033E00001754FF0010141750D48006880470A4A98
:1033F0000121CC32D5F8BC0085F744FA002C08D066
:10340000C5F8CC6088F7BDFD06480068BDE870408F
:10341000004770BD58370C0034010C009C260C008E
:103420005C370C00C8370C0010B587F72BFD012165
:1034300001EB5000FFF738FFFFF786FE0D4C94F8C4
:10344000C81003290AD06FF0010101EB40010A48BE
:103450000268BDE81040002088F76FBD88F791FD35
:1034600054F8BC0F0022022185F70CFA03202073C8
:1034700010BD000034010C00C8370C0070B50E48B8
:1034800000252C46006880470C4890F8C81009B108
:10349000022904D150F8BC5F0021012401600848D2
:1034A00000688047002C06D02846BDE87040002206
:1034B000022185F7E7B970BD58370C0034010C00C4
:1034C0005C370C0010B504F052FE034B0120904015
:1034D0005C5C44405C5410BDB43F0C0010B5014628
:1034E0004FF0FF320448CAF71DFB0022BDE8104030
:1034F00002210248CAF7F0B890130C0038140C00EF
:103500002522B0FBF2F302FB1300014A115470476D
:10351000A07E0C000D2809D00E4B00F03F000029C2
:10352000195C10D001F0FE01114310E00A4B18782D
:1035300019B100F0FE00104303E000F0FD0040EA86
:1035400042001870704701F0FD0141EA4201195430
:103550007047000040610C00AC3F0C00014985F74A
:10356000A0B90000F87E0C000B4B10B500221A60C9
:1035700001460A4A0A4885F798F90949094A01F1BA
:103580000C0085F792F90649BDE81040064A01F1A2
:10359000180085F78AB9000090260C0071B356C256
:1035A00001000000983308000002000022FC43DE06
:1035B000719C0800F87E0C00399E0800D59D08001B
:1035C0000EB521A12148C9F7FBFF4FF0FF3502AB33
:1035D000012203211D480095CAF720F80298C1076F
:1035E00002D0FFF72BFFF2E78007F0D5002201A9F8
:1035F0001748CAF7C5F90028E9D1019C002CE6D08C
:103600002068A0F5D050F1381AD1124800688047E0
:10361000207A012803D0022804D040B10AE0A08813
:10362000012101E0A0880021FFF7ACFB02E0A088A7
:10363000FFF76AFB08480068804701980028C6D059
:1036400001A8C9F7ACFAC2E70000000038140C006A
:1036500090130C0058370C005C370C0010B5214A51
:103660000021214885F72BF91F49204A01F10C0060
:1036700085F725F91C491E4A0C3101F10C0085F72C
:103680001EF919491B4A183101F10C0085F717F989
:103690001549194A183101F1180085F710F9124936
:1036A000164A183101F1240085F709F90E49144A28
:1036B000183101F1300085F702F90B49114A183130
:1036C00001F13C0085F7FBF8074901F1600085F73F
:1036D000F2F80549BDE810400C3101F1540085F7BE
:1036E000FAB8000055A9080084790C0039A5080033
:1036F000859E0800259F080075A40800BDA208004B
:1037000059A30800A59F08002DE9F0410246016871
:103710001E4885F7C1F81D4D95F82202800732D565
:1037200005F1180705F110062C6809E03946304606
:103730000AF06AF802000AD01448116885F7ACF85C
:103740002868A04203D195F822028007EED405F143
:10375000880705F180062868A0420ED195F822025C
:1037600080070AD5394630460AF04EF8020004D0E8
:103770000648116885F790F8EDE795F8220220F0E9
:10378000020085F82202BDE8F0810000E4790C0017
:1037900038B504468AF7E6F8064A214641F2AB708E
:1037A000126890470090002802D06846862A791651
:1037B0000100000094350800000200003B049DAEAB
:1037C00088F75CFF38BD000034370C0008B5084BA3
:1037D0005A82084A59830146126841F2AC709047F8
:1037E0000090002802D0684688F748FF08BD000016
:1037F00060090C0034370C00F8B51546084A0E462F
:10380000014612681C4641F2B170904700900028B2
:1038100005D0067245724481684688F72FFFF8BDCF
:1038200034370C0010B50C4A0179517059B1C18878
:10383000518000F1080102F10C0000F0DBF8BDE856
:10384000104000F0F7BC05494FF4C860A1F8A4008F
:10385000BDE8104000F01ABD0C400C00840A0C00BA
:1038600010B5011D054800F0C5F800F061F800280A
:1038700003D0BDE81040FDF7B5B810BD18400C00EE
:10388000094910B54A78002A0CD080884A889042AD
:1038900008D0488000F00AF8002803D0BDE81040A6
:1038A000FDF7A0B810BD00000C400C0070B51D491C
:1038B0001B4C02200968B4F8A45088471A4988B103
:1038C0001A4B4E784FF4487293F82B3050005EB18B
:1038D0000E78B34212D2B4F8A43083420ED1A4F8C9
:1038E000A4200DE0488811E009788B420ED2B4F88C
:1038F000A41081420AD1A4F8A42009E0A4F8A400ED
:10390000B4F8A4004988884200D30846A4F8A4006B
:10391000B4F8A400A84201D0012070BD002070BD01
:10392000840A0C00B8390C000C400C0098730C0091
:103930002DE9F05FDFF84C80FF250027DFF848A075
:10394000DFF848B03C4608F10C0908F1110698F878
:10395000010008B119F80450DAF800100220884775
:1039600020B10BEB040090F890000543305DA842B5
:1039700001D001273555641CE4B2052CE7D3384645
:10398000BDE8F09F0C400C00B8390C00840A0C0014
:1039900010B504468AF707F804F03F01002818D054
:1039A000124A4000124CB2F8A420B0FBF2F010F022
:1039B000FF000FD001EB410202EBC102D07431B124
:1039C000010000009037080000020000CFEC231334
:1039D00004EBC202401E92F88330834204DA5B1C7F
:1039E00082F88330002010BD01EB410202EBC101DF
:1039F00004EBC101002081F88300012010BD00000C
:103A0000840A0C0098730C002DE9F0410546002053
:103A100028600E46287104460127204602F0F6FC75
:103A20004008C108725C494200EBC10007FA00F08F
:103A3000024208D0E00843422A5C04EBC30307FAC1
:103A400003F10A432A54641CE4B2282CE5D3BDE8F0
:103A5000F08100002DE9F34F002695B0044635466D
:103A600086F732FF4FFA80F904F03F0000EB400187
:103A700001EBC0014E482B2200EBC10090F88210F0
:103A800001FB020707F12C02139281F001012B22A6
:103A900001FB0204139A4C21106844F82C0F107992
:103AA00020716846CDF725F897F831000F2802D22B
:103AB0004FF0190C01E04FF01E0C3E4991F9001037
:103AC000A9EB0100604502DA0A384FFA80FCACF13C
:103AD0000A004FFA80FB0021EE464FF0010AC808A9
:103AE00001F007030AFA03F2334BD2B2034493F80E
:103AF000903013421ED0169B5F5CA9EB0703275C36
:103B00005BB2174209D05B4504DA97432754F8B2F9
:103B1000104206D0761CF6B20FE0634501DD174374
:103B2000F4E70A2E09D20EEB45006D1C03704170BC
:103B3000EDB202E0235C93432354491CC9B225290A
:103B4000CDD30A2E2BD2C6F10A00A84200DD2846AA
:103B5000C2B222E00021012073460CE003EB4006D4
:103B600003EB410796F9006097F90070BE4200DD53
:103B70000146401CC0B2A842F0D30EEB4103587876
:103B800004EBD00100F007070E780AFA07F00643AD
:103B900080200E70521E1870D2B2002ADAD105228F
:103BA00021461398FCF7E4FD17B040B2BDE8F08F52
:103BB00098730C00F8410C00840A0C00054900F0D1
:103BC0003F0000EB800009690C2202EB1E7FF71E0C
:103BD000010000008C3908000002000008F5214EA9
:103BE0000010085A70470000840A0C00054900F0D4
:103BF0003F0000EB800009690E2202EB0010085A1A
:103C000070470000840A0C00054B03EB8000A0F510
:103C10000073A0F5FF701B880B8000881080704730
:103C200044790C0008B5074A818841F68200126881
:103C3000904700904FF0FF3269460348C9F79AFF5A
:103C400008BD000030370C0058130C00F1B582B0ED
:103C5000434B02980190434C017901F03F0101EB85
:103C6000410202EBC10103EBC10191F8822094F8FB
:103C7000261011B1491E84F82610017901F03F0188
:103C800001EB410505EBC10103EBC1012B2502FB53
:103C9000051193F82B2091F83110914200D3114671
:103CA00083F82B100026808889F768FE05462E4F82
:103CB00012E089F743FD50B13A6894F825100220CC
:103CC000904720B194F82500FFF776FE50BB94F89A
:103CD0002500401C84F8250094F825009028E8D39E
:103CE000012E1FD002A8C8F778FF94F826000028FC
:103CF00017D11C489830C8F770FF0020C4F898000E
:103D0000FFF7E8FD00280CD087F7E4F8202101EB4D
:103D100050011648009014F8A23F0F20628887F7E0
:103D2000F1FCFEBD02994FF4BC500C2208600199D1
:103D300014F8250F02EB850288806078401C6070C3
:103D4000D4F87310207888524FF0FF3201A9084848
:103D5000C9F710FF2078401C04F82509C5E70000CA
:103D600098730C00840A0C00B4390C001D400C0040
:103D700058130C0071B53A4881B04078D8B12C2066
:103D8000019EC8F727FF42F23C110546002401605E
:103D9000204602F045FBB16805EB5000095D641C4C
:103DA000E4B20171282CF3D32E4C042301222468A1
:103DB00029462C20A04789F7DAFD01284DD02A4C4E
:103DC00001982A49C4F89800252081F82B0000208A
:103DD00084F82600802084F82500C0B2B9B356E6E6
:103DE00001000000883B080000020000FC1D9FF35A
:103DF00089F7AEFC38B3234A94F8251002201268E4
:103E0000904700B394F82500FFF7E0FDD8B11E4AB3
:103E100094F825104FF4BC50126890470090E8B118
:103E200014F8250F0C23D4F87310627803EB820288
:103E3000885260784FF0FF32401C6070253C694624
:103E40001248C9F7A1FE14F8250F401CC0B220701B
:103E50006178253C042901D29028C8D394F8260023
:103E6000002803D105489830C8F7C1FE7CBD01A8E1
:103E7000FAE700000C400C00FC360C00840A0C0031
:103E800098730C00B4390C0030370C0058130C0038
:103E900038B50D4A04468188126841F68100904782
:103EA0000090A088094A803881B2126802209047A9
:103EB00000994FF0FF324872E07F0872694604486B
:103EC000C9F762FE38BD000030370C00B4390C0071
:103ED00058130C0031B5009C89F77DFC18B100988F
:103EE000FFF73AFC38BD0D20E0744FF0FF32694611
:103EF0000148C9F749FE38BD58130C0038B5084AC7
:103F00000C460146126841F6850090470090047205
:103F10004FF0FF3269460348C9F736FE38BD00004E
:103F200030370C0058130C002DE9F14F99A082B0E6
:103F3000D0E90010CDE90010984C029810B194F827
:103F4000247000E00127A8219448CCF7E6FD40F258
:103F5000AC519348CCF7E1FD8C219248CCF7DDFDC4
:103F6000904800268030904DC660066146618661AB
:103F7000AE6144211C30EE61CCF7CFFD89484FF48F
:103F8000A061E030CCF7C9FD8548C5F80760EE7246
:103F9000C021C038CCF7C1FDAE80AE71402183484E
:103FA000CCF799FD7F4820608C30606005F11800E7
:103FB000A0607C48DFF8F8919C30E06044302061DC
:103FC000E81DA06176480521C0386061281D206287
:103FD000DFF8E08189F80010182188F8001084F8D3
:103FE00024706A4600214FF6FF70FCF741E2F9C3E6
:103FF00001000000843D080000020000E5E5418367
:10400000DBFD6B4A009902F1800342F8861F9DF8A0
:1040100004001071C3F80B10D87319611875E960AA
:104020002874C5F8111068756E704FF0400A84F856
:10403000A2A04FF4C8605F49A4F8A400252081F82D
:104040002B0000F093FA0025474606E0606900EB7C
:10405000C50089F711FE6D1CEDB238788542F5D3A5
:1040600000254FF400684FF0070B1BE02068C5EBFC
:10407000C50100EB810705F12001384689F7F0FD05
:1040800089F7C7FB0146384689F7EEFD21686D1CAC
:10409000EDB2A1F80A80A7F808803E737E7387F816
:1040A00015B0BE7599F800008542DFD30C21606819
:1040B00089F7D6FD89F7ADFB0146606889F7D4FD25
:1040C0000D21A06889F7CCFD89F7A3FB0146A06804
:1040D00089F7CAFD0E21E06889F7C2FD89F799FBCF
:1040E0000146E06889F7C0FD00254FF01B094FF439
:1040F000A47B206905EB850700EB071005F1800123
:1041000089F7AEFD2F21226901EB0711FF205054E2
:104110002269322101EB071122F801902369342230
:1041200002EB071223F802B0D4F810C03623FB22AA
:1041300003EB07132CF80320D4F810C0382340F603
:10414000480203EB07132CF8032023693A22484660
:1041500002EB0712985223693C22594602EB0712E0
:10416000995223693E2202EB0712985222690AEB08
:1041700007101152154840F82560154846556D1C2A
:10418000EDB2102DB5D3606806726168A1F80C809D
:104190006168A1F80A80606886736068C6730298D7
:1041A000FFF78EFABDE8FE8FFFFFFFFF1F00000044
:1041B000840A0C0098730C00F86C0C000C400C0086
:1041C00044790C000A270C000B270C00946C0C009F
:1041D000D46C0C0001484078704700000C400C0083
:1041E000074A08B50146126841F27F7090470121E5
:1041F000009001758A1E69460248C9F762A781F8D6
:1042000001000000803F080000020000110DFF3E89
:10421000CFFC08BD30370C0058130C0001B582B03C
:1042200002980168A1F5C0517139182926D2DFE83A
:1042300001F01A0C0F1A1417251A1A1A1A1A1A1A38
:104240001A1A1A1A1A1A1A1D2023FFF757FE0EBD42
:1042500000906846C8F7DFFC0EBDFFF7A9FD0EBD54
:10426000FFF712FD0EBDFFF78BFA0EBDFFF70CFB3B
:1042700004E0FFF727FB01E0FFF734FB02A8E9E7C2
:10428000044B03EB8000A0F50073981C198002809A
:104290007047000044790C0008B5FFF739FB10495E
:1042A00013200968884738B1FFF774FB002815D040
:1042B000BDE80840FCF7C8BBFFF76CFB094A0F21BB
:1042C00013201268904786F723FE410806480090A5
:1042D0000648037842880F2087F732FA08BD0000AD
:1042E000BC390C00C4390C001D400C00260B0C001E
:1042F00010B5FFF70DFB1149132009688847002806
:104300001AD00F490220096888470E4949780843A6
:1043100007D0FFF73FFB00280ED0BDE81040FCF7A8
:1043200093BB094A0F2113201268904707490F20B9
:104330000968BDE81040084710BD0000BC390C00FA
:10434000B8390C000C400C00C0390C00CC370C0004
:1043500010B504460146504A504884F7ECFA504ADA
:104360002146504884F7E7FA4F4A4E494F4884F7B0
:10437000E2FA4F4A4B494F4884F7DDFA4E4A494921
:104380004E4884F7D8FA4E4A46494E4884F7D3FA45
:104390004D4A44494D4884F7CEFA4D4A41494D486B
:1043A00084F7C9FA4C4A21464C4884F7C4FA4C4A6F
:1043B0004A494C4884F7BFFA4B4A48494B4884F76E
:1043C000BAFA4B4A45494B4884F7B5FA4A4A21465E
:1043D0004A4884F7B0FA4A4A48494A4884F7ABFA4F
:1043E000494A4649494884F7A6FA494A2146494874
:1043F00084F7A1FA484A2146484884F79CFA484A7B
:104400002146484884F797FA474A46499FD691E3A0
:10441000010000007C41080000020000F45AA239AB
:10442000474884F792FA474A4349474884F78DFA48
:10443000464A4149464884F788FA464A3E49464832
:1044400084F783FA454A3C49454884F77EFA454A51
:104450003949454884F779FA444A3749444884F74A
:1044600074FA444A3449444884F76FFA434A21466F
:10447000434884F76AFA4249424A01F10C0084F742
:1044800064FA3F49404A01F1180084F75EFA3C495A
:104490003E4A01F1240084F758FA3949BDE810403A
:1044A0003B4A01F1300084F750BA0000AD5F0800CC
:1044B000040C0C008D4E08000C0D0C00F54F08008C
:1044C000100C0C00FD4C08001C0C0C00F5F5000055
:1044D000280C0C00E54E0800400C0C007D4F080035
:1044E0004C0C0C00A5F40000340C0C004DF800003E
:1044F000180D0C00A5F80000580C0C001FF9000066
:10450000640C0C00FFF90000700C0C00614B0800FB
:10451000240D0C00514C08007C0C0C00C94B080009
:10452000880C0C00DBFB0000940C0C0091FC0000DC
:10453000A00C0C00AD4D0800300D0C00A5FD0000D6
:10454000AC0C0C001BFE0000B80C0C00854D0800E4
:10455000C40C0C0039FF0000D00C0C0089FF0000D7
:10456000DC0C0C00EDFF0000E80C0C003300010037
:10457000F40C0C009D010100000D0C00B5AA080010
:10458000707F0C0099A9080049AA0800DDAC08005A
:10459000D5AB080010B52F4A00212F4884F7D5F974
:1045A0002E4A2D492E4884F7D0F92E4A2A492E4802
:1045B00084F7CBF92D4A2C492D4884F7C6F92D4AAA
:1045C00025492D4884F7C1F92C4A2B492C4884F7FA
:1045D000BCF92C4A28492C4884F7B7F92B4A2A49B8
:1045E0002B4884F7B2F92B4A23492B4884F7ADF9BD
:1045F0002A4A19492A4884F7A8F92A4A28492A4800
:1046000084F7A3F9294A2649294884F79EF9294ABB
:104610001149294884F799F9284A2749D1BE2FB270
:1046200001000000784308000002000000B21C8472
:10463000284884F794F9284A2449284884F78FF9B0
:10464000274A2249274884F78AF9274A1F492748D9
:1046500084F785F9264A0549264884F780F9BDE89C
:1046600010401E48FFF788BE57DC00002C0B0C00E2
:1046700019560800380B0C00C5DD0000440B0C0077
:104680005DDE0000500B0C00A9DE0000EC0B0C00FE
:104690000FDF00005C0B0C008FDF0000680B0C00CC
:1046A000A7E00000740B0C00FBE00000800B0C0086
:1046B0004FE10000F80B0C00A55408008C0B0C0017
:1046C00055540800980B0C0039510800A40B0C003D
:1046D00027E90000B00B0C0089E90000BC0B0C00BE
:1046E0001D510800C80B0C0023EB0000D40B0C007C
:1046F00081EB0000E00B0C0070B5034600205979F7
:10470000012906D0022919D004291DD0032914D06B
:1047100018E09E79022E00D9122000210A460AE0F4
:104720005C18E479A51E082D00DD1220491C2144E7
:10473000521CC9B2D2B29642F2D870BD997909B171
:104740000329FAD9122070BD99790129FAD870BDD0
:1047500005490023896804E001EB8002C2F8423079
:1047600009680029F8D17047587E00B02DE9FC4156
:10477000244A0646A2F108000021806800910191B8
:104780003DE00379B34238D191B3006808601E4F11
:1047900006EB461107F5E870002400EB810504EBF9
:1047A0004400C0EB4410385C58B105EB840090F82D
:1047B0004200800705D5A91D68790023224600F034
:1047C000EFF9641CE4B2102CE9D305F10C0035219B
:1047D000CCF7CBF905F142004021CCF7A4F9094808
:1047E0006B4600223146001F00F076F9BDE8FC81DF
:1047F000FFE7106800681060C9E7014600680028FC
:10480000BFD1F3E7607E00B04C4A0C002DE9F35FA6
:104810004FF0000ADFF810B10C46564606EB460092
:10482000C0EB46101BF800209AB100EB18E7C83225
:10483000010000007445080000020000194AC2F49B
:104840000B08607998F80510814208D101282CD016
:1048500008F10600A11D009AFBF7D0FFF0B3761C0B
:10486000F6B2102EE4D3102E43D006EB4600C0EB78
:10487000461001220BF80020584462784270A1785B
:104880008170E178C170217901716179814641714E
:104890006079012830D009F10600A11D009ACCF7FB
:1048A00011FB46EA0A20BDE8FC9F00273D4617E0C1
:1048B00005EB450101EBC50108EB0100E119894653
:1048C00011F8072FC01D521CFBF798FF58B999F833
:1048D00007007F1C3844C7B26D1C00E006E0EDB253
:1048E000A079A842E4D8A079A842B8D14FF00C0A28
:1048F000B9E74FF0070AD4E70027A17989F8061035
:104900003D4616E005EB450104EB070801EBC50148
:1049100009EB010098F80720C01D521C08F107019F
:10492000CCF7D0FA7F1C98F807006D1C3844C7B24A
:10493000EDB2A079A842E5D8B3E700004C4A0C00DC
:104940002DE9F04F89B080460020059098F80D00C1
:104950000690D8F80E200092B8F81200ADF80400C6
:1049600098F814000390404408F10A0190F915A04A
:1049700098F809005246C01EC0B20844694607882C
:10498000089780780290069800F0E6F88146FF28A4
:104990007ED000250120089900FA05FB1BEA010FD3
:1049A00059D005EB45004D4EC0EB4512B05CE8B365
:1049B00009EB491106F5E87000EB810000EB850476
:1049C00002EB060094F84210C278067902EB420C22
:1049D000CCEBC2124FF6FF7C0CEAC202079245EA0A
:1049E0000922049201F001038A075CD490F90120A6
:1049F00052452BDC53BB41F0020004F8420F012367
:104A00002A466946069800F0D5F82078DFF8D0B03D
:104A100040F0010004F84209DBF8003041F2124195
:104A2000049A079898470EB1FF2E00E00DE012D0CF
:104A30006420DBF80030704341F211415ED3F4573B
:104A4000010000007047080000020000EDA27C4950
:104A5000049A9847002084F84300A4F8440004E036
:104A6000029810B10EB127EA0B076D1CEDB2102DA4
:104A70009AD341F21841C8F80010059880B11E4839
:104A800009EB491100EB8104039A04F10C00163282
:104A90004146CCF76BFA03980C3060750120E07545
:104AA000164800E005E0007810B10298E0B1002758
:104AB000E7B1012009B0BDE8F08F90F9021051452F
:104AC00006DA0C4B41F21241049A1B68079898478A
:104AD0000120059014F8430F401C04F8010B2188B5
:104AE00001EB0A002080BBE70127E1E70020E1E7B6
:104AF0004C4A0C0094370C001C4C0C00587E00B043
:104B000070B50025046801E025462468002CFBD11F
:104B1000094E01EB411406EB84014A711A68C1F891
:104B200006209A884A81002246F824200DB1296087
:104B300070BD016070BD00001C4C0C0070B50546D6
:104B400009480E46846809E06079A84205D106222A
:104B50003146A01DFBF75CFE20B12468002CF3D188
:104B6000FF2070BD207970BD587E00B02DE9F04760
:104B7000144C8146251F1646A8688846E71E48B192
:104B80004846FFF7DBFFFF2818D1686820B938785E
:104B9000FFF700FE686898B1206843464A460579E9
:104BA0000068206007482946001DFFF7A9FF97F914
:104BB0000100B04201DD7E703D702846BDE8F087FF
:104BC000FF20FBE75C7E00B010B586B00624CDE97F
:104BD0000214CDE904230221CDE900100B23034A7E
:104BE0000021FF208EF7CEFF06B010BDECE70800D5
:104BF00070B54FF4E8711448CBF7CBFF4FF4046164
:104C00001248CBF7C6FF124D0024104BC5E9013402
:104C1000204600EB401203EB820101F1840643F8C9
:104C200022600871401CC0B20F28F2D300EB401183
:104C300043F8214003EB810108710548FF21401C26
:104C4000417004702C7070BD4C4A0C0034BC8BBD9C
:104C5000010000006C490800000200002ABB7E141D
:104C60001C4C0C00587E00B0F1B50098057A4489C0
:104C700006796846C8F701F822462946304616F0FC
:104C8000ADFBF8BDF8B516460B4A069D11780B2909
:104C900000D3FEE701EB4104084F491C07EB041465
:104CA0000460117004490093204633462A46491C8B
:104CB000C8F704FCC0B2F8BDEC7D00B038430C006E
:104CC00010B588F765FF88F796FF07490220096845
:104CD0008847002807D0FEF78FFE002803D0BDE8E4
:104CE0001040FBF7E3BE10BDB8390C0010B5044608
:104CF00088F78DFE08B13A2010BD204688F740FFA6
:104D000088F779FF054902200968884720B1FEF736
:104D100073FE08B1FBF7CAFE002010BDB8390C00C5
:104D200010B5164C14490020226890472268144997
:104D300002209047226813490520904722681249B3
:104D400008209047226811490420904722681049A2
:104D50000620904722680F490B20904722680E4991
:104D60001F2090477F2086F760F9BDE810404FF480
:104D7000110086F76EB900008DB60000183D0C00DA
:104D80009DB60000714E0800CDB60000594E0800D7
:104D90003D4E0800EDB6000013B7000014490C2882
:104DA00012D00D2812D00E2812D0202812D3114A6A
:104DB0001278203290420DD20F4A0968C0EBC00031
:104DC00002EB800008447047486870478868704765
:104DD000C8687047A0F18002102A07D2096900F064
:104DE0003F0000EB800001EB00107047002070478F
:104DF000840A0C000A270C0080FCFFFF2DE9F0411B
:104E0000034608680C4600250168114AA1F5B8560A
:104E1000833E04D1968DA6F57F47FF3F0AD1A1F5C9
:104E2000B8567F3E03D01A3E01D0B61E09D192F883
:104E30002A2032B1FF220021FCF792FC2560BDE858
:104E4000F081BDE8F0410246184683F793BD0000AB
:104E500060090C002DE9F04107464468D2DA7DF67E
:104E600001000000684B080000020000DE53C0A9EA
:104E70000E4608686FF4C051401813490A6802D002
:104E8000022814D10BE0A1880220904778B1204677
:104E90000E4C00232A2224680F21A04711E0A1888C
:104EA00003207568904710B1287A0F2805D0314645
:104EB0003846BDE8F0418AF76DBF697A20468AF727
:104EC000B6F80020BDE8F081B4390C00E0390C00E0
:104ED0003EB50A68446812F1020F28D0B2F1FF3FD4
:104EE00004D003B0BDE830408AF7B5BF174DA088A5
:104EF00002AB2D6801AA6946A847A08888F7B6FDCD
:104F0000BDF80410009A401AA18B490001FB002053
:104F1000009086F739F800990D4D091FC0EB41004C
:104F20002D68A288012341F28671A84709E0A08874
:104F3000FBF7F8FD074A94F82E000121126890470C
:104F4000002084F82E0000203EBD0000B4370C0085
:104F500060370C0064370C002DE9FC4105464468BD
:104F60000868B0F1FF3F08D0A0F5B850AB383FD08B
:104F70002846BDE8FC418AF72ABFA28802F03F001C
:104F800000EB400101EBC0001A4901EBC00090F8B2
:104F900082601948D0F89800816811B31046FEF776
:104FA000BDFDF0B100200090A088072301AA0121D7
:104FB00087F7B0FF050018D0A0880021FBF7FAFCA6
:104FC000074686F00101A0883A46FBF73BFE0199AF
:104FD0003A680A60387908710021284687F7B4FFDB
:104FE00003E00649284683F7EEFC0020BDE8FC817B
:104FF0000349F7E798730C00840A0C00040C0C00BA
:10500000880C0C001CB5024643680868B0F1FF3FED
:1050100005D0A0F5B850AC382ED008461CBD0020F5
:10502000009098880B2301AA002187F773FF0200E4
:1050300020D0144901984B7C03708B7C43704B8AC1
:105040001B0A83700B7DC3708B8A1B0A03718B7DD7
:105050004371CB8A1B0A83710B7EC3710B8B1B0AB6
:1050600003728B7E4372498B090A8172F4D5709664
:1050700001000000644D080000020000C7AB1ED90B
:105080000021104687F76AFF00201CBD0349104627
:1050900083F7A3FCF8E7000060090C00280C0C0063
:1050A00010B50B684268A3F5B853F73B03D0BDE8D1
:1050B00010408BF7A2B83D21D177024983F78DFCD0
:1050C000002010BD380B0C002DE9F0410D460746BD
:1050D0004468D5E9000610F1020F13D0A0F5B850CE
:1050E000F73803D0092801D00A282AD1184AA18804
:1050F00002201268904720B3FF2201213046FCF7BE
:1051000043FB1BE0204688F7DEFDA08800218CF7DA
:10511000FBFAA088002186F786FB94F82800000798
:1051200003D5E17F204689F744FF14F8280F094989
:1051300020F00A0020704FF6FF7088850020BDE83F
:10514000F08129463846BDE8F0418AF771BF00007A
:10515000B4390C0060090C00054A48F202011180C4
:10516000034A48F212012E32118086F745BC000036
:10517000280C02A9044A48F234011180024A891C11
:105180002E32118086F720BC280C02A9054A48F26D
:1051900002011180034A48F212012E32118086F773
:1051A0001BBC0000280C02A970B50A6844680D46B3
:1051B000064612F1020F12D06FF4C050101813D12E
:1051C0000C4AA18802201268904768B120460A4C18
:1051D0000023232224680F21A047002070BD074927
:1051E000002081F82A00F8E729463046BDE87040E3
:1051F0008AF79AB9B4390C00E0390C0060090C0048
:10520000F8B50746456808684C68A0F5B8500E46E2
:10521000FF3804D03846BDE8F8408AF728BC207A29
:105220000F282CD1174AA988022012689047F0B1A4
:105230003068A0F5C051033902D1617A1A2903D030
:10524000A0F5B851FF3912D10F4AA98841F679006B
:1052500012689047009018210830CBF7B8FC4FF047
:10526000FF3269460948C8F7E9FC094904E0617A58
:10527000284689F7E6FE0749384683F76E2DD6CAD9
:1052800001000000604F0800000200003343A064EA
:10529000AEFB0020F8BD0000B4390C0030370C0024
:1052A00058130C00100C0C00040C0C0070B50446D4
:1052B0004568086841F2FF764A68831BB0420FD008
:1052C00005DC13F10B0020D0062804D122E0022BCC
:1052D00016D0042B04D02046BDE870408AF70EBCDF
:1052E000117A0F291AD1B04201D11A2100E0517A66
:1052F000284689F7B0FE0A49204683F778FB0DE07F
:105300002946204605F040FF08E02946204605F0E2
:105310001BFF03E02946204605F0C8FF002070BDB2
:10532000040C0C00F0B506464568086885B0A0F589
:10533000B8508E3809D01C2805D005B03046BDE8DD
:10534000F0408AF761B93D4971E04C68A17C19B120
:10535000284689F780FEF6E7A089401E80B288F7CC
:10536000A1FC0746A88B401E80B288F79BFC8742B1
:1053700001D9A08900E0A88B401E80B288F792FC7A
:105380002F4F7874A1894A1E904200DB481EC0B29C
:105390007874022800D80220DFF8A8C07874A888A2
:1053A000DCF800C003AB6A4602A9E047A88804AA5B
:1053B00001A9FEF797FCBDF8040030B1A989BDF83A
:1053C0001020491C02FB010003E0A889401CC0EB2F
:1053D000C000ADF80400BDF8001080B2014479832C
:1053E000A98B029A4FEA410101FB00200290A268BA
:1053F000A189A0EB020303EB4103A3F101034FEAF0
:105400004105B3FBF5F3039301FB03F302EB430206
:10541000A2EB000000EBD070401000D50844788269
:10542000A089B882E089F882208A0749388330460B
:1054300083F7DDFA05B00020F0BD0000040C0C007D
:1054400060090C00B4370C001C0C0C000B6842689F
:10545000A3F5B8537C3B04D11623D37741F288726D
:105460000A6089F76EBC00002DE9FC5F0D46064618
:10547000D5E9001341F299724468881A914211D01B
:105480001ADCB1F5BC5FFAD00DDC11F136113158E0
:10549000010000005C510800000200004D5807D4D4
:1054A000020F74D04FF0FF3B0027594521D010F177
:1054B0001E016DD004296CD13DE16FF4BC50081879
:1054C000FAD00128F8D00228F5D134E16128F3D0D0
:1054D00008DC0228F0D05A28EED05B28ECD05F28F8
:1054E000E9D128E16828E7D06D28E5D07328E2D11A
:1054F00021E1A0460E2088F739FA0446808EA0F5F7
:105500007F41FF3902D188F765F9A086A08E88F720
:105510002DFA0546182204F118010830CBF758FD82
:105520008C4B85F8287000221B68A8881146984784
:1055300094F8360078B1AB88884A03F03F0000EB5E
:10554000400101EBC000844901EBC00090F88210DB
:105550001846FBF795FBDFF808A2216B0AF1D00093
:10556000C0E900174046CAF8D87088F7E4FB88F70E
:10557000B4F90146404688F7DBFB3146284688F7F8
:10558000D7FBA98894F8360020B1022003E091E00F
:1055900076E0D9E00320734A1268904705F81F7F30
:1055A000B946697A684641F010016972EF730027C5
:1055B0001F3D394684F7DAFD5FEA00084FD00098B6
:1055C00080F8009029794170A988090A817094F8BF
:1055D0003610B9B30021C170617B0171D4F80E108F
:1055E000C0F80510618AA0F809104FF4007084F724
:1055F00025FC68B10098A16B0C2740F80B1FA18F08
:105600008180D4F83E10C0F80610B4F842104181F1
:10561000009894F82C103844C172A18D090A0173C6
:10562000217F4173A18B090A8173A17FC173E18B33
:10563000090A017494F8361039B14849903991F843
:10564000241007E0FFE70121C5E7297901F03F02B7
:105650001AF8021041744449404609688847434A91
:10566000A98841F67C0012689047009094F83610A3
:1056700001725A4669463E48C8F7F4FA3D4915E0BA
:10568000187A152860D11525E5770097A0880123A1
:1056900001AA022187F75CFC20B101995D4D981A9F
:1056A000010000005853080000020000B9B0B969B9
:1056B0000D70002187F770FC7068FEF761FC3349BC
:1056C000304683F7A8F946E031492046A5880968A5
:1056D000E77F8847284612F004FB2E4928460968D0
:1056E0008847DFF8B4C000231A46DCF800C019462A
:1056F0002846E047706888F728FB002211462846B4
:10570000FEF722FE284688F78EF8304688F71CF907
:10571000224A294602201268904708B1022000E080
:1057200003201F4A2946126890471E4B3A46002123
:105730001B68284698471C49284609688847A0885E
:1057400000220121FBF7FEFF05E0FF2201211846A0
:10575000FCF738F810B10020BDE8FC9F2946304620
:10576000BDE8FC5F89F74CB8D4370C0098730C0087
:10577000140B0C0060090C00C4390C0014370C0029
:1057800030370C0058130C00B00B0C00380B0C0019
:105790000C270C00CC370C00EC370C00B4390C0093
:1057A000C0390C0010370C006C370C0030B50A689B
:1057B000446885B0B2F1FF3F04D005B0BDE8304089
:1057C00088F7B0BF85F708FC4108207B0DF1040C79
:1057D000257D04F10E03627BACE82D00608900900A
:1057E00022890448044C038824680E20A04705B091
:1057F000002030BDFE410C00E4370C002DE9F041E3
:1058000080464568086886B0A0F5B8508D3805D048
:1058100006B04046BDE8F04188F7DDBE4C6805F1B2
:10582000240304F108004FF6FF7607C807C3606938
:105830002863012085F83600AE86208A88F746FA6C
:10584000464B0746218A1B683A4660699847E07CC8
:10585000F0B300273946684684F792FC06002FD043
:105860000098E17C0170FF214170817095F836103D
:1058700000296FD00021C170697B0171D5F80E102D
:10588000C0F80510698AA0F809104FF4007084F779
:10589000DFFA002138B100980C2740F80B1F8180F7
:1058A000C0F80610418100983844C172F3F7A67D14
:1058B000010000005455080000020000A0486719CC
:1058C000017341738173C173017441742949304676
:1058D00009688847E07CE8B32749404683F7A5F884
:1058E000002000E002E006B0BDE8F081A068009072
:1058F000A089ADF80400A07B8DF80600BF1C8DF8D0
:105900000770207C8DF80A00208A0121000A8DF89A
:105910000B00287F8DF80C00A88B000A8DF80D0075
:10592000A87F8DF80E00E88B000A8DF80F00304636
:10593000FBF772F80168049100798DF8140088F77C
:1059400060F8A17C60F35F118DF81510684685F74B
:105950004AF801E00AE007E0208B2881A08B074984
:105960006881608B0880B5E701218EE70449B4E7C0
:10597000F8370C0014370C00380B0C00FE410C00FB
:10598000980B0C00F8B50546D1E90004A0F5B85015
:10599000713806D041280DD02846BDE8F84088F778
:1059A00012BB68688088FFF735FA083408301ECCCF
:1059B0001EC01BE00E4A0D21122012689047A8B1AC
:1059C000607B00900B4E237B627A3668217A0D2033
:1059D000B047A07A217A42080D20FDF74FFE064914
:1059E000E07A08700549284683F71FF80020F8BDC3
:1059F000B0390C00F4370C00AD3F0C00E00B0C008C
:105A00002DE9F0412B4D01240020EA6892F8317015
:105A100079060ED492F8301092F83860C1F38013F2
:105A2000C6F38006B34204D081F04001002482F81E
:105A30003010A9694FF000060B785FEA837C18D517
:105A4000C4B923F002000870D06910F8291F21F0B2
:105A500040010170D06980F82B60002085F799F82B
:105A6000002085F789F8E868416B21F0E001416387
:105A70001CE0DCB1C7F3C10121B1012904D0022926
:105A80000FD105E06E610CE06E611089002106E027
:105A900010898BF75CFE6861E868012100898BF74B
:105AA00087FC2146BDE8F04100F006B8E8680089AF
:105AB000EFE70000C8410C002DE9F04126843DA02D
:105AC00001000000505708000002000054A0D9A4B3
:105AD0006A4D0A460026E9680446694F8E86686961
