:10000000010000000000080000020000DD07D1C868
:100010000000090049010800DF020800770208001B
:10002000790208007B0208007D0208000000000041
:1000300000000000000000000000000059DC040087
:10004000E30208000000000059DC04008D020800F3
:100050009B020800AD020800BF0208007F020800F2
:100060007F0208007F0208007F0208007F0208006C
:100070007F0208007F020800770208007F02080064
:100080007F02080077020800770208007702080064
:1000900077020800770208007F0208007F0208004C
:1000A0007702080077020800770208007F02080044
:1000B000770208007702080077020800770208003C
:1000C000770208007702080077020800770208002C
:1000D00000F002F800F02CF80AA090E8000C82442E
:1000E0008344AAF10107DA4501D100F021F8AFF20B
:1000F000090EBAE80F0013F0010F18BFFB1A43F006
:100100000103184730E7000090E7000000230024B7
:1001100000250026103A28BF78C1FBD8520728BF17
:1001200030C148BF0B6070471FB51FBD10B510BD73
:1001300000F01CF91146FFF7F7FF0DF0F5FC00F099
:100140003AF903B4FFF7F2FF03BC00F03FF90000F7
:10015000B0FA80F070470000394801684FF45C3312
:1001600021EA03014FF4E04341EA030101604FF04B
:1001700000004FF000014FF000024FF000034FF07D
:1001800000044FF000054FF000064FF000074FF05D
:1001900000084FF000094FF0000A4FF0000B4FF03D
:1001A000000C4FF0000EDFF89CF04FF0E0202649E5
:1001B000C0F8081D25482449096801604FF0E02077
:1001C0004FF00001C0F8181D4FF07F41C0F81C1D12
:1001D0001F49C0F8201DD0F8241D41F4E021C0F8CB
:1001E000241D70471B481C491A4A1C4B70471C4869
:1001F0001C4901601C484FF0000101604FF00006EF
:1002000086F309884FF0000686F30888879192FCF0
:1002100001000000FC0108000002000019D20EE3FA
:100220004FF0000080F3038880F3108880F3138878
:1002300080F3118880F314884FF0000213689D4604
:1002400002F10402136803F10C030D480D490E4A34
:1002500000BF18470C220080C10008000000080001
:10026000642E0C000000FF4000FC080000000900A4
:1002700000FC08000CED00E00200FA0508ED00E0CB
:1002800014AF209348E70F196802080001A19AB142
:100290000100000074020800E7A4FEE7FEE7FEE7A5
:1002A000FEE700B5CDF706FC00F0C4F8CDF7E0BBE3
:1002B00000B5CDF7FFFBCDF75DFECDF7D9BB00B59F
:1002C000CDF7F8FB4FF0000001F006FBCDF7D0BBF7
:1002D00000B5CDF7EFFB4FF0010001F0FDFACDF7CF
:1002E000C7BB00B5CDF7E6FB4FF0020001F0F4FA12
:1002F000CDF7BEBB30BFBFF36F8F7047401EFDD13F
:10030000704700F080B8FEE70348044901600448E4
:10031000044901607047000058160C009B0108005A
:100320005C160C0001E6080040EA010310B59B07CB
:100330000FD1042A0DD310C808C9121F9C42F8D04F
:1003400020BA19BA884201D9012010BD4FF0FF3000
:1003500010BD1AB1D30703D0521C07E0002010BD16
:1003600010F8013B11F8014B1B1B07D110F8013BA2
:1003700011F8014B1B1B01D1921EF1D1184610BD83
:10038000754600F029F8AE4605006946534620F050
:100390000700854618B020B5FFF72EFFBDE82040C6
:1003A0004FF000064FF000074FF000084FF0000B31
:1003B00021F00701AC46ACE8C009ACE8C009ACE8E4
:1003C000C009ACE8C0098D4670470446AFF3008011
:1003D0002046FFF7C0FE000000487047E47F0C0095
:1003E00001491820ABBEFEE726000200704700005E
:1003F0000120CDF705BCCDF703BC10B50446CDF701
:10040000DDFC206010BD70B511480068800503D583
:10041000BDE8704019F06CBD4FF0004485A96E67CF
:1004200001000000F803080000020000ED3AB05E91
:1004300042F2107594F8EE12992901D119F062FD7B
:1004400028461AF0A5FBF5E710B583F7E7F8103852
:10045000202805D2044951F820200AB100219047F4
:10046000002010BDD0220080CCCC00B010B50021FF
:1004700001208AF700FC4FF40044214600208AF74F
:100480000AFC214601208AF706FC214602208AF751
:1004900002FC8AF71AFB8AF712FB0028FBD18BF7C4
:1004A000A3F9044948F2340008800249801C2E3127
:1004B000088010BD280C02A910B5A0F57F42FF3AB4
:1004C00005D10C4A002100F035F90B4810BD00F0B1
:1004D0003F0000EB400202EBC002074800EBC20203
:1004E00092F8820009B980F001002B2100FB012065
:1004F0002C3010BD140B0C00D0730C0010B5064846
:100500008AF773FCFFF7B2FF00208AF794FCBDE87E
:10051000104000208AF79BBA7509008000F03F0266
:1005200002EB420000EBC2020E482B2300EBC2009C
:1005300090F8822002F0010202FB03022C3202EB4F
:10054000D10001F007030078D840C00701D0084669
:1005500070475079B1FBF0F300FB13101044807921
:1005600070470000D0730C0038B5074A04460F21CD
:10057000126841F6750090470090002803D084600F
:1005800068468BF781FF38BD34370C0030B4054C1A
:1005900020700548017005480270438030BC00F0AF
:1005A00007B80000E8410C00F4410C00260B0C00D9
:1005B0000B4908B509681320884700280ED009495F
:1005C0000F20096888478AF777FB410806480090A2
:1005D0000648037842880F208AF786FF08BD00008E
:1005E000BC390C00CC370C0019400C00260B0C0059
:1005F0000A4600F03F0000EB4001054B01EBC00153
:1006000003EBC10191F8821081F0010100F092B872
:10061000D0730C0000F03F0000EB400101EBC00183
:10062000044800EBC10010F8821F81F037A963284D
:1006300001000000F405080000020000F4C26E2E64
:100640000101017070470000D0730C00034800885E
:100650006FEA1020401C40B2704700000C0C02A949
:1006600070B50646C41D122509A188F749FC38B1AA
:10067000B4F80330A27861782078FFF791FF002565
:10068000074A01213046126890470570304670BD18
:100690000401506C01506C0100FF020000FF7F005C
:1006A000D83A0C002DE9F04107461226B0F8075061
:1006B0000DA188F725FC00B100260D4A0821384617
:1006C00012689047067004464570280AA070012100
:1006D0002846FFF7FBFE0168C4F803100079E071BB
:1006E0003846BDE8F081000001020000FF0E000066
:1006F000D83A0C0070B50546122408A188F700FC12
:1007000018B1E81D04F0E0F80446054A0121284626
:10071000126890470470284670BD0000014D050026
:10072000D83A0C0001B507A1009888F7E9FB18B189
:100730000098C01D04F0B2F86846CCF74AF90020D2
:1007400008BD0000014D0A0010B5A0F57F43FF3B36
:1007500001D114490EE000F03F0000EB400303EB31
:10076000C000104B03EBC00301F001002B2101FB83
:1007700000312C3110680860107908710020487130
:100780008B1D01EBD00200F007041278E240D20783
:1007900003D04A79541C4C71D054401CC0B2252857
:1007A000EFD310BDD0730C00054910B501200870BF
:1007B00001F04AF803480068BDE810400047000017
:1007C000D00000B0B0310C00014800787047000044
:1007D0001C410C0001490020087070471C410C00AE
:1007E0000A4910B5084A0A601F224A6000228A603E
:1007F0000A764A764A8308B90122CA75FFF7EAFFEA
:10080000BDE8104007F002BA20130C0000000C00F5
:1008100008B5574F574E4FF0FF394FF4C8780024B2
:100820004A4669463068CCF7C5FF0028F8D10098E1
:100830000028F5D00168A1F5985192394E92896946
:1008400001000000F007080000020000002AD09319
:1008500017D00A290CD0A1F560610C3902D001290A
:1008600071D102E007F0E0FA85E089F7B9F882E09B
:100870000146407A01230A303D680022A8470094CF
:10088000D8E7317E0025491C317681888A0A052AFD
:1008900024D004DC012A07D0032A69D111E0082AF8
:1008A00023D03F2A64D127E0C1F30901062902D0F1
:1008B0001D2903D05CE088F725FF4EE088F75FFF35
:1008C0004BE0C1F309012D2902D0332903D04FE0B9
:1008D00088F738FF41E088F765FF2FE0C1F3090191
:1008E000052945D188F769FF37E0C1F309010A29D5
:1008F00000D10125254A0CE0C1F30901A1F18002D4
:100900001F2A0AD87F3989B2172900D300211F4A2C
:10091000E43252F8211088471FE071290CD0742965
:10092000E0D075290CD0E9290ED0A1F25312062A85
:100930000DD807F01FF910E088F75BFF01460EE0C5
:1009400089F744FA09E019E089F759FA05E04145C9
:100950000ED341450CD807F019F90146009431B186
:10096000487A01230A303D680022A84703E015B900
:10097000307E401E30760098002881D06846CCF743
:1009800032F857E7F8360C0000000C00703E0C00FF
:1009900010B589F718FA074A04460E21126811208B
:1009A000904714B1012C02D108B1012010BD0020E4
:1009B00010BD0000B4390C002DE9F843044600F0E6
:1009C0003F071B480D4607EB00067078C00601D4B0
:1009D000232D2BD1174B052269461B680C20984705
:1009E00080460098144A210A057044708170D15DD8
:1009F000C90701D0022100E00121C170D15D490881
:100A0000C90701D0022100E001210171232D03D08B
:100A1000707820F0100070704FF4006089F79CF837
:100A2000002803D00549404609688847BDE8F88397
:100A30001C6D0C0004370C0038610C0014370C00DE
:100A400070B51546084A0E46044601462FBBCBAC8E
:100A500001000000EC09080000020000C733D2CEFC
:100A600012680220904730B12A463146204603F0F2
:100A7000FFF9002070BD122070BD0000B4390C00D9
:100A80002DE9F34F85B001F11400039008380026DA
:100A90000190001D0C4601F108084FF0010B029077
:100AA00058E031485F4610F806900BFA09FA11EA4F
:100AB0000A0F4BD0A06828B91146484605F086FFBA
:100AC000A060E8B3284948465031039A51F83930BC
:100AD000059998470025BB462FE00BFA05F73842E9
:100AE00024D029464846039B059A05F059FD022E5D
:100AF00009D91E4A05EBC50102EB810109790129DB
:100B000001D058B912E028B13146284605F048FF17
:100B100020B10BE06068B843606007E0CDF800806A
:100B2000DDE90121231D284605F0E0FEA0686D1CCB
:100B3000B843EDB2A060202D04D2A068002800E0E8
:100B400000E0CAD1208820EA0A002080761CF6B294
:100B5000072E04D2626812B121880029A1D107B002
:100B60000120BDE8F08F000044400C00707E00B012
:100B7000F0B5114BD3E901431C437F23446003804C
:100B8000002383600373036143751C460EE0CE1897
:100B900000EB4405767805F8613F06F03F063344E4
:100BA000B71F1B1D641C6F70DBB2E4B29342EED31F
:100BB00080F86040F0BD000038400C0030B59BB0BC
:100BC00000F108056C46427929462046FFF7D0FF20
:100BD00021462846FFF754FF049828B1024604F145
:100BE0001401284600F086F99DF80C00002800D07A
:100BF00001201BB030BD00002DE9FF4F0546DFF896
:100C0000B49000EB450709EB870083B042689B4630
:100C10000C46FF261AB1194605989047064601A8CA
:100C2000009033465A462846059906F011F9244AA1
:100C300004EBC4032049DFF884A002EB83024FF0E9
:100C4000010802EB4504A0B19DF80420A08A08FA2F
:100C500002F24546104203D00C2007B028BE01E442
:100C600001000000E80B08000002000033DB6C7399
:100C7000BDE8F08F086880479DF80410A08A8D4079
:100C80002843A0821AE014489DF80420405D904259
:100C900001D80D20EBE7086880479DF8040000901C
:100CA00059F8277033465A4628460599B8479DF8A3
:100CB0000420A18A08FA02F00143A182DAF80000B8
:100CC00080470020D3E700004C400C0058370C0050
:100CD0005C370C00707E00B00CE8080070B505466B
:100CE00008480C4602689047074904EBC40001EB32
:100CF000800000EB450000228282044800688047A3
:100D0000002070BD58370C00707E00B05C370C00BE
:100D10002DE9FC410D46044600EB44011A481746F4
:100D200000EB81001E464268FF231AB13146384667
:100D30009047034601A8009032463946204606F007
:100D400091F8F0B1114805EBC50100EB810000EB13
:100D500044049DF80410A08A012606FA01F52842F1
:100D60000FD00B48006880479DF80410A08A06FA4F
:100D700001F5A843A0820748006880470020BDE82D
:100D8000FC810C20FBE700004C400C00707E00B0A2
:100D900058370C005C370C0010B5044606F0D2F84A
:100DA00006F0A2F80249095D081AC0B210BD0000A1
:100DB0000CE808002DE9F04104468778B0F80330CC
:100DC000407A00268846022802D033F07D0001D008
:100DD000112630E0384606F081F908B10C262AE0E9
:100DE000184606F0C3F8174B07EBC70223F822009A
:100DF000607900F07D0006F0B9F803EB82056880A9
:100E0000E0792871207A6871607AA871608990F71A
:100E1000E7F8A860207B2873607B6873E08990F70F
:100E2000DFF82861102085F82000384606F064F9C4
:100E3000384606F0FDF80448017888F8001030467E
:100E4000BDE8F081707E00B038400C0070B5074CF2
:100E50000E46A56806F012F9284600F074F87F20C7
:100E6000607020783070002070BD0000AC8ABEF742
:100E700001000000E40D0800000200002A23B20374
:100E800038400C002DE9F041857888460026284638
:100E900006F02EF91B4F58B1284606F00DF91A48F6
:100EA00005EBC50100EB8104A079012802D004E024
:100EB0000C2621E0284605F03BFF94F9050097F940
:100EC0000150A84206D0A079012815D194F90D004F
:100ED000A84211D17F2078700024204606F008F93E
:100EE00030B1204606F012F997F90100A84203D06C
:100EF000641CE4B2202CF0D3397888F80010304616
:100F0000BDE8F08138400C00707E00B002480078E7
:100F1000087012207047000038400C002DE9F0479F
:100F2000814648781446884620B942464946002002
:100F300005F0C8FC002501270BE007FA05F626425C
:100F400005D042464946284605F07EFDB4436D1C57
:100F5000EDB2002CF1D1BDE8F0872DE9F04100257C
:100F60000446012709E007FA05F6264203D0B443F8
:100F7000284605F0DDFE6D1CEDB2002CF3D1BDE876
:100F8000F081000070B504460579FFF745FC0028A4
:100F90001FD0284606F0ACF800281AD06068C0F3CD
:100FA0000744C0F307210B4800EB0410807A81420C
:100FB0000FD100282146284602D005F003FE01E0AB
:100FC00005F0F8FD002804D02046BDE8704005F08B
:100FD0003DBE70BD0C8900B010B50C4C00204FF424
:100FE00090616060A060202020700948CFF7AFFCBE
:100FF0007F2060701020A0700024204605F026FE9F
:10100000641CE4B2102CF8D310BD000038400C0072
:10101000707E00B0F8B5064614460D464020CBF76A
:10102000FDFC0100009015D041F29C320A60FF22C5
:101030000A72052201F10A004A72552101704670B8
:101040008570C470210A01710348921F69460068C7
:10105000CCF7B4FCF8BD000000000C00F8B54678F1
:1010600005462036304603F019FD0446007B012872
:1010700001D9042809D1114A314601202704729F61
:1010800001000000E00F080000020000DECB0CBEF3
:101090001268904718B9287808B10C20F8BD0D4A9D
:1010A000314641F2727012689047009029780172BF
:1010B000608B11B140F0010001E020F0010060837D
:1010C0004FF0FF3269460448CCF782FC0020F8BD9F
:1010D000B0390C0030370C0058130C00F8B51E4A1C
:1010E000457D044605F120061268314600209047F0
:1010F00008B10C20F8BD194A314641F271701268EE
:101100009047009021880181618841812179017394
:1011100061794173A21D284601F08EFA0098217B67
:101120008173D4F80D10C0F80F10B4F81110A0F8A6
:101130001310E17C4175217D8175E27D94F91610D3
:10114000284601F06BFA4FF0FF3269460448CCF7AD
:101150003FFC0020F8BD0000B4390C0030370C0013
:1011600058130C00064A002152F82130834201D165
:1011700001207047491CC9B20E29F5D300207047E1
:10118000D03F0C002DE9F04106464FF492712748FC
:10119000CFF7E7FB26481B24274904702548086041
:1011A0002649363008602648006880471F4D4FF6B4
:1011B000FF70A885002085F82A0085F81D01A5F894
:1011C0001E414FF4A470A5F8200105F16000CBF793
:1011D00049FC05F168008046CBF744FC002404EB91
:1011E000440005EB800070300746CBF73BFC3846E7
:1011F0004146CBF751FC641CE4B2082CEFD33046D7
:1012000002F0BCFC11210F48CFF7ABFB0D480E4993
:10121000603808600D49022008700D4930460968A1
:101220008847BDE8F041FFF7E1BE000060090C000F
:10123000DD260C00D8C80900E4260C00E8260C00C6
:1012400054370C001C6D0C00E0260C00DC260C0052
:1012500024370C002DE9F84314460F4605468CF759
:101260003BFADFF8688005F03F05194E58F8250075
:101270004FF0FF3937BB2CB3002812D0016811B9E9
:1012800011E0006811460A681AB1641E08D625D715
:1012900001000000DC11080000020000A0D0AB0E2D
:1012A0002404240CF7D102601C3100914A4669469F
:1012B0003046CCF797FBBDE8F88350F81C1B48F884
:1012C0002510009044464A4669463046CCF78AFBD2
:1012D000002FF0D054F825000028EED1EBE70000F5
:1012E000CC6C0C0058130C002DE9F047064684889E
:1012F00015468A460068FFF73FFF074620468CF7F1
:10130000F5F95FB3DFF8589004F03F08BAF1000F29
:1013100059F8284009D04020CBF794FB070004D0AF
:1013200040223146CFF714FD3E463046CBF799FBBD
:10133000002101600CB11DB105E049F828000AE068
:101340000460FAE70C46216819B16D1E2D042D0CBE
:10135000F8D1016020600120BDE8F0870020FBE7A4
:10136000CC6C0C0070B50C46064600258CF71EF9B7
:10137000A8B10C4806F03F01425CD00706D002201D
:1013800042F34001491C03D0012202E00120F7E7AB
:10139000022240EA022500202070284670BD02206B
:1013A000FAE7000038610C00F8B515460E4A0E4603
:1013B0000446014612680320904798B10B4A214623
:1013C00041F6F12012689047009058B12A46314604
:1013D000204600F00FF900990872684601F0C6FE39
:1013E0000020F8BD0C20F8BDB4390C0030370C00DB
:1013F00030B5114C00F0010504EB850500236D5C50
:10140000122D17D0C0F3400504EB8504A45C122C08
:1014100010D0C40700D00321084D4008C0072C7825
:1014200061F301042C7000D0032262F383042C705A
:10143000184630BD1223FBE7BE3F0C001C6D0C00AC
:101440002DE9F8430024984617460E46814600943D
:101450008CF74CF9054648468CF7A8F8C8B12948DE
:1014600006F0010100EB8101C95D122913D0C6F31A
:10147000400100EB810111F8080012280BD022482E
:1014800090F82300C0070CD095F82100C0070CD1BC
:1014900003E0022406E0122404E095F8EDCB579710
:1014A00001000000D813080000020000543815B3F2
:1014B0002000C00703D011242046BDE8F883F007C0
:1014C00000D00227164809F03F010D18710868780E
:1014D000C90767F30100687001D0022100E04146AE
:1014E00061F383000F4A68704946126841F2AF7099
:1014F0009047009070B169784FF0FF3201F003011E
:1015000001726978C1F38101417269460648CCF7DE
:1015100073FAD1E70724CFE7C63F0C0060090C003F
:101520001C6D0C0030370C0058130C0008B5334C00
:101530004FF0FF352A4669462046CCF781F900284E
:10154000F8D100980028F5D00068A0F5F851463988
:1015500003D12B4968460968884700980168A1F5BE
:10156000B8517039FF2917D8808803F0B5FA98B1BF
:10157000006888B100990A68A2F5B8528F3A042A27
:1015800003D808468BF7BBF902E0694603F0D4FAAA
:1015900000980028CED02DE000980168A1F5B8523F
:1015A000943A02D18BF7DBF924E0A1F5B852963AD0
:1015B00002D18BF708FA1DE0A1F5C052703AFF2A5C
:1015C00002D802F055FCB5E7A1F50452993A0A2A6F
:1015D00002D201F0EDFEADE7A1F5B8529E3A02D17C
:1015E000FFF7EEFC06E08BF7ABFB18B9054908885E
:1015F000401C08806846CBF732FA9BE758130C0072
:1016000028370C00BC3F0C000346002003F03F03CA
:10161000012A09D007480029C15C06D09143C15472
:1016200011F0FF0F03D0022070471143F7E70120AC
:10163000704700000C6D0C0010B5002488F7FCFB0F
:1016400038B1FFF7E1F920B189F7D8FF102800D3AE
:101650000124204610BD000008B5002215211648BF
:101660008FF767FCDFF85490154C164E164D4FF06F
:10167000FF3A4FF462784FF4617752466946484624
:10168000CCF7DEF80028F8D100980028F5D034EA2D
:1016900000010CD00168414500D907600168A1F53F
:1016A000617155F821100029E7D088479DF14F3A24
:1016B00001000000D4150800000200004DC0CBC39B
:1016C000E5E700F00F003168F9E700006C7C0C00E2
:1016D00000140C00C0BAC0AC043D0C00D8400C0093
:1016E00070B5184C04F1440588B1294641F64470A0
:1016F0008FF7B6FE211D41F641708FF7B1FE124EF5
:1017000001E08FF72BFE306880470028F9D10026D2
:101710004021201D2660CFF742F940212846CFF70F
:101720003EF944F8846F4FF48070666066722672EA
:1017300060816673012020738FF7A3FE044903487C
:10174000086070BD800E0C0068370C00C8130C00D8
:1017500020270C0008B50F4D0F4C4FF0FF3841F615
:101760004C764FF4FA57424669462868CCF772F82F
:101770000028F8D100980028F5D00168B14200D3C4
:1017800007600168A1F5FA5154F821100029EAD048
:101790008847E8E720270C00EC400C000149405A3C
:1017A00070470000000004A9014A81527047000000
:1017B000000004A919F026BC19F030BC19F03CBC9B
:1017C00019F046BC19F0D8BD19F0F4BD15F026BCCF
:1017D00019F0B8B9030EC0F3074281B2184686F774
:1017E00042BB30B40A46040EC0F3074381B2204620
:1017F00030BC86F757BB19F012BF0000094950B141
:1018000001F55171086820F400000860086840F490
:10181000800008607047D1F8440320F48000C1F8CC
:1018200044037047002000800248016821F0010154
:1018300001607047802B00801AF04ABE1AF056BE35
:1018400086F7C7BA0248016841F400410160704759
:10185000442300800248016821F400410160704780
:101860004423008015F00EBD10B515F00BFD0249A4
:1018700031F8100010BD00004CC509000248016895
:1018800041F0010101607047802B0080034801682E
:1018900021F0010101601AF03DBE0000802B0080A4
:1018A0001AF054BE86F74DBA03490120096811F4B5
:1018B000004F00D00020704744230080A1582F1A09
:1018C00001000000D017080000020000B928757E52
:1018D0000248416C21F00201416470470020008001
:1018E0000248416C41F002014164704700200080D1
:1018F000002009F075BF012009F072BFF8B5274834
:101900000569681C49D01020CBF7BAF80090002870
:1019100043D041F2014102C00024FF220A21CFF747
:101920001EF82FE0E8072BD0601E0D2828D804EB06
:101930008400083800D5002000F11A014F2903DD8A
:101940004F210E2C00D03520009B02461B1D891A0A
:101950004FF0010C46180BE0C10800F0070713F820
:1019600001E00CFA07F72EEA070E03F801E0401C2D
:101970008642F1D80A48006800F8222F761E467089
:101980006D08641C002DCDD10098001D00F00CF8EE
:10199000044801686846CBF72BFAF8BDD00000B0C8
:1019A0005C2D0C00201F050001464FF689400A22DD
:1019B00091F7DCB970B5054689F797FAFEF740FC58
:1019C00020280ED2C0F11F04064850F8241009B197
:1019D000204688470121A1402846BDE8704089F78C
:1019E00089BA70BD140F0C0070B5064C257800F054
:1019F00017F8054A21781378481B18441070081A04
:101A0000207070BD07300C0008300C0010B5802429
:101A10002046641CA4B200F003F88F2CF8D910BD46
:101A20002DE9F04106468038114A124B80B200245D
:101A3000115C1D78104F294419701454DFF83C8054
:101A400010E057F82450A888C0F30B00B04207D12B
:101A50001C3D204699F720F92846CFF762F801E0AF
:101A6000641CE4B298F800008442EAD3BDE8F08137
:101A700048160C0007300C0038250C0000300C0014
:101A800024381C210181042100F064B80849097838
:101A900011B10849097811B1074909680847084A8E
:101AA000064B117843F82100491C11707047000063
:101AB000FF2F0C0007300C00DC310C0038250C0027
:101AC00000300C0070B504460D4600200E1EE328C1
:101AD00001000000CC190800000200007E317723CD
:101AE00018F0CCFCA068A3882838E2882421018162
:101AF00000F124011C0A0B704C708A70140ACC701F
:101B0000C3F30B010C4B1B786BB1A1F180030F2BBE
:101B100009D80A4B1C78641E1C70094B194411F833
:101B2000803D5B1C0B70014606482B46121D006869
:101B3000BDE87040CFF778B8FF2F0C0007300C00DD
:101B400048160C00DC0000B0142804D0702807D11F
:101B5000084688F7CEB90889084402490968084749
:101B60007047000074370C0003B581B04FF0FF32AE
:101B7000012906D0042908D0092912D101A9094850
:101B80000DE0084801A9383009E0019801890844AE
:101B900041F641710090016002486946A830CBF7D8
:101BA00049FF0EBD20130C001CB5264CE06890F8D0
:101BB0003010C9072FD090F8310040072BD4694668
:101BC00001A888F7F7FF40F2472106E0019A00F2EA
:101BD000E240521E0192ADF80000BDF800008142C3
:101BE000F4D880B2401A81B20198ADF80010C20753
:101BF00005D001F2E241401EADF800100190E0680E
:101C00008AB20199008901F0DDF9E06810F8311F0E
:101C100041F004010170E06890F83110CA0710D05B
:101C200021F0010180F8311000898BF791F9E0680B
:101C300090F83010C90704D0034A008900211268C7
:101C400090471CBDC4410C00DC370C0010B5FEF7FA
:101C5000C3FC002089F700FA002089F790F9BDE85D
:101C6000104001F005BA00002DE9F0413A4D002482
:101C7000E868C6691836FEF7AFFCE86890F83000EF
:101C8000C0F34012C0F30011304688F724FFE96822
:101C9000022008753149286986F79BFD687890B164
:101CA000B5F9021091FBF0F004B2E868297810F958
:101CB000402FC1F1FF035A4304FB012109B2FF2267
:101CC00091FBF2F10170264E0027306880B1418906
:101CD00071B1848088F744FF01463068789F8E1286
:101CE00001000000C81B0800000200008AD9C99E3C
:101CF000C28861F30502C2801F4A41F6457112682D
:101D000090473760002088F734FE002088F718FEDF
:101D1000A86818B1194909688847AF601848006871
:101D2000817821F004018170418801F00F01418028
:101D300014480068817821F004018170418801F025
:101D40000F014180E86890F8321089060AD40289B0
:101D50000021022088F728FCE8680121028902207E
:101D600088F722FCBDE8F04101F08CB9C4410C00B9
:101D7000007F0C00BC260C007C370C003C370C00AC
:101D800024270C0028270C0010B5FEF72FFC05486F
:101D90000349406886F727FDBDE8104001F072B99D
:101DA000A87E0C00B4410C0010B5FEF71FFC0E4CD1
:101DB0000C49E06886F717FD606870B104F06EFBAF
:101DC00028B1626A41F647716068904703E0216A72
:101DD00009B16068884700206060BDE8104001F0EC
:101DE00051B900006C7E0C008C410C00F8B502F07B
:101DF0004DF8274D08B1282400E0252468684FF0ED
:101E0000010C00F1220790F82010A14230D286691F
:101E1000CB0801F00702F35C0CFA02F213421FD068
:101E20001C4800688189C1F30A01009183686888B1
:101E3000A96800F25B2082B2091D032089F78EFD9C
:101E4000B0B16868024690F8201022300B5C0BB9E4
:101E50002B780B5492F8200088F780FE0120F8BD03
:101E60002A78CA5590F82010491C80F82010CAE73B
:101E7000686890F82010A14208D102210175223033
:101E8000FEF7EAFB6968002081F820000020F8BD19
:101E9000E8410C0028270C000548C16811F8340FF0
:101EA0000979C0F30010C1F3001108437047000026
:101EB000C4410C002DE9F843254E264C0F465FEA3D
:101EC000000840F2555508D0FEF748FB012F0BD013
:101ED00020684188B5EB111FFBD0012F0AD0206884
:101EE000836809D1306808E0306841885D65CE08B4
:101EF00001000000C41D080000020000932117EE3D
:101F0000B5EB111FFBD0F2E73068F3E7206880895A
:101F1000164EC0F30A000090716840F65B62091D1E
:101F2000072089F725FD18B1B8F1000F08D009E0A6
:101F3000316802200875FFF731FF0D48BDE8F883CE
:101F4000FEF716FB2821002088F779FE8221012068
:101F500088F723FF2068418865F30F11418004480A
:101F60000C30EBE724270C0028270C00B4410C00B0
:101F7000A87E0C002DE9F843324C334D0F465FEA42
:101F8000000840F2555608D0FEF7F2FA012F10D0A3
:101F900028684188B6EB111FFBD02C4841780078A7
:101FA00088F7EAFF012F0AD02868836809D12068E2
:101FB00008E020684188B6EB111FFBD0EDE72068F0
:101FC000F3E728688089224CC0F30A000090E1689A
:101FD0006288091D062089F7CBFC88B104F068FAF5
:101FE0000027A8B1626A41F6477160689047E069CE
:101FF0008047606038B14771B8F1000F0AD00BE03C
:10200000A16802200875FFF7D9FE1248BDE8F883E1
:102010006068F0E7FEF7ACFA2821002088F70FFE91
:10202000616828680B314160418866F30F11418077
:10203000A068007F012802D1822188F7AEFE054802
:102040000C30E3E724270C0028270C00F5410C0096
:102050008C410C006C7E0C002DE9F0410D460646CB
:102060004FF400442146022088F797FE21460120C4
:1020700088F793FE314F786890F82010491CCCB255
:10208000012306E0C27F03FA04F10A4203D1641C73
:10209000E4B2032CF6D3022C02D90221017514E01C
:1020A000B0F84A2005F2E1410A4440F2E248B2FBAE
:1020B000F8F18A19B968521C8B68C968A2EB43020F
:1020C000494202EB4101002905DDFEF799FABDE81E
:1020D000F04104F0F7B980F82040194841780078C1
:1020E00088F740FF2534E0B288F742FD154C786848
:1020F0002168028F0A80FA684A60017F1B774E6070
:1021000001000000C01F08000002000067C9A953B9
:10211000012907D005F50875B5FBF8F23244C26411
:10212000032903D04421022088F741FE206840F2B1
:102130005552418862F30F1141800849B86886F70B
:1021400066FBBDE8F0412021012088F782BD000038
:1021500078410C00F5410C0024270C00487E0C004F
:10216000252801D802207047732801D80420704721
:10217000C12801D8062070470820704717F0AFFC2F
:102180000A4E0B4D746803E0606800B18047246814
:10219000002CF9D109F090FB19F0B4FE18B12868B1
:1021A00040F48070286017F093FCEBE7C40000B0A7
:1021B000349400A810B50E4C2078C00715D0A06844
:1021C000418CFF290ED84FF6FF7202EA410141848B
:1021D00088F707FEA1684A8CB0FBF2F302FB1300FC
:1021E000401C88840020207010BD0120FBE7000007
:1021F0008C410C0038B50446FF208DF8000000200B
:102200002087202084F84800207F464D40F6DB31AF
:10221000052857D2DFE800F003083B4908002834BE
:10222000206920F00F0037E0A06B20F00F00401C69
:10223000A06340F6BB40A4F84A000C2084F8480094
:10224000607F01281CD0D8B1A07F6B46012204F129
:1022500022018AF790F898B19DF8000000EB800108
:1022600001EBC0003049096801EB80008168C5F8C6
:10227000061080896881A06B40F08000A06321E097
:10228000D4F82200C5F80600E08C68811AE02834F2
:10229000206920F00F00801D2061207862781044B2
:1022A00001EB40106084283C0CE0A06B4FF45871A7
:1022B00020F00F00801CA06394F8280001EB401070
:1022C000A4F84A0094F831000028A06B02D040F036
:1022D000400001E020F04000A063616B206C0A68C0
:1022E000026089888180616B606C0A6802608988FD
:1022F0008180207F012801D004280AD1606B016809
:1023000029608088A880A07F18B1A06B5D8273903F
:1023100001000000BC210800000200006F16588E6A
:1023200040F08000A063208FA087E06B20F00F00BA
:10233000001DE06338BD0000F58A00B0D8260C000F
:1023400070B52A4D0446817F294E2868012923D083
:1023500041B3207F002839D1FF2084F82700607F17
:1023600004F1270300F001000022D91F8AF70DF8BD
:1023700068B3286840F04000286094F8270000EB1C
:10238000800101EBC0001B49096801EB8000D0F817
:102390000E103160408A0DE040F04000286088F760
:1023A0007EF804E020F04000286088F775F80168A6
:1023B00031608088B080207F002807D1607F58B1CD
:1023C000012809D0286840F08000286070BDA07FF7
:1023D00002282868E6D0DFE7206AC6F80600A08C4D
:1023E0007081617F286861F3C710EEE7C0410C007F
:1023F000BA8B00B0D8260C0070B50446427F104856
:10240000104D012A016801D032B10EE041F04001C7
:10241000016088F744F804E021F04001016088F78A
:102420003BF8016829608088A8800548217F14381E
:1024300019B141F25651418070BD40F63B01FAE7B7
:10244000A0410C00DC8B00B02DE9F0470125A84627
:10245000C1460F4682464E4689F75CFA554888F7D2
:102460004AFDBAF1010F14D0BAF1050F4BD3012088
:1024700088F79FF80446002088F79BF84E4A51469B
:10248000BAF1050F11D0062951D0BAF1070F3AD190
:1024900073E0442088F72FFD4FF4907088F73BFDE0
:1024A000F869BDE8F04788F764BB397F012925D07A
:1024B0008178491C01F00301817083794900CB4088
:1024C00003F00306037B407ACB40C84000F00300D2
:1024D0009070A07803F00309401C00F00300A07086
:1024E000A1794000C14001F00305217BC14001F00A
:1024F0000308617AC14001F00300D0701670557076
:10250000B86988F736FB2946304688F73FFD4146D3
:10251000484688F745FD03F0BBFF0021BF5E3A7ACD
:1025200001000000B8230800000200009BFEE63313
:10253000012003F069FFBDE8F0470021084603F0E1
:1025400063BF0179491C01F003010171837A4900DD
:10255000CB4003F003031370007A9946C84000F0A3
:1025600003062079401C00F003002071A17A40008E
:10257000C14001F0030151708846217AC14001F049
:102580000305617BC14001F003009070C2E741790F
:10259000491C01F003014171C27A4900C079CA4067
:1025A000C84000F00306607902F00309401C00F007
:1025B00003006071E17A4000C14001F00308E17955
:1025C000C14001F00305A5E731090080F5410C0089
:1025D00010B502F029FA054C2068002804D00449FF
:1025E000096888470020206010BD0000BC260C0050
:1025F00070370C00014986F70EB900003C7E0C00D4
:1026000010B501460C4A0D4886F709F90B490C4AEA
:1026100001F10C0086F703F908490A4A01F1180094
:1026200086F7FDF80549084A01F1240086F7F7F816
:1026300007490648086010BDBD8008003C7E0C00BC
:10264000BD8508001982080035860800A52008000D
:10265000A8260C00014986F7DEB80000547F0C0064
:1026600010B50146054A064886F7D9F80449BDE881
:102670001040044A01F10C0086F7D1B865860800C5
:10268000547F0C00A5870800014986F7C4B80000F4
:10269000007F0C0010B50146084A094886F7BFF8CC
:1026A0000749084A01F1180086F7B9F80449BDE85E
:1026B0001040054A01F10C0086F7B1B825880800E2
:1026C000007F0C00D98E0800C18C08003C21014815
:1026D000CEF789B96C7F0C0013460A46194688F775
:1026E0005CB8000070B515460C4688F754F80349ED
:1026F0000968884700F8504F457070BDBC370C0022
:1027000070B514460D46064688F745F80D49096828
:1027100088470D4906EB460201EB8203216845B16B
:10272000C3F80610A1885981012180F84DB70685AC
:1027300001000000B42508000002000082063843B2
:1027400031109B1D05E01960A1889980002180F857
:102750003110436370BD0000BC370C006C7F0C006F
:10276000054A00EB400002EB80000A68C0F8062032
:1027700089884181704700006C7F0C0013460A462F
:10278000194688F727B80000014986F74EB80000BF
:10279000A87E0C0010B50146114A124886F749F888
:1027A0001049114A01F10C0086F743F80D490F4A10
:1027B00001F1180086F73DF80A490D4A01F124009D
:1027C00086F737F80C490B4808600C480021018057
:1027D000016821F00F01491D01602221417010BDE7
:1027E000858F0800A87E0C005D9008002D930800DE
:1027F0007D940800DD210800AC260C00C0410C00CF
:10280000364910B53448086035490420087087F708
:1028100061FE03F0CDFDFDF71BFF89F737FB00F0EC
:102820006FF989F7DCFA89F721FC2E4800F082F86D
:102830002D4800F079F82B48FFF7ECFE2A482C30A1
:10284000FFF7E2FE274800F085F82748403000F007
:102850007BF82448FFF79EFF23481830FFF794FFCA
:10286000204800F039FD2048683000F02FFD1D4859
:10287000FFF71AFF1C48001DFFF710FF1948FFF76C
:10288000F9FE19485430FFF7EFFE184800688047FA
:10289000FFF7A8FE174916481A4C08601749164852
:1028A00008601749216088F7FEF9206888F7FFF96A
:1028B000FFF716FF154914480860164914480860C8
:1028C000164915480860174915480860BDE81040CA
:1028D000012088F784BB000068600C00D8260C003B
:1028E000D4260C00F8610C001C000C00A4370C006E
:1028F000BA8B00B02C270C000C8A00B024270C00E7
:102900001C8A00B028270C002D490800AC370C00A9
:102910007D49080008380C004D49080000380C00BB
:102920006549080004380C00014985F77EBF0000A6
:10293000247F0C000146024A024885F7649D57290E
:1029400001000000B02708000002000076EE86FEBD
:102950007ABF000009950800247F0C00014985F723
:102960006EBF00006C7E0C0010B50146194A1A4873
:1029700085F769FF1849194A01F10C0085F763FFD3
:102980001549174A01F1180085F75DFF1249154AEC
:1029900001F1240085F757FF0F49134A01F1300078
:1029A00085F751FF12491148144A0860124811492D
:1029B000C1610021C0E90812426802B141600E48BD
:1029C00014300180016821F00F01C91C01600C2145
:1029D000417010BD219508006C7E0C002D960800FA
:1029E0008D9708005D9C0800DD9A0800952208007C
:1029F000B0260C000D7009008C410C001B70090002
:102A000070B50A4C6368217B2288C51A490856199B
:102A10008D1C3544B5FBF2F502FB0532511A081A3C
:102A2000801EC0F34E00A26070BD0000DC010C00EF
:102A300010B505F090FB034801249440435CA34388
:102A4000435410BDB63F0C0010B505F084FB03489D
:102A500001249440435CA343435410BDB43F0C0095
:102A600070B5054600F0E8F900282DD01749284632
:102A700009688847044680698088002824D088F740
:102A8000CFF92169803DA1EB50006189ADB2B0EB77
:102A9000410F19DD2046CAF761F80D48415D6038E5
:102AA00084F8201030F8151061844038094950F836
:102AB0002520E26250F82520204689F7B9FA064819
:102AC0000068BDE87040004770BD0000BC370C00D6
:102AD000E8610C0034010C00C8370C0070B50C46DE
:102AE000054600F0A9F900280AD02146284608F03A
:102AF00085FD002C04D12846BDE87040FFF7B0BF2B
:102B000070BD00008038024980B231F81000704773
:102B1000C8610C002DE9F05FDC21AD48CDF799FFCD
:102B20004FF48C71AB48CDF794FF4FF4C061AA48C5
:102B3000CDF78FFF2821A948CDF78BFFA7484FF489
:102B4000D2712830CDF785FF2821A5485B3AE73CB4
:102B500001000000AC29080000020000B1F784A3C6
:102B6000CDF781FFA34824212830CDF77CFFA14871
:102B70004C214C30CDF777FF89F788FC9D48C02168
:102B80009830CDF770FF98480027D838954D0760EA
:102B900047608760C76098488C35DFF850820770BF
:102BA00047709148C5E900089148A8602830E8605E
:102BB00090482861283068612430A8618F4900F16D
:102BC0004C098C3DC1F800908D4A0021A0F64810B8
:102BD00085F743FEA8F598718A4A01F10C0085F744
:102BE0003CFEA8F59271884885F733FEDFF81CA2F9
:102BF000002404EB840005EB80063046C9F7B4FFDF
:102C0000204687F73FFCB0605AF82400641CF0604F
:102C1000E4B23774072CECD3012085F8240085F842
:102C200088000024D5F88C00C4EBC40100EB8100BF
:102C3000C9F79AFF641CE4B20A2CF3D3DFF8D0A1E1
:102C400000244FF01C0BD5F8900004EB440600EB79
:102C50004610C9F789FFD5F89020C4EB04110BEB9F
:102C600046100AEB8101115008EB4610C06910F8BC
:102C7000281F41F01001017004EB84016548641CB9
:102C800000EB810109EB8600E4B24160102CDAD33D
:102C900055F8940F604C8461A868846155F89409D4
:102CA000C9F762FF5D490520DFF874B1087000269E
:102CB000A0464FF0180A4FF0060955F8981FC6EBCA
:102CC000C60000EB400401EB8400C9F74DFF2A6801
:102CD0000AEB840106EB860042F8018040212B6854
:102CE00000EB461001EB840100EB0B025A504D49FA
:102CF0002A680144442000EB8400115028212A68EE
:102D000001EB8401312002F8019029212A6801EBAE
:102D1000840100EB840002F8019029680F5487F7C2
:102D2000E3FB34212A6801EB8401761C50505021CA
:102D30002A6801EB8401042050545122296802EBD7
:102D400084023B2088542F22296802EB8402FF2052
:102D500088542E22296802EB8402F6B2000FE1F1BA
:102D600001000000A82B080000020000451F3A1EC9
:102D7000885455F89809302101EB8401052E4754F9
:102D8000A5D355F89C0FC9F7F9FE6868C9F7F6FE98
:102D90002A4908F12800C8F83010C8F83410017822
:102DA00021F0020101702649C8F82C1025218170FC
:102DB00040212448CDF761FE2349224808602021A4
:102DC0004030CDF738FE1F482049403008600F21C1
:102DD0002030CDF752FE11481E49C5E9077045F86D
:102DE000247F072068721A4808601C491A48086046
:102DF00003202872BDE8F09F34010C0010620C0023
:102E000028630C0028690C00F46A0C00B03F0C0029
:102E100074260C00AD8008006B8008009C260C0016
:102E2000F0E7080000FC00B020080C00C0FF00B074
:102E300095260C003C8A00B0018B00B0D6BE898E6E
:102E4000555555004C6C0C00A0260C00A4260C0017
:102E5000F9AF0800B8370C0061B00800D8370C0093
:102E6000A0F1800110290BD200F03F00054900EBD2
:102E7000400001EB401090F83000C0F300007047B4
:102E80000020704728630C0010B505F078F9044C59
:102E900001239340605C1840605400D0012010BDB5
:102EA000B83F0C0010B505F06AF9044C01239340BB
:102EB000605C1840605400D0012010BDB63F0C008B
:102EC00010B505F05CF9044C01239340605C184098
:102ED000605400D0012010BDB43F0C002DE9F05F1C
:102EE00087F7B2FF801C47080026741EDFF83CB14C
:102EF000A14606EB86000BEB800A5946DAF8005033
:102F0000002D6CD02B69AA89F81A57D4944255D356
:102F10008EB1E8891844C01BA04233D831E0D5F8FF
:102F200010C0ACEB030C944509D895F84EC090F84E
:102F30004E80C44500D928462D68002DEFD10546A6
:102F4000006830B1008AC01B80B2A04206D8044697
:102F500004E06A8928691044C41B641E012000EB48
:102F6000800251F822202AB1128AD21B4663A3FFA5
:102F700001000000A42D0800000200005CE7E46EE0
:102F800092B2A24200D81446401CC0B20728F0D327
:102F9000A889A04200D304469AF8100018B19BF803
:102FA000C900B04229D0D846CBF8C0502548C8E95E
:102FB000347400688047C8F8CC50DAF80810002054
:102FC000C8F8B81088F8C8001F480068804714E0A7
:102FD000D91B00290ADD8C4200D90C46894508D945
:102FE000304605F036F900B9894602E0944200D235
:102FF000A146761CF6B2072E85D35D468BF8C960D4
:10300000072E10D1002045F8B80F4C46A860686123
:10301000B83D601C03D0022185F8C81003E00321ED
:1030200085F8C81000244FF0FF3000EB4701074A35
:10303000012088F76EFF3819C5F8C400BDE8F09F7D
:1030400034010C0058370C005C370C004930080084
:1030500070B50D4E0546002404EB840006EB80019C
:10306000086858B10269AA1A002A04DC427D2AB114
:10307000027D022A02D1CA6829469047641CE4B244
:10308000072CE9D370BD000034010C002DE9F0419C
:103090004F0800F03F01134B01EB410103EB4114DA
:1030A00091086689A187E16ACD1B94F83110C907A0
:1030B0000AD1691E052901D2012103E0002D03DA9E
:1030C0004FF0FF3100F0DAFDB5EB560F07DD6D1C58
:1030D00095FBF6F000FB0670E062BDE8F081E76268
:1030E000FBE7000028630C0070B50C4605F051F8B2
:1030F000064D012393406E5CAA1C1E436E54555C22
:103100009D435554024921F8104070BDB63F0C0054
:10311000C8610C0070B50B4605F03BF8044D012664
:1031200096406C5C34436C54024921F8103070BDF9
:10313000B43F0C00A8610C0070B5204800688047BF
:103140001F4D95F8C800012805D00024D5F8B80017
:10315000002804D102E04FF00104F7E71948C5F850
:10316000BC0002D04FF0010001E04FF0020005F179
:10317000B8054FF0000628742E6068696597F00363
:1031800001000000A02F080000020000A80F5AD381
:10319000A5F1B80530B1417D01B1017D01754FF058
:1031A000010141750D48006880470A4A0121CC326F
:1031B000D5F8BC0085F75CFB002C08D0C5F8CC60C6
:1031C00088F7D5FE06480068BDE87040004770BD2E
:1031D00058370C0034010C009C260C005C370C00A6
:1031E000C8370C0010B587F743FE012101EB5000F2
:1031F000FFF738FFFFF786FE0D4C94F8C81003293F
:103200000AD06FF0010101EB40010A480268BDE8F5
:103210001040002088F787BE88F7A9FE54F8BC0F3D
:103220000022022185F724FB0320207310BD00003B
:1032300034010C00C8370C0070B50E4800252C4630
:10324000006880470C4890F8C81009B1022904D1E1
:1032500050F8BC5F002101240160084800688047E5
:10326000002C06D02846BDE870400022022185F7D8
:10327000FFBA70BD58370C0034010C005C370C00ED
:1032800010B504F090FF034B012090405C5C44407B
:103290005C5410BDB83F0C0010B501464FF0FF3232
:1032A0000448CAF735FC0022BDE81040022102485C
:1032B000CAF708BA90130C0038140C0010B50C466D
:1032C000034909688847E1B20181210A418110BDA3
:1032D000AC370C002522B0FBF2F302FB1300014ACD
:1032E00011547047D87E0C000D2809D00E4B00F009
:1032F0003F000029195C10D001F0FE01114310E0DD
:103300000A4B187819B100F0FE00104303E000F0FA
:10331000FD0040EA42001870704701F0FD0141EAEB
:10332000420119547047000038610C00B03F0C0096
:10333000014985F7ACBA0000307F0C000B4B10B58B
:1033400000221A6001460A4A0A4885F7A4FA094988
:10335000094A01F10C0085F79EFA0649BDE81040C4
:10336000064A01F1180085F796BA000090260C0075
:10337000CD9C0800307F0C00959E0800319E08000F
:103380000EB521A12148CAF707F94FF0C62888CE0B
:10339000010000009C31080000020000D614FD630B
:1033A000FF3502AB012203211D480095CAF72CF915
:1033B0000298C10702D0FFF71FFFF2E78007F0D5A0
:1033C000002201A91748CAF7D1FA0028E9D1019CC7
:1033D000002CE6D02068A0F5D050F1381AD1124860
:1033E00000688047207A012803D0022804D040B129
:1033F0000AE0A088012101E0A0880021FFF7A0FBDE
:1034000002E0A088FFF75EFB08480068804701984B
:103410000028C6D001A8C9F7B8FBC2E70000000029
:1034200038140C0090130C0058370C005C370C005B
:1034300010B5214A0021214885F737FA1F49204A53
:1034400001F10C0085F731FA1C491E4A0C3101F1DB
:103450000C0085F72AFA19491B4A183101F10C00B2
:1034600085F723FA1549194A183101F1180085F733
:103470001CFA1249164A183101F1240085F715FA91
:103480000E49144A183101F1300085F70EFA0B4944
:10349000114A183101F13C0085F707FA074901F19B
:1034A000600085F7FEF90549BDE810400C3101F1D7
:1034B000540085F706BA0000B1A90800BC790C00D9
:1034C00095A50800E19E0800819F0800D1A408008E
:1034D00019A30800B5A3080001A008002DE9F041D8
:1034E000024601681E4885F7CDF91D4D95F8220268
:1034F000800732D505F1180705F110062C6809E0A0
:10350000394630460AF07CF902000AD014481168A6
:1035100085F7B8F92868A04203D195F82202800700
:10352000EED405F1880705F180062868A0420ED187
:1035300095F8220280070AD5394630460AF060F92C
:10354000020004D00648116885F79CF9EDE795F86C
:10355000220220F0020085F82202BDE8F08100007E
:103560001C7A0C00084A08B50146126841F2AE7098
:1035700090470090002805D04FF0FF32694603487D
:10358000CAF7D0FA08BD000030370C0058130C0001
:1035900038B504468AF7DCF9064A2146DEF74E8341
:1035A00001000000983308000002000022FC43DE06
:1035B00041F2AB70126890470090002802D0684634
:1035C00089F752F838BD000034370C0008B5084BB5
:1035D0005A82084A59830146126841F2AC709047FA
:1035E0000090002802D0684689F73EF808BD000028
:1035F00060090C0034370C00F8B51546084A0E4631
:10360000014612681C4641F2B170904700900028B4
:1036100005D0067245724481684689F725F8F8BDE1
:1036200034370C0010B50C4A0179517059B1C1887A
:10363000518000F1080102F10C0000F0DBF8BDE858
:10364000104000F0F3BC05494FF4C850A1F8A400A5
:10365000BDE8104000F016BD08400C00840A0C00C4
:1036600010B5011D054800F0C5F800F061F800280C
:1036700003D0BDE81040FDF78BB810BD14400C001E
:10368000094910B54A78002A0CD080884A889042AF
:1036900008D0488000F00AF8002803D0BDE81040A8
:1036A000FDF776B810BD000008400C0070B51D494C
:1036B0001B4C02200968B4F8A45088471A4988B105
:1036C0001A4B4E784FF4486293F82B3050005EB19D
:1036D0000E78B34212D2B4F8A43083420ED1A4F8CB
:1036E000A4200DE0488811E009788B420ED2B4F88E
:1036F000A41081420AD1A4F8A42009E0A4F8A400EF
:10370000B4F8A4004988884200D30846A4F8A4006D
:10371000B4F8A400A84201D0012070BD002070BD03
:10372000840A0C00B8390C0008400C00D0730C005F
:103730002DE9F05FDFF84C80FF250027DFF848A077
:10374000DFF848B03C4608F10C0908F1110698F87A
:10375000010008B119F80450DAF800100220884777
:1037600020B10BEB040090F890000543305DA842B7
:1037700001D001273555641CE4B2052CE7D3384647
:10378000BDE8F09F08400C00B8390C00840A0C001A
:1037900010B504468AF7FDF804F03F01002818D060
:1037A000124A4000124CB2F8A420B0FB8F31C3E89B
:1037B0000100000094350800000200003B049DAEAB
:1037C000F2F010F0FF000FD001EB410202EBC1025A
:1037D00004EBC202401E92F88330834204DA5B1C81
:1037E00082F88330002010BD01EB410202EBC101E1
:1037F00004EBC101002081F88300012010BD00000E
:10380000840A0C00D0730C002DE9F041054600201D
:1038100028600E46287104460127204602F004FE67
:103820004008C108725C494200EBC10007FA00F091
:10383000024208D0E00843422A5C04EBC30307FAC3
:1038400003F10A432A54641CE4B2282CE5D3BDE8F2
:10385000F08100002DE9F34F002695B0044635466F
:1038600087F728F84FFA80F904F03F0000EB400199
:1038700001EBC0014E482B2200EBC10090F88210F2
:1038800001FB020707F12C02139281F001012B22A8
:1038900001FB0204139A4C21106844F82C0F107994
:1038A00020716846CDF71BF997F831000F2802D236
:1038B0004FF0190C01E04FF01E0C3E4991F9001039
:1038C000A9EB0100604502DA0A384FFA80FCACF13E
:1038D0000A004FFA80FB0021EE464FF0010AC808AB
:1038E00001F007030AFA03F2334BD2B2034493F810
:1038F000903013421ED0169B5F5CA9EB0703275C38
:103900005BB2174209D05B4504DA97432754F8B2FB
:10391000104206D0761CF6B20FE0634501DD174376
:10392000F4E70A2E09D20EEB45006D1C03704170BE
:10393000EDB202E0235C93432354491CC9B225290C
:10394000CDD30A2E2BD2C6F10A00A84200DD2846AC
:10395000C2B222E00021012073460CE003EB4006D6
:1039600003EB410796F9006097F90070BE4200DD55
:103970000146401CC0B2A842F0D30EEB4103587878
:1039800004EBD00100F007070E780AFA07F00643AF
:1039900080200E70521E1870D2B2002ADAD1052291
:1039A00021461398FCF7C4FD17B040B2BDE8F08F74
:1039B000D0730C00F4410C00840A0C00700FE3B7C4
:1039C000010000009037080000020000CFEC231334
:1039D000054900F03F0000EB800009690C2202EB72
:1039E0000010085A70470000840A0C00054900F0D6
:1039F0003F0000EB800009690E2202EB0010085A1C
:103A000070470000840A0C00054B03EB8000A0F512
:103A10000073A0F5FF701B880B8000881080704732
:103A20007C790C0008B5074A818841F6820012684B
:103A3000904700904FF0FF3269460348CAF790F86C
:103A400008BD000030370C0058130C00F1B582B0EF
:103A5000414B02980190414C017901F03F0101EB8B
:103A6000410202EBC10103EBC10191F8822094F8FD
:103A7000261011B1491E84F82610017901F03F018A
:103A800001EB410505EBC10103EBC1012B2502FB55
:103A9000051193F82B2091F83110914200D3114673
:103AA00083F82B100026808889F75EFF05462C4F8F
:103AB00012E089F739FE50B13A6894F825100220D7
:103AC000904720B194F82500FFF776FE50BB94F89C
:103AD0002500401C84F8250094F825009028E8D3A0
:103AE000012E1FD002A8C9F76EF894F8260000280E
:103AF00017D11A489830C9F766F80020C4F8980022
:103B0000FFF7E8FD00280CD087F7DAF9202101EB58
:103B100050011448009014F8A23F0F20628887F7E4
:103B2000E7FDFEBD02994FF4BC500C2208600199DC
:103B300014F8250F02EB850288806078401C6070C5
:103B4000D4F873102078253C88524FF0FF3201A939
:103B50000548CAF705F8C8E7D0730C00840A0C00C2
:103B6000B4390C0019400C0058130C0071B53A48D8
:103B700081B04078D8B12C20019EC9F721F842F2DB
:103B80003C11054600240160204602F057FCB16854
:103B900005EB5000095D641CE4B20171282CF3D3DD
:103BA0002E4C04230122246829462C20A04789F7A3
:103BB000D4FE01284DD02A4C01982A49C4F8980017
:103BC000252081F82B00002084F826001C5CD4649A
:103BD000010000008C3908000002000008F5214EA9
:103BE000802084F82500C0B289F7A8FD38B3234AA5
:103BF00094F8251002201268904700B394F825002D
:103C0000FFF7E4FDD8B11E4A94F825104FF4BC50DC
:103C1000126890470090E8B114F8250F0C23D4F8EF
:103C20007310627803EB8202885260784FF0FF32A3
:103C3000401C6070253C69461248C9F79BFF14F888
:103C4000250F401CC0B220706178253C042901D2A8
:103C50009028C8D394F82600002803D1054898304E
:103C6000C8F7BBFF7CBD01A8FAE7000008400C00C4
:103C7000FC360C00840A0C00D0730C00B4390C0024
:103C800030370C0058130C0038B50D4A04468188B3
:103C9000126841F6810090470090A088094A803858
:103CA00081B212680220904700994FF0FF324872AB
:103CB000E07F087269460448C9F75CFF38BD000020
:103CC00030370C00B4390C0058130C0031B5009C8F
:103CD00089F777FD18B10098FFF728FC38BD0D2053
:103CE000E0744FF0FF3269460148C9F743FF38BD21
:103CF00058130C0038B5084A0C460146126841F6C4
:103D000085009047009004724FF0FF3269460348E7
:103D1000C9F730FF38BD000030370C0058130C00D5
:103D20002DE9F14F99A082B0D0E90010CDE9001043
:103D3000984C029810B194F8247000E00127A82153
:103D40009448CCF7E0FE40F2AC519348CCF7DBFE50
:103D50008C219248CCF7D7FE904800268030904DB9
:103D6000C660066146618661AE6144211C30EE6129
:103D7000CCF7C9FE89484FF4A061E030CCF7C3FE10
:103D80008548C5F80760EE72C021C038CCF7BBFE8D
:103D9000AE80AE7140218348CCF793FE7F4820600F
:103DA0008C30606005F11800A0607C48DFF8F89165
:103DB0009C30E06044302061E81DA0617648052118
:103DC000C0386061281D2062DFF8E08189F80010AA
:103DD000182188F8001084F824706A46FAE6D7E7BC
:103DE00001000000883B080000020000FC1D9FF35A
:103DF00000214FF6FF70FCF7B5FD6B4A009902F108
:103E0000800342F8861F9DF804001071C3F80B1060
:103E1000D87319611875E9602874C5F811106875B0
:103E20006E704FF0400A84F8A2A04FF4C8505F496A
:103E3000A4F8A400252081F82B0000F093FA0025B7
:103E4000474606E0606900EBC50089F70BFF6D1C73
:103E5000EDB238788542F5D300254FF400684FF075
:103E6000070B1BE02068C5EBC50100EB810705F1DE
:103E70002001384689F7EAFE89F7C1FC0146384639
:103E800089F7E8FE21686D1CEDB2A1F80A80A7F859
:103E900008803E737E7387F815B0BE7599F80000F0
:103EA0008542DFD30C21606889F7D0FE89F7A7FC33
:103EB0000146606889F7CEFE0D21A06889F7C6FE2D
:103EC00089F79DFC0146A06889F7C4FE0E21E068D1
:103ED00089F7BCFE89F793FC0146E06889F7BAFED2
:103EE00000254FF01B094FF4A47B206905EB8507E3
:103EF00000EB071005F1800189F7A8FE2F21226948
:103F000001EB0711FF2050542269322101EB071108
:103F100022F801902369342202EB071223F802B041
:103F2000D4F810C03623FB2203EB07132CF8032030
:103F3000D4F810C0382340F6480203EB07132CF8DE
:103F4000032023693A22484602EB0712985223695C
:103F50003C22594602EB0712995223693E2202EB9A
:103F60000712985222690AEB07101152154840F8BF
:103F70002560154846556D1CEDB2102DB5D360680F
:103F800006726168A1F80C806168A1F80A80606817
:103F900086736068C6730298FFF77CFABDE8FE8FEF
:103FA000FFFFFFFF1F000000840A0C00D0730C000D
:103FB000306D0C0008400C007C790C000A270C00C6
:103FC0000B270C00CC6C0C000C6D0C0001484078E9
:103FD0007047000008400C00074A08B50146126807
:103FE00041F27F7090470121009001752E373F0705
:103FF00001000000843D080000020000E5E5418367
:104000008A1E69460248C9F7C9FD08BD30370C0051
:1040100058130C0001B582B002980168A1F5C05197
:104020007139182926D2DFE801F01A0C0F1A14177B
:10403000251A1A1A1A1A1A1A1A1A1A1A1A1A1A1DD2
:104040002023FFF757FE0EBD00906846C8F7D9FD44
:104050000EBDFFF7A9FD0EBDFFF716FD0EBDFFF764
:1040600079FA0EBDFFF710FB04E0FFF72BFB01E030
:10407000FFF738FB02A8E9E7044B03EB8000A0F54B
:104080000073981C19800280704700007C790C0036
:1040900008B5FFF73DFB104913200968884738B180
:1040A000FFF778FB002815D0BDE80840FCF7A2BB5D
:1040B000FFF770FB094A0F2113201268904786F71B
:1040C0001DFF4108064800900648037842880F20EB
:1040D00087F72CFB08BD0000BC390C00C4390C006C
:1040E00019400C00260B0C0010B5FFF711FB11490D
:1040F00013200968884700281AD00F490220096850
:1041000088470E494978084307D0FFF743FB00284A
:104110000ED0BDE81040FCF76DBB094A0F211320FB
:104120001268904707490F200968BDE8104008470A
:1041300010BD0000BC390C00B8390C0008400C0060
:10414000C0390C00CC370C0010B504460146504A6B
:10415000504884F7E6FB504A2146504884F7E1FB7B
:104160004F4A4E494F4884F7DCFB4F4A4B494F4872
:1041700084F7D7FB4E4A49494E4884F7D2FB4E4A52
:1041800046494E4884F7CDFB4D4A44494D4884F793
:10419000C8FB4D4A41494D4884F7C3FB4C4A214670
:1041A0004C4884F7BEFB4C4A4A494C4884F7B9FB5B
:1041B0004B4A48494B4884F7B4FB4B4A45494B4866
:1041C00084F7AFFB4A4A21464A4884F7AAFB4A4A89
:1041D00048494A4884F7A5FB494A4649494884F773
:1041E000A0FB494A2146494884F79BFB484A21469F
:1041F000484884F796FB484A21464848A9941FB886
:1042000001000000803F080000020000110DFF3E89
:1042100084F791FB474A4649474884F78CFB474A55
:104220004349474884F787FB464A4149464884F753
:1042300082FB464A3E49464884F77DFB454A3C4955
:10424000454884F778FB454A3949454884F773FB6C
:10425000444A3749444884F76EFB444A3449444849
:1042600084F769FB434A2146434884F764FB42498B
:10427000424A01F10C0084F75EFB3F49404A01F1DC
:10428000180084F758FB3C493E4A01F1240084F7AA
:1042900052FB3949BDE810403B4A01F1300084F738
:1042A0004ABB0000DD5F0800040C0C00614E0800F2
:1042B0000C0D0C00C94F0800100C0C00514C0800EC
:1042C0001C0C0C00F5F50000280C0C00B94E080081
:1042D000400C0C00514F08004C0C0C00A5F40000E1
:1042E000340C0C004DF80000180D0C00A5F800006F
:1042F000580C0C001FF90000640C0C00FFF90000C2
:10430000700C0C00B54A0800240D0C00A54B0800E9
:104310007C0C0C001D4B0800880C0C00DBFB000023
:10432000940C0C0091FC0000A00C0C00014D080046
:10433000300D0C00A5FD0000AC0C0C001BFE0000B5
:10434000B80C0C00D94C0800C40C0C0039FF00005C
:10435000D00C0C0089FF0000DC0C0C00EDFF00000D
:10436000E80C0C0033000100F40C0C009D0101006E
:10437000000D0C00F5AA0800A87F0C00F5A90800A4
:1043800089AA08000DAD080005AC080010B52F4A39
:1043900000212F4884F7CFFA2E4A2D492E4884F762
:1043A000CAFA2E4A2A492E4884F7C5FA2D4A2C49C2
:1043B0002D4884F7C0FA2D4A25492D4884F7BBFAC9
:1043C0002C4A2B492C4884F7B6FA2C4A28492C4809
:1043D00084F7B1FA2B4A2A492B4884F7ACFA2B4AC6
:1043E00023492B4884F7A7FA2A4A19492A4884F70F
:1043F000A2FA2A4A28492A4884F79DFA294A2649D6
:10440000294884F798FA294A1149294899BFDE2D8D
:10441000010000007C41080000020000F45AA239AB
:1044200084F793FA284A2749284884F78EFA284ABD
:104430002449284884F789FA274A2249274884F7DB
:1044400084FA274A1F49274884F77FFA264A0549F4
:10445000264884F77AFABDE810401E48FFF788BE68
:1044600057DC00002C0B0C009D560800380B0C008C
:10447000C5DD0000440B0C005DDE0000500B0C009D
:10448000A9DE0000EC0B0C000FDF00005C0B0C0041
:104490008FDF0000680B0C00A7E00000740B0C001D
:1044A000FBE00000800B0C004FE10000F80B0C005B
:1044B000295508008C0B0C00D9540800980B0C00EF
:1044C000F1500800A40B0C0027E90000B00B0C0011
:1044D00089E90000BC0B0C0013EA0000C80B0C00BB
:1044E00023EB0000D40B0C0081EB0000E00B0C0070
:1044F00070B5034600205979012906D0022919D048
:1045000004291DD0032914D018E09E79022E00D969
:10451000122000210A460AE05C18E479A51E082D45
:1045200000DD1220491C2144521CC9B2D2B296426D
:10453000F2D870BD997909B10329FAD9122070BD5A
:1045400099790129FAD870BD05490023896804E0EA
:1045500001EB8002C2F8423009680029F8D17047A7
:10456000500100B02DE9FC41244A0646A2F10800A2
:1045700000218068009101913DE00379B34238D178
:1045800091B3006808601E4F06EB461107F5E8700E
:10459000002400EB810504EB4400C0EB4410385CC0
:1045A00058B105EB840090F84200800705D5A91D9D
:1045B00068790023224600F0EFF9641CE4B2102C65
:1045C000E9D305F10C003521CCF7C5FA05F142001D
:1045D0004021CCF79EFA09486B4600223146001F65
:1045E00000F076F9BDE8FC81FFE710680068106014
:1045F000C9E7014600680028BFD1F3E7580100B0C1
:10460000484A0C002DE9F35F4FF0000ADFF810B1C3
:104610000C46564606EB4600C0EB4610F4A9BA9687
:1046200001000000784308000002000000B21C8472
:104630001BF800209AB100EB0B08607998F8051080
:10464000814208D101282CD008F10600A11D009A52
:10465000FBF7B4FFF0B3761CF6B2102EE4D3102EA5
:1046600043D006EB4600C0EB461001220BF80020B9
:10467000584462784270A1788170E178C1702179E4
:1046800001716179814641716079012830D009F169
:104690000600A11D009ACCF70BFC46EA0A20BDE8F3
:1046A000FC9F00273D4617E005EB450101EBC501E6
:1046B00008EB0100E119894611F8072FC01D521CB3
:1046C000FBF77CFF58B999F807007F1C3844C7B244
:1046D0006D1C00E006E0EDB2A079A842E4D8A07914
:1046E000A842B8D14FF00C0AB9E74FF0070AD4E757
:1046F0000027A17989F806103D4616E005EB450133
:1047000004EB070801EBC50109EB010098F807204D
:10471000C01D521C08F10701CCF7CAFB7F1C98F89A
:1047200007006D1C3844C7B2EDB2A079A842E5D8A5
:10473000B3E70000484A0C002DE9F04F89B08046ED
:104740000020059098F80D000690D8F80E200092F1
:10475000B8F81200ADF8040098F814000390404433
:1047600008F10A0190F915A098F809005246C01EF8
:10477000C0B2084469460788089780780290069876
:1047800000F0E6F88146FF287ED000250120089938
:1047900000FA05FB1BEA010F59D005EB45004D4E11
:1047A000C0EB4512B05CE8B309EB491106F5E870BF
:1047B00000EB810000EB850402EB060094F8421048
:1047C000C278067902EB420CCCEBC2124FF6FF7CAA
:1047D0000CEAC202079245EA0922049201F00103A1
:1047E0008A075CD490F9012052452BDC53BB41F081
:1047F000020004F8420F01232A466946069800F099
:10480000D5F82078DFF8D0B040F0010004F8420974
:10481000DBF8003041F21241049A079898470EB134
:10482000FF2E00E00DE012D06420DBF86E07DA7492
:10483000010000007445080000020000194AC2F49B
:104840000030704341F21141049A9847002084F8E7
:104850004300A4F8440004E0029810B10EB127EA26
:104860000B076D1CEDB2102D9AD341F21841C8F818
:104870000010059880B11E4809EB491100EB810436
:10488000039A04F10C0016324146CCF765FB0398FD
:104890000C3060750120E075164800E005E00078F6
:1048A00010B10298E0B10027E7B1012009B0BDE8DE
:1048B000F08F90F90210514506DA0C4B41F212418B
:1048C000049A1B68079898470120059014F8430F35
:1048D000401C04F8010B218801EB0A002080BBE793
:1048E0000127E1E70020E1E7484A0C0094370C007B
:1048F000184C0C00500100B070B50025046801E0B0
:1049000025462468002CFBD1094E01EB411406EB2F
:1049100084014A711A68C1F806209A884A810022E7
:1049200046F824200DB1296070BD016070BD000003
:10493000184C0C0070B5054609480E46846809E01D
:104940006079A84205D106223146A01DFBF740FE42
:1049500020B12468002CF3D1FF2070BD207970BDF8
:10496000500100B02DE9F047144C8146251F164632
:10497000A8688846E71E48B14846FFF7DBFFFF28D6
:1049800018D1686820B93878FFF700FE686898B1D8
:10499000206843464A460579006820600748294652
:1049A000001DFFF7A9FF97F90100B04201DD7E70FD
:1049B0003D702846BDE8F087FF20FBE7540100B0BA
:1049C00010B586B00624CDE90214CDE904230221F6
:1049D000CDE900100B23034A0021FF208FF7C8F810
:1049E00006B010BDE8E7080070B54FF4E871144850
:1049F000CCF7C5F84FF404611248CCF7C0F8124D5B
:104A00000024104BC5E90134204600EB401203EBB3
:104A1000820101F1840643F822600871401CC0B293
:104A20000F28F2D300EB401143F8214003EB810142
:104A300008710548FF21401C41700470EE6AD14D99
:104A4000010000007047080000020000EDA27C4950
:104A50002C7070BD484A0C00184C0C00500100B07E
:104A6000F1B50098057A448906796846C8F7FBF8DD
:104A700022462946304615F0E1FCF8BDF8B5164649
:104A80000B4A069D11780B2900D3FEE701EB410488
:104A9000084F491C07EB041404601170044900938B
:104AA000204633462A46491CC8F7FEFCC0B2F8BD72
:104AB000E80000B034430C00F8B515460E46074632
:104AC00088F722FF0446384688F77EFE68B115480D
:104AD00090F82300C00623D594F82000C00706D024
:104AE00094F82100C00607D41AE00220F8BD14F89B
:104AF000210F40F0100020700B4A394641F2A67099
:104B000012689047009048B1068185724FF0FF32DD
:104B100069460648C9F774F80020F8BD0D20F8BDB5
:104B20000C20F8BD60090C0030370C0058130C0045
:104B300010B589F723F889F754F807490220096866
:104B40008847002807D0FEF757FE002803D0BDE8AD
:104B50001040FBF781BE10BDB8390C0010B50446FB
:104B600088F74BFF08B13A2010BD204688F7FEFFBA
:104B700089F737F8054902200968884720B1FEF710
:104B80003BFE08B1FBF768FE002010BDB8390C00F1
:104B900010B5164C14490020226890472268144929
:104BA0000220904722681349052090472268124945
:104BB0000820904722681149042090472268104934
:104BC0000620904722680F490B20904722680E4923
:104BD0001F2090477F2086F71EFABDE810404FF453
:104BE000110086F72CBA00008DB60000183D0C00AD
:104BF0009DB60000454E0800CDB600002D4E0800C1
:104C0000114E0800EDB6000013B70000A0F18001BE
:104C1000102907D200F03F00034900EB400001EBF0
:104C200080007047002070478C6B0C0010B50C465C
:104C300003490A689047017864F38201017010BD4E
:104C4000AC370C0010B50C4603490A6897A518C08C
:104C5000010000006C490800000200002ABB7E141D
:104C60009047017864F3C301017010BDAC370C00AC
:104C70002DE9F0410D4607491E4617460968884749
:104C80008570044642683946284687F7BFFC66703F
:104C9000BDE8F081AC370C0001B50098B0F80B000E
:104CA00088F73CFE114991F82310890619D590F830
:104CB0002010C90703D090F82100800611D5009874
:104CC00041F29C310160022141603E210172752157
:104CD0008172417A491C417207216846C8F782F9FE
:104CE00008BD034900980968884708BD60090C00A1
:104CF0003C370C0014490C2812D00D2812D00E2875
:104D000012D0202812D3114A1278203290420DD2AC
:104D10000F4A0968C0EBC00002EB800008447047EE
:104D20004868704788687047C8687047A0F180027B
:104D3000102A07D2096900F03F0000EB800001EB68
:104D40000010704700207047840A0C000A270C00EE
:104D500080FCFFFF2DE9F041034608680C46002562
:104D60000168104AA1F5B856833E04D1968DA6F588
:104D70007F47FF3F08D1A1F5B8567F3E01D01A3ECC
:104D800009D192F82A2032B1FF220021FCF7C4FB9E
:104D90002560BDE8F081BDE8F0410246184683F782
:104DA000E9BD000060090C002DE9F04107464468A8
:104DB0000E4608686FF4C051401813490A6802D0C3
:104DC000022814D10BE0A1880220904778B1204638
:104DD0000E4C00232A2224680F21A04711E0A1884D
:104DE00003207568904710B1287A0F2805D0314606
:104DF0003846BDE8F0418AF7C3BF697A20468AF792
:104E00000CF90020BDE8F081B4390C00E0390C0049
:104E10003EB50A68446812F1020F28D0B2F1FF3F94
:104E200004D003B0BDE830408BF70BB8174DA08815
:104E300002AB2D6801AA6946A847A08888F70CFE36
:104E4000BDF80410009A401AA18B490001FB002014
:104E5000009086F78FF800990D4D091F32357EE9D5
:104E600001000000684B080000020000DE53C0A9EA
:104E7000C0EB41002D68A288012341F28671A8474A
:104E800009E0A088FBF72EFD074A94F82E000121C7
:104E900012689047002084F82E0000203EBD0000DC
:104EA000B4370C0060370C0064370C002DE9FC416E
:104EB000054644680868B0F1FF3F08D0A0F5B85037
:104EC000AB383FD02846BDE8FC418AF780BFA288B6
:104ED00002F03F0000EB400101EBC0001A4901EB7A
:104EE000C00090F882601948D0F89800816811B32A
:104EF0001046FEF71DFDF0B100200090A0880723AA
:104F000001AA012188F706F8050018D0A088002121
:104F1000FBF73AFC074686F00101A0883A46FBF70A
:104F200071FD01993A680A603879087100212846B4
:104F300088F70AF803E00649284683F744FD002075
:104F4000BDE8FC810349F7E7D0730C00840A0C002C
:104F5000040C0C00880C0C001CB502464368086861
:104F6000B0F1FF3F05D0A0F5B850AC382ED00846C0
:104F70001CBD0020009098880B2301AA002187F710
:104F8000C9FF020020D0144901984B7C03708B7C30
:104F900043704B8A1B0A83700B7DC3708B8A1B0A7C
:104FA00003718B7D4371CB8A1B0A83710B7EC371A6
:104FB0000B8B1B0A03728B7E4372498B090A817229
:104FC0000021104687F7C0FF00201CBD0349104692
:104FD00083F7F9FCF8E7000060090C00280C0C00CE
:104FE00010B50B684268A3F5B853F73B03D0BDE892
:104FF00010408BF7F8B83D21D177024983F7E3FCE5
:10500000002010BD380B0C002DE9F0410D4607467D
:105010004468D5E9000610F1020F13D0A0F5B8508E
:10502000F73803D0092801D00A282AD1184AA188C4
:1050300002201268904720B3FF2201213046FCF77E
:1050400075FA1BE0204688F734FEA08800218CF713
:1050500051FBA088002186F7DCFB94F828000007AC
:1050600003D5E17F204689F79AFF14F8190DA9337B
:1050700001000000644D080000020000C7AB1ED90B
:10508000280F094920F00A0020704FF6FF7088852C
:105090000020BDE8F08129463846BDE8F0418AF796
:1050A000C7BF0000B4390C0060090C001CB50446F1
:1050B00090F84A00400717D494F84D00022813D204
:1050C00000200090A088012301AA192187F72CFF56
:1050D000002809D0019A14F84B1F1170002187F79E
:1050E0003DFFA078401CA0701CBD7CB500260D467D
:1050F000044600968088012301AA1A2187F714FF2D
:10510000002812D094F84A10890709D594F84B204A
:10511000AA4201D9114600E02946019A117001E026
:1051200001990E70002187F719FF7CBD054A48F2EE
:1051300002011180034A48F212012E32118086F7D3
:105140005BBC0000280C02A9044A48F2340111801B
:10515000024A891C2E32118086F736BC280C02A91F
:10516000054A48F202011180034A48F212012E3228
:10517000118086F731BC0000280C02A970B50A68BE
:1051800044680D46064612F1020F12D06FF4C0506B
:10519000101813D10C4AA18802201268904768B1F8
:1051A00020460A4C0023232224680F21A047002018
:1051B00070BD0749002081F82A00F8E729463046EB
:1051C000BDE870408AF7B0B9B4390C00E0390C0082
:1051D00060090C00F8B50746456808684C68A0F5FA
:1051E000B8500E46FF3804D03846BDE8F8408AF77C
:1051F0003EBC207A0F282CD1174AA98802201268B9
:105200009047F0B13068A0F5C051033902D1617AFE
:105210001A2903D0A0F5B851FF3912D10F4AA98835
:1052200041F6790012689047009018210830CBF7BA
:10523000CEFC4FF0FF3269460948C8F7FFFC094928
:1052400004E0617A284689F7FCFE0749384683F76F
:10525000C4FB0020F8BD0000B4390C0030370C004E
:1052600058130C00100C0C00040C0C0070B5044614
:105270004568086841F2FF764A68831BE4EF30AB6B
:1052800001000000604F0800000200003343A064EA
:10529000B0420FD005DC13F10B0020D0062804D15A
:1052A00022E0022B16D0042B04D02046BDE870402B
:1052B0008AF724BC117A0F291AD1B04201D11A21E0
:1052C00000E0517A284689F7C6FE0A49204683F74E
:1052D0008EFB0DE02946204605F068FF08E02946D0
:1052E000204605F043FF03E02946204605F0F0FF85
:1052F000002070BD040C0C00F0B506464568086837
:1053000085B0A0F5B8508E3809D01C2805D005B05E
:105310003046BDE8F0408AF777B93D4971E04C6806
:10532000A17C19B1284689F796FEF6E7A089401EB0
:1053300080B288F7B7FC0746A88B401E80B288F77A
:10534000B1FC874201D9A08900E0A88B401E80B241
:1053500088F7A8FC2F4F7874A1894A1E904200DB81
:10536000481EC0B27874022800D80220DFF8A8C016
:105370007874A888DCF800C003AB6A4602A9E0474D
:10538000A88804AA01A9FEF7B7FBBDF8040030B154
:10539000A989BDF81020491C02FB010003E0A8897F
:1053A000401CC0EBC000ADF80400BDF8001080B296
:1053B00001447983A98B029A4FEA410101FB002045
:1053C0000290A268A189A0EB020303EB4103A3F1C1
:1053D00001034FEA4105B3FBF5F3039301FB03F32C
:1053E00002EB4302A2EB000000EBD070401000D5AE
:1053F00008447882A089B882E089F882208A074927
:105400003883304683F7F3FA05B00020F0BD000082
:10541000040C0C0060090C00B4370C001C0C0C00D0
:105420002DE9FC5F0F460546D7E9001341F2A7724C
:105430004468881AE14E914272D073DC41F2817265
:10544000A1EB0200914261D061DC41F27B72A1EBE1
:1054500002004FF00008914270D053DC11F1020FAE
:105460006DD04FF0FF3B59456AD1A2460E2088F718
:1054700073FA0446808EB0EB1B4102D188F7A0F985
:10548000A086A08E88F768FA074618222CDBBA900F
:10549000010000005C510800000200004D5807D4D4
:1054A00004F118010830CBF793FDCA4B87F8288028
:1054B00000221B68B8881146984794F8360078B1E6
:1054C000BB88C64A03F03F0000EB400101EBC0007F
:1054D000C14901EBC00090F882101846FBF7B0FA02
:1054E00006F1D000216BC0E90018B146464650468F
:1054F000C9F8D88088F71FFC88F7EFF901465046B5
:1055000088F716FC2946384688F712FCB98894F8C3
:10551000360048B3022028E004289ED00528ADD1EB
:10552000F6E00128FCD00228FAD01828F8D0252867
:10553000A4D1F4E0FDE0FFE75328F1D00BDC07280D
:105540006BD04C28ECD04D28EAD0512896D1DFE022
:1055500082E09CE0E2E05A28E2D05C287BD05F2821
:10556000DED063288AD1F8E003209D4A1268904774
:1055700007F81F6FB246797A684641F010017972D8
:10558000FE7300261F3F314684F7F0FD5FEA0008F6
:1055900050D0009880F800A039794170B988090A84
:1055A000817094F83610B9B30021C170617B01712C
:1055B000D4F80E10C0F80510618AA0F809104FF455
:1055C000007084F73BFC68B10098A16B0C2640F892
:1055D0000B1FA18F8180D4F83E10C0F80610B4F8DC
:1055E00042104181009894F82C103044C172A18D72
:1055F000090A0173217F4173A18B090A8173A17F7D
:10560000C173E18B090A017494F8361041B17349F2
:10561000903991F8241008E000E096E00121C4E7F9
:10562000397901F03F0219F8021041746D49404682
:10563000096888476C4AB98841F67C00126890472F
:10564000009094F8361001725A4669466748C8F7C8
:1056500009FB674917E0B2E0187A152863D11526CF
:10566000E677CDF80080A088012301AA022187F700
:105670006FFC20B101990E70002187F783FC6868E8
:10568000FEF77AFB5B49284683F7BBF99DE05A4950
:105690002046A6880968E77F884730462CFD521CC3
:1056A000010000005853080000020000B9B0B969B9
:1056B00011F017FC5649304609688847DFF854C195
:1056C00000231A46DCF800C019463046E0476868F7
:1056D00088F73BFB002211463046FEF73BFD304683
:1056E00088F7A1F8284688F72FF94B4A314602205F
:1056F0001268904708B1022000E00320474A314673
:1057000012689047464B3A4600211B68304698473E
:105710004449304609688847A08800220121FBF7E8
:10572000EDFE5CE0FF2201211846FBF727FFE8BBF6
:1057300003E01989A088FDF775FE39462846BDE8C3
:10574000FC5F89F75DB8197A94F84A00364A61F32C
:10575000000084F84A001268197AA088904794F8EB
:105760004A00C0073BD02046FFF7BEFC37E094F864
:105770004A00800725D596F82300C00621D594F865
:105780002000C00705D194F8210040F0100084F8F3
:10579000210096F82300197A800612D594F820008B
:1057A000C00794F8210004D0800600E017E004D47C
:1057B00007E040F0200084F821002046FFF7B3FC0A
:1057C0000DE02046194C00231A2224681921A04715
:1057D00005E0187A192802D1204688F792FA0020AD
:1057E000BDE8FC9F60090C00D4370C00D0730C009E
:1057F000140B0C00C4390C0014370C0030370C00AB
:1058000058130C00B00B0C00380B0C000C270C00CC
:10581000CC370C00EC370C00B4390C00C0390C004C
:1058200010370C006C370C0000380C00E0390C000D
:1058300030B50A68446885B0B2F1FF3F04D005B0C6
:10584000BDE8304088F76EBF85F7C6FB4108207B76
:105850000DF1040C257D04F10E03627BACE82D00F4
:105860006089009022890448044C038824680E2033
:10587000A04705B0002030BDFA410C00E4370C0011
:105880002DE9F04180464568086886B0A0F5B8501B
:105890008D3805D006B04046BDE8F04188F79BBE84
:1058A0004C6805F1240304F108004FF6FF15A758D2
:1058B000010000005455080000020000A0486719CC
:1058C000FF7607C807C360692863012085F83600A2
:1058D000AE86208A88F704FA464B0746218A1B6861
:1058E0003A4660699847E07CF0B30027394668463D
:1058F00084F750FC06002FD00098E17C0170FF2156
:105900004170817095F8361000296FD00021C17068
:10591000697B0171D5F80E10C0F80510698AA0F8EE
:1059200009104FF4007084F79DFA002138B10098F7
:105930000C2740F80B1F8180C0F8061041810098A9
:105940003844C172017341738173C173017441742E
:105950002949304609688847E07CE8B32749404632
:1059600083F763F8002000E002E006B0BDE8F081B4
:10597000A0680090A089ADF80400A07B8DF8060017
:10598000BF1C8DF80770207C8DF80A00208A012149
:10599000000A8DF80B00287F8DF80C00A88B000AF8
:1059A0008DF80D00A87F8DF80E00E88B000A8DF8A9
:1059B0000F003046FAF71AFF0168049100798DF85C
:1059C000140088F71EF8A17C60F35F118DF81510A4
:1059D000684685F708F801E00AE007E0208B288197
:1059E000A08B07496881608B0880B5E701218EE7AD
:1059F0000449B4E7F8370C0014370C00380B0C00DE
:105A0000FA410C00980B0C00F8B50546D1E90004EA
:105A1000A0F5B850713806D041280DD02846BDE811
:105A2000F84088F7D0BA68688088FFF79FF9083493
:105A300008301ECC1EC01BE00E4A0D211220126839
:105A40009047A8B1607B00900B4E237B627A36684A
:105A5000217A0D20B047A07A217A42080D20FDF767
:105A600001FD0649E07A08700549284682F7DDFF06
:105A70000020F8BDB0390C00F4370C00B13F0C0029
:105A8000E00B0C002DE9F0412B4D01240020EA68C9
:105A900092F8317079060ED492F8301092F838608E
:105AA000C1F38013C6F38006B34204D081F04001F5
:105AB000002482F83010A9694FF0000626255BC14A
:105AC00001000000505708000002000054A0D9A4B3
:105AD0000B785FEA837C18D5C4B923F00200087004
